{
  "_format": "hh-sol-artifact-1",
  "contractName": "AddressStorage",
  "sourceName": "contracts/utils/AddressStorage.sol",
  "abi": [
    {
      "inputs": [
        {
          "internalType": "address",
          "name": "_admin",
          "type": "address"
        }
      ],
      "stateMutability": "nonpayable",
      "type": "constructor"
    },
    {
      "anonymous": false,
      "inputs": [
        {
          "indexed": true,
          "internalType": "bytes32",
          "name": "key",
          "type": "bytes32"
        },
        {
          "indexed": true,
          "internalType": "address",
          "name": "value",
          "type": "address"
        }
      ],
      "name": "AddressUpdated",
      "type": "event"
    },
    {
      "inputs": [
        {
          "internalType": "bytes32",
          "name": "_key",
          "type": "bytes32"
        }
      ],
      "name": "getAddress",
      "outputs": [
        {
          "internalType": "address",
          "name": "",
          "type": "address"
        }
      ],
      "stateMutability": "view",
      "type": "function"
    },
    {
      "inputs": [
        {
          "internalType": "bytes32",
          "name": "_key",
          "type": "bytes32"
        },
        {
          "internalType": "address",
          "name": "_value",
          "type": "address"
        }
      ],
      "name": "setAddress",
      "outputs": [],
      "stateMutability": "nonpayable",
      "type": "function"
    }
  ],
  "bytecode": "0x6080346100bb57601f6102cf38819003918201601f19168301916001600160401b038311848410176100c0578084926020946040528339810103126100bb57516001600160a01b038116908190036100bb577fdf8b4c520ffe197c5343c6f5aec59570151ef9a492f2c624fd45ddde6135ec4260009081526020527f5cbfc8ee58ca47855df7bcf648dd304ddb6b932f9b87878bdf6318d7ec7ee5b780546001600160a01b03191690911790556040516101f890816100d78239f35b600080fd5b634e487b7160e01b600052604160045260246000fdfe60806040818152600436101561001457600080fd5b600091823560e01c90816321f8a72114610183575063ca446dd91461003857600080fd5b3461017f578060031936011261017f576004356024359173ffffffffffffffffffffffffffffffffffffffff80841680940361017b577fdf8b4c520ffe197c5343c6f5aec59570151ef9a492f2c624fd45ddde6135ec42855284602052818520541633036100f857818452836020528320827fffffffffffffffffffffffff00000000000000000000000000000000000000008254161790557f324ba9655e72cb8d5f0b9c49823db98efb875d4d05fe0824e62b305d16cd430a8380a380f35b608490517f08c379a000000000000000000000000000000000000000000000000000000000815260206004820152603160248201527f4164647265737353746f726167653a204f6e6c792061646d696e2063616e206360448201527f616c6c20746869732066756e6374696f6e0000000000000000000000000000006064820152fd5b8480fd5b5080fd5b919050346101be5760203660031901126101be576004358352602083815292205473ffffffffffffffffffffffffffffffffffffffff168152f35b8280fdfea2646970667358221220bedab80719a1f7bfe77db0941efa7020905dd597136c28b1eda27b18590a594164736f6c63430008110033",
  "linkReferences": {},
  "deployedLinkReferences": {}
}