{
  "_format": "hh-sol-artifact-1",
  "contractName": "Vault",
  "sourceName": "contracts/utils/Vault.sol",
  "abi": [
    {
      "inputs": [
        {
          "internalType": "address",
          "name": "_admin",
          "type": "address"
        }
      ],
      "stateMutability": "nonpayable",
      "type": "constructor"
    },
    {
      "anonymous": false,
      "inputs": [
        {
          "indexed": true,
          "internalType": "address",
          "name": "previousOwner",
          "type": "address"
        },
        {
          "indexed": true,
          "internalType": "address",
          "name": "newOwner",
          "type": "address"
        }
      ],
      "name": "OwnershipTransferred",
      "type": "event"
    },
    {
      "inputs": [],
      "name": "owner",
      "outputs": [
        {
          "internalType": "address",
          "name": "",
          "type": "address"
        }
      ],
      "stateMutability": "view",
      "type": "function"
    },
    {
      "inputs": [],
      "name": "renounceOwnership",
      "outputs": [],
      "stateMutability": "nonpayable",
      "type": "function"
    },
    {
      "inputs": [
        {
          "internalType": "address",
          "name": "newOwner",
          "type": "address"
        }
      ],
      "name": "transferOwnership",
      "outputs": [],
      "stateMutability": "nonpayable",
      "type": "function"
    },
    {
      "inputs": [
        {
          "internalType": "address",
          "name": "_tokenAddress",
          "type": "address"
        },
        {
          "internalType": "uint256",
          "name": "amount",
          "type": "uint256"
        }
      ],
      "name": "withdraw",
      "outputs": [],
      "stateMutability": "nonpayable",
      "type": "function"
    }
  ],
  "bytecode": "0x60803461007057601f6105f938819003918201601f19168301916001600160401b038311848410176100755780849260209460405283398101031261007057516001600160a01b0381168103610070576100619061005c3361008b565b61008b565b60405161052690816100d38239f35b600080fd5b634e487b7160e01b600052604160045260246000fd5b600080546001600160a01b039283166001600160a01b03198216811783559216907f8be0079c531659141344cd1fd0a4f28419497f9722a3daafe3b4186f6b6457e09080a356fe60406080815260048036101561001457600080fd5b600090813560e01c8063715018a6146103415780638da5cb5b1461031b578063f2fde38b1461022f5763f3fef3a31461004c57600080fd5b3461022b578260031936011261022b576100646103aa565b61006c6103c5565b6001600160a01b038091169083541690845194602091828701907fa9059cbb000000000000000000000000000000000000000000000000000000008252602494858901528435604489015260448852608088019167ffffffffffffffff988084108a8511176102075760c081018481108b8211176101f55785528584527f5361666545524332303a206c6f772d6c6576656c2063616c6c206661696c656460a082015251889182919082855af13d15610219573d9189831161020757845192601f19603f81601f840116011684019a848c10908c11176101f55785969798999a61015f96528352828a883d92013e61041d565b80518061016a578680f35b818491810103126101f1578201518015908115036101f15761018c5780808680f35b5162461bcd60e51b815292830152602a908201527f5361666545524332303a204552433230206f7065726174696f6e20646964206e60448201527f6f742073756363656564000000000000000000000000000000000000000000006064820152608490fd5b8580fd5b878a60418b634e487b7160e01b835252fd5b868960418a634e487b7160e01b835252fd5b61015f9394959697985060609161041d565b5080fd5b508290346103175760203660031901126103175761024b6103aa565b906102546103c5565b6001600160a01b038092169283156102ae57505082548273ffffffffffffffffffffffffffffffffffffffff198216178455167f8be0079c531659141344cd1fd0a4f28419497f9722a3daafe3b4186f6b6457e08380a380f35b906020608492519162461bcd60e51b8352820152602660248201527f4f776e61626c653a206e6577206f776e657220697320746865207a65726f206160448201527f64647265737300000000000000000000000000000000000000000000000000006064820152fd5b8280fd5b82843461022b578160031936011261022b576001600160a01b0360209254169051908152f35b82346103a757806003193601126103a75761035a6103c5565b806001600160a01b03815473ffffffffffffffffffffffffffffffffffffffff1981168355167f8be0079c531659141344cd1fd0a4f28419497f9722a3daafe3b4186f6b6457e08280a380f35b80fd5b600435906001600160a01b03821682036103c057565b600080fd5b6001600160a01b036000541633036103d957565b606460405162461bcd60e51b815260206004820152602060248201527f4f776e61626c653a2063616c6c6572206973206e6f7420746865206f776e65726044820152fd5b9192901561047e5750815115610431575090565b3b1561043a5790565b606460405162461bcd60e51b815260206004820152601d60248201527f416464726573733a2063616c6c20746f206e6f6e2d636f6e74726163740000006044820152fd5b8251909150156104915750805190602001fd5b6040519062461bcd60e51b82528160208060048301528251908160248401526000935b8285106104d7575050604492506000838284010152601f80199101168101030190fd5b84810182015186860160440152938101938593506104b456fea26469706673582212203fa277b1ec126bd9e6a4c36c5de7874abf1028f67cbe799ecc99e2a04c8ef88f64736f6c63430008110033",
  "linkReferences": {},
  "deployedLinkReferences": {}
}