{"contracts/mock/MockPriceFeed.sol":{"MockPriceFeed":{"abi":[{"inputs":[{"internalType":"int256","name":"_price","type":"int256"},{"internalType":"uint8","name":"__decimals","type":"uint8"}],"stateMutability":"nonpayable","type":"constructor"},{"inputs":[],"name":"decimals","outputs":[{"internalType":"uint8","name":"","type":"uint8"}],"stateMutability":"view","type":"function"},{"inputs":[],"name":"latestAnswer","outputs":[{"internalType":"int256","name":"","type":"int256"}],"stateMutability":"view","type":"function"},{"inputs":[],"name":"latestTimestamp","outputs":[{"internalType":"uint256","name":"","type":"uint256"}],"stateMutability":"view","type":"function"},{"inputs":[],"name":"price","outputs":[{"internalType":"int256","name":"","type":"int256"}],"stateMutability":"view","type":"function"},{"inputs":[{"internalType":"int256","name":"_price","type":"int256"},{"internalType":"uint8","name":"__decimals","type":"uint8"}],"name":"setPrice","outputs":[],"stateMutability":"nonpayable","type":"function"}],"evm":{"bytecode":{"linkReferences":{},"object":"60803461006d57601f61019838819003918201601f19168301916001600160401b0383118484101761007257808492604094855283398101031261006d57602081519101519060ff821680920361006d5760005560ff19600154161760015560405161010f90816100898239f35b600080fd5b634e487b7160e01b600052604160045260246000fdfe6080806040526004361015601257600080fd5b600090813560e01c908163313ce5671460bc5750806350d25bcd1460885780638205bf6a1460a3578063a035b1fe1460885763d7de9c4114605257600080fd5b34608557604036600319011260855760243560ff8116809103608157600435825560ff19600154161760015580f35b5080fd5b80fd5b50346085578060031936011260855760209054604051908152f35b5034608557806003193601126085576020604051428152f35b9050346081578160031936011260815760209060ff600154168152f3fea264697066735822122091def6473d946fafc45a9961814565627ce4da7b4313938946768083d919d8db64736f6c63430008110033","opcodes":"PUSH1 0x80 CALLVALUE PUSH2 0x6D JUMPI PUSH1 0x1F PUSH2 0x198 CODESIZE DUP2 SWAP1 SUB SWAP2 DUP3 ADD PUSH1 0x1F NOT AND DUP4 ADD SWAP2 PUSH1 0x1 PUSH1 0x1 PUSH1 0x40 SHL SUB DUP4 GT DUP5 DUP5 LT OR PUSH2 0x72 JUMPI DUP1 DUP5 SWAP3 PUSH1 0x40 SWAP5 DUP6 MSTORE DUP4 CODECOPY DUP2 ADD SUB SLT PUSH2 0x6D JUMPI PUSH1 0x20 DUP2 MLOAD SWAP2 ADD MLOAD SWAP1 PUSH1 0xFF DUP3 AND DUP1 SWAP3 SUB PUSH2 0x6D JUMPI PUSH1 0x0 SSTORE PUSH1 0xFF NOT PUSH1 0x1 SLOAD AND OR PUSH1 0x1 SSTORE PUSH1 0x40 MLOAD PUSH2 0x10F SWAP1 DUP2 PUSH2 0x89 DUP3 CODECOPY RETURN JUMPDEST PUSH1 0x0 DUP1 REVERT JUMPDEST PUSH4 0x4E487B71 PUSH1 0xE0 SHL PUSH1 0x0 MSTORE PUSH1 0x41 PUSH1 0x4 MSTORE PUSH1 0x24 PUSH1 0x0 REVERT INVALID PUSH1 0x80 DUP1 PUSH1 0x40 MSTORE PUSH1 0x4 CALLDATASIZE LT ISZERO PUSH1 0x12 JUMPI PUSH1 0x0 DUP1 REVERT JUMPDEST PUSH1 0x0 SWAP1 DUP2 CALLDATALOAD PUSH1 0xE0 SHR SWAP1 DUP2 PUSH4 0x313CE567 EQ PUSH1 0xBC JUMPI POP DUP1 PUSH4 0x50D25BCD EQ PUSH1 0x88 JUMPI DUP1 PUSH4 0x8205BF6A EQ PUSH1 0xA3 JUMPI DUP1 PUSH4 0xA035B1FE EQ PUSH1 0x88 JUMPI PUSH4 0xD7DE9C41 EQ PUSH1 0x52 JUMPI PUSH1 0x0 DUP1 REVERT JUMPDEST CALLVALUE PUSH1 0x85 JUMPI PUSH1 0x40 CALLDATASIZE PUSH1 0x3 NOT ADD SLT PUSH1 0x85 JUMPI PUSH1 0x24 CALLDATALOAD PUSH1 0xFF DUP2 AND DUP1 SWAP2 SUB PUSH1 0x81 JUMPI PUSH1 0x4 CALLDATALOAD DUP3 SSTORE PUSH1 0xFF NOT PUSH1 0x1 SLOAD AND OR PUSH1 0x1 SSTORE DUP1 RETURN JUMPDEST POP DUP1 REVERT JUMPDEST DUP1 REVERT JUMPDEST POP CALLVALUE PUSH1 0x85 JUMPI DUP1 PUSH1 0x3 NOT CALLDATASIZE ADD SLT PUSH1 0x85 JUMPI PUSH1 0x20 SWAP1 SLOAD PUSH1 0x40 MLOAD SWAP1 DUP2 MSTORE RETURN JUMPDEST POP CALLVALUE PUSH1 0x85 JUMPI DUP1 PUSH1 0x3 NOT CALLDATASIZE ADD SLT PUSH1 0x85 JUMPI PUSH1 0x20 PUSH1 0x40 MLOAD TIMESTAMP DUP2 MSTORE RETURN JUMPDEST SWAP1 POP CALLVALUE PUSH1 0x81 JUMPI DUP2 PUSH1 0x3 NOT CALLDATASIZE ADD SLT PUSH1 0x81 JUMPI PUSH1 0x20 SWAP1 PUSH1 0xFF PUSH1 0x1 SLOAD AND DUP2 MSTORE RETURN INVALID LOG2 PUSH5 0x6970667358 0x22 SLT KECCAK256 SWAP2 0xDE 0xF6 SELFBALANCE RETURNDATASIZE SWAP5 PUSH16 0xAFC45A9961814565627CE4DA7B431393 DUP10 CHAINID PUSH23 0x8083D919D8DB64736F6C63430008110033000000000000 "},"methodIdentifiers":{"decimals()":"313ce567","latestAnswer()":"50d25bcd","latestTimestamp()":"8205bf6a","price()":"a035b1fe","setPrice(int256,uint8)":"d7de9c41"}},"storageLayout":{"storage":[{"astId":24,"contract":"contracts/mock/MockPriceFeed.sol:MockPriceFeed","label":"price","offset":0,"slot":"0","type":"t_int256"},{"astId":26,"contract":"contracts/mock/MockPriceFeed.sol:MockPriceFeed","label":"_decimals","offset":0,"slot":"1","type":"t_uint8"}],"types":{"t_int256":{"encoding":"inplace","label":"int256","numberOfBytes":"32"},"t_uint8":{"encoding":"inplace","label":"uint8","numberOfBytes":"1"}}}}}}