{
  "_format": "hh-sol-artifact-1",
  "contractName": "AddressManager",
  "sourceName": "contracts/utils/AddressManager.sol",
  "abi": [
    {
      "inputs": [
        {
          "internalType": "address",
          "name": "_admin",
          "type": "address"
        }
      ],
      "stateMutability": "nonpayable",
      "type": "constructor"
    },
    {
      "anonymous": false,
      "inputs": [
        {
          "indexed": true,
          "internalType": "bytes32",
          "name": "key",
          "type": "bytes32"
        },
        {
          "indexed": true,
          "internalType": "address",
          "name": "value",
          "type": "address"
        }
      ],
      "name": "AddressUpdated",
      "type": "event"
    },
    {
      "anonymous": false,
      "inputs": [
        {
          "indexed": true,
          "internalType": "address",
          "name": "previousOwner",
          "type": "address"
        },
        {
          "indexed": true,
          "internalType": "address",
          "name": "newOwner",
          "type": "address"
        }
      ],
      "name": "OwnershipTransferred",
      "type": "event"
    },
    {
      "inputs": [
        {
          "internalType": "bytes32",
          "name": "_key",
          "type": "bytes32"
        }
      ],
      "name": "getAddress",
      "outputs": [
        {
          "internalType": "address",
          "name": "",
          "type": "address"
        }
      ],
      "stateMutability": "view",
      "type": "function"
    },
    {
      "inputs": [],
      "name": "owner",
      "outputs": [
        {
          "internalType": "address",
          "name": "",
          "type": "address"
        }
      ],
      "stateMutability": "view",
      "type": "function"
    },
    {
      "inputs": [],
      "name": "renounceOwnership",
      "outputs": [],
      "stateMutability": "nonpayable",
      "type": "function"
    },
    {
      "inputs": [
        {
          "internalType": "bytes32",
          "name": "_key",
          "type": "bytes32"
        },
        {
          "internalType": "address",
          "name": "_value",
          "type": "address"
        }
      ],
      "name": "setAddress",
      "outputs": [],
      "stateMutability": "nonpayable",
      "type": "function"
    },
    {
      "inputs": [
        {
          "internalType": "address",
          "name": "newOwner",
          "type": "address"
        }
      ],
      "name": "transferOwnership",
      "outputs": [],
      "stateMutability": "nonpayable",
      "type": "function"
    }
  ],
  "bytecode": "0x60803461007057601f6103e938819003918201601f19168301916001600160401b038311848410176100755780849260209460405283398101031261007057516001600160a01b0381168103610070576100619061005c3361008b565b61008b565b60405161031690816100d38239f35b600080fd5b634e487b7160e01b600052604160045260246000fd5b600080546001600160a01b039283166001600160a01b03198216811783559216907f8be0079c531659141344cd1fd0a4f28419497f9722a3daafe3b4186f6b6457e09080a356fe60806040818152600436101561001457600080fd5b600091823560e01c90816321f8a7211461025457508063715018a6146101eb5780638da5cb5b146101c6578063ca446dd9146101475763f2fde38b1461005957600080fd5b3461014357602036600319011261014357600435906001600160a01b039081831680930361013f57610089610288565b82156100d6575082548273ffffffffffffffffffffffffffffffffffffffff198216178455167f8be0079c531659141344cd1fd0a4f28419497f9722a3daafe3b4186f6b6457e08380a380f35b6084905162461bcd60e51b815260206004820152602660248201527f4f776e61626c653a206e6577206f776e657220697320746865207a65726f206160448201527f64647265737300000000000000000000000000000000000000000000000000006064820152fd5b8380fd5b5080fd5b5034610143578060031936011261014357600435602435916001600160a01b03831680930361013f57610178610288565b818452600160205283208273ffffffffffffffffffffffffffffffffffffffff198254161790557f324ba9655e72cb8d5f0b9c49823db98efb875d4d05fe0824e62b305d16cd430a8380a380f35b50346101435781600319360112610143576001600160a01b0360209254169051908152f35b8234610251578060031936011261025157610204610288565b806001600160a01b03815473ffffffffffffffffffffffffffffffffffffffff1981168355167f8be0079c531659141344cd1fd0a4f28419497f9722a3daafe3b4186f6b6457e08280a380f35b80fd5b91905034610284576020366003190112610284576001600160a01b03906020936004358152600185522054168152f35b8280fd5b6001600160a01b0360005416330361029c57565b606460405162461bcd60e51b815260206004820152602060248201527f4f776e61626c653a2063616c6c6572206973206e6f7420746865206f776e65726044820152fdfea2646970667358221220515fa945dbfe09471ab88d7ff6aaa8c4c512810abc2b9423dbb86c48b53263ba64736f6c63430008110033",
  "linkReferences": {},
  "deployedLinkReferences": {}
}