{
  "_format": "hh-sol-artifact-1",
  "contractName": "SyntheXStorage",
  "sourceName": "contracts/SyntheXStorage.sol",
  "abi": [
    {
      "inputs": [],
      "name": "ADMIN_ROLE",
      "outputs": [
        {
          "internalType": "bytes32",
          "name": "",
          "type": "bytes32"
        }
      ],
      "stateMutability": "view",
      "type": "function"
    },
    {
      "inputs": [],
      "name": "PAUSE_GUARDIAN_ROLE",
      "outputs": [
        {
          "internalType": "bytes32",
          "name": "",
          "type": "bytes32"
        }
      ],
      "stateMutability": "view",
      "type": "function"
    },
    {
      "inputs": [],
      "name": "POOL_MANAGER_ROLE",
      "outputs": [
        {
          "internalType": "bytes32",
          "name": "",
          "type": "bytes32"
        }
      ],
      "stateMutability": "view",
      "type": "function"
    },
    {
      "inputs": [
        {
          "internalType": "address",
          "name": "",
          "type": "address"
        },
        {
          "internalType": "address",
          "name": "",
          "type": "address"
        }
      ],
      "name": "accountCollateralBalance",
      "outputs": [
        {
          "internalType": "uint256",
          "name": "",
          "type": "uint256"
        }
      ],
      "stateMutability": "view",
      "type": "function"
    },
    {
      "inputs": [
        {
          "internalType": "address",
          "name": "",
          "type": "address"
        },
        {
          "internalType": "uint256",
          "name": "",
          "type": "uint256"
        }
      ],
      "name": "accountCollaterals",
      "outputs": [
        {
          "internalType": "address",
          "name": "",
          "type": "address"
        }
      ],
      "stateMutability": "view",
      "type": "function"
    },
    {
      "inputs": [
        {
          "internalType": "address",
          "name": "",
          "type": "address"
        },
        {
          "internalType": "uint256",
          "name": "",
          "type": "uint256"
        }
      ],
      "name": "accountPools",
      "outputs": [
        {
          "internalType": "address",
          "name": "",
          "type": "address"
        }
      ],
      "stateMutability": "view",
      "type": "function"
    },
    {
      "inputs": [],
      "name": "addressManager",
      "outputs": [
        {
          "internalType": "address",
          "name": "",
          "type": "address"
        }
      ],
      "stateMutability": "view",
      "type": "function"
    },
    {
      "inputs": [
        {
          "internalType": "address",
          "name": "",
          "type": "address"
        }
      ],
      "name": "collaterals",
      "outputs": [
        {
          "internalType": "bool",
          "name": "isEnabled",
          "type": "bool"
        },
        {
          "internalType": "uint256",
          "name": "volatilityRatio",
          "type": "uint256"
        }
      ],
      "stateMutability": "view",
      "type": "function"
    },
    {
      "inputs": [
        {
          "internalType": "uint256",
          "name": "",
          "type": "uint256"
        }
      ],
      "name": "collateralsList",
      "outputs": [
        {
          "internalType": "address",
          "name": "",
          "type": "address"
        }
      ],
      "stateMutability": "view",
      "type": "function"
    },
    {
      "inputs": [],
      "name": "compInitialIndex",
      "outputs": [
        {
          "internalType": "uint256",
          "name": "",
          "type": "uint256"
        }
      ],
      "stateMutability": "view",
      "type": "function"
    },
    {
      "inputs": [],
      "name": "exchangeFee",
      "outputs": [
        {
          "internalType": "uint256",
          "name": "",
          "type": "uint256"
        }
      ],
      "stateMutability": "view",
      "type": "function"
    },
    {
      "inputs": [],
      "name": "exchangeFeeMantissa",
      "outputs": [
        {
          "internalType": "uint256",
          "name": "",
          "type": "uint256"
        }
      ],
      "stateMutability": "view",
      "type": "function"
    },
    {
      "inputs": [],
      "name": "oracle",
      "outputs": [
        {
          "internalType": "contract PriceOracle",
          "name": "",
          "type": "address"
        }
      ],
      "stateMutability": "view",
      "type": "function"
    },
    {
      "inputs": [],
      "name": "safeCRatio",
      "outputs": [
        {
          "internalType": "uint256",
          "name": "",
          "type": "uint256"
        }
      ],
      "stateMutability": "view",
      "type": "function"
    },
    {
      "inputs": [],
      "name": "syn",
      "outputs": [
        {
          "internalType": "contract SyntheXToken",
          "name": "",
          "type": "address"
        }
      ],
      "stateMutability": "view",
      "type": "function"
    },
    {
      "inputs": [
        {
          "internalType": "address",
          "name": "",
          "type": "address"
        }
      ],
      "name": "synAccrued",
      "outputs": [
        {
          "internalType": "uint256",
          "name": "",
          "type": "uint256"
        }
      ],
      "stateMutability": "view",
      "type": "function"
    },
    {
      "inputs": [
        {
          "internalType": "address",
          "name": "",
          "type": "address"
        },
        {
          "internalType": "address",
          "name": "",
          "type": "address"
        }
      ],
      "name": "synBorrowerIndex",
      "outputs": [
        {
          "internalType": "uint256",
          "name": "",
          "type": "uint256"
        }
      ],
      "stateMutability": "view",
      "type": "function"
    },
    {
      "inputs": [
        {
          "internalType": "address",
          "name": "",
          "type": "address"
        }
      ],
      "name": "synRewardSpeeds",
      "outputs": [
        {
          "internalType": "uint256",
          "name": "",
          "type": "uint256"
        }
      ],
      "stateMutability": "view",
      "type": "function"
    },
    {
      "inputs": [
        {
          "internalType": "address",
          "name": "",
          "type": "address"
        }
      ],
      "name": "synRewardState",
      "outputs": [
        {
          "internalType": "uint224",
          "name": "index",
          "type": "uint224"
        },
        {
          "internalType": "uint32",
          "name": "timestamp",
          "type": "uint32"
        }
      ],
      "stateMutability": "view",
      "type": "function"
    },
    {
      "inputs": [
        {
          "internalType": "address",
          "name": "",
          "type": "address"
        }
      ],
      "name": "tradingPools",
      "outputs": [
        {
          "internalType": "bool",
          "name": "isEnabled",
          "type": "bool"
        },
        {
          "internalType": "uint256",
          "name": "volatilityRatio",
          "type": "uint256"
        }
      ],
      "stateMutability": "view",
      "type": "function"
    },
    {
      "inputs": [
        {
          "internalType": "uint256",
          "name": "",
          "type": "uint256"
        }
      ],
      "name": "tradingPoolsList",
      "outputs": [
        {
          "internalType": "address",
          "name": "",
          "type": "address"
        }
      ],
      "stateMutability": "view",
      "type": "function"
    }
  ],
  "bytecode": "0x60808060405234610016576106bd908161001c8239f35b600080fdfe604060808152600436101561001357600080fd5b600090813560e01c80631b57d1ac146105c65780632ecd3be4146105a85780633ab76e9f146105815780633bf0a5491461055c5780634509e6ae1461052257806356d73568146104e85780636aa3f86c146104b257806375b238fc1461047857806378c5266b1461041d5780637dc0d1d0146103f6578063a7f0e231146103cd578063b140bf03146103af578063b35818981461035b578063b3593f2014610339578063be281f67146102f1578063c29611f7146102a9578063caca550f14610250578063cd82b76e146101f4578063db46f70214610197578063eeb97d3b1461013f5763f0a4d9e21461010657600080fd5b3461013b57602036600319011261013b57806020926001600160a01b0361012b61060f565b168152600e845220549051908152f35b5080fd5b503461013b57602036600319011261013b5780916001600160a01b0361016361060f565b168152600860205220610193600160ff835416920154925192839283602090939291936040810194151581520152565b0390f35b503461013b57602036600319011261013b57600435600a548110156101f0576001600160a01b0390600a602094527fc65a7bb8d6351c1cf70c95a316cc6a92839c986682d98bc35f958f4883f9d2a80154169051908152f35b8280fd5b503461013b57602036600319011261013b5780916001600160a01b0361021861060f565b168152600c60205220548151907bffffffffffffffffffffffffffffffffffffffffffffffffffffffff8116825260e01c6020820152f35b503461013b57602036600319011261013b576004356009548110156101f0576001600160a01b03906009602094527f6e1540171b6c0c960b71a7020d9f60077f6af931a8bbf590da0223dacf75c7af0154169051908152f35b503461013b578060031936011261013b57806020926102c661060f565b6102ce61062a565b6001600160a01b039182168352600d865283832091168252845220549051908152f35b503461013b578060031936011261013b578060209261030e61060f565b61031661062a565b6001600160a01b0391821683526006865283832091168252845220549051908152f35b503461013b578160031936011261013b5760209051670de0b6b3a76400008152f35b503461013b57602036600319011261013b5780916001600160a01b0361037f61060f565b168152600760205220610193600160ff835416920154925192839283602090939291936040810194151581520152565b503461013b578160031936011261013b576020906002549051908152f35b503461013b578160031936011261013b57602090516ec097ce7bc90715b34b9f10000000008152f35b503461013b578160031936011261013b576020906001600160a01b03600354169051908152f35b503461013b578060031936011261013b5761043661060f565b602435926001600160a01b0380921681526004602052828120908154851015610475575060209361046691610640565b92905490519260031b1c168152f35b80fd5b503461013b578160031936011261013b57602090517fa49807205ce4d355092ef5a8a18f56e8913cf4a201fbe287825b095693c217758152f35b503461013b57602036600319011261013b57806020926001600160a01b036104d861060f565b168152600b845220549051908152f35b503461013b578160031936011261013b57602090517f6077685936c8169d09204a1d97db12e41713588c38e1d29a61867d3dcee98aff8152f35b503461013b578160031936011261013b57602090517f3bb181d5689164b4d72d34b056228c95b51f3fb0f6dbdb7f9ddba5f91c6821dd8152f35b503461013b578160031936011261013b576001600160a01b0360209254169051908152f35b503461013b578160031936011261013b576020906001600160a01b03600f54169051908152f35b503461013b578160031936011261013b576020906001549051908152f35b503461013b578060031936011261013b576105df61060f565b602435926001600160a01b0380921681526005602052828120908154851015610475575060209361046691610640565b600435906001600160a01b038216820361062557565b600080fd5b602435906001600160a01b038216820361062557565b80548210156106585760005260206000200190600090565b7f4e487b7100000000000000000000000000000000000000000000000000000000600052603260045260246000fdfea26469706673582212203105ddba82d4b03b3ba5e098ad4e3cb775f25ba3afc66106fa5f0d4c3d5467bb64736f6c63430008110033",
  "linkReferences": {},
  "deployedLinkReferences": {}
}