{
  "_format": "hh-sol-artifact-1",
  "contractName": "SyntheXStorage",
  "sourceName": "contracts/SyntheXStorage.sol",
  "abi": [
    {
      "inputs": [
        {
          "internalType": "address",
          "name": "",
          "type": "address"
        },
        {
          "internalType": "address",
          "name": "",
          "type": "address"
        }
      ],
      "name": "accountCollateralBalance",
      "outputs": [
        {
          "internalType": "uint256",
          "name": "",
          "type": "uint256"
        }
      ],
      "stateMutability": "view",
      "type": "function"
    },
    {
      "inputs": [
        {
          "internalType": "address",
          "name": "",
          "type": "address"
        },
        {
          "internalType": "uint256",
          "name": "",
          "type": "uint256"
        }
      ],
      "name": "accountCollaterals",
      "outputs": [
        {
          "internalType": "address",
          "name": "",
          "type": "address"
        }
      ],
      "stateMutability": "view",
      "type": "function"
    },
    {
      "inputs": [
        {
          "internalType": "address",
          "name": "",
          "type": "address"
        },
        {
          "internalType": "uint256",
          "name": "",
          "type": "uint256"
        }
      ],
      "name": "accountPools",
      "outputs": [
        {
          "internalType": "address",
          "name": "",
          "type": "address"
        }
      ],
      "stateMutability": "view",
      "type": "function"
    },
    {
      "inputs": [],
      "name": "addressStorage",
      "outputs": [
        {
          "internalType": "contract AddressStorage",
          "name": "",
          "type": "address"
        }
      ],
      "stateMutability": "view",
      "type": "function"
    },
    {
      "inputs": [
        {
          "internalType": "address",
          "name": "",
          "type": "address"
        }
      ],
      "name": "collaterals",
      "outputs": [
        {
          "internalType": "bool",
          "name": "isEnabled",
          "type": "bool"
        },
        {
          "internalType": "uint256",
          "name": "volatilityRatio",
          "type": "uint256"
        }
      ],
      "stateMutability": "view",
      "type": "function"
    },
    {
      "inputs": [],
      "name": "compInitialIndex",
      "outputs": [
        {
          "internalType": "uint256",
          "name": "",
          "type": "uint256"
        }
      ],
      "stateMutability": "view",
      "type": "function"
    },
    {
      "inputs": [],
      "name": "safeCRatio",
      "outputs": [
        {
          "internalType": "uint256",
          "name": "",
          "type": "uint256"
        }
      ],
      "stateMutability": "view",
      "type": "function"
    },
    {
      "inputs": [],
      "name": "syn",
      "outputs": [
        {
          "internalType": "contract SyntheXToken",
          "name": "",
          "type": "address"
        }
      ],
      "stateMutability": "view",
      "type": "function"
    },
    {
      "inputs": [
        {
          "internalType": "address",
          "name": "",
          "type": "address"
        }
      ],
      "name": "synAccrued",
      "outputs": [
        {
          "internalType": "uint256",
          "name": "",
          "type": "uint256"
        }
      ],
      "stateMutability": "view",
      "type": "function"
    },
    {
      "inputs": [
        {
          "internalType": "address",
          "name": "",
          "type": "address"
        },
        {
          "internalType": "address",
          "name": "",
          "type": "address"
        }
      ],
      "name": "synBorrowerIndex",
      "outputs": [
        {
          "internalType": "uint256",
          "name": "",
          "type": "uint256"
        }
      ],
      "stateMutability": "view",
      "type": "function"
    },
    {
      "inputs": [
        {
          "internalType": "address",
          "name": "",
          "type": "address"
        }
      ],
      "name": "synRewardSpeeds",
      "outputs": [
        {
          "internalType": "uint256",
          "name": "",
          "type": "uint256"
        }
      ],
      "stateMutability": "view",
      "type": "function"
    },
    {
      "inputs": [
        {
          "internalType": "address",
          "name": "",
          "type": "address"
        }
      ],
      "name": "synRewardState",
      "outputs": [
        {
          "internalType": "uint224",
          "name": "index",
          "type": "uint224"
        },
        {
          "internalType": "uint32",
          "name": "timestamp",
          "type": "uint32"
        }
      ],
      "stateMutability": "view",
      "type": "function"
    },
    {
      "inputs": [
        {
          "internalType": "address",
          "name": "",
          "type": "address"
        }
      ],
      "name": "tradingPools",
      "outputs": [
        {
          "internalType": "bool",
          "name": "isEnabled",
          "type": "bool"
        },
        {
          "internalType": "uint256",
          "name": "volatilityRatio",
          "type": "uint256"
        }
      ],
      "stateMutability": "view",
      "type": "function"
    }
  ],
  "bytecode": "0x608080604052346100165761049e908161001c8239f35b600080fdfe604060808152600436101561001357600080fd5b600090813560e01c80631b57d1ac146103985780633bf0a54914610373578063612e14881461034c5780636aa3f86c1461031657806378c5266b146102bb578063a7f0e2311461029d578063b140bf031461027f578063b35818981461022b578063be281f67146101e3578063c29611f71461019b578063cd82b76e1461013f578063eeb97d3b146100e75763f0a4d9e2146100ae57600080fd5b346100e35760203660031901126100e357806020926001600160a01b036100d36103f0565b168152600b845220549051908152f35b5080fd5b50346100e35760203660031901126100e35780916001600160a01b0361010b6103f0565b16815260076020522061013b600160ff835416920154925192839283602090939291936040810194151581520152565b0390f35b50346100e35760203660031901126100e35780916001600160a01b036101636103f0565b168152600960205220548151907bffffffffffffffffffffffffffffffffffffffffffffffffffffffff8116825260e01c6020820152f35b50346100e357806003193601126100e357806020926101b86103f0565b6101c061040b565b6001600160a01b039182168352600a865283832091168252845220549051908152f35b50346100e357806003193601126100e357806020926102006103f0565b61020861040b565b6001600160a01b0391821683526005865283832091168252845220549051908152f35b50346100e35760203660031901126100e35780916001600160a01b0361024f6103f0565b16815260066020522061013b600160ff835416920154925192839283602090939291936040810194151581520152565b50346100e357816003193601126100e3576020906001549051908152f35b50346100e357816003193601126100e3576020906002549051908152f35b50346100e357806003193601126100e3576102d46103f0565b602435926001600160a01b0380921681526003602052828120908154851015610313575060209361030491610421565b90549060031b1c169051908152f35b80fd5b50346100e35760203660031901126100e357806020926001600160a01b0361033c6103f0565b1681526008845220549051908152f35b50346100e357816003193601126100e3576020906001600160a01b03600c54169051908152f35b50346100e357816003193601126100e3576001600160a01b0360209254169051908152f35b50346100e357806003193601126100e3576103b16103f0565b602435926001600160a01b038092168152600460205282812090815485101561031357506020936103e191610421565b92905490519260031b1c168152f35b600435906001600160a01b038216820361040657565b600080fd5b602435906001600160a01b038216820361040657565b80548210156104395760005260206000200190600090565b7f4e487b7100000000000000000000000000000000000000000000000000000000600052603260045260246000fdfea2646970667358221220481c047fca2493feac46ef474b3a5f6682f3b291dc4bd7c9988972f654571f2c64736f6c63430008110033",
  "linkReferences": {},
  "deployedLinkReferences": {}
}