{
  "_format": "hh-sol-artifact-1",
  "contractName": "SyntheXPool",
  "sourceName": "contracts/SyntheXPool.sol",
  "abi": [
    {
      "anonymous": false,
      "inputs": [
        {
          "indexed": true,
          "internalType": "address",
          "name": "owner",
          "type": "address"
        },
        {
          "indexed": true,
          "internalType": "address",
          "name": "spender",
          "type": "address"
        },
        {
          "indexed": false,
          "internalType": "uint256",
          "name": "value",
          "type": "uint256"
        }
      ],
      "name": "Approval",
      "type": "event"
    },
    {
      "anonymous": false,
      "inputs": [
        {
          "indexed": false,
          "internalType": "uint256",
          "name": "fee",
          "type": "uint256"
        }
      ],
      "name": "FeeUpdated",
      "type": "event"
    },
    {
      "anonymous": false,
      "inputs": [
        {
          "indexed": false,
          "internalType": "uint8",
          "name": "version",
          "type": "uint8"
        }
      ],
      "name": "Initialized",
      "type": "event"
    },
    {
      "anonymous": false,
      "inputs": [
        {
          "indexed": true,
          "internalType": "address",
          "name": "synth",
          "type": "address"
        }
      ],
      "name": "SynthDisabled",
      "type": "event"
    },
    {
      "anonymous": false,
      "inputs": [
        {
          "indexed": true,
          "internalType": "address",
          "name": "synth",
          "type": "address"
        }
      ],
      "name": "SynthEnabled",
      "type": "event"
    },
    {
      "anonymous": false,
      "inputs": [
        {
          "indexed": true,
          "internalType": "address",
          "name": "synth",
          "type": "address"
        }
      ],
      "name": "SynthRemoved",
      "type": "event"
    },
    {
      "anonymous": false,
      "inputs": [
        {
          "indexed": true,
          "internalType": "address",
          "name": "from",
          "type": "address"
        },
        {
          "indexed": true,
          "internalType": "address",
          "name": "to",
          "type": "address"
        },
        {
          "indexed": false,
          "internalType": "uint256",
          "name": "value",
          "type": "uint256"
        }
      ],
      "name": "Transfer",
      "type": "event"
    },
    {
      "inputs": [
        {
          "internalType": "address",
          "name": "owner",
          "type": "address"
        },
        {
          "internalType": "address",
          "name": "spender",
          "type": "address"
        }
      ],
      "name": "allowance",
      "outputs": [
        {
          "internalType": "uint256",
          "name": "",
          "type": "uint256"
        }
      ],
      "stateMutability": "view",
      "type": "function"
    },
    {
      "inputs": [
        {
          "internalType": "address",
          "name": "spender",
          "type": "address"
        },
        {
          "internalType": "uint256",
          "name": "amount",
          "type": "uint256"
        }
      ],
      "name": "approve",
      "outputs": [
        {
          "internalType": "bool",
          "name": "",
          "type": "bool"
        }
      ],
      "stateMutability": "nonpayable",
      "type": "function"
    },
    {
      "inputs": [
        {
          "internalType": "address",
          "name": "account",
          "type": "address"
        }
      ],
      "name": "balanceOf",
      "outputs": [
        {
          "internalType": "uint256",
          "name": "",
          "type": "uint256"
        }
      ],
      "stateMutability": "view",
      "type": "function"
    },
    {
      "inputs": [
        {
          "internalType": "address",
          "name": "_user",
          "type": "address"
        },
        {
          "internalType": "uint256",
          "name": "_amountUSD",
          "type": "uint256"
        }
      ],
      "name": "burn",
      "outputs": [],
      "stateMutability": "nonpayable",
      "type": "function"
    },
    {
      "inputs": [
        {
          "internalType": "address",
          "name": "_synth",
          "type": "address"
        },
        {
          "internalType": "address",
          "name": "_user",
          "type": "address"
        },
        {
          "internalType": "uint256",
          "name": "_amount",
          "type": "uint256"
        }
      ],
      "name": "burnSynth",
      "outputs": [],
      "stateMutability": "nonpayable",
      "type": "function"
    },
    {
      "inputs": [],
      "name": "decimals",
      "outputs": [
        {
          "internalType": "uint8",
          "name": "",
          "type": "uint8"
        }
      ],
      "stateMutability": "view",
      "type": "function"
    },
    {
      "inputs": [
        {
          "internalType": "address",
          "name": "spender",
          "type": "address"
        },
        {
          "internalType": "uint256",
          "name": "subtractedValue",
          "type": "uint256"
        }
      ],
      "name": "decreaseAllowance",
      "outputs": [
        {
          "internalType": "bool",
          "name": "",
          "type": "bool"
        }
      ],
      "stateMutability": "nonpayable",
      "type": "function"
    },
    {
      "inputs": [
        {
          "internalType": "address",
          "name": "_synth",
          "type": "address"
        }
      ],
      "name": "disableSynth",
      "outputs": [],
      "stateMutability": "nonpayable",
      "type": "function"
    },
    {
      "inputs": [
        {
          "internalType": "address",
          "name": "_synth",
          "type": "address"
        }
      ],
      "name": "enableSynth",
      "outputs": [],
      "stateMutability": "nonpayable",
      "type": "function"
    },
    {
      "inputs": [
        {
          "internalType": "address",
          "name": "_fromSynth",
          "type": "address"
        },
        {
          "internalType": "address",
          "name": "_toSynth",
          "type": "address"
        },
        {
          "internalType": "address",
          "name": "_user",
          "type": "address"
        },
        {
          "internalType": "uint256",
          "name": "_fromAmount",
          "type": "uint256"
        },
        {
          "internalType": "uint256",
          "name": "_toAmount",
          "type": "uint256"
        }
      ],
      "name": "exchange",
      "outputs": [],
      "stateMutability": "nonpayable",
      "type": "function"
    },
    {
      "inputs": [],
      "name": "fee",
      "outputs": [
        {
          "internalType": "uint256",
          "name": "",
          "type": "uint256"
        }
      ],
      "stateMutability": "view",
      "type": "function"
    },
    {
      "inputs": [],
      "name": "getSynths",
      "outputs": [
        {
          "internalType": "address[]",
          "name": "",
          "type": "address[]"
        }
      ],
      "stateMutability": "view",
      "type": "function"
    },
    {
      "inputs": [
        {
          "internalType": "address",
          "name": "spender",
          "type": "address"
        },
        {
          "internalType": "uint256",
          "name": "addedValue",
          "type": "uint256"
        }
      ],
      "name": "increaseAllowance",
      "outputs": [
        {
          "internalType": "bool",
          "name": "",
          "type": "bool"
        }
      ],
      "stateMutability": "nonpayable",
      "type": "function"
    },
    {
      "inputs": [
        {
          "internalType": "string",
          "name": "name",
          "type": "string"
        },
        {
          "internalType": "string",
          "name": "symbol",
          "type": "string"
        },
        {
          "internalType": "address",
          "name": "_synthex",
          "type": "address"
        }
      ],
      "name": "initialize",
      "outputs": [],
      "stateMutability": "nonpayable",
      "type": "function"
    },
    {
      "inputs": [
        {
          "internalType": "address",
          "name": "_user",
          "type": "address"
        },
        {
          "internalType": "uint256",
          "name": "_amountUSD",
          "type": "uint256"
        }
      ],
      "name": "mint",
      "outputs": [],
      "stateMutability": "nonpayable",
      "type": "function"
    },
    {
      "inputs": [
        {
          "internalType": "address",
          "name": "_synth",
          "type": "address"
        },
        {
          "internalType": "address",
          "name": "_user",
          "type": "address"
        },
        {
          "internalType": "uint256",
          "name": "_amount",
          "type": "uint256"
        }
      ],
      "name": "mintSynth",
      "outputs": [],
      "stateMutability": "nonpayable",
      "type": "function"
    },
    {
      "inputs": [],
      "name": "name",
      "outputs": [
        {
          "internalType": "string",
          "name": "",
          "type": "string"
        }
      ],
      "stateMutability": "view",
      "type": "function"
    },
    {
      "inputs": [
        {
          "internalType": "address",
          "name": "_synth",
          "type": "address"
        }
      ],
      "name": "removeSynth",
      "outputs": [],
      "stateMutability": "nonpayable",
      "type": "function"
    },
    {
      "inputs": [],
      "name": "symbol",
      "outputs": [
        {
          "internalType": "string",
          "name": "",
          "type": "string"
        }
      ],
      "stateMutability": "view",
      "type": "function"
    },
    {
      "inputs": [],
      "name": "synthex",
      "outputs": [
        {
          "internalType": "contract SyntheX",
          "name": "",
          "type": "address"
        }
      ],
      "stateMutability": "view",
      "type": "function"
    },
    {
      "inputs": [
        {
          "internalType": "address",
          "name": "",
          "type": "address"
        }
      ],
      "name": "synths",
      "outputs": [
        {
          "internalType": "bool",
          "name": "",
          "type": "bool"
        }
      ],
      "stateMutability": "view",
      "type": "function"
    },
    {
      "inputs": [],
      "name": "totalSupply",
      "outputs": [
        {
          "internalType": "uint256",
          "name": "",
          "type": "uint256"
        }
      ],
      "stateMutability": "view",
      "type": "function"
    },
    {
      "inputs": [
        {
          "internalType": "address",
          "name": "to",
          "type": "address"
        },
        {
          "internalType": "uint256",
          "name": "amount",
          "type": "uint256"
        }
      ],
      "name": "transfer",
      "outputs": [
        {
          "internalType": "bool",
          "name": "",
          "type": "bool"
        }
      ],
      "stateMutability": "nonpayable",
      "type": "function"
    },
    {
      "inputs": [
        {
          "internalType": "address",
          "name": "from",
          "type": "address"
        },
        {
          "internalType": "address",
          "name": "to",
          "type": "address"
        },
        {
          "internalType": "uint256",
          "name": "amount",
          "type": "uint256"
        }
      ],
      "name": "transferFrom",
      "outputs": [
        {
          "internalType": "bool",
          "name": "",
          "type": "bool"
        }
      ],
      "stateMutability": "nonpayable",
      "type": "function"
    },
    {
      "inputs": [
        {
          "internalType": "uint256",
          "name": "_fee",
          "type": "uint256"
        }
      ],
      "name": "updateFee",
      "outputs": [],
      "stateMutability": "nonpayable",
      "type": "function"
    }
  ],
  "bytecode": "0x6080806040523461001657611f72908161001c8239f35b600080fdfe6080604081815260048036101561001557600080fd5b600092833560e01c90816306fdde031461171557508063077f224a146112ba578063095ea7b31461129057806318160ddd1461127157806323b872dd146111ba57806325ce025514611062578063313ce5671461104657806335a7ede614610e1f5780633950935114610dd057806340c10f1914610c9f5780634798ce5b14610aa0578063567b783814610963578381635bf0abbc146108f85750806370a08231146108c15780639012c4a81461078e57806395d89b41146106ad5780639dc29fac146104615780639f087dd614610425578063a301f684146103fd578063a457c2d71461033e578063a9059cbb1461030d578063af8083da14610248578063dd62ed3e146101fc578063ddca3f43146101d95763fb3c96121461013857600080fd5b8291346101d557610148366118eb565b9093916001600160a01b039061016382606554163314611df5565b16803b156101d1576101a294868094865197889586948593632770a7eb60e21b85528401602090939291936001600160a01b0360408201951681520152565b03925af19081156101c857506101b55750f35b6101be90611806565b6101c55780f35b80fd5b513d84823e3d90fd5b8580fd5b5050fd5b5050346101f857816003193601126101f8576020906067549051908152f35b5080fd5b5050346101f857806003193601126101f8576020916102196118bf565b826102226118d5565b926001600160a01b03809316815260348652209116600052825280600020549051908152f35b8284346101c557806003193601126101c5579080519182906068549182855260208095018093606884527fa2153420d844928b4421650203c77babc8b33d7f2e7b450e2966db0c2209775390845b8181106102f057505050816102ac910382611830565b83519485948186019282875251809352850193925b8281106102d057505050500390f35b83516001600160a01b0316855286955093810193928101926001016102c1565b82546001600160a01b031684529288019260019283019201610296565b5050346101f857806003193601126101f85760209061033761032d6118bf565b602435903361197d565b5160018152f35b5082346101c557826003193601126101c5576103586118bf565b9183602435923381526034602052206001600160a01b038416600052602052836000205490828210610394576020856103378585038733611ba0565b608490602086519162461bcd60e51b8352820152602560248201527f45524332303a2064656372656173656420616c6c6f77616e63652062656c6f7760448201527f207a65726f0000000000000000000000000000000000000000000000000000006064820152fd5b5050346101f857816003193601126101f8576020906001600160a01b03606554169051908152f35b5050346101f85760203660031901126101f85760ff816020936001600160a01b0361044e6118bf565b1681526066855220541690519015158152f35b508290346101f857826003193601126101f85761047c6118bf565b6001600160a01b0390816065541691610496833314611df5565b8551809363fca3508b60e01b8252308683015281602460209687935afa80156106a357869061066f575b6104d891506104d3602435603554611e66565b611e79565b91169283158015906106075780610600575b6105ad578385526033835285852054908282106105455750908495817fddf252ad1be2c89b69c2b068fc378daa952ba7f163c4a11628f55a4df523b3ef9493868852603385520381872055816035540360355551908152a380f35b6084908488519162461bcd60e51b8352820152602260248201527f45524332303a206275726e20616d6f756e7420657863656564732062616c616e60448201527f63650000000000000000000000000000000000000000000000000000000000006064820152fd5b6084908387519162461bcd60e51b8352820152602860248201527f53796e74686558506f6f6c3a2043616e6e6f74207472616e73666572206465626044820152677420746f6b656e7360c01b6064820152fd5b50846104ea565b6084828589519162461bcd60e51b8352820152602160248201527f45524332303a206275726e2066726f6d20746865207a65726f2061646472657360448201527f73000000000000000000000000000000000000000000000000000000000000006064820152fd5b508381813d831161069c575b6106858183611830565b81010312610697576104d890516104c0565b600080fd5b503d61067b565b87513d88823e3d90fd5b5050346101f857816003193601126101f857805190826037546106cf81611920565b808552916001918083169081156107665750600114610709575b5050506106fb82610705940383611830565b51918291826117bd565b0390f35b9450603785527f42a7b7dd785cd69714a189dffb3fd7d7174edc9ece837694ce50f7078f7c31ae5b82861061074e575050506106fb82602061070595820101946106e9565b80546020878701810191909152909501948101610731565b6107059750869350602092506106fb94915060ff191682840152151560051b820101946106e9565b50346108bd57602090816003193601126108b9578035906001600160a01b036065541690845190630adae6ad60e31b825284828281865afa80156108af578592889161087c575b508651632474521560e21b815291820190815233602082015290928391829081906040015b03915afa908115610872577f8c4d35e54a3f2ef1134138fd8ea3daee6a3c89e10d2665996babdf70261e2c769491610839918791610845575b50611d5d565b8160675551908152a180f35b6108659150853d871161086b575b61085d8183611830565b810190611d45565b38610833565b503d610853565b84513d87823e3d90fd5b83819492503d83116108a8575b6108938183611830565b810103126106975790518491906107fa6107d5565b503d610889565b86513d89823e3d90fd5b8380fd5b8280fd5b5050346101f85760203660031901126101f857806020926001600160a01b036108e86118bf565b1681526033845220549051908152f35b929050346101d557610909366118eb565b9093916001600160a01b039061092482606554163314611df5565b16803b156101d1576101a2948680948651978895869485936340c10f1960e01b85528401602090939291936001600160a01b0360408201951681520152565b5090346108bd57602091826003193601126108b9576109806118bf565b6001600160a01b03918260655416908451630adae6ad60e31b815286818381865afa908115610a9657908792918991610a63575b508651632474521560e21b815291820190815233602082015290928391829081906040015b03915afa908115610a595760669392916109f9918891610a425750611d5d565b16928385525260ff8184205416610a0e578280f35b8220805460ff191690557ff22c48507c9ba9fb4656f225a911518e656db195b09a3dffecd7b2e27cd89a728280a238808280f35b6108659150873d891161086b5761085d8183611830565b84513d88823e3d90fd5b83819492503d8311610a8f575b610a7a8183611830565b810103126106975790518691906109d96109b4565b503d610a70565b86513d8a823e3d90fd5b508290346101f85760a03660031901126101f857610abc6118bf565b92610ac56118d5565b610acd6118a9565b906084356001600160a01b038092610aea82606554163314611df5565b1691828752606660205260ff858820541615610c5c576067549716803b15610c58578685518092632770a7eb60e21b8252818381610b448c8b606435918401602090939291936001600160a01b0360408201951681520152565b03925af18015610c4e57610c3b575b50670de0b6b3a76400009087820397828911610c285782610b75899a84611e66565b04843b15610c245788610bb2918851809381926340c10f1960e01b9a8b84528d8401602090939291936001600160a01b0360408201951681520152565b038183895af18015610c1a57908991610c02575b5050610bd191611e66565b0490803b156101d15783519283523394830194855260208501919091529092849184918290849082906040016101a2565b610c0b90611806565b610c1657878a610bc6565b8780fd5b87513d8b823e3d90fd5b8880fd5b602488601189634e487b7160e01b835252fd5b610c4790969196611806565b9487610b53565b85513d89823e3d90fd5b8680fd5b606486602087519162461bcd60e51b8352820152601160248201527f53796e7468206e6f7420656e61626c65640000000000000000000000000000006044820152fd5b509190346101f857806003193601126101f857610cba6118bf565b602435916001600160a01b0360655416610cd5813314611df5565b6035549081610cef57505050610cec929350611e99565b80f35b602060249184969596519283809263fca3508b60e01b8252308c8301525afa928315610dc757508592610d90575b50670de0b6b3a76400009182810290808204841490151715610d7d5790610d4391611e79565b91818102918183041490151715610d6a57610cec93945090610d6491611e79565b90611e99565b602484601187634e487b7160e01b835252fd5b602486601189634e487b7160e01b835252fd5b9091506020813d8211610dbf575b81610dab60209383611830565b81010312610dbb57519038610d1d565b8480fd5b3d9150610d9e565b513d87823e3d90fd5b5050346101f857806003193601126101f857610337602092610e18610df36118bf565b91338152603486528481206001600160a01b038416825286528460243591205461195a565b9033611ba0565b508290346101f8576020806003193601126108bd57610e3c6118bf565b936001600160a01b039485606554168251630adae6ad60e31b815284818781855afa90811561103c57908591889161100b575b508451632474521560e21b8152878101918252336020830152928391829081906040015b03915afa9081156110015791610eb388926066948991610fe45750611d5d565b1680865292528320805460ff19169055825b6068805480831015610fda5790869184610ede85611da8565b949054600395861b1c1614610f14575050506000198114610f0157600101610ec5565b602484601185634e487b7160e01b835252fd5b9194909395969260001992838101908111610fc75790610f4785610f3a610f6c94611da8565b9054908a1b1c1691611da8565b90919082549060031b916001600160a01b039283811b93849216901b16911916179055565b8354908115610fb457500192610f8184611da8565b81939154921b1b19169055557ff804291aceae84499f2c1ee0cdd31db3f4f8e357c39784952e32b3398441d4308280a280f35b876031602492634e487b7160e01b835252fd5b602489601185634e487b7160e01b835252fd5b5050505050905080f35b610ffb9150873d891161086b5761085d8183611830565b8a610833565b83513d88823e3d90fd5b82819392503d8311611035575b6110228183611830565b81010312610c5857518490610e93610e6f565b503d611018565b84513d89823e3d90fd5b5050346101f857816003193601126101f8576020905160128152f35b509190346101f857602090816003193601126108bd576110806118bf565b906001600160a01b0380606554168251630adae6ad60e31b815285818981855afa90811561103c57869189918991611185575b508551632474521560e21b815291820190815233602082015290928391829081906040015b03915afa90811561100157606692916110f7918891610a425750611d5d565b8316938486525260ff81852054161561110e578380f35b8320805460ff19166001179055606854680100000000000000008110156111725761114692939450806001610f479201606855611da8565b7fe2a42d951bfc690f8a783fe48a2ad2c78d11d97549bf612f9661a6edc18394a58280a2803880808380f35b602484604187634e487b7160e01b835252fd5b928092508391503d83116111b3575b61119e8183611830565b81010312610c585751859088906110d86110b3565b503d611194565b5082346101c557826111cb366118eb565b94919290936001600160a01b038416815260346020528181203382526020522054906000198203611205575b60208661033787878761197d565b84821061122e57509183916112236020969561033795033383611ba0565b9193948193506111f7565b606490602087519162461bcd60e51b8352820152601d60248201527f45524332303a20696e73756666696369656e7420616c6c6f77616e63650000006044820152fd5b5050346101f857816003193601126101f8576020906035549051908152f35b5050346101f857806003193601126101f8576020906103376112b06118bf565b6024359033611ba0565b5090346108bd5760603660031901126108bd5767ffffffffffffffff918035838111610dbb576112ed9036908301611852565b6024358481116101d1576113049036908401611852565b9361130d6118a9565b9186549560ff8760081c161594858096611708575b80156116f1575b1561168857600197868960ff198316178b55611677575b5061135a60ff8a5460081c1661135581611cd4565b611cd4565b8251848111611664578061136f603654611920565b94601f958681116115f6575b50602090868311600114611577578c9261156c575b5050600019600383901b1c191690891b176036555b815193841161155957506113ba603754611920565b8281116114f6575b50602091831160011461146d576001600160a01b03939291889183611462575b5050600019600383901b1c191690861b176037555b167fffffffffffffffffffffffff00000000000000000000000000000000000000006065541617606555611429578280f35b825461ff0019168355519081527f7f26b83ff96e1f2b6a682f133852f6798a09c465da95921460cefb384740249890602090a138808280f35b0151905038806113e2565b60378852929186917f42a7b7dd785cd69714a189dffb3fd7d7174edc9ece837694ce50f7078f7c31ae90601f1983168a5b8181106114de575095836001600160a01b0397106114c5575b505050811b016037556113f7565b015160001960f88460031b161c191690553880806114b7565b8288015184558a95909301926020928301920161149e565b603789527f42a7b7dd785cd69714a189dffb3fd7d7174edc9ece837694ce50f7078f7c31ae8380860160051c82019260208710611550575b0160051c019088905b8281106115455750506113c2565b8a8155018890611537565b9250819261152e565b886041602492634e487b7160e01b835252fd5b015190503880611390565b60368d528b93507f4a11f94e20a93c79f6ec743a1954ec4fc2c08429ae2122118bf234b2185c81b89190601f1984168e5b8181106115de575084116115c5575b505050811b016036556113a5565b015160001960f88460031b161c191690553880806115b7565b8284015185558e9690940193602093840193016115a8565b90915060368c527f4a11f94e20a93c79f6ec743a1954ec4fc2c08429ae2122118bf234b2185c81b88680850160051c8201926020861061165b575b918d91869594930160051c01915b82811061164d57505061137b565b8e81558594508d910161163f565b92508192611631565b60248a604184634e487b7160e01b835252fd5b61ffff191661010117895538611340565b608490602088519162461bcd60e51b8352820152602e60248201527f496e697469616c697a61626c653a20636f6e747261637420697320616c72656160448201527f647920696e697469616c697a65640000000000000000000000000000000000006064820152fd5b50303b1580156113295750600160ff891614611329565b50600160ff891610611322565b849084346108bd57826003193601126108bd578260365461173581611920565b808552916001918083169081156107665750600114611760575050506106fb82610705940383611830565b9450603685527f4a11f94e20a93c79f6ec743a1954ec4fc2c08429ae2122118bf234b2185c81b85b8286106117a5575050506106fb82602061070595820101946106e9565b80546020878701810191909152909501948101611788565b6020808252825181830181905290939260005b8281106117f257505060409293506000838284010152601f8019910116010190565b8181018601518482016040015285016117d0565b67ffffffffffffffff811161181a57604052565b634e487b7160e01b600052604160045260246000fd5b90601f8019910116810190811067ffffffffffffffff82111761181a57604052565b81601f820112156106975780359067ffffffffffffffff821161181a5760405192611887601f8401601f191660200185611830565b8284526020838301011161069757816000926020809301838601378301015290565b604435906001600160a01b038216820361069757565b600435906001600160a01b038216820361069757565b602435906001600160a01b038216820361069757565b6060906003190112610697576001600160a01b0390600435828116810361069757916024359081168103610697579060443590565b90600182811c92168015611950575b602083101461193a57565b634e487b7160e01b600052602260045260246000fd5b91607f169161192f565b9190820180921161196757565b634e487b7160e01b600052601160045260246000fd5b90916001600160a01b0380921691821593841594611b365716928315611acc5780611ac4575b611a6f5760008281526033602052604081205491808310611a0557604082827fddf252ad1be2c89b69c2b068fc378daa952ba7f163c4a11628f55a4df523b3ef95876020965260338652038282205586815220818154019055604051908152a3565b608460405162461bcd60e51b815260206004820152602660248201527f45524332303a207472616e7366657220616d6f756e742065786365656473206260448201527f616c616e636500000000000000000000000000000000000000000000000000006064820152fd5b608460405162461bcd60e51b815260206004820152602860248201527f53796e74686558506f6f6c3a2043616e6e6f74207472616e73666572206465626044820152677420746f6b656e7360c01b6064820152fd5b5060016119a3565b608460405162461bcd60e51b815260206004820152602360248201527f45524332303a207472616e7366657220746f20746865207a65726f206164647260448201527f65737300000000000000000000000000000000000000000000000000000000006064820152fd5b608460405162461bcd60e51b815260206004820152602560248201527f45524332303a207472616e736665722066726f6d20746865207a65726f20616460448201527f64726573730000000000000000000000000000000000000000000000000000006064820152fd5b6001600160a01b03809116918215611c6b5716918215611c015760207f8c5be1e5ebec7d5bd14f71427d1e84f3dd0314c0f7b2291e5b200ac8c7c3b925918360005260348252604060002085600052825280604060002055604051908152a3565b608460405162461bcd60e51b815260206004820152602260248201527f45524332303a20617070726f766520746f20746865207a65726f20616464726560448201527f73730000000000000000000000000000000000000000000000000000000000006064820152fd5b608460405162461bcd60e51b8152602060048201526024808201527f45524332303a20617070726f76652066726f6d20746865207a65726f2061646460448201527f72657373000000000000000000000000000000000000000000000000000000006064820152fd5b15611cdb57565b608460405162461bcd60e51b815260206004820152602b60248201527f496e697469616c697a61626c653a20636f6e7472616374206973206e6f74206960448201527f6e697469616c697a696e670000000000000000000000000000000000000000006064820152fd5b90816020910312610697575180151581036106975790565b15611d6457565b606460405162461bcd60e51b815260206004820152602060248201527f53796e74686558506f6f6c3a204f6e6c79206f776e65722063616e206d696e746044820152fd5b606854811015611ddf5760686000527fa2153420d844928b4421650203c77babc8b33d7f2e7b450e2966db0c220977530190600090565b634e487b7160e01b600052603260045260246000fd5b15611dfc57565b608460405162461bcd60e51b815260206004820152602360248201527f4f6e6c792053796e746865582063616e2063616c6c20746869732066756e637460448201527f696f6e00000000000000000000000000000000000000000000000000000000006064820152fd5b8181029291811591840414171561196757565b8115611e83570490565b634e487b7160e01b600052601260045260246000fd5b6001600160a01b0316908115611ef8577fddf252ad1be2c89b69c2b068fc378daa952ba7f163c4a11628f55a4df523b3ef602082611edb60009460355461195a565b6035558484526033825260408420818154019055604051908152a3565b606460405162461bcd60e51b815260206004820152601f60248201527f45524332303a206d696e7420746f20746865207a65726f2061646472657373006044820152fdfea2646970667358221220a265e627c66778171ac6b8c79508cc8fb17c5e5edb1dc7facfadaaf95bc9dbd064736f6c63430008110033",
  "linkReferences": {},
  "deployedLinkReferences": {}
}