{
  "_format": "hh-sol-artifact-1",
  "contractName": "SyntheXPool",
  "sourceName": "contracts/SyntheXPool.sol",
  "abi": [
    {
      "anonymous": false,
      "inputs": [
        {
          "indexed": true,
          "internalType": "address",
          "name": "owner",
          "type": "address"
        },
        {
          "indexed": true,
          "internalType": "address",
          "name": "spender",
          "type": "address"
        },
        {
          "indexed": false,
          "internalType": "uint256",
          "name": "value",
          "type": "uint256"
        }
      ],
      "name": "Approval",
      "type": "event"
    },
    {
      "anonymous": false,
      "inputs": [
        {
          "indexed": false,
          "internalType": "uint256",
          "name": "fee",
          "type": "uint256"
        }
      ],
      "name": "FeeUpdated",
      "type": "event"
    },
    {
      "anonymous": false,
      "inputs": [
        {
          "indexed": false,
          "internalType": "uint8",
          "name": "version",
          "type": "uint8"
        }
      ],
      "name": "Initialized",
      "type": "event"
    },
    {
      "anonymous": false,
      "inputs": [
        {
          "indexed": true,
          "internalType": "address",
          "name": "synth",
          "type": "address"
        }
      ],
      "name": "SynthDisabled",
      "type": "event"
    },
    {
      "anonymous": false,
      "inputs": [
        {
          "indexed": true,
          "internalType": "address",
          "name": "synth",
          "type": "address"
        }
      ],
      "name": "SynthEnabled",
      "type": "event"
    },
    {
      "anonymous": false,
      "inputs": [
        {
          "indexed": true,
          "internalType": "address",
          "name": "synth",
          "type": "address"
        }
      ],
      "name": "SynthRemoved",
      "type": "event"
    },
    {
      "anonymous": false,
      "inputs": [
        {
          "indexed": true,
          "internalType": "address",
          "name": "from",
          "type": "address"
        },
        {
          "indexed": true,
          "internalType": "address",
          "name": "to",
          "type": "address"
        },
        {
          "indexed": false,
          "internalType": "uint256",
          "name": "value",
          "type": "uint256"
        }
      ],
      "name": "Transfer",
      "type": "event"
    },
    {
      "inputs": [
        {
          "internalType": "address",
          "name": "owner",
          "type": "address"
        },
        {
          "internalType": "address",
          "name": "spender",
          "type": "address"
        }
      ],
      "name": "allowance",
      "outputs": [
        {
          "internalType": "uint256",
          "name": "",
          "type": "uint256"
        }
      ],
      "stateMutability": "view",
      "type": "function"
    },
    {
      "inputs": [
        {
          "internalType": "address",
          "name": "spender",
          "type": "address"
        },
        {
          "internalType": "uint256",
          "name": "amount",
          "type": "uint256"
        }
      ],
      "name": "approve",
      "outputs": [
        {
          "internalType": "bool",
          "name": "",
          "type": "bool"
        }
      ],
      "stateMutability": "nonpayable",
      "type": "function"
    },
    {
      "inputs": [
        {
          "internalType": "address",
          "name": "account",
          "type": "address"
        }
      ],
      "name": "balanceOf",
      "outputs": [
        {
          "internalType": "uint256",
          "name": "",
          "type": "uint256"
        }
      ],
      "stateMutability": "view",
      "type": "function"
    },
    {
      "inputs": [
        {
          "internalType": "address",
          "name": "_user",
          "type": "address"
        },
        {
          "internalType": "uint256",
          "name": "_amountUSD",
          "type": "uint256"
        }
      ],
      "name": "burn",
      "outputs": [],
      "stateMutability": "nonpayable",
      "type": "function"
    },
    {
      "inputs": [
        {
          "internalType": "address",
          "name": "_synth",
          "type": "address"
        },
        {
          "internalType": "address",
          "name": "_user",
          "type": "address"
        },
        {
          "internalType": "uint256",
          "name": "_amount",
          "type": "uint256"
        }
      ],
      "name": "burnSynth",
      "outputs": [],
      "stateMutability": "nonpayable",
      "type": "function"
    },
    {
      "inputs": [],
      "name": "decimals",
      "outputs": [
        {
          "internalType": "uint8",
          "name": "",
          "type": "uint8"
        }
      ],
      "stateMutability": "view",
      "type": "function"
    },
    {
      "inputs": [
        {
          "internalType": "address",
          "name": "spender",
          "type": "address"
        },
        {
          "internalType": "uint256",
          "name": "subtractedValue",
          "type": "uint256"
        }
      ],
      "name": "decreaseAllowance",
      "outputs": [
        {
          "internalType": "bool",
          "name": "",
          "type": "bool"
        }
      ],
      "stateMutability": "nonpayable",
      "type": "function"
    },
    {
      "inputs": [
        {
          "internalType": "address",
          "name": "_synth",
          "type": "address"
        }
      ],
      "name": "disableSynth",
      "outputs": [],
      "stateMutability": "nonpayable",
      "type": "function"
    },
    {
      "inputs": [
        {
          "internalType": "address",
          "name": "_synth",
          "type": "address"
        }
      ],
      "name": "enableSynth",
      "outputs": [],
      "stateMutability": "nonpayable",
      "type": "function"
    },
    {
      "inputs": [
        {
          "internalType": "address",
          "name": "_fromSynth",
          "type": "address"
        },
        {
          "internalType": "address",
          "name": "_toSynth",
          "type": "address"
        },
        {
          "internalType": "address",
          "name": "_user",
          "type": "address"
        },
        {
          "internalType": "uint256",
          "name": "_fromAmount",
          "type": "uint256"
        },
        {
          "internalType": "uint256",
          "name": "_toAmount",
          "type": "uint256"
        }
      ],
      "name": "exchange",
      "outputs": [],
      "stateMutability": "nonpayable",
      "type": "function"
    },
    {
      "inputs": [],
      "name": "fee",
      "outputs": [
        {
          "internalType": "uint256",
          "name": "",
          "type": "uint256"
        }
      ],
      "stateMutability": "view",
      "type": "function"
    },
    {
      "inputs": [],
      "name": "getSynths",
      "outputs": [
        {
          "internalType": "address[]",
          "name": "",
          "type": "address[]"
        }
      ],
      "stateMutability": "view",
      "type": "function"
    },
    {
      "inputs": [
        {
          "internalType": "address",
          "name": "spender",
          "type": "address"
        },
        {
          "internalType": "uint256",
          "name": "addedValue",
          "type": "uint256"
        }
      ],
      "name": "increaseAllowance",
      "outputs": [
        {
          "internalType": "bool",
          "name": "",
          "type": "bool"
        }
      ],
      "stateMutability": "nonpayable",
      "type": "function"
    },
    {
      "inputs": [
        {
          "internalType": "string",
          "name": "name",
          "type": "string"
        },
        {
          "internalType": "string",
          "name": "symbol",
          "type": "string"
        },
        {
          "internalType": "address",
          "name": "_synthex",
          "type": "address"
        },
        {
          "internalType": "address",
          "name": "_addressManager",
          "type": "address"
        }
      ],
      "name": "initialize",
      "outputs": [],
      "stateMutability": "nonpayable",
      "type": "function"
    },
    {
      "inputs": [
        {
          "internalType": "address",
          "name": "_user",
          "type": "address"
        },
        {
          "internalType": "uint256",
          "name": "_amountUSD",
          "type": "uint256"
        }
      ],
      "name": "mint",
      "outputs": [],
      "stateMutability": "nonpayable",
      "type": "function"
    },
    {
      "inputs": [
        {
          "internalType": "address",
          "name": "_synth",
          "type": "address"
        },
        {
          "internalType": "address",
          "name": "_user",
          "type": "address"
        },
        {
          "internalType": "uint256",
          "name": "_amount",
          "type": "uint256"
        }
      ],
      "name": "mintSynth",
      "outputs": [],
      "stateMutability": "nonpayable",
      "type": "function"
    },
    {
      "inputs": [],
      "name": "name",
      "outputs": [
        {
          "internalType": "string",
          "name": "",
          "type": "string"
        }
      ],
      "stateMutability": "view",
      "type": "function"
    },
    {
      "inputs": [
        {
          "internalType": "address",
          "name": "_synth",
          "type": "address"
        }
      ],
      "name": "removeSynth",
      "outputs": [],
      "stateMutability": "nonpayable",
      "type": "function"
    },
    {
      "inputs": [],
      "name": "symbol",
      "outputs": [
        {
          "internalType": "string",
          "name": "",
          "type": "string"
        }
      ],
      "stateMutability": "view",
      "type": "function"
    },
    {
      "inputs": [],
      "name": "synthex",
      "outputs": [
        {
          "internalType": "contract SyntheX",
          "name": "",
          "type": "address"
        }
      ],
      "stateMutability": "view",
      "type": "function"
    },
    {
      "inputs": [
        {
          "internalType": "address",
          "name": "",
          "type": "address"
        }
      ],
      "name": "synths",
      "outputs": [
        {
          "internalType": "bool",
          "name": "",
          "type": "bool"
        }
      ],
      "stateMutability": "view",
      "type": "function"
    },
    {
      "inputs": [],
      "name": "totalSupply",
      "outputs": [
        {
          "internalType": "uint256",
          "name": "",
          "type": "uint256"
        }
      ],
      "stateMutability": "view",
      "type": "function"
    },
    {
      "inputs": [
        {
          "internalType": "address",
          "name": "to",
          "type": "address"
        },
        {
          "internalType": "uint256",
          "name": "amount",
          "type": "uint256"
        }
      ],
      "name": "transfer",
      "outputs": [
        {
          "internalType": "bool",
          "name": "",
          "type": "bool"
        }
      ],
      "stateMutability": "nonpayable",
      "type": "function"
    },
    {
      "inputs": [
        {
          "internalType": "address",
          "name": "from",
          "type": "address"
        },
        {
          "internalType": "address",
          "name": "to",
          "type": "address"
        },
        {
          "internalType": "uint256",
          "name": "amount",
          "type": "uint256"
        }
      ],
      "name": "transferFrom",
      "outputs": [
        {
          "internalType": "bool",
          "name": "",
          "type": "bool"
        }
      ],
      "stateMutability": "nonpayable",
      "type": "function"
    },
    {
      "inputs": [
        {
          "internalType": "uint256",
          "name": "_fee",
          "type": "uint256"
        }
      ],
      "name": "updateFee",
      "outputs": [],
      "stateMutability": "nonpayable",
      "type": "function"
    }
  ],
  "bytecode": "0x6080806040523461001657611f31908161001c8239f35b600080fdfe608080604052600436101561001357600080fd5b600090813560e01c90816306fdde03146116da57508063095ea7b3146116b357806318160ddd1461169557806323b872dd146115ef57806325ce0255146114a0578063313ce5671461148457806335a7ede614611289578063395093511461123857806340c10f191461112e5780634798ce5b14610f54578063567b783814610e275780635bf0abbc14610dc257806370a0823114610d8a5780638f15b414146108ac5780639012c4a81461078657806395d89b41146106a55780639dc29fac1461044f5780639f087dd614610412578063a301f684146103eb578063a457c2d71461032e578063a9059cbb146102fc578063af8083da14610236578063dd62ed3e146101e6578063ddca3f43146101c85763fb3c96121461013457600080fd5b346101b5578061014336611807565b916001600160a01b039061015c82606554163314611db4565b1691823b156101c357604051632770a7eb60e21b81526001600160a01b03909216600483015260248201529082908290818381604481015b03925af180156101b8576101a55750f35b6101ae9061183c565b6101b55780f35b80fd5b6040513d84823e3d90fd5b505050fd5b50346101b557806003193601126101b5576020606754604051908152f35b50346101b55760403660031901126101b5576102006117c5565b604061020a6117db565b926001600160a01b03809316815260346020522091166000526020526020604060002054604051908152f35b50346101b557806003193601126101b55760405180916068549081835260208093018092606883527fa2153420d844928b4421650203c77babc8b33d7f2e7b450e2966db0c2209775390835b8181106102df5750505084610298910385611866565b60405193838594850191818652518092526040850193925b8281106102bf57505050500390f35b83516001600160a01b0316855286955093810193928101926001016102b0565b82546001600160a01b031684529286019260019283019201610282565b50346101b55760403660031901126101b5576103236103196117c5565b602435903361193c565b602060405160018152f35b50346101b55760403660031901126101b5576103486117c5565b6040602435923381526034602052206001600160a01b038216600052602052604060002054918083106103815761032392039033611b5f565b608460405162461bcd60e51b815260206004820152602560248201527f45524332303a2064656372656173656420616c6c6f77616e63652062656c6f7760448201527f207a65726f0000000000000000000000000000000000000000000000000000006064820152fd5b50346101b557806003193601126101b55760206001600160a01b0360655416604051908152f35b50346101b55760203660031901126101b55760ff60406020926001600160a01b0361043b6117c5565b168152606684522054166040519015158152f35b50346101b55760403660031901126101b5576104696117c5565b906001600160a01b0391826065541692610484843314611db4565b604051809463fca3508b60e01b825230600483015281602460209788935afa801561069a578490610666575b6104c891506104c3602435603554611e25565b611e38565b91169081158015906105fc57806105f5575b6105a0578183526033845260408320548181106105365793817fddf252ad1be2c89b69c2b068fc378daa952ba7f163c4a11628f55a4df523b3ef928596858752603384520360408620558060355403603555604051908152a380f35b6084856040519062461bcd60e51b82526004820152602260248201527f45524332303a206275726e20616d6f756e7420657863656564732062616c616e60448201527f63650000000000000000000000000000000000000000000000000000000000006064820152fd5b6084846040519062461bcd60e51b82526004820152602860248201527f53796e74686558506f6f6c3a2043616e6e6f74207472616e73666572206465626044820152677420746f6b656e7360c01b6064820152fd5b50826104da565b6084856040519062461bcd60e51b82526004820152602160248201527f45524332303a206275726e2066726f6d20746865207a65726f2061646472657360448201527f73000000000000000000000000000000000000000000000000000000000000006064820152fd5b508481813d8311610693575b61067c8183611866565b8101031261068e576104c890516104b0565b600080fd5b503d610672565b6040513d86823e3d90fd5b50346101b557806003193601126101b55760405190806037546106c7816118df565b8085529160019180831690811561075c5750600114610701575b6106fd856106f181870382611866565b6040519182918261177c565b0390f35b9250603783527f42a7b7dd785cd69714a189dffb3fd7d7174edc9ece837694ce50f7078f7c31ae5b8284106107445750505081016020016106f1826106fd6106e1565b80546020858701810191909152909301928101610729565b8695506106fd969350602092506106f194915060ff191682840152151560051b82010192936106e1565b50346101b5576020806003193601126108a857600435906001600160a01b036065541691604051630adae6ad60e31b81528281600481875afa90811561089d57859161086e575b50604051632474521560e21b8152600481019190915233602482015292829084908180604481015b03915afa92831561069a577f8c4d35e54a3f2ef1134138fd8ea3daee6a3c89e10d2665996babdf70261e2c7693610833918691610841575b50611d1c565b80606755604051908152a180f35b6108619150843d8611610867575b6108598183611866565b810190611d04565b3861082d565b503d61084f565b90508281813d8311610896575b6108858183611866565b8101031261068e57516107f56107cd565b503d61087b565b6040513d87823e3d90fd5b5080fd5b50346101b55760803660031901126101b55760043567ffffffffffffffff81116108a8576108de903690600401611888565b60243567ffffffffffffffff8111610d86576108fe903690600401611888565b6109066117f1565b90606435906001600160a01b038216820361068e5784549360ff8560081c161594858096610d79575b8015610d62575b15610cf85760ff198116600117875585610ce7575b5061096560ff875460081c1661096081611c93565b611c93565b80519067ffffffffffffffff8211610cd35781906109846036546118df565b601f8111610c28575b50602090601f8311600114610ba5578892610b9a575b50508160011b916000199060031b1c1916176036555b80519067ffffffffffffffff8211610b86576109d66037546118df565b601f8111610b23575b50602090601f8311600114610a97576001600160a01b03939291879183610a8c575b50508160011b916000199060031b1c1916176037555b817fffffffffffffffffffffffff0000000000000000000000000000000000000000931683606554161760655516906069541617606955610a555780f35b61ff001981541681557f7f26b83ff96e1f2b6a682f133852f6798a09c465da95921460cefb3847402498602060405160018152a180f35b015190503880610a01565b603787527f42a7b7dd785cd69714a189dffb3fd7d7174edc9ece837694ce50f7078f7c31ae9190601f198416885b818110610b0b57509160019391856001600160a01b0397969410610af2575b505050811b01603755610a17565b015160001960f88460031b161c19169055388080610ae4565b92936020600181928786015181550195019301610ac5565b603787527f42a7b7dd785cd69714a189dffb3fd7d7174edc9ece837694ce50f7078f7c31ae601f840160051c81019160208510610b7c575b601f0160051c01905b818110610b7157506109df565b878155600101610b64565b9091508190610b5b565b602486634e487b7160e01b81526041600452fd5b0151905038806109a3565b603689527f4a11f94e20a93c79f6ec743a1954ec4fc2c08429ae2122118bf234b2185c81b89250601f198416895b818110610c105750908460019594939210610bf7575b505050811b016036556109b9565b015160001960f88460031b161c19169055388080610be9565b92936020600181928786015181550195019301610bd3565b90915060368852601f830160051c7f4a11f94e20a93c79f6ec743a1954ec4fc2c08429ae2122118bf234b2185c81b8019060208410610cab575b90601f8493920160051c7f4a11f94e20a93c79f6ec743a1954ec4fc2c08429ae2122118bf234b2185c81b801905b818110610c9d575061098d565b898155849350600101610c90565b7f4a11f94e20a93c79f6ec743a1954ec4fc2c08429ae2122118bf234b2185c81b89150610c62565b602487634e487b7160e01b81526041600452fd5b61ffff19166101011786553861094b565b608460405162461bcd60e51b815260206004820152602e60248201527f496e697469616c697a61626c653a20636f6e747261637420697320616c72656160448201527f647920696e697469616c697a65640000000000000000000000000000000000006064820152fd5b50303b1580156109365750600160ff821614610936565b50600160ff82161061092f565b8280fd5b50346101b55760203660031901126101b55760406020916001600160a01b03610db16117c5565b168152603383522054604051908152f35b50346101b55780610dd236611807565b916001600160a01b0390610deb82606554163314611db4565b1691823b156101c3576040516340c10f1960e01b81526001600160a01b0390921660048301526024820152908290829081838160448101610194565b50346101b5576020806003193601126108a857610e426117c5565b6001600160a01b03806065541691604051630adae6ad60e31b81528481600481875afa8015610f495785918791610f18575b50604051632474521560e21b815260048101919091523360248201529384908180604481015b03915afa92831561089d57606693610eb8918791610f015750611d1c565b16918284525260ff604083205416610ece575080f35b60408220805460ff191690557ff22c48507c9ba9fb4656f225a911518e656db195b09a3dffecd7b2e27cd89a728280a280f35b6108619150863d8811610867576108598183611866565b82819392503d8311610f42575b610f2f8183611866565b8101031261068e57518490610e9a610e74565b503d610f25565b6040513d88823e3d90fd5b50346101b55760a03660031901126101b557610f6e6117c5565b90610f776117db565b610f7f6117f1565b6084356001600160a01b038093610f9b82606554163314611db4565b1692838552606660205260ff604086205416156110ea576067549516803b156110e657604051632770a7eb60e21b81526001600160a01b038416600482015260643560248201529085908290604490829084905af1801561089d576110d3575b50670de0b6b3a764000090858203958287116110bf578261101d879884611e25565b04853b156110bb576040516340c10f1960e01b8082526001600160a01b0396909616600482015260248101919091528681604481838a5af19081156110b0578791611098575b505061106e91611e25565b04823b156101c3576040519182523360048301526024820152908290829081838160448101610194565b6110a19061183c565b6110ac578538611063565b8580fd5b6040513d89823e3d90fd5b8680fd5b602486634e487b7160e01b81526011600452fd5b6110df9094919461183c565b9238610ffb565b8480fd5b606460405162461bcd60e51b815260206004820152601160248201527f53796e7468206e6f7420656e61626c65640000000000000000000000000000006044820152fd5b50346101b55760403660031901126101b5576111486117c5565b6024356001600160a01b0360655416611162813314611db4565b603554908161117957505061117691611e58565b80f35b9060206024926040519384809263fca3508b60e01b82523060048301525afa91821561089d578592611205575b50670de0b6b3a764000091828102908082048414901517156110bf57906111cc91611e38565b918181029181830414901517156111f15761117692916111eb91611e38565b90611e58565b602484634e487b7160e01b81526011600452fd5b9091506020813d8211611230575b8161122060209383611866565b810103126110e6575190386111a6565b3d9150611213565b50346101b55760403660031901126101b557610323906112826112596117c5565b913381526034602052604081206001600160a01b03841682526020526040602435912054611919565b9033611b5f565b50346101b557602090816003193601126101b5576112a56117c5565b916001600160a01b03928360655416604051630adae6ad60e31b81528381600481855afa90811561089d579084918691611453575b50604051632474521560e21b815260048101919091523360248201529182908180604481015b03915afa90811561069a579161132086926066948791610f015750611d1c565b16808452915260408220805460ff19169055815b606880548083101561144a579085918461134d85611d67565b949054600395861b1c161461138457505050600019811461137057600101611334565b602483634e487b7160e01b81526011600452fd5b909260009692949596199182810190811161143657906113b7846113aa6113dc94611d67565b905490891b1c1691611d67565b90919082549060031b916001600160a01b039283811b93849216901b16911916179055565b825480156114225701926113ef84611d67565b81939154921b1b19169055557ff804291aceae84499f2c1ee0cdd31db3f4f8e357c39784952e32b3398441d4308280a280f35b602487634e487b7160e01b81526031600452fd5b602488634e487b7160e01b81526011600452fd5b50505050905080f35b82819392503d831161147d575b61146a8183611866565b810103126110e6575183906113006112da565b503d611460565b50346101b557806003193601126101b557602060405160128152f35b50346101b5576020806003193601126108a8576114bb6117c5565b6001600160a01b03806065541690604051630adae6ad60e31b81528481600481865afa8015610f4957859187916115be575b50604051632474521560e21b815260048101919091523360248201529283908180604481015b03915afa91821561089d57606692611531918791610f015750611d1c565b8216928385525260ff60408420541615611549578280f35b60408320805460ff19166001179055606854680100000000000000008110156115aa57906113b78260016115809401606855611d67565b7fe2a42d951bfc690f8a783fe48a2ad2c78d11d97549bf612f9661a6edc18394a58280a238808280f35b602484634e487b7160e01b81526041600452fd5b82819392503d83116115e8575b6115d58183611866565b810103126110ac575184906115136114ed565b503d6115cb565b50346101b557604061160036611807565b929091936001600160a01b038516815260346020528181203382526020522054926000198403611635575b610323935061193c565b8284106116515761164c8361032395033383611b5f565b61162b565b606460405162461bcd60e51b815260206004820152601d60248201527f45524332303a20696e73756666696369656e7420616c6c6f77616e63650000006044820152fd5b50346101b557806003193601126101b5576020603554604051908152f35b50346101b55760403660031901126101b5576103236116d06117c5565b6024359033611b5f565b82346101b557806003193601126101b557806036546116f8816118df565b8085529160019180831690811561075c5750600114611721576106fd856106f181870382611866565b9250603683527f4a11f94e20a93c79f6ec743a1954ec4fc2c08429ae2122118bf234b2185c81b85b8284106117645750505081016020016106f1826106fd6106e1565b80546020858701810191909152909301928101611749565b6020808252825181830181905290939260005b8281106117b157505060409293506000838284010152601f8019910116010190565b81810186015184820160400152850161178f565b600435906001600160a01b038216820361068e57565b602435906001600160a01b038216820361068e57565b604435906001600160a01b038216820361068e57565b606090600319011261068e576001600160a01b0390600435828116810361068e5791602435908116810361068e579060443590565b67ffffffffffffffff811161185057604052565b634e487b7160e01b600052604160045260246000fd5b90601f8019910116810190811067ffffffffffffffff82111761185057604052565b81601f8201121561068e5780359067ffffffffffffffff821161185057604051926118bd601f8401601f191660200185611866565b8284526020838301011161068e57816000926020809301838601378301015290565b90600182811c9216801561190f575b60208310146118f957565b634e487b7160e01b600052602260045260246000fd5b91607f16916118ee565b9190820180921161192657565b634e487b7160e01b600052601160045260246000fd5b90916001600160a01b0380921691821593841594611af55716928315611a8b5780611a83575b611a2e57600082815260336020526040812054918083106119c457604082827fddf252ad1be2c89b69c2b068fc378daa952ba7f163c4a11628f55a4df523b3ef95876020965260338652038282205586815220818154019055604051908152a3565b608460405162461bcd60e51b815260206004820152602660248201527f45524332303a207472616e7366657220616d6f756e742065786365656473206260448201527f616c616e636500000000000000000000000000000000000000000000000000006064820152fd5b608460405162461bcd60e51b815260206004820152602860248201527f53796e74686558506f6f6c3a2043616e6e6f74207472616e73666572206465626044820152677420746f6b656e7360c01b6064820152fd5b506001611962565b608460405162461bcd60e51b815260206004820152602360248201527f45524332303a207472616e7366657220746f20746865207a65726f206164647260448201527f65737300000000000000000000000000000000000000000000000000000000006064820152fd5b608460405162461bcd60e51b815260206004820152602560248201527f45524332303a207472616e736665722066726f6d20746865207a65726f20616460448201527f64726573730000000000000000000000000000000000000000000000000000006064820152fd5b6001600160a01b03809116918215611c2a5716918215611bc05760207f8c5be1e5ebec7d5bd14f71427d1e84f3dd0314c0f7b2291e5b200ac8c7c3b925918360005260348252604060002085600052825280604060002055604051908152a3565b608460405162461bcd60e51b815260206004820152602260248201527f45524332303a20617070726f766520746f20746865207a65726f20616464726560448201527f73730000000000000000000000000000000000000000000000000000000000006064820152fd5b608460405162461bcd60e51b8152602060048201526024808201527f45524332303a20617070726f76652066726f6d20746865207a65726f2061646460448201527f72657373000000000000000000000000000000000000000000000000000000006064820152fd5b15611c9a57565b608460405162461bcd60e51b815260206004820152602b60248201527f496e697469616c697a61626c653a20636f6e7472616374206973206e6f74206960448201527f6e697469616c697a696e670000000000000000000000000000000000000000006064820152fd5b9081602091031261068e5751801515810361068e5790565b15611d2357565b606460405162461bcd60e51b815260206004820152602060248201527f53796e74686558506f6f6c3a204f6e6c79206f776e65722063616e206d696e746044820152fd5b606854811015611d9e5760686000527fa2153420d844928b4421650203c77babc8b33d7f2e7b450e2966db0c220977530190600090565b634e487b7160e01b600052603260045260246000fd5b15611dbb57565b608460405162461bcd60e51b815260206004820152602360248201527f4f6e6c792053796e746865582063616e2063616c6c20746869732066756e637460448201527f696f6e00000000000000000000000000000000000000000000000000000000006064820152fd5b8181029291811591840414171561192657565b8115611e42570490565b634e487b7160e01b600052601260045260246000fd5b6001600160a01b0316908115611eb7577fddf252ad1be2c89b69c2b068fc378daa952ba7f163c4a11628f55a4df523b3ef602082611e9a600094603554611919565b6035558484526033825260408420818154019055604051908152a3565b606460405162461bcd60e51b815260206004820152601f60248201527f45524332303a206d696e7420746f20746865207a65726f2061646472657373006044820152fdfea26469706673582212208aaabc93af353b0550c7bfbd5bf9933504b447cb91098be08920d1434885d24a64736f6c63430008110033",
  "linkReferences": {},
  "deployedLinkReferences": {}
}