{
  "_format": "hh-sol-artifact-1",
  "contractName": "SyntheXPool",
  "sourceName": "contracts/SyntheXPool.sol",
  "abi": [
    {
      "anonymous": false,
      "inputs": [
        {
          "indexed": true,
          "internalType": "address",
          "name": "owner",
          "type": "address"
        },
        {
          "indexed": true,
          "internalType": "address",
          "name": "spender",
          "type": "address"
        },
        {
          "indexed": false,
          "internalType": "uint256",
          "name": "value",
          "type": "uint256"
        }
      ],
      "name": "Approval",
      "type": "event"
    },
    {
      "anonymous": false,
      "inputs": [
        {
          "indexed": false,
          "internalType": "uint256",
          "name": "fee",
          "type": "uint256"
        }
      ],
      "name": "FeeUpdated",
      "type": "event"
    },
    {
      "anonymous": false,
      "inputs": [
        {
          "indexed": false,
          "internalType": "uint8",
          "name": "version",
          "type": "uint8"
        }
      ],
      "name": "Initialized",
      "type": "event"
    },
    {
      "anonymous": false,
      "inputs": [
        {
          "indexed": true,
          "internalType": "address",
          "name": "synth",
          "type": "address"
        }
      ],
      "name": "SynthDisabled",
      "type": "event"
    },
    {
      "anonymous": false,
      "inputs": [
        {
          "indexed": true,
          "internalType": "address",
          "name": "synth",
          "type": "address"
        }
      ],
      "name": "SynthEnabled",
      "type": "event"
    },
    {
      "anonymous": false,
      "inputs": [
        {
          "indexed": true,
          "internalType": "address",
          "name": "synth",
          "type": "address"
        }
      ],
      "name": "SynthRemoved",
      "type": "event"
    },
    {
      "anonymous": false,
      "inputs": [
        {
          "indexed": true,
          "internalType": "address",
          "name": "from",
          "type": "address"
        },
        {
          "indexed": true,
          "internalType": "address",
          "name": "to",
          "type": "address"
        },
        {
          "indexed": false,
          "internalType": "uint256",
          "name": "value",
          "type": "uint256"
        }
      ],
      "name": "Transfer",
      "type": "event"
    },
    {
      "inputs": [],
      "name": "addressManager",
      "outputs": [
        {
          "internalType": "address",
          "name": "",
          "type": "address"
        }
      ],
      "stateMutability": "view",
      "type": "function"
    },
    {
      "inputs": [
        {
          "internalType": "address",
          "name": "owner",
          "type": "address"
        },
        {
          "internalType": "address",
          "name": "spender",
          "type": "address"
        }
      ],
      "name": "allowance",
      "outputs": [
        {
          "internalType": "uint256",
          "name": "",
          "type": "uint256"
        }
      ],
      "stateMutability": "view",
      "type": "function"
    },
    {
      "inputs": [
        {
          "internalType": "address",
          "name": "spender",
          "type": "address"
        },
        {
          "internalType": "uint256",
          "name": "amount",
          "type": "uint256"
        }
      ],
      "name": "approve",
      "outputs": [
        {
          "internalType": "bool",
          "name": "",
          "type": "bool"
        }
      ],
      "stateMutability": "nonpayable",
      "type": "function"
    },
    {
      "inputs": [
        {
          "internalType": "address",
          "name": "account",
          "type": "address"
        }
      ],
      "name": "balanceOf",
      "outputs": [
        {
          "internalType": "uint256",
          "name": "",
          "type": "uint256"
        }
      ],
      "stateMutability": "view",
      "type": "function"
    },
    {
      "inputs": [
        {
          "internalType": "address",
          "name": "_user",
          "type": "address"
        },
        {
          "internalType": "uint256",
          "name": "_amountUSD",
          "type": "uint256"
        }
      ],
      "name": "burn",
      "outputs": [],
      "stateMutability": "nonpayable",
      "type": "function"
    },
    {
      "inputs": [
        {
          "internalType": "address",
          "name": "_synth",
          "type": "address"
        },
        {
          "internalType": "address",
          "name": "_user",
          "type": "address"
        },
        {
          "internalType": "uint256",
          "name": "_amount",
          "type": "uint256"
        }
      ],
      "name": "burnSynth",
      "outputs": [],
      "stateMutability": "nonpayable",
      "type": "function"
    },
    {
      "inputs": [],
      "name": "decimals",
      "outputs": [
        {
          "internalType": "uint8",
          "name": "",
          "type": "uint8"
        }
      ],
      "stateMutability": "view",
      "type": "function"
    },
    {
      "inputs": [
        {
          "internalType": "address",
          "name": "spender",
          "type": "address"
        },
        {
          "internalType": "uint256",
          "name": "subtractedValue",
          "type": "uint256"
        }
      ],
      "name": "decreaseAllowance",
      "outputs": [
        {
          "internalType": "bool",
          "name": "",
          "type": "bool"
        }
      ],
      "stateMutability": "nonpayable",
      "type": "function"
    },
    {
      "inputs": [
        {
          "internalType": "address",
          "name": "_synth",
          "type": "address"
        }
      ],
      "name": "disableSynth",
      "outputs": [],
      "stateMutability": "nonpayable",
      "type": "function"
    },
    {
      "inputs": [
        {
          "internalType": "address",
          "name": "_synth",
          "type": "address"
        }
      ],
      "name": "enableSynth",
      "outputs": [],
      "stateMutability": "nonpayable",
      "type": "function"
    },
    {
      "inputs": [
        {
          "internalType": "address",
          "name": "_fromSynth",
          "type": "address"
        },
        {
          "internalType": "address",
          "name": "_toSynth",
          "type": "address"
        },
        {
          "internalType": "address",
          "name": "_user",
          "type": "address"
        },
        {
          "internalType": "uint256",
          "name": "_fromAmount",
          "type": "uint256"
        },
        {
          "internalType": "uint256",
          "name": "_toAmount",
          "type": "uint256"
        }
      ],
      "name": "exchange",
      "outputs": [],
      "stateMutability": "nonpayable",
      "type": "function"
    },
    {
      "inputs": [],
      "name": "fee",
      "outputs": [
        {
          "internalType": "uint256",
          "name": "",
          "type": "uint256"
        }
      ],
      "stateMutability": "view",
      "type": "function"
    },
    {
      "inputs": [],
      "name": "getSynths",
      "outputs": [
        {
          "internalType": "address[]",
          "name": "",
          "type": "address[]"
        }
      ],
      "stateMutability": "view",
      "type": "function"
    },
    {
      "inputs": [
        {
          "internalType": "address",
          "name": "spender",
          "type": "address"
        },
        {
          "internalType": "uint256",
          "name": "addedValue",
          "type": "uint256"
        }
      ],
      "name": "increaseAllowance",
      "outputs": [
        {
          "internalType": "bool",
          "name": "",
          "type": "bool"
        }
      ],
      "stateMutability": "nonpayable",
      "type": "function"
    },
    {
      "inputs": [
        {
          "internalType": "string",
          "name": "name",
          "type": "string"
        },
        {
          "internalType": "string",
          "name": "symbol",
          "type": "string"
        },
        {
          "internalType": "address",
          "name": "_synthex",
          "type": "address"
        },
        {
          "internalType": "address",
          "name": "_addressManager",
          "type": "address"
        }
      ],
      "name": "initialize",
      "outputs": [],
      "stateMutability": "nonpayable",
      "type": "function"
    },
    {
      "inputs": [
        {
          "internalType": "address",
          "name": "_user",
          "type": "address"
        },
        {
          "internalType": "uint256",
          "name": "_amountUSD",
          "type": "uint256"
        }
      ],
      "name": "mint",
      "outputs": [],
      "stateMutability": "nonpayable",
      "type": "function"
    },
    {
      "inputs": [
        {
          "internalType": "address",
          "name": "_synth",
          "type": "address"
        },
        {
          "internalType": "address",
          "name": "_user",
          "type": "address"
        },
        {
          "internalType": "uint256",
          "name": "_amount",
          "type": "uint256"
        }
      ],
      "name": "mintSynth",
      "outputs": [],
      "stateMutability": "nonpayable",
      "type": "function"
    },
    {
      "inputs": [],
      "name": "name",
      "outputs": [
        {
          "internalType": "string",
          "name": "",
          "type": "string"
        }
      ],
      "stateMutability": "view",
      "type": "function"
    },
    {
      "inputs": [
        {
          "internalType": "address",
          "name": "_synth",
          "type": "address"
        }
      ],
      "name": "removeSynth",
      "outputs": [],
      "stateMutability": "nonpayable",
      "type": "function"
    },
    {
      "inputs": [],
      "name": "symbol",
      "outputs": [
        {
          "internalType": "string",
          "name": "",
          "type": "string"
        }
      ],
      "stateMutability": "view",
      "type": "function"
    },
    {
      "inputs": [],
      "name": "synthex",
      "outputs": [
        {
          "internalType": "contract SyntheX",
          "name": "",
          "type": "address"
        }
      ],
      "stateMutability": "view",
      "type": "function"
    },
    {
      "inputs": [
        {
          "internalType": "address",
          "name": "",
          "type": "address"
        }
      ],
      "name": "synths",
      "outputs": [
        {
          "internalType": "bool",
          "name": "",
          "type": "bool"
        }
      ],
      "stateMutability": "view",
      "type": "function"
    },
    {
      "inputs": [],
      "name": "totalSupply",
      "outputs": [
        {
          "internalType": "uint256",
          "name": "",
          "type": "uint256"
        }
      ],
      "stateMutability": "view",
      "type": "function"
    },
    {
      "inputs": [
        {
          "internalType": "address",
          "name": "to",
          "type": "address"
        },
        {
          "internalType": "uint256",
          "name": "amount",
          "type": "uint256"
        }
      ],
      "name": "transfer",
      "outputs": [
        {
          "internalType": "bool",
          "name": "",
          "type": "bool"
        }
      ],
      "stateMutability": "nonpayable",
      "type": "function"
    },
    {
      "inputs": [
        {
          "internalType": "address",
          "name": "from",
          "type": "address"
        },
        {
          "internalType": "address",
          "name": "to",
          "type": "address"
        },
        {
          "internalType": "uint256",
          "name": "amount",
          "type": "uint256"
        }
      ],
      "name": "transferFrom",
      "outputs": [
        {
          "internalType": "bool",
          "name": "",
          "type": "bool"
        }
      ],
      "stateMutability": "nonpayable",
      "type": "function"
    },
    {
      "inputs": [
        {
          "internalType": "uint256",
          "name": "_fee",
          "type": "uint256"
        }
      ],
      "name": "updateFee",
      "outputs": [],
      "stateMutability": "nonpayable",
      "type": "function"
    }
  ],
  "bytecode": "0x60808060405234610016576123bd908161001c8239f35b600080fdfe60806040526004361015610013575b600080fd5b60003560e01c806306fdde031461021b578063095ea7b31461021257806318160ddd1461020957806323b872dd1461020057806325ce0255146101f7578063313ce567146101ee57806335a7ede6146101e557806339509351146101dc5780633ab76e9f146101d357806340c10f19146101ca5780634798ce5b146101c1578063567b7838146101b85780635bf0abbc146101af57806370a08231146101a65780638f15b4141461019d5780639012c4a81461019457806395d89b411461018b5780639dc29fac146101825780639f087dd614610179578063a301f68414610170578063a457c2d714610167578063a9059cbb1461015e578063af8083da14610155578063dd62ed3e1461014c578063ddca3f43146101435763fb3c96121461013b57600080fd5b61000e61129f565b5061000e611280565b5061000e61121a565b5061000e611152565b5061000e611127565b5061000e61105c565b5061000e611034565b5061000e610ff0565b5061000e610f48565b5061000e610ea0565b5061000e610e65565b5061000e610d30565b5061000e610c32565b5061000e610ba0565b5061000e610b74565b5061000e6107e0565b5061000e6106fa565b5061000e6106d2565b5061000e610665565b5061000e610639565b5061000e61061c565b5061000e6104b4565b5061000e6103f0565b5061000e6103a5565b5061000e61036f565b5061000e610278565b600091031261000e57565b6020808252825181830181905290939260005b82811061026457505060409293506000838284010152601f8019910116010190565b818101860151848201604001528501610242565b503461000e5760008060031936011261035b57604051908060365461029c81611308565b8085529160019180831690811561033157506001146102d6575b6102d2856102c681870382610ca9565b6040519182918261022f565b0390f35b9250603683527f4a11f94e20a93c79f6ec743a1954ec4fc2c08429ae2122118bf234b2185c81b85b8284106103195750505081016020016102c6826102d26102b6565b805460208587018101919091529093019281016102fe565b8695506102d2969350602092506102c694915060ff191682840152151560051b82010192936102b6565b80fd5b6001600160a01b0381160361000e57565b503461000e57604036600319011261000e5761039a6004356103908161035e565b6024359033611579565b602060405160018152f35b503461000e57600036600319011261000e576020603554604051908152f35b606090600319011261000e576004356103dc8161035e565b906024356103e98161035e565b9060443590565b503461000e576103ff366103c4565b906001600160a01b0383166000526034602052610433336040600020906001600160a01b0316600052602052604060002090565b549260018401610454575b610448935061143b565b60405160018152602090f35b8284106104705761046b8361044895033383611579565b61043e565b606460405162461bcd60e51b815260206004820152601d60248201527f45524332303a20696e73756666696369656e7420616c6c6f77616e63650000006044820152fd5b503461000e5760208060031936011261000e576105a49061059f600435916104db8361035e565b610584816105006104f46065546001600160a01b031690565b6001600160a01b031690565b604051907f56d735680000000000000000000000000000000000000000000000000000000082528282600481845afa91821561060f575b6000926105e0575b506040517f91d1485400000000000000000000000000000000000000000000000000000000815260048101929092523360248301529092839190829081906044820190565b03915afa9182156105d3575b6000926105a6575b5050611b5c565b611c03565b005b6105c59250803d106105cc575b6105bd8183610ca9565b810190611b44565b3880610598565b503d6105b3565b6105db611b37565b610590565b610601919250833d8511610608575b6105f98183610ca9565b810190611b28565b903861053f565b503d6105ef565b610617611b37565b610537565b503461000e57600036600319011261000e57602060405160128152f35b503461000e5760208060031936011261000e576105a490610660600435916104db8361035e565b611e14565b503461000e57604036600319011261000e5761039a6004356106868161035e565b3360005260346020526106b0816040600020906001600160a01b0316600052602052604060002090565b549060243582018092116106c5575b33611579565b6106cd611342565b6106bf565b503461000e57600036600319011261000e5760206001600160a01b0360695416604051908152f35b503461000e57604036600319011261000e576004356107188161035e565b602435906001600160a01b0360655416610733813314611fb8565b6035549081610748575050906105a491612079565b926107a46107a96107af936107a46105a4976020604051809263fca3508b60e01b8252818061078a30600483019190916001600160a01b036020820193169052565b03915afa9081156107d3575b6000916107b5575b50612029565b612059565b91612029565b90612079565b6107cd915060203d8111610608576105f98183610ca9565b3861079e565b6107db611b37565b610796565b503461000e5760a036600319011261000e5760048035906108008261035e565b60243561080c8161035e565b604435926108198461035e565b608435906001600160a01b039361083585606554163314611fb8565b61086461085f610858866001600160a01b03166000526066602052604060002090565b5460ff1690565b6122a8565b846067549216803b1561000e5786956108b5956040928351998a8092632770a7eb60e21b8252816000809e819d8296606435908d8401602090939291936001600160a01b0360408201951681520152565b03925af18015610b67575b610b54575b5016926108eb6108dd6108d783611d65565b87612046565b670de0b6b3a7640000900490565b843b15610b505786610927918451809381926340c10f1960e01b9c8d8452898401602090939291936001600160a01b0360408201951681520152565b038183895af18015610b43575b610b30575b506109526104f46104f46069546001600160a01b031690565b94610a2e835185602098826109e78c6109ce8d80809801856109808260059064159055531560da1b81520190565b0395610994601f1997888101835282610ca9565b5190208c51809381927f21f8a721000000000000000000000000000000000000000000000000000000009a8b845283019190602083019252565b0381885afa918215610b23575b91610b06575b5061230b565b8751610a138582019282610a078560059064159055531560da1b81520190565b03908101835282610ca9565b51902091875180958194829383528b83019190602083019252565b03915afa968715610af9575b8897610abe575b5050610a50916108dd91612046565b95833b15610aba57610a848692519788968795869485528401602090939291936001600160a01b0360408201951681520152565b03925af18015610aad575b610a97575080f35b80610aa4610aaa92610c88565b80610224565b80f35b610ab5611b37565b610a8f565b8580fd5b6108dd929750610a50939181610ae892903d10610af2575b610ae08183610ca9565b8101906122f3565b9691819350610a41565b503d610ad6565b610b01611b37565b610a3a565b610b1d9150863d8811610af257610ae08183610ca9565b386109e1565b610b2b611b37565b6109db565b80610aa4610b3d92610c88565b38610939565b610b4b611b37565b610934565b8680fd5b80610aa4610b6192610c88565b386108c5565b610b6f611b37565b6108c0565b503461000e5760208060031936011261000e576105a490610b9b600435916104db8361035e565b611d0f565b503461000e57610baf366103c4565b91606554926000938492610bce6001600160a01b038093163314611fb8565b16803b15610c2e576040516340c10f1960e01b81526001600160a01b03909416600485015260248401919091528290818381604481015b03925af18015610c21575b610c18575080f35b610aaa90610c88565b610c29611b37565b610c10565b8280fd5b503461000e57602036600319011261000e576001600160a01b03600435610c588161035e565b1660005260336020526020604060002054604051908152f35b50634e487b7160e01b600052604160045260246000fd5b67ffffffffffffffff8111610c9c57604052565b610ca4610c71565b604052565b90601f8019910116810190811067ffffffffffffffff821117610c9c57604052565b81601f8201121561000e5780359067ffffffffffffffff8211610d23575b60405192610d01601f8401601f191660200185610ca9565b8284526020838301011161000e57816000926020809301838601378301015290565b610d2b610c71565b610ce9565b503461000e57608036600319011261000e5767ffffffffffffffff60043581811161000e57610d63903690600401610ccb565b9060243590811161000e57610d7f610dd9913690600401610ccb565b604435610d8b8161035e565b60643591610d988361035e565b60005494610dbd60ff8760081c161580978198610e57575b8115610e37575b506116d8565b85610dd0600160ff196000541617600055565b610e1e57611749565b610ddf57005b610def61ff001960005416600055565b604051600181527f7f26b83ff96e1f2b6a682f133852f6798a09c465da95921460cefb384740249890602090a1005b610e3261010061ff00196000541617600055565b611749565b303b15915081610e49575b5038610db7565b6001915060ff161438610e42565b600160ff8216109150610db0565b503461000e5760208060031936011261000e5780610584610e95926105006104f46065546001600160a01b031690565b6105a4600435611cde565b503461000e5760008060031936011261035b576040519080603754610ec481611308565b808552916001918083169081156103315750600114610eed576102d2856102c681870382610ca9565b9250603783527f42a7b7dd785cd69714a189dffb3fd7d7174edc9ece837694ce50f7078f7c31ae5b828410610f305750505081016020016102c6826102d26102b6565b80546020858701810191909152909301928101610f15565b503461000e57604036600319011261000e576105a4600435610f698161035e565b610fbf602460206001600160a01b0360655416610f87813314611fb8565b6040519283809263fca3508b60e01b82523060048301525afa908115610fe3575b600091610fc5575b506107a4602435603554612046565b906121af565b610fdd915060203d8111610608576105f98183610ca9565b38610fb0565b610feb611b37565b610fa8565b503461000e57602036600319011261000e576001600160a01b036004356110168161035e565b166000526066602052602060ff604060002054166040519015158152f35b503461000e57600036600319011261000e5760206001600160a01b0360655416604051908152f35b503461000e57604036600319011261000e5760043561107a8161035e565b602435903360005260346020526110a8816040600020906001600160a01b0316600052602052604060002090565b54918083106110bd5761044892039033611579565b608460405162461bcd60e51b815260206004820152602560248201527f45524332303a2064656372656173656420616c6c6f77616e63652062656c6f7760448201527f207a65726f0000000000000000000000000000000000000000000000000000006064820152fd5b503461000e57604036600319011261000e5761039a6004356111488161035e565b602435903361143b565b503461000e5760008060031936011261035b5760405180916068549081835260208093018092606883527fa2153420d844928b4421650203c77babc8b33d7f2e7b450e2966db0c2209775390835b8181106111fd57505050846111b6910385610ca9565b60405193838594850191818652518092526040850193925b8281106111dd57505050500390f35b83516001600160a01b0316855286955093810193928101926001016111ce565b82546001600160a01b0316845292860192600192830192016111a0565b503461000e57604036600319011261000e57602061127760043561123d8161035e565b6001600160a01b03602435916112528361035e565b16600052603483526040600020906001600160a01b0316600052602052604060002090565b54604051908152f35b503461000e57600036600319011261000e576020606754604051908152f35b503461000e576112ae366103c4565b916065549260009384926112cd6001600160a01b038093163314611fb8565b16803b15610c2e57604051632770a7eb60e21b81526001600160a01b0390941660048501526024840191909152829081838160448101610c05565b90600182811c92168015611338575b602083101461132257565b634e487b7160e01b600052602260045260246000fd5b91607f1691611317565b50634e487b7160e01b600052601160045260246000fd5b1561136057565b608460405162461bcd60e51b815260206004820152602360248201527f45524332303a207472616e7366657220746f20746865207a65726f206164647260448201527f65737300000000000000000000000000000000000000000000000000000000006064820152fd5b156113d157565b608460405162461bcd60e51b815260206004820152602660248201527f45524332303a207472616e7366657220616d6f756e742065786365656473206260448201527f616c616e636500000000000000000000000000000000000000000000000000006064820152fd5b91906001600160a01b039081841692831561150f576114f4827fddf252ad1be2c89b69c2b068fc378daa952ba7f163c4a11628f55a4df523b3ef9461150a941696611487881515611359565b6114918282611f90565b6114da846114b2836001600160a01b03166000526033602052604060002090565b546114bf828210156113ca565b03916001600160a01b03166000526033602052604060002090565b556001600160a01b03166000526033602052604060002090565b8054820190556040519081529081906020820190565b0390a3565b608460405162461bcd60e51b815260206004820152602560248201527f45524332303a207472616e736665722066726f6d20746865207a65726f20616460448201527f64726573730000000000000000000000000000000000000000000000000000006064820152fd5b906001600160a01b039182811692831561166f57821693841561160557806115f47f8c5be1e5ebec7d5bd14f71427d1e84f3dd0314c0f7b2291e5b200ac8c7c3b925946115dc61150a956001600160a01b03166000526034602052604060002090565b906001600160a01b0316600052602052604060002090565b556040519081529081906020820190565b608460405162461bcd60e51b815260206004820152602260248201527f45524332303a20617070726f766520746f20746865207a65726f20616464726560448201527f73730000000000000000000000000000000000000000000000000000000000006064820152fd5b608460405162461bcd60e51b8152602060048201526024808201527f45524332303a20617070726f76652066726f6d20746865207a65726f2061646460448201527f72657373000000000000000000000000000000000000000000000000000000006064820152fd5b156116df57565b608460405162461bcd60e51b815260206004820152602e60248201527f496e697469616c697a61626c653a20636f6e747261637420697320616c72656160448201527f647920696e697469616c697a65640000000000000000000000000000000000006064820152fd5b61176360ff60005460081c1661175e816118dd565b6118dd565b80519067ffffffffffffffff82116118d0575b61178a82611785603654611308565b61194e565b60209081601f841160011461183457506117fe93836001600160a01b03946118279897946117d494600092611829575b50508160011b916000199060031b1c191617603655611a30565b166001600160a01b031673ffffffffffffffffffffffffffffffffffffffff196065541617606555565b6001600160a01b031673ffffffffffffffffffffffffffffffffffffffff196069541617606955565b565b0151905038806117ba565b60366000529190601f1984167f4a11f94e20a93c79f6ec743a1954ec4fc2c08429ae2122118bf234b2185c81b8936000905b8282106118b8575050846118279897946117d4946117fe98946001600160a01b03986001951061189f575b505050811b01603655611a30565b015160001960f88460031b161c19169055388080611891565b80600186978294978701518155019601940190611866565b6118d8610c71565b611776565b156118e457565b608460405162461bcd60e51b815260206004820152602b60248201527f496e697469616c697a61626c653a20636f6e7472616374206973206e6f74206960448201527f6e697469616c697a696e670000000000000000000000000000000000000000006064820152fd5b601f811161195a575050565b600090603682527f4a11f94e20a93c79f6ec743a1954ec4fc2c08429ae2122118bf234b2185c81b8906020601f850160051c830194106119b5575b601f0160051c01915b8281106119aa57505050565b81815560010161199e565b9092508290611995565b601f81116119cb575050565b600090603782527f42a7b7dd785cd69714a189dffb3fd7d7174edc9ece837694ce50f7078f7c31ae906020601f850160051c83019410611a26575b601f0160051c01915b828110611a1b57505050565b818155600101611a0f565b9092508290611a06565b90815167ffffffffffffffff8111611b1b575b611a5781611a52603754611308565b6119bf565b602080601f8311600114611a935750819293600092611a88575b50508160011b916000199060031b1c191617603755565b015190503880611a71565b90601f19831694611ac660376000527f42a7b7dd785cd69714a189dffb3fd7d7174edc9ece837694ce50f7078f7c31ae90565b926000905b878210611b03575050836001959610611aea575b505050811b01603755565b015160001960f88460031b161c19169055388080611adf565b80600185968294968601518155019501930190611acb565b611b23610c71565b611a43565b9081602091031261000e575190565b506040513d6000823e3d90fd5b9081602091031261000e5751801515810361000e5790565b15611b6357565b606460405162461bcd60e51b815260206004820152602060248201527f53796e74686558506f6f6c3a204f6e6c79206f776e65722063616e206d696e746044820152fd5b50634e487b7160e01b600052603260045260246000fd5b606854811015611bf6575b60686000527fa2153420d844928b4421650203c77babc8b33d7f2e7b450e2966db0c220977530190600090565b611bfe611ba7565b611bc9565b6001600160a01b03166000818152606660205260ff60408220541615611c27575050565b8060407fe2a42d951bfc690f8a783fe48a2ad2c78d11d97549bf612f9661a6edc18394a59220600160ff1982541617905560685468010000000000000000811015611cd1575b6001810180606855811015611cc4575b606882527fa2153420d844928b4421650203c77babc8b33d7f2e7b450e2966db0c22097753018373ffffffffffffffffffffffffffffffffffffffff1982541617905580a2565b611ccc611ba7565b611c7d565b611cd9610c71565b611c6d565b60207f8c4d35e54a3f2ef1134138fd8ea3daee6a3c89e10d2665996babdf70261e2c769180606755604051908152a1565b6001600160a01b031680600052606660205260ff60406000205416611d315750565b604060002060ff1981541690557ff22c48507c9ba9fb4656f225a911518e656db195b09a3dffecd7b2e27cd89a72600080a2565b90670de0b6b3a7640000918203918211611d7b57565b611827611342565b600019810191908211611d7b57565b6068548015611dfe577fa2153420d844928b4421650203c77babc8b33d7f2e7b450e2966db0c2209775260001982019180831015611df1575b60686000520173ffffffffffffffffffffffffffffffffffffffff198154169055606855565b611df9611ba7565b611dcb565b634e487b7160e01b600052603160045260246000fd5b6001600160a01b039081166000818152606660205260408120805460ff19169055805b60685480821015611f00578385611e63611e5085611bbe565b90546001600160a01b039160031b1c1690565b1614611e8a57506001906000198114611e7d575b01611e37565b611e85611342565b611e77565b7ff804291aceae84499f2c1ee0cdd31db3f4f8e357c39784952e32b3398441d43093945090611ecf611ec9611e50611ec4611ef495611d83565b611bbe565b91611bbe565b90919082549060031b916001600160a01b039283811b93849216901b16911916179055565b611efc611d92565b80a2565b5050505050565b6001600160a01b0316151580611f88575b611f1e57565b608460405162461bcd60e51b815260206004820152602860248201527f53796e74686558506f6f6c3a2043616e6e6f74207472616e736665722064656260448201527f7420746f6b656e730000000000000000000000000000000000000000000000006064820152fd5b506000611f18565b6001600160a01b0380911615159182611fac575b5050611f1e57565b16151590503880611fa4565b15611fbf57565b608460405162461bcd60e51b815260206004820152602360248201527f4f6e6c792053796e746865582063616e2063616c6c20746869732066756e637460448201527f696f6e00000000000000000000000000000000000000000000000000000000006064820152fd5b90670de0b6b3a764000091828102928184041490151715611d7b57565b81810292918115918404141715611d7b57565b8115612063570490565b634e487b7160e01b600052601260045260246000fd5b6001600160a01b0381169182156120fa5760207fddf252ad1be2c89b69c2b068fc378daa952ba7f163c4a11628f55a4df523b3ef916120de6000946035548381018091116120ed575b6035556001600160a01b03166000526033602052604060002090565b818154019055604051908152a3565b6120f5611342565b6120c2565b606460405162461bcd60e51b815260206004820152601f60248201527f45524332303a206d696e7420746f20746865207a65726f2061646472657373006044820152fd5b1561214557565b608460405162461bcd60e51b815260206004820152602260248201527f45524332303a206275726e20616d6f756e7420657863656564732062616c616e60448201527f63650000000000000000000000000000000000000000000000000000000000006064820152fd5b906001600160a01b03821690811561223e5761150a7fddf252ad1be2c89b69c2b068fc378daa952ba7f163c4a11628f55a4df523b3ef91846121f2600096611f07565b61222082612213836001600160a01b03166000526033602052604060002090565b546114bf8282101561213e565b5561222e8160355403603555565b6040519081529081906020820190565b608460405162461bcd60e51b815260206004820152602160248201527f45524332303a206275726e2066726f6d20746865207a65726f2061646472657360448201527f73000000000000000000000000000000000000000000000000000000000000006064820152fd5b156122af57565b606460405162461bcd60e51b815260206004820152601160248201527f53796e7468206e6f7420656e61626c65640000000000000000000000000000006044820152fd5b9081602091031261000e57516123088161035e565b90565b600080916040516001600160a01b0360208201927f2c2ecbc2000000000000000000000000000000000000000000000000000000008452166024820152602481526060810181811067ffffffffffffffff82111761237a575b60405251906a636f6e736f6c652e6c6f675afa50565b612382610c71565b61236456fea26469706673582212202b7c3aacdca77c19a2523822229aa76099913e5a8a3cfbf778bd6101e790f42064736f6c63430008110033",
  "linkReferences": {},
  "deployedLinkReferences": {}
}