{
  "_format": "hh-sol-artifact-1",
  "contractName": "SyntheXPool",
  "sourceName": "contracts/SyntheXPool.sol",
  "abi": [
    {
      "anonymous": false,
      "inputs": [
        {
          "indexed": true,
          "internalType": "address",
          "name": "owner",
          "type": "address"
        },
        {
          "indexed": true,
          "internalType": "address",
          "name": "spender",
          "type": "address"
        },
        {
          "indexed": false,
          "internalType": "uint256",
          "name": "value",
          "type": "uint256"
        }
      ],
      "name": "Approval",
      "type": "event"
    },
    {
      "anonymous": false,
      "inputs": [
        {
          "indexed": false,
          "internalType": "uint256",
          "name": "fee",
          "type": "uint256"
        }
      ],
      "name": "FeeUpdated",
      "type": "event"
    },
    {
      "anonymous": false,
      "inputs": [
        {
          "indexed": false,
          "internalType": "uint8",
          "name": "version",
          "type": "uint8"
        }
      ],
      "name": "Initialized",
      "type": "event"
    },
    {
      "anonymous": false,
      "inputs": [
        {
          "indexed": true,
          "internalType": "address",
          "name": "synth",
          "type": "address"
        }
      ],
      "name": "SynthDisabled",
      "type": "event"
    },
    {
      "anonymous": false,
      "inputs": [
        {
          "indexed": true,
          "internalType": "address",
          "name": "synth",
          "type": "address"
        }
      ],
      "name": "SynthEnabled",
      "type": "event"
    },
    {
      "anonymous": false,
      "inputs": [
        {
          "indexed": true,
          "internalType": "address",
          "name": "synth",
          "type": "address"
        }
      ],
      "name": "SynthRemoved",
      "type": "event"
    },
    {
      "anonymous": false,
      "inputs": [
        {
          "indexed": true,
          "internalType": "address",
          "name": "from",
          "type": "address"
        },
        {
          "indexed": true,
          "internalType": "address",
          "name": "to",
          "type": "address"
        },
        {
          "indexed": false,
          "internalType": "uint256",
          "name": "value",
          "type": "uint256"
        }
      ],
      "name": "Transfer",
      "type": "event"
    },
    {
      "inputs": [],
      "name": "ADMIN",
      "outputs": [
        {
          "internalType": "bytes32",
          "name": "",
          "type": "bytes32"
        }
      ],
      "stateMutability": "view",
      "type": "function"
    },
    {
      "inputs": [],
      "name": "POOL_MANAGER",
      "outputs": [
        {
          "internalType": "bytes32",
          "name": "",
          "type": "bytes32"
        }
      ],
      "stateMutability": "view",
      "type": "function"
    },
    {
      "inputs": [],
      "name": "PRICE_ORACLE",
      "outputs": [
        {
          "internalType": "bytes32",
          "name": "",
          "type": "bytes32"
        }
      ],
      "stateMutability": "view",
      "type": "function"
    },
    {
      "inputs": [],
      "name": "SYNTHEX",
      "outputs": [
        {
          "internalType": "bytes32",
          "name": "",
          "type": "bytes32"
        }
      ],
      "stateMutability": "view",
      "type": "function"
    },
    {
      "inputs": [],
      "name": "VAULT",
      "outputs": [
        {
          "internalType": "bytes32",
          "name": "",
          "type": "bytes32"
        }
      ],
      "stateMutability": "view",
      "type": "function"
    },
    {
      "inputs": [],
      "name": "addressStorage",
      "outputs": [
        {
          "internalType": "contract AddressStorage",
          "name": "",
          "type": "address"
        }
      ],
      "stateMutability": "view",
      "type": "function"
    },
    {
      "inputs": [
        {
          "internalType": "address",
          "name": "owner",
          "type": "address"
        },
        {
          "internalType": "address",
          "name": "spender",
          "type": "address"
        }
      ],
      "name": "allowance",
      "outputs": [
        {
          "internalType": "uint256",
          "name": "",
          "type": "uint256"
        }
      ],
      "stateMutability": "view",
      "type": "function"
    },
    {
      "inputs": [
        {
          "internalType": "address",
          "name": "spender",
          "type": "address"
        },
        {
          "internalType": "uint256",
          "name": "amount",
          "type": "uint256"
        }
      ],
      "name": "approve",
      "outputs": [
        {
          "internalType": "bool",
          "name": "",
          "type": "bool"
        }
      ],
      "stateMutability": "nonpayable",
      "type": "function"
    },
    {
      "inputs": [
        {
          "internalType": "address",
          "name": "account",
          "type": "address"
        }
      ],
      "name": "balanceOf",
      "outputs": [
        {
          "internalType": "uint256",
          "name": "",
          "type": "uint256"
        }
      ],
      "stateMutability": "view",
      "type": "function"
    },
    {
      "inputs": [
        {
          "internalType": "address",
          "name": "_user",
          "type": "address"
        },
        {
          "internalType": "uint256",
          "name": "_amountUSD",
          "type": "uint256"
        }
      ],
      "name": "burn",
      "outputs": [],
      "stateMutability": "nonpayable",
      "type": "function"
    },
    {
      "inputs": [
        {
          "internalType": "address",
          "name": "_synth",
          "type": "address"
        },
        {
          "internalType": "address",
          "name": "_user",
          "type": "address"
        },
        {
          "internalType": "uint256",
          "name": "_amount",
          "type": "uint256"
        }
      ],
      "name": "burnSynth",
      "outputs": [],
      "stateMutability": "nonpayable",
      "type": "function"
    },
    {
      "inputs": [],
      "name": "decimals",
      "outputs": [
        {
          "internalType": "uint8",
          "name": "",
          "type": "uint8"
        }
      ],
      "stateMutability": "view",
      "type": "function"
    },
    {
      "inputs": [
        {
          "internalType": "address",
          "name": "spender",
          "type": "address"
        },
        {
          "internalType": "uint256",
          "name": "subtractedValue",
          "type": "uint256"
        }
      ],
      "name": "decreaseAllowance",
      "outputs": [
        {
          "internalType": "bool",
          "name": "",
          "type": "bool"
        }
      ],
      "stateMutability": "nonpayable",
      "type": "function"
    },
    {
      "inputs": [
        {
          "internalType": "address",
          "name": "_synth",
          "type": "address"
        }
      ],
      "name": "disableSynth",
      "outputs": [],
      "stateMutability": "nonpayable",
      "type": "function"
    },
    {
      "inputs": [
        {
          "internalType": "address",
          "name": "_synth",
          "type": "address"
        }
      ],
      "name": "enableSynth",
      "outputs": [],
      "stateMutability": "nonpayable",
      "type": "function"
    },
    {
      "inputs": [
        {
          "internalType": "address",
          "name": "_fromSynth",
          "type": "address"
        },
        {
          "internalType": "address",
          "name": "_toSynth",
          "type": "address"
        },
        {
          "internalType": "address",
          "name": "_user",
          "type": "address"
        },
        {
          "internalType": "uint256",
          "name": "_fromAmount",
          "type": "uint256"
        },
        {
          "internalType": "uint256",
          "name": "_toAmount",
          "type": "uint256"
        }
      ],
      "name": "exchange",
      "outputs": [],
      "stateMutability": "nonpayable",
      "type": "function"
    },
    {
      "inputs": [],
      "name": "fee",
      "outputs": [
        {
          "internalType": "uint256",
          "name": "",
          "type": "uint256"
        }
      ],
      "stateMutability": "view",
      "type": "function"
    },
    {
      "inputs": [],
      "name": "getSynths",
      "outputs": [
        {
          "internalType": "address[]",
          "name": "",
          "type": "address[]"
        }
      ],
      "stateMutability": "view",
      "type": "function"
    },
    {
      "inputs": [],
      "name": "getTotalDebtUSD",
      "outputs": [
        {
          "internalType": "uint256",
          "name": "",
          "type": "uint256"
        }
      ],
      "stateMutability": "view",
      "type": "function"
    },
    {
      "inputs": [
        {
          "internalType": "address",
          "name": "spender",
          "type": "address"
        },
        {
          "internalType": "uint256",
          "name": "addedValue",
          "type": "uint256"
        }
      ],
      "name": "increaseAllowance",
      "outputs": [
        {
          "internalType": "bool",
          "name": "",
          "type": "bool"
        }
      ],
      "stateMutability": "nonpayable",
      "type": "function"
    },
    {
      "inputs": [
        {
          "internalType": "string",
          "name": "name",
          "type": "string"
        },
        {
          "internalType": "string",
          "name": "symbol",
          "type": "string"
        },
        {
          "internalType": "address",
          "name": "_addressStorage",
          "type": "address"
        }
      ],
      "name": "initialize",
      "outputs": [],
      "stateMutability": "nonpayable",
      "type": "function"
    },
    {
      "inputs": [
        {
          "internalType": "address",
          "name": "_user",
          "type": "address"
        },
        {
          "internalType": "uint256",
          "name": "_amountUSD",
          "type": "uint256"
        }
      ],
      "name": "mint",
      "outputs": [],
      "stateMutability": "nonpayable",
      "type": "function"
    },
    {
      "inputs": [
        {
          "internalType": "address",
          "name": "_synth",
          "type": "address"
        },
        {
          "internalType": "address",
          "name": "_user",
          "type": "address"
        },
        {
          "internalType": "uint256",
          "name": "_amount",
          "type": "uint256"
        }
      ],
      "name": "mintSynth",
      "outputs": [],
      "stateMutability": "nonpayable",
      "type": "function"
    },
    {
      "inputs": [],
      "name": "name",
      "outputs": [
        {
          "internalType": "string",
          "name": "",
          "type": "string"
        }
      ],
      "stateMutability": "view",
      "type": "function"
    },
    {
      "inputs": [],
      "name": "oracle",
      "outputs": [
        {
          "internalType": "contract IPriceOracle",
          "name": "",
          "type": "address"
        }
      ],
      "stateMutability": "view",
      "type": "function"
    },
    {
      "inputs": [
        {
          "internalType": "address",
          "name": "_synth",
          "type": "address"
        }
      ],
      "name": "removeSynth",
      "outputs": [],
      "stateMutability": "nonpayable",
      "type": "function"
    },
    {
      "inputs": [],
      "name": "symbol",
      "outputs": [
        {
          "internalType": "string",
          "name": "",
          "type": "string"
        }
      ],
      "stateMutability": "view",
      "type": "function"
    },
    {
      "inputs": [
        {
          "internalType": "address",
          "name": "",
          "type": "address"
        }
      ],
      "name": "synths",
      "outputs": [
        {
          "internalType": "bool",
          "name": "",
          "type": "bool"
        }
      ],
      "stateMutability": "view",
      "type": "function"
    },
    {
      "inputs": [],
      "name": "totalSupply",
      "outputs": [
        {
          "internalType": "uint256",
          "name": "",
          "type": "uint256"
        }
      ],
      "stateMutability": "view",
      "type": "function"
    },
    {
      "inputs": [
        {
          "internalType": "address",
          "name": "to",
          "type": "address"
        },
        {
          "internalType": "uint256",
          "name": "amount",
          "type": "uint256"
        }
      ],
      "name": "transfer",
      "outputs": [
        {
          "internalType": "bool",
          "name": "",
          "type": "bool"
        }
      ],
      "stateMutability": "nonpayable",
      "type": "function"
    },
    {
      "inputs": [
        {
          "internalType": "address",
          "name": "from",
          "type": "address"
        },
        {
          "internalType": "address",
          "name": "to",
          "type": "address"
        },
        {
          "internalType": "uint256",
          "name": "amount",
          "type": "uint256"
        }
      ],
      "name": "transferFrom",
      "outputs": [
        {
          "internalType": "bool",
          "name": "",
          "type": "bool"
        }
      ],
      "stateMutability": "nonpayable",
      "type": "function"
    },
    {
      "inputs": [
        {
          "internalType": "uint256",
          "name": "_fee",
          "type": "uint256"
        }
      ],
      "name": "updateFee",
      "outputs": [],
      "stateMutability": "nonpayable",
      "type": "function"
    },
    {
      "inputs": [],
      "name": "vault",
      "outputs": [
        {
          "internalType": "address",
          "name": "",
          "type": "address"
        }
      ],
      "stateMutability": "view",
      "type": "function"
    }
  ],
  "bytecode": "0x60808060405234610016576125eb908161001c8239f35b600080fdfe608060408181526004918236101561001657600080fd5b600092833560e01c91826306fdde03146119fa57508163077f224a1461159a578163095ea7b3146115705781630a19399a1461153557816318160ddd1461151657816323b872dd1461145e57816325ce02551461132e5781632a0acc6a146112f3578163313ce567146112d757816335a7ede61461113157816339509351146110e257816340c10f1914610fa0578163411557d114610f655781634798ce5b14610d09578163567b783814610c1e578382635bf0abbc14610a2057508163612e1488146109f857816362308e85146109bd57816370a08231146109865781637dc0d1d0146109615781639012c4a81461088757816395d89b41146107a65781639dc29fac146105465781639f087dd61461050a578163a457c2d71461044a5783908263a9059cbb14610419578263af8083da146103b6578263d3b6364c1461037b578263dd62ed3e1461032f578263ddca3f4314610310578263e3cdb934146102ec578263fb3c9612146101c457505063fbfa77cf1461019557600080fd5b346101c057816003193601126101c0576020906001600160a01b036101b861222e565b915191168152f35b5080fd5b915091346102e8576101d536611bd5565b9093916001600160a01b03906024602083606854168751928380926321f8a72160e01b82527f2816e0796902df346a357f2e88c96fca0fc53c26aff312757b2a359f29427e9d8a8301525afa9081156102de579061023e9189916102b0575b50831633146124a1565b16803b156102ac5761027d94868094865197889586948593632770a7eb60e21b85528401602090939291936001600160a01b0360408201951681520152565b03925af19081156102a357506102905750f35b61029990611aeb565b6102a05780f35b80fd5b513d84823e3d90fd5b8580fd5b6102d1915060203d81116102d7575b6102c98183611b15565b81019061202f565b38610234565b503d6102bf565b86513d8a823e3d90fd5b5050fd5b5082346101c057816003193601126101c0576020906103096122a4565b9051908152f35b5082346101c057816003193601126101c0576020906066549051908152f35b5082346101c057806003193601126101c05760209161034c611ba9565b82610355611bbf565b926001600160a01b03809316815260348652209116600052825280600020549051908152f35b5082346101c057816003193601126101c057602090517f2816e0796902df346a357f2e88c96fca0fc53c26aff312757b2a359f29427e9d8152f35b5082346101c057816003193601126101c0576103d0612131565b815192839260208080860192818752855180945286019401925b8281106103f957505050500390f35b83516001600160a01b0316855286955093810193928101926001016103ea565b5082346101c057806003193601126101c057602090610443610439611ba9565b6024359033611c67565b5160018152f35b905082346102a057826003193601126102a057610465611ba9565b9183602435923381526034602052206001600160a01b0384166000526020528360002054908282106104a1576020856104438585038733611e8a565b608490602086519162461bcd60e51b8352820152602560248201527f45524332303a2064656372656173656420616c6c6f77616e63652062656c6f7760448201527f207a65726f0000000000000000000000000000000000000000000000000000006064820152fd5b5050346101c05760203660031901126101c05760ff816020936001600160a01b03610533611ba9565b1681526065855220541690519015158152f35b839150346101c057826003193601126101c057610561611ba9565b6001600160a01b0390816068541691855180936321f8a72160e01b82527f2816e0796902df346a357f2e88c96fca0fc53c26aff312757b2a359f29427e9d8683015281602460209687935afa90811561079c57906105ca91879161077f575b50821633146124a1565b6105e86105d56122a4565b6105e360243560355461246e565b612481565b91169283158015906107175780610710575b6106bd578385526033835285852054908282106106555750908495817fddf252ad1be2c89b69c2b068fc378daa952ba7f163c4a11628f55a4df523b3ef9493868852603385520381872055816035540360355551908152a380f35b6084908488519162461bcd60e51b8352820152602260248201527f45524332303a206275726e20616d6f756e7420657863656564732062616c616e60448201527f63650000000000000000000000000000000000000000000000000000000000006064820152fd5b6084908387519162461bcd60e51b8352820152602860248201527f53796e74686558506f6f6c3a2043616e6e6f74207472616e73666572206465626044820152677420746f6b656e7360c01b6064820152fd5b50846105fa565b6084828589519162461bcd60e51b8352820152602160248201527f45524332303a206275726e2066726f6d20746865207a65726f2061646472657360448201527f73000000000000000000000000000000000000000000000000000000000000006064820152fd5b6107969150853d87116102d7576102c98183611b15565b886105c0565b87513d88823e3d90fd5b5050346101c057816003193601126101c057805190826037546107c881611c0a565b8085529160019180831690811561085f5750600114610802575b5050506107f4826107fe940383611b15565b5191829182611aa2565b0390f35b9450603785527f42a7b7dd785cd69714a189dffb3fd7d7174edc9ece837694ce50f7078f7c31ae5b828610610847575050506107f48260206107fe95820101946107e2565b8054602087870181019190915290950194810161082a565b6107fe9750869350602092506107f494915060ff191682840152151560051b820101946107e2565b90503461095d57602036600319011261095d578035906001600160a01b0360207f41a01ec0a13b563fa452569e3fbb116366d217c2769aa1561822e65a617e38426024836068541694875195869384926321f8a72160e01b84528301525afa91821561095357602093927f8c4d35e54a3f2ef1134138fd8ea3daee6a3c89e10d2665996babdf70261e2c769592610928928892610934575b5016331461204e565b8160665551908152a180f35b61094c919250863d81116102d7576102c98183611b15565b903861091f565b84513d87823e3d90fd5b8280fd5b5050346101c057816003193601126101c0576020906001600160a01b036101b86121a9565b5050346101c05760203660031901126101c057806020926001600160a01b036109ad611ba9565b1681526033845220549051908152f35b5050346101c057816003193601126101c057602090517f41a01ec0a13b563fa452569e3fbb116366d217c2769aa1561822e65a617e38428152f35b5050346101c057816003193601126101c0576020906001600160a01b03606854169051908152f35b809184346102e857610a3136611bd5565b90916001600160a01b038060685416855193846321f8a72160e01b928382527f2816e0796902df346a357f2e88c96fca0fc53c26aff312757b2a359f29427e9d8a83015281602460209889935afa908115610bc95790610a9c918b91610c01575b50841633146124a1565b612710836066549516940491670de0b6b3a76400009384610ac5610abf8661211b565b8561246e565b04863b15610bfd5789516340c10f1960e01b8082526001600160a01b03909a16818d019081526020810192909252908c90829081906040010381838b5af18015610bf357918c8c928a94610bd3575b50507f68fc488efe30251cadb6ac88bdeef3f1a5e6048808baf387258d1d78e986720c93602491606854168c51958694859384528301525afa958615610bc9578a96610ba2575b505090610b679161246e565b0494813b15610b9e5786809461027d87519889968795869485528401602090939291936001600160a01b0360408201951681520152565b8680fd5b610b67939296509081610bc092903d106102d7576102c98183611b15565b9490918b610b5b565b88513d8c823e3d90fd5b909250610be1919350611aeb565b610bef578987918c8f610b14565b8a80fd5b8a513d8e823e3d90fd5b8b80fd5b610c189150873d89116102d7576102c98183611b15565b8c610a92565b90503461095d57602036600319011261095d57610c39611ba9565b6001600160a01b039160207f41a01ec0a13b563fa452569e3fbb116366d217c2769aa1561822e65a617e38426024856068541693875194859384926321f8a72160e01b84528301525afa801561095357610c9e918691610ceb575b508316331461204e565b1690818352606560205260ff8184205416610cb7578280f35b8220805460ff191690557ff22c48507c9ba9fb4656f225a911518e656db195b09a3dffecd7b2e27cd89a728280a238808280f35b610d03915060203d81116102d7576102c98183611b15565b38610c94565b839150346101c05760a03660031901126101c057610d25611ba9565b92610d2e611bbf565b610d36611b93565b90608435906001600160a01b03906024602083606854168751928380926321f8a72160e01b82527f2816e0796902df346a357f2e88c96fca0fc53c26aff312757b2a359f29427e9d8c8301525afa9081156102de57839291610da2918a91610f475750831633146124a1565b1690818752606560205260ff858820541615610f0457606654971696873b15610b9e578685518099632770a7eb60e21b8252818381610dfd8c8b606435918401602090939291936001600160a01b0360408201951681520152565b03925af18015610efa57610ee6575b869750670de0b6b3a7640000906127109082610e32610e2c84840461211b565b8761246e565b04843b15610ee25787516340c10f1960e01b8082526001600160a01b03909816818b019081526020810192909252908a9082908190604001038183895af18015610bc957908a91610eca575b5050610e9290610e8c61222e565b9561246e565b040494813b15610b9e5786809461027d87519889968795869485528401602090939291936001600160a01b0360408201951681520152565b610ed390611aeb565b610ede57888b610e7e565b8880fd5b8980fd5b959096610ef290611aeb565b948690610e0c565b85513d89823e3d90fd5b606486602087519162461bcd60e51b8352820152601160248201527f53796e7468206e6f7420656e61626c65640000000000000000000000000000006044820152fd5b610f5f915060203d81116102d7576102c98183611b15565b8b610234565b5050346101c057816003193601126101c057602090517f68fc488efe30251cadb6ac88bdeef3f1a5e6048808baf387258d1d78e986720c8152f35b8383346101c057806003193601126101c057610fba611ba9565b602435916001600160a01b036024602082606854168451928380926321f8a72160e01b82527f2816e0796902df346a357f2e88c96fca0fc53c26aff312757b2a359f29427e9d8c8301525afa9283156110d9575090611024929186926110b9575b501633146124a1565b6035548061103b5750611038929350612512565b80f35b6110469291926122a4565b90670de0b6b3a764000091828102908082048414901517156110a6579061106c91612481565b91818102918183041490151715611093576110389394509061108d91612481565b90612512565b602484601187634e487b7160e01b835252fd5b602486601189634e487b7160e01b835252fd5b6110d291925060203d81116102d7576102c98183611b15565b908761101b565b513d87823e3d90fd5b5050346101c057806003193601126101c05761044360209261112a611105611ba9565b91338152603486528481206001600160a01b0384168252865284602435912054611c44565b9033611e8a565b9190503461095d57602036600319011261095d57602091611150611ba9565b906001600160a01b039182606854168451958680926321f8a72160e01b82527f41a01ec0a13b563fa452569e3fbb116366d217c2769aa1561822e65a617e38428683015260249889915afa908115610efa578492916111b9918991610ceb57508316331461204e565b168086526065602052928520805460ff19169055845b6067805490818310156112cd578491866111e8856120bf565b949054600395861b1c1614611208575050506112039061210c565b6111cf565b9260009791959492969719938481019081116112bb579061123c8661122f611261946120bf565b9054908b1b1c16916120bf565b90919082549060031b916001600160a01b039283811b93849216901b16911916179055565b84549182156112aa5750500192611277846120bf565b81939154921b1b19169055557ff804291aceae84499f2c1ee0cdd31db3f4f8e357c39784952e32b3398441d4308280a280f35b60318991634e487b7160e01b835252fd5b828a601186634e487b7160e01b835252fd5b5050505050505080f35b5050346101c057816003193601126101c0576020905160128152f35b5050346101c057816003193601126101c057602090517fdf8b4c520ffe197c5343c6f5aec59570151ef9a492f2c624fd45ddde6135ec428152f35b8383346101c05760203660031901126101c057611349611ba9565b6001600160a01b036024602082606854168551928380926321f8a72160e01b82527f41a01ec0a13b563fa452569e3fbb116366d217c2769aa1561822e65a617e38428b8301525afa90811561095357906113ae918691611440575b508216331461204e565b811691828452606560205260ff8185205416156113c9578380f35b8320805460ff191660011790556067546801000000000000000081101561142d576114019293945080600161123c92016067556120bf565b7fe2a42d951bfc690f8a783fe48a2ad2c78d11d97549bf612f9661a6edc18394a58280a2808280808380f35b602484604187634e487b7160e01b835252fd5b611458915060203d81116102d7576102c98183611b15565b876113a4565b905082346102a0578261147036611bd5565b94919290936001600160a01b0384168152603460205281812033825260205220549060001982036114aa575b602086610443878787611c67565b8482106114d357509183916114c86020969561044395033383611e8a565b91939481935061149c565b606490602087519162461bcd60e51b8352820152601d60248201527f45524332303a20696e73756666696369656e7420616c6c6f77616e63650000006044820152fd5b5050346101c057816003193601126101c0576020906035549051908152f35b5050346101c057816003193601126101c057602090517fdd24a0f121e5ab7c3e97c63eaaf859e0b46792c3e0edfd86e2b3ad50f63011d88152f35b5050346101c057806003193601126101c057602090610443611590611ba9565b6024359033611e8a565b9190503461095d57606036600319011261095d5767ffffffffffffffff9180358381116119f6576115ce9036908301611b37565b6024358481116102ac576115e59036908401611b37565b936115ee611b93565b9186549560ff8760081c1615948580966119e9575b80156119d2575b1561196957600197868960ff198316178b55611958575b5061163b60ff8a5460081c1661163681611fbe565b611fbe565b82518481116119455780611650603654611c0a565b94601f958681116118d7575b50602090868311600114611858578c9261184d575b5050600019600383901b1c191690891b176036555b815193841161183a575061169b603754611c0a565b8281116117d7575b50602091831160011461174e576001600160a01b03939291889183611743575b5050600019600383901b1c191690861b176037555b167fffffffffffffffffffffffff0000000000000000000000000000000000000000606854161760685561170a578280f35b825461ff0019168355519081527f7f26b83ff96e1f2b6a682f133852f6798a09c465da95921460cefb384740249890602090a138808280f35b0151905038806116c3565b60378852929186917f42a7b7dd785cd69714a189dffb3fd7d7174edc9ece837694ce50f7078f7c31ae90601f1983168a5b8181106117bf575095836001600160a01b0397106117a6575b505050811b016037556116d8565b015160001960f88460031b161c19169055388080611798565b8288015184558a95909301926020928301920161177f565b603789527f42a7b7dd785cd69714a189dffb3fd7d7174edc9ece837694ce50f7078f7c31ae8380860160051c82019260208710611831575b0160051c019088905b8281106118265750506116a3565b8a8155018890611818565b9250819261180f565b886041602492634e487b7160e01b835252fd5b015190503880611671565b60368d528b93507f4a11f94e20a93c79f6ec743a1954ec4fc2c08429ae2122118bf234b2185c81b89190601f1984168e5b8181106118bf575084116118a6575b505050811b01603655611686565b015160001960f88460031b161c19169055388080611898565b8284015185558e969094019360209384019301611889565b90915060368c527f4a11f94e20a93c79f6ec743a1954ec4fc2c08429ae2122118bf234b2185c81b88680850160051c8201926020861061193c575b918d91869594930160051c01915b82811061192e57505061165c565b8e81558594508d9101611920565b92508192611912565b60248a604184634e487b7160e01b835252fd5b61ffff191661010117895538611621565b608490602088519162461bcd60e51b8352820152602e60248201527f496e697469616c697a61626c653a20636f6e747261637420697320616c72656160448201527f647920696e697469616c697a65640000000000000000000000000000000000006064820152fd5b50303b15801561160a5750600160ff89161461160a565b50600160ff891610611603565b8480fd5b8490843461095d578260031936011261095d5782603654611a1a81611c0a565b8085529160019180831690811561085f5750600114611a45575050506107f4826107fe940383611b15565b9450603685527f4a11f94e20a93c79f6ec743a1954ec4fc2c08429ae2122118bf234b2185c81b85b828610611a8a575050506107f48260206107fe95820101946107e2565b80546020878701810191909152909501948101611a6d565b6020808252825181830181905290939260005b828110611ad757505060409293506000838284010152601f8019910116010190565b818101860151848201604001528501611ab5565b67ffffffffffffffff8111611aff57604052565b634e487b7160e01b600052604160045260246000fd5b90601f8019910116810190811067ffffffffffffffff821117611aff57604052565b81601f82011215611b8e5780359067ffffffffffffffff8211611aff5760405192611b6c601f8401601f191660200185611b15565b82845260208383010111611b8e57816000926020809301838601378301015290565b600080fd5b604435906001600160a01b0382168203611b8e57565b600435906001600160a01b0382168203611b8e57565b602435906001600160a01b0382168203611b8e57565b6060906003190112611b8e576001600160a01b03906004358281168103611b8e57916024359081168103611b8e579060443590565b90600182811c92168015611c3a575b6020831014611c2457565b634e487b7160e01b600052602260045260246000fd5b91607f1691611c19565b91908201809211611c5157565b634e487b7160e01b600052601160045260246000fd5b90916001600160a01b0380921691821593841594611e205716928315611db65780611dae575b611d595760008281526033602052604081205491808310611cef57604082827fddf252ad1be2c89b69c2b068fc378daa952ba7f163c4a11628f55a4df523b3ef95876020965260338652038282205586815220818154019055604051908152a3565b608460405162461bcd60e51b815260206004820152602660248201527f45524332303a207472616e7366657220616d6f756e742065786365656473206260448201527f616c616e636500000000000000000000000000000000000000000000000000006064820152fd5b608460405162461bcd60e51b815260206004820152602860248201527f53796e74686558506f6f6c3a2043616e6e6f74207472616e73666572206465626044820152677420746f6b656e7360c01b6064820152fd5b506001611c8d565b608460405162461bcd60e51b815260206004820152602360248201527f45524332303a207472616e7366657220746f20746865207a65726f206164647260448201527f65737300000000000000000000000000000000000000000000000000000000006064820152fd5b608460405162461bcd60e51b815260206004820152602560248201527f45524332303a207472616e736665722066726f6d20746865207a65726f20616460448201527f64726573730000000000000000000000000000000000000000000000000000006064820152fd5b6001600160a01b03809116918215611f555716918215611eeb5760207f8c5be1e5ebec7d5bd14f71427d1e84f3dd0314c0f7b2291e5b200ac8c7c3b925918360005260348252604060002085600052825280604060002055604051908152a3565b608460405162461bcd60e51b815260206004820152602260248201527f45524332303a20617070726f766520746f20746865207a65726f20616464726560448201527f73730000000000000000000000000000000000000000000000000000000000006064820152fd5b608460405162461bcd60e51b8152602060048201526024808201527f45524332303a20617070726f76652066726f6d20746865207a65726f2061646460448201527f72657373000000000000000000000000000000000000000000000000000000006064820152fd5b15611fc557565b608460405162461bcd60e51b815260206004820152602b60248201527f496e697469616c697a61626c653a20636f6e7472616374206973206e6f74206960448201527f6e697469616c697a696e670000000000000000000000000000000000000000006064820152fd5b90816020910312611b8e57516001600160a01b0381168103611b8e5790565b1561205557565b608460405162461bcd60e51b815260206004820152602660248201527f53796e74686558506f6f6c3a204f6e6c7920506f6f6c4d616e6167657220636160448201527f6e2063616c6c00000000000000000000000000000000000000000000000000006064820152fd5b6067548110156120f65760676000527f9787eeb91fe3101235e4a76063c7023ecb40f923f97916639c598592fa30d6ae0190600090565b634e487b7160e01b600052603260045260246000fd5b6000198114611c515760010190565b90670de0b6b3a7640000918203918211611c5157565b60405190606754808352826020918282019060676000527f9787eeb91fe3101235e4a76063c7023ecb40f923f97916639c598592fa30d6ae936000905b8282106121865750505061218492500383611b15565b565b85546001600160a01b03168452600195860195889550938101939091019061216e565b6001600160a01b03602460208260685416604051928380926321f8a72160e01b82527fdd24a0f121e5ab7c3e97c63eaaf859e0b46792c3e0edfd86e2b3ad50f63011d860048301525afa9081156122225760009161220657501690565b61221e915060203d81116102d7576102c98183611b15565b1690565b6040513d6000823e3d90fd5b602460206001600160a01b0360685416604051928380926321f8a72160e01b82527f68fc488efe30251cadb6ac88bdeef3f1a5e6048808baf387258d1d78e986720c60048301525afa90811561222257600091612289575090565b6122a1915060203d81116102d7576102c98183611b15565b90565b6122ac612131565b906000916122b86121a9565b6001600160a01b0390811690845b835186101561246757602082818860051b87010151166040908151927fb3596f070000000000000000000000000000000000000000000000000000000084526004928284860152602492818685818c5afa95861561245c576000966123f4575b50908285928251938480927f18160ddd0000000000000000000000000000000000000000000000000000000082525afa9081156123ea57506000906123bb575b612373915085519061246e565b93015191604d83116123a85750509161239661239c926123a294600a0a90612481565b90611c44565b9561210c565b946122c6565b601190634e487b7160e01b600052526000fd5b8282813d83116123e3575b6123d08183611b15565b810103126102a057506123739051612366565b503d6123c6565b513d6000823e3d90fd5b8281819893983d8311612455575b61240c8183611b15565b810103126101c0578251918383019083821067ffffffffffffffff8311176124435750835280518252830151838201529482612326565b80604189634e487b7160e01b8a945252fd5b503d612402565b82513d6000823e3d90fd5b9450505050565b81810292918115918404141715611c5157565b811561248b570490565b634e487b7160e01b600052601260045260246000fd5b156124a857565b608460405162461bcd60e51b815260206004820152603060248201527f53796e74686558506f6f6c3a204f6e6c792053796e746865582063616e20636160448201527f6c6c20746869732066756e6374696f6e000000000000000000000000000000006064820152fd5b6001600160a01b0316908115612571577fddf252ad1be2c89b69c2b068fc378daa952ba7f163c4a11628f55a4df523b3ef602082612554600094603554611c44565b6035558484526033825260408420818154019055604051908152a3565b606460405162461bcd60e51b815260206004820152601f60248201527f45524332303a206d696e7420746f20746865207a65726f2061646472657373006044820152fdfea26469706673582212208cba47f71e4e510213372b3fb405739ff21cac8dac25f4713ad3caf1c8b0e75464736f6c63430008110033",
  "linkReferences": {},
  "deployedLinkReferences": {}
}