{
  "_format": "hh-sol-artifact-1",
  "contractName": "SyntheXPool",
  "sourceName": "contracts/SyntheXPool.sol",
  "abi": [
    {
      "anonymous": false,
      "inputs": [
        {
          "indexed": true,
          "internalType": "address",
          "name": "owner",
          "type": "address"
        },
        {
          "indexed": true,
          "internalType": "address",
          "name": "spender",
          "type": "address"
        },
        {
          "indexed": false,
          "internalType": "uint256",
          "name": "value",
          "type": "uint256"
        }
      ],
      "name": "Approval",
      "type": "event"
    },
    {
      "anonymous": false,
      "inputs": [
        {
          "indexed": false,
          "internalType": "uint256",
          "name": "fee",
          "type": "uint256"
        }
      ],
      "name": "FeeUpdated",
      "type": "event"
    },
    {
      "anonymous": false,
      "inputs": [
        {
          "indexed": false,
          "internalType": "uint8",
          "name": "version",
          "type": "uint8"
        }
      ],
      "name": "Initialized",
      "type": "event"
    },
    {
      "anonymous": false,
      "inputs": [
        {
          "indexed": true,
          "internalType": "address",
          "name": "synth",
          "type": "address"
        }
      ],
      "name": "SynthDisabled",
      "type": "event"
    },
    {
      "anonymous": false,
      "inputs": [
        {
          "indexed": true,
          "internalType": "address",
          "name": "synth",
          "type": "address"
        }
      ],
      "name": "SynthEnabled",
      "type": "event"
    },
    {
      "anonymous": false,
      "inputs": [
        {
          "indexed": true,
          "internalType": "address",
          "name": "synth",
          "type": "address"
        }
      ],
      "name": "SynthRemoved",
      "type": "event"
    },
    {
      "anonymous": false,
      "inputs": [
        {
          "indexed": true,
          "internalType": "address",
          "name": "from",
          "type": "address"
        },
        {
          "indexed": true,
          "internalType": "address",
          "name": "to",
          "type": "address"
        },
        {
          "indexed": false,
          "internalType": "uint256",
          "name": "value",
          "type": "uint256"
        }
      ],
      "name": "Transfer",
      "type": "event"
    },
    {
      "inputs": [],
      "name": "ADMIN",
      "outputs": [
        {
          "internalType": "bytes32",
          "name": "",
          "type": "bytes32"
        }
      ],
      "stateMutability": "view",
      "type": "function"
    },
    {
      "inputs": [],
      "name": "POOL_MANAGER",
      "outputs": [
        {
          "internalType": "bytes32",
          "name": "",
          "type": "bytes32"
        }
      ],
      "stateMutability": "view",
      "type": "function"
    },
    {
      "inputs": [],
      "name": "PRICE_ORACLE",
      "outputs": [
        {
          "internalType": "bytes32",
          "name": "",
          "type": "bytes32"
        }
      ],
      "stateMutability": "view",
      "type": "function"
    },
    {
      "inputs": [],
      "name": "SYNTHEX",
      "outputs": [
        {
          "internalType": "bytes32",
          "name": "",
          "type": "bytes32"
        }
      ],
      "stateMutability": "view",
      "type": "function"
    },
    {
      "inputs": [],
      "name": "VAULT",
      "outputs": [
        {
          "internalType": "bytes32",
          "name": "",
          "type": "bytes32"
        }
      ],
      "stateMutability": "view",
      "type": "function"
    },
    {
      "inputs": [],
      "name": "addressStorage",
      "outputs": [
        {
          "internalType": "contract AddressStorage",
          "name": "",
          "type": "address"
        }
      ],
      "stateMutability": "view",
      "type": "function"
    },
    {
      "inputs": [
        {
          "internalType": "address",
          "name": "owner",
          "type": "address"
        },
        {
          "internalType": "address",
          "name": "spender",
          "type": "address"
        }
      ],
      "name": "allowance",
      "outputs": [
        {
          "internalType": "uint256",
          "name": "",
          "type": "uint256"
        }
      ],
      "stateMutability": "view",
      "type": "function"
    },
    {
      "inputs": [
        {
          "internalType": "address",
          "name": "spender",
          "type": "address"
        },
        {
          "internalType": "uint256",
          "name": "amount",
          "type": "uint256"
        }
      ],
      "name": "approve",
      "outputs": [
        {
          "internalType": "bool",
          "name": "",
          "type": "bool"
        }
      ],
      "stateMutability": "nonpayable",
      "type": "function"
    },
    {
      "inputs": [
        {
          "internalType": "address",
          "name": "account",
          "type": "address"
        }
      ],
      "name": "balanceOf",
      "outputs": [
        {
          "internalType": "uint256",
          "name": "",
          "type": "uint256"
        }
      ],
      "stateMutability": "view",
      "type": "function"
    },
    {
      "inputs": [
        {
          "internalType": "address",
          "name": "_user",
          "type": "address"
        },
        {
          "internalType": "uint256",
          "name": "_amountUSD",
          "type": "uint256"
        }
      ],
      "name": "burn",
      "outputs": [],
      "stateMutability": "nonpayable",
      "type": "function"
    },
    {
      "inputs": [
        {
          "internalType": "address",
          "name": "_synth",
          "type": "address"
        },
        {
          "internalType": "address",
          "name": "_user",
          "type": "address"
        },
        {
          "internalType": "uint256",
          "name": "_amount",
          "type": "uint256"
        }
      ],
      "name": "burnSynth",
      "outputs": [],
      "stateMutability": "nonpayable",
      "type": "function"
    },
    {
      "inputs": [],
      "name": "decimals",
      "outputs": [
        {
          "internalType": "uint8",
          "name": "",
          "type": "uint8"
        }
      ],
      "stateMutability": "view",
      "type": "function"
    },
    {
      "inputs": [
        {
          "internalType": "address",
          "name": "spender",
          "type": "address"
        },
        {
          "internalType": "uint256",
          "name": "subtractedValue",
          "type": "uint256"
        }
      ],
      "name": "decreaseAllowance",
      "outputs": [
        {
          "internalType": "bool",
          "name": "",
          "type": "bool"
        }
      ],
      "stateMutability": "nonpayable",
      "type": "function"
    },
    {
      "inputs": [
        {
          "internalType": "address",
          "name": "_synth",
          "type": "address"
        }
      ],
      "name": "disableSynth",
      "outputs": [],
      "stateMutability": "nonpayable",
      "type": "function"
    },
    {
      "inputs": [
        {
          "internalType": "address",
          "name": "_synth",
          "type": "address"
        }
      ],
      "name": "enableSynth",
      "outputs": [],
      "stateMutability": "nonpayable",
      "type": "function"
    },
    {
      "inputs": [
        {
          "internalType": "address",
          "name": "_fromSynth",
          "type": "address"
        },
        {
          "internalType": "address",
          "name": "_toSynth",
          "type": "address"
        },
        {
          "internalType": "address",
          "name": "_user",
          "type": "address"
        },
        {
          "internalType": "uint256",
          "name": "_fromAmount",
          "type": "uint256"
        },
        {
          "internalType": "uint256",
          "name": "_toAmount",
          "type": "uint256"
        }
      ],
      "name": "exchange",
      "outputs": [],
      "stateMutability": "nonpayable",
      "type": "function"
    },
    {
      "inputs": [],
      "name": "fee",
      "outputs": [
        {
          "internalType": "uint256",
          "name": "",
          "type": "uint256"
        }
      ],
      "stateMutability": "view",
      "type": "function"
    },
    {
      "inputs": [],
      "name": "getSynths",
      "outputs": [
        {
          "internalType": "address[]",
          "name": "",
          "type": "address[]"
        }
      ],
      "stateMutability": "view",
      "type": "function"
    },
    {
      "inputs": [],
      "name": "getTotalDebtUSD",
      "outputs": [
        {
          "internalType": "uint256",
          "name": "",
          "type": "uint256"
        }
      ],
      "stateMutability": "view",
      "type": "function"
    },
    {
      "inputs": [
        {
          "internalType": "address",
          "name": "spender",
          "type": "address"
        },
        {
          "internalType": "uint256",
          "name": "addedValue",
          "type": "uint256"
        }
      ],
      "name": "increaseAllowance",
      "outputs": [
        {
          "internalType": "bool",
          "name": "",
          "type": "bool"
        }
      ],
      "stateMutability": "nonpayable",
      "type": "function"
    },
    {
      "inputs": [
        {
          "internalType": "string",
          "name": "name",
          "type": "string"
        },
        {
          "internalType": "string",
          "name": "symbol",
          "type": "string"
        },
        {
          "internalType": "address",
          "name": "_addressStorage",
          "type": "address"
        }
      ],
      "name": "initialize",
      "outputs": [],
      "stateMutability": "nonpayable",
      "type": "function"
    },
    {
      "inputs": [
        {
          "internalType": "address",
          "name": "_user",
          "type": "address"
        },
        {
          "internalType": "uint256",
          "name": "_amountUSD",
          "type": "uint256"
        }
      ],
      "name": "mint",
      "outputs": [],
      "stateMutability": "nonpayable",
      "type": "function"
    },
    {
      "inputs": [
        {
          "internalType": "address",
          "name": "_synth",
          "type": "address"
        },
        {
          "internalType": "address",
          "name": "_user",
          "type": "address"
        },
        {
          "internalType": "uint256",
          "name": "_amount",
          "type": "uint256"
        }
      ],
      "name": "mintSynth",
      "outputs": [],
      "stateMutability": "nonpayable",
      "type": "function"
    },
    {
      "inputs": [],
      "name": "name",
      "outputs": [
        {
          "internalType": "string",
          "name": "",
          "type": "string"
        }
      ],
      "stateMutability": "view",
      "type": "function"
    },
    {
      "inputs": [],
      "name": "oracle",
      "outputs": [
        {
          "internalType": "contract IPriceOracle",
          "name": "",
          "type": "address"
        }
      ],
      "stateMutability": "view",
      "type": "function"
    },
    {
      "inputs": [
        {
          "internalType": "address",
          "name": "_synth",
          "type": "address"
        }
      ],
      "name": "removeSynth",
      "outputs": [],
      "stateMutability": "nonpayable",
      "type": "function"
    },
    {
      "inputs": [],
      "name": "symbol",
      "outputs": [
        {
          "internalType": "string",
          "name": "",
          "type": "string"
        }
      ],
      "stateMutability": "view",
      "type": "function"
    },
    {
      "inputs": [
        {
          "internalType": "address",
          "name": "",
          "type": "address"
        }
      ],
      "name": "synths",
      "outputs": [
        {
          "internalType": "bool",
          "name": "",
          "type": "bool"
        }
      ],
      "stateMutability": "view",
      "type": "function"
    },
    {
      "inputs": [],
      "name": "totalSupply",
      "outputs": [
        {
          "internalType": "uint256",
          "name": "",
          "type": "uint256"
        }
      ],
      "stateMutability": "view",
      "type": "function"
    },
    {
      "inputs": [
        {
          "internalType": "address",
          "name": "to",
          "type": "address"
        },
        {
          "internalType": "uint256",
          "name": "amount",
          "type": "uint256"
        }
      ],
      "name": "transfer",
      "outputs": [
        {
          "internalType": "bool",
          "name": "",
          "type": "bool"
        }
      ],
      "stateMutability": "nonpayable",
      "type": "function"
    },
    {
      "inputs": [
        {
          "internalType": "address",
          "name": "from",
          "type": "address"
        },
        {
          "internalType": "address",
          "name": "to",
          "type": "address"
        },
        {
          "internalType": "uint256",
          "name": "amount",
          "type": "uint256"
        }
      ],
      "name": "transferFrom",
      "outputs": [
        {
          "internalType": "bool",
          "name": "",
          "type": "bool"
        }
      ],
      "stateMutability": "nonpayable",
      "type": "function"
    },
    {
      "inputs": [
        {
          "internalType": "uint256",
          "name": "_fee",
          "type": "uint256"
        }
      ],
      "name": "updateFee",
      "outputs": [],
      "stateMutability": "nonpayable",
      "type": "function"
    },
    {
      "inputs": [],
      "name": "vault",
      "outputs": [
        {
          "internalType": "address",
          "name": "",
          "type": "address"
        }
      ],
      "stateMutability": "view",
      "type": "function"
    }
  ],
  "bytecode": "0x60808060405234610016576124d8908161001c8239f35b600080fdfe608060408181526004918236101561001657600080fd5b600092833560e01c91826306fdde03146118f057508163077f224a14611490578163095ea7b3146114665781630a19399a1461142b57816318160ddd1461140c57816323b872dd1461135457816325ce0255146112245781632a0acc6a146111e9578163313ce567146111cd57816335a7ede6146110275781633950935114610fd857816340c10f1914610e96578163411557d114610e5b5781634798ce5b14610be1578163567b783814610af6578382635bf0abbc14610a2057508163612e1488146109f857816362308e85146109bd57816370a08231146109865781637dc0d1d0146109615781639012c4a81461088757816395d89b41146107a65781639dc29fac146105465781639f087dd61461050a578163a457c2d71461044a5783908263a9059cbb14610419578263af8083da146103b6578263d3b6364c1461037b578263dd62ed3e1461032f578263ddca3f4314610310578263e3cdb934146102ec578263fb3c9612146101c457505063fbfa77cf1461019557600080fd5b346101c057816003193601126101c0576020906001600160a01b036101b861212a565b915191168152f35b5080fd5b915091346102e8576101d536611ae7565b9093916001600160a01b03906024602083606854168751928380926321f8a72160e01b82527f2816e0796902df346a357f2e88c96fca0fc53c26aff312757b2a359f29427e9d8a8301525afa9081156102de579061023e9189916102b0575b508316331461238e565b16803b156102ac5761027d94868094865197889586948593632770a7eb60e21b85528401602090939291936001600160a01b0360408201951681520152565b03925af19081156102a357506102905750f35b610299906119e1565b6102a05780f35b80fd5b513d84823e3d90fd5b8580fd5b6102d1915060203d81116102d7575b6102c98183611a27565b810190611f41565b38610234565b503d6102bf565b86513d8a823e3d90fd5b5050fd5b5082346101c057816003193601126101c0576020906103096121a0565b9051908152f35b5082346101c057816003193601126101c0576020906066549051908152f35b5082346101c057806003193601126101c05760209161034c611abb565b82610355611ad1565b926001600160a01b03809316815260348652209116600052825280600020549051908152f35b5082346101c057816003193601126101c057602090517f2816e0796902df346a357f2e88c96fca0fc53c26aff312757b2a359f29427e9d8152f35b5082346101c057816003193601126101c0576103d061202d565b815192839260208080860192818752855180945286019401925b8281106103f957505050500390f35b83516001600160a01b0316855286955093810193928101926001016103ea565b5082346101c057806003193601126101c057602090610443610439611abb565b6024359033611b79565b5160018152f35b905082346102a057826003193601126102a057610465611abb565b9183602435923381526034602052206001600160a01b0384166000526020528360002054908282106104a1576020856104438585038733611d9c565b608490602086519162461bcd60e51b8352820152602560248201527f45524332303a2064656372656173656420616c6c6f77616e63652062656c6f7760448201527f207a65726f0000000000000000000000000000000000000000000000000000006064820152fd5b5050346101c05760203660031901126101c05760ff816020936001600160a01b03610533611abb565b1681526065855220541690519015158152f35b839150346101c057826003193601126101c057610561611abb565b6001600160a01b0390816068541691855180936321f8a72160e01b82527f2816e0796902df346a357f2e88c96fca0fc53c26aff312757b2a359f29427e9d8683015281602460209687935afa90811561079c57906105ca91879161077f575b508216331461238e565b6105e86105d56121a0565b6105e360243560355461235b565b61236e565b91169283158015906107175780610710575b6106bd578385526033835285852054908282106106555750908495817fddf252ad1be2c89b69c2b068fc378daa952ba7f163c4a11628f55a4df523b3ef9493868852603385520381872055816035540360355551908152a380f35b6084908488519162461bcd60e51b8352820152602260248201527f45524332303a206275726e20616d6f756e7420657863656564732062616c616e60448201527f63650000000000000000000000000000000000000000000000000000000000006064820152fd5b6084908387519162461bcd60e51b8352820152602860248201527f53796e74686558506f6f6c3a2043616e6e6f74207472616e73666572206465626044820152677420746f6b656e7360c01b6064820152fd5b50846105fa565b6084828589519162461bcd60e51b8352820152602160248201527f45524332303a206275726e2066726f6d20746865207a65726f2061646472657360448201527f73000000000000000000000000000000000000000000000000000000000000006064820152fd5b6107969150853d87116102d7576102c98183611a27565b886105c0565b87513d88823e3d90fd5b5050346101c057816003193601126101c057805190826037546107c881611b1c565b8085529160019180831690811561085f5750600114610802575b5050506107f4826107fe940383611a27565b5191829182611998565b0390f35b9450603785527f42a7b7dd785cd69714a189dffb3fd7d7174edc9ece837694ce50f7078f7c31ae5b828610610847575050506107f48260206107fe95820101946107e2565b8054602087870181019190915290950194810161082a565b6107fe9750869350602092506107f494915060ff191682840152151560051b820101946107e2565b90503461095d57602036600319011261095d578035906001600160a01b0360207f41a01ec0a13b563fa452569e3fbb116366d217c2769aa1561822e65a617e38426024836068541694875195869384926321f8a72160e01b84528301525afa91821561095357602093927f8c4d35e54a3f2ef1134138fd8ea3daee6a3c89e10d2665996babdf70261e2c769592610928928892610934575b50163314611f60565b8160665551908152a180f35b61094c919250863d81116102d7576102c98183611a27565b903861091f565b84513d87823e3d90fd5b8280fd5b5050346101c057816003193601126101c0576020906001600160a01b036101b86120a5565b5050346101c05760203660031901126101c057806020926001600160a01b036109ad611abb565b1681526033845220549051908152f35b5050346101c057816003193601126101c057602090517f41a01ec0a13b563fa452569e3fbb116366d217c2769aa1561822e65a617e38428152f35b5050346101c057816003193601126101c0576020906001600160a01b03606854169051908152f35b809184346102e857610a3136611ae7565b9093916001600160a01b03906024602083606854168751928380926321f8a72160e01b82527f2816e0796902df346a357f2e88c96fca0fc53c26aff312757b2a359f29427e9d8a8301525afa9081156102de5790610a99918991610ad857508316331461238e565b16803b156102ac5761027d948680948651978895869485936340c10f1960e01b85528401602090939291936001600160a01b0360408201951681520152565b610af0915060203d81116102d7576102c98183611a27565b8a610234565b90503461095d57602036600319011261095d57610b11611abb565b6001600160a01b039160207f41a01ec0a13b563fa452569e3fbb116366d217c2769aa1561822e65a617e38426024856068541693875194859384926321f8a72160e01b84528301525afa801561095357610b76918691610bc3575b5083163314611f60565b1690818352606560205260ff8184205416610b8f578280f35b8220805460ff191690557ff22c48507c9ba9fb4656f225a911518e656db195b09a3dffecd7b2e27cd89a728280a238808280f35b610bdb915060203d81116102d7576102c98183611a27565b38610b6c565b839150346101c05760a03660031901126101c057610bfd611abb565b92610c06611ad1565b610c0e611aa5565b90608435906001600160a01b03906024602083606854168751928380926321f8a72160e01b82527f2816e0796902df346a357f2e88c96fca0fc53c26aff312757b2a359f29427e9d8c8301525afa9081156102de57839291610c7a918a91610e3d57508316331461238e565b1690818752606560205260ff858820541615610dfa576066549716803b15610da0578685518092632770a7eb60e21b8252818381610cd48c8b606435918401602090939291936001600160a01b0360408201951681520152565b03925af18015610df057610ddd575b50670de0b6b3a764000087810397818911610dca5781610d04899a8661235b565b04833b15610dc65788610d41918851809381926340c10f1960e01b9a8b84528d8401602090939291936001600160a01b0360408201951681520152565b038183885af18015610dbc57908991610da4575b5050610d6990610d6361212a565b9461235b565b0494813b15610da05786809461027d87519889968795869485528401602090939291936001600160a01b0360408201951681520152565b8680fd5b610dad906119e1565b610db857878a610d55565b8780fd5b87513d8b823e3d90fd5b8880fd5b602488601189634e487b7160e01b835252fd5b610de9909691966119e1565b9487610ce3565b85513d89823e3d90fd5b606486602087519162461bcd60e51b8352820152601160248201527f53796e7468206e6f7420656e61626c65640000000000000000000000000000006044820152fd5b610e55915060203d81116102d7576102c98183611a27565b8b610234565b5050346101c057816003193601126101c057602090517f68fc488efe30251cadb6ac88bdeef3f1a5e6048808baf387258d1d78e986720c8152f35b8383346101c057806003193601126101c057610eb0611abb565b602435916001600160a01b036024602082606854168451928380926321f8a72160e01b82527f2816e0796902df346a357f2e88c96fca0fc53c26aff312757b2a359f29427e9d8c8301525afa928315610fcf575090610f1a92918692610faf575b5016331461238e565b60355480610f315750610f2e9293506123ff565b80f35b610f3c9291926121a0565b90670de0b6b3a76400009182810290808204841490151715610f9c5790610f629161236e565b91818102918183041490151715610f8957610f2e93945090610f839161236e565b906123ff565b602484601187634e487b7160e01b835252fd5b602486601189634e487b7160e01b835252fd5b610fc891925060203d81116102d7576102c98183611a27565b9087610f11565b513d87823e3d90fd5b5050346101c057806003193601126101c057610443602092611020610ffb611abb565b91338152603486528481206001600160a01b0384168252865284602435912054611b56565b9033611d9c565b9190503461095d57602036600319011261095d57602091611046611abb565b906001600160a01b039182606854168451958680926321f8a72160e01b82527f41a01ec0a13b563fa452569e3fbb116366d217c2769aa1561822e65a617e38428683015260249889915afa908115610df0578492916110af918991610bc3575083163314611f60565b168086526065602052928520805460ff19169055845b6067805490818310156111c3578491866110de85611fd1565b949054600395861b1c16146110fe575050506110f99061201e565b6110c5565b9260009791959492969719938481019081116111b157906111328661112561115794611fd1565b9054908b1b1c1691611fd1565b90919082549060031b916001600160a01b039283811b93849216901b16911916179055565b84549182156111a0575050019261116d84611fd1565b81939154921b1b19169055557ff804291aceae84499f2c1ee0cdd31db3f4f8e357c39784952e32b3398441d4308280a280f35b60318991634e487b7160e01b835252fd5b828a601186634e487b7160e01b835252fd5b5050505050505080f35b5050346101c057816003193601126101c0576020905160128152f35b5050346101c057816003193601126101c057602090517fdf8b4c520ffe197c5343c6f5aec59570151ef9a492f2c624fd45ddde6135ec428152f35b8383346101c05760203660031901126101c05761123f611abb565b6001600160a01b036024602082606854168551928380926321f8a72160e01b82527f41a01ec0a13b563fa452569e3fbb116366d217c2769aa1561822e65a617e38428b8301525afa90811561095357906112a4918691611336575b5082163314611f60565b811691828452606560205260ff8185205416156112bf578380f35b8320805460ff1916600117905560675468010000000000000000811015611323576112f7929394508060016111329201606755611fd1565b7fe2a42d951bfc690f8a783fe48a2ad2c78d11d97549bf612f9661a6edc18394a58280a2808280808380f35b602484604187634e487b7160e01b835252fd5b61134e915060203d81116102d7576102c98183611a27565b8761129a565b905082346102a0578261136636611ae7565b94919290936001600160a01b0384168152603460205281812033825260205220549060001982036113a0575b602086610443878787611b79565b8482106113c957509183916113be6020969561044395033383611d9c565b919394819350611392565b606490602087519162461bcd60e51b8352820152601d60248201527f45524332303a20696e73756666696369656e7420616c6c6f77616e63650000006044820152fd5b5050346101c057816003193601126101c0576020906035549051908152f35b5050346101c057816003193601126101c057602090517fdd24a0f121e5ab7c3e97c63eaaf859e0b46792c3e0edfd86e2b3ad50f63011d88152f35b5050346101c057806003193601126101c057602090610443611486611abb565b6024359033611d9c565b9190503461095d57606036600319011261095d5767ffffffffffffffff9180358381116118ec576114c49036908301611a49565b6024358481116102ac576114db9036908401611a49565b936114e4611aa5565b9186549560ff8760081c1615948580966118df575b80156118c8575b1561185f57600197868960ff198316178b5561184e575b5061153160ff8a5460081c1661152c81611ed0565b611ed0565b825184811161183b5780611546603654611b1c565b94601f958681116117cd575b5060209086831160011461174e578c92611743575b5050600019600383901b1c191690891b176036555b81519384116117305750611591603754611b1c565b8281116116cd575b506020918311600114611644576001600160a01b03939291889183611639575b5050600019600383901b1c191690861b176037555b167fffffffffffffffffffffffff00000000000000000000000000000000000000006068541617606855611600578280f35b825461ff0019168355519081527f7f26b83ff96e1f2b6a682f133852f6798a09c465da95921460cefb384740249890602090a138808280f35b0151905038806115b9565b60378852929186917f42a7b7dd785cd69714a189dffb3fd7d7174edc9ece837694ce50f7078f7c31ae90601f1983168a5b8181106116b5575095836001600160a01b03971061169c575b505050811b016037556115ce565b015160001960f88460031b161c1916905538808061168e565b8288015184558a959093019260209283019201611675565b603789527f42a7b7dd785cd69714a189dffb3fd7d7174edc9ece837694ce50f7078f7c31ae8380860160051c82019260208710611727575b0160051c019088905b82811061171c575050611599565b8a815501889061170e565b92508192611705565b886041602492634e487b7160e01b835252fd5b015190503880611567565b60368d528b93507f4a11f94e20a93c79f6ec743a1954ec4fc2c08429ae2122118bf234b2185c81b89190601f1984168e5b8181106117b55750841161179c575b505050811b0160365561157c565b015160001960f88460031b161c1916905538808061178e565b8284015185558e96909401936020938401930161177f565b90915060368c527f4a11f94e20a93c79f6ec743a1954ec4fc2c08429ae2122118bf234b2185c81b88680850160051c82019260208610611832575b918d91869594930160051c01915b828110611824575050611552565b8e81558594508d9101611816565b92508192611808565b60248a604184634e487b7160e01b835252fd5b61ffff191661010117895538611517565b608490602088519162461bcd60e51b8352820152602e60248201527f496e697469616c697a61626c653a20636f6e747261637420697320616c72656160448201527f647920696e697469616c697a65640000000000000000000000000000000000006064820152fd5b50303b1580156115005750600160ff891614611500565b50600160ff8916106114f9565b8480fd5b8490843461095d578260031936011261095d578260365461191081611b1c565b8085529160019180831690811561085f575060011461193b575050506107f4826107fe940383611a27565b9450603685527f4a11f94e20a93c79f6ec743a1954ec4fc2c08429ae2122118bf234b2185c81b85b828610611980575050506107f48260206107fe95820101946107e2565b80546020878701810191909152909501948101611963565b6020808252825181830181905290939260005b8281106119cd57505060409293506000838284010152601f8019910116010190565b8181018601518482016040015285016119ab565b67ffffffffffffffff81116119f557604052565b634e487b7160e01b600052604160045260246000fd5b6040810190811067ffffffffffffffff8211176119f557604052565b90601f8019910116810190811067ffffffffffffffff8211176119f557604052565b81601f82011215611aa05780359067ffffffffffffffff82116119f55760405192611a7e601f8401601f191660200185611a27565b82845260208383010111611aa057816000926020809301838601378301015290565b600080fd5b604435906001600160a01b0382168203611aa057565b600435906001600160a01b0382168203611aa057565b602435906001600160a01b0382168203611aa057565b6060906003190112611aa0576001600160a01b03906004358281168103611aa057916024359081168103611aa0579060443590565b90600182811c92168015611b4c575b6020831014611b3657565b634e487b7160e01b600052602260045260246000fd5b91607f1691611b2b565b91908201809211611b6357565b634e487b7160e01b600052601160045260246000fd5b90916001600160a01b0380921691821593841594611d325716928315611cc85780611cc0575b611c6b5760008281526033602052604081205491808310611c0157604082827fddf252ad1be2c89b69c2b068fc378daa952ba7f163c4a11628f55a4df523b3ef95876020965260338652038282205586815220818154019055604051908152a3565b608460405162461bcd60e51b815260206004820152602660248201527f45524332303a207472616e7366657220616d6f756e742065786365656473206260448201527f616c616e636500000000000000000000000000000000000000000000000000006064820152fd5b608460405162461bcd60e51b815260206004820152602860248201527f53796e74686558506f6f6c3a2043616e6e6f74207472616e73666572206465626044820152677420746f6b656e7360c01b6064820152fd5b506001611b9f565b608460405162461bcd60e51b815260206004820152602360248201527f45524332303a207472616e7366657220746f20746865207a65726f206164647260448201527f65737300000000000000000000000000000000000000000000000000000000006064820152fd5b608460405162461bcd60e51b815260206004820152602560248201527f45524332303a207472616e736665722066726f6d20746865207a65726f20616460448201527f64726573730000000000000000000000000000000000000000000000000000006064820152fd5b6001600160a01b03809116918215611e675716918215611dfd5760207f8c5be1e5ebec7d5bd14f71427d1e84f3dd0314c0f7b2291e5b200ac8c7c3b925918360005260348252604060002085600052825280604060002055604051908152a3565b608460405162461bcd60e51b815260206004820152602260248201527f45524332303a20617070726f766520746f20746865207a65726f20616464726560448201527f73730000000000000000000000000000000000000000000000000000000000006064820152fd5b608460405162461bcd60e51b8152602060048201526024808201527f45524332303a20617070726f76652066726f6d20746865207a65726f2061646460448201527f72657373000000000000000000000000000000000000000000000000000000006064820152fd5b15611ed757565b608460405162461bcd60e51b815260206004820152602b60248201527f496e697469616c697a61626c653a20636f6e7472616374206973206e6f74206960448201527f6e697469616c697a696e670000000000000000000000000000000000000000006064820152fd5b90816020910312611aa057516001600160a01b0381168103611aa05790565b15611f6757565b608460405162461bcd60e51b815260206004820152602660248201527f53796e74686558506f6f6c3a204f6e6c7920506f6f6c4d616e6167657220636160448201527f6e2063616c6c00000000000000000000000000000000000000000000000000006064820152fd5b6067548110156120085760676000527f9787eeb91fe3101235e4a76063c7023ecb40f923f97916639c598592fa30d6ae0190600090565b634e487b7160e01b600052603260045260246000fd5b6000198114611b635760010190565b60405190606754808352826020918282019060676000527f9787eeb91fe3101235e4a76063c7023ecb40f923f97916639c598592fa30d6ae936000905b8282106120825750505061208092500383611a27565b565b85546001600160a01b03168452600195860195889550938101939091019061206a565b6001600160a01b03602460208260685416604051928380926321f8a72160e01b82527fdd24a0f121e5ab7c3e97c63eaaf859e0b46792c3e0edfd86e2b3ad50f63011d860048301525afa90811561211e5760009161210257501690565b61211a915060203d81116102d7576102c98183611a27565b1690565b6040513d6000823e3d90fd5b602460206001600160a01b0360685416604051928380926321f8a72160e01b82527f68fc488efe30251cadb6ac88bdeef3f1a5e6048808baf387258d1d78e986720c60048301525afa90811561211e57600091612185575090565b61219d915060203d81116102d7576102c98183611a27565b90565b6121a861202d565b90600060409081516121b981611a0b565b818152816020809201526121cb6120a5565b82956001600160a01b03809216935b81518810156123525782848960051b84010151168651907fb3596f070000000000000000000000000000000000000000000000000000000082526004908082840152602490898483818c5afa9384156122fd57908891600095612308575b509083918b51928380927f18160ddd0000000000000000000000000000000000000000000000000000000082525afa9081156122fd579088916000916122cd575b5084516122859161235b565b93015191604d83116122ba575050916122a86122ae926122b494600a0a9061236e565b90611b56565b9761201e565b966121da565b601190634e487b7160e01b600052526000fd5b9182813d83116122f6575b6122e28183611a27565b810103126102a05750518790612285612279565b503d6122d8565b8a513d6000823e3d90fd5b9150938a82813d831161234b575b6123208183611a27565b810103126102a05750878391818c519161233983611a0b565b80518352015182820152949091612238565b503d612316565b96505050505050565b81810292918115918404141715611b6357565b8115612378570490565b634e487b7160e01b600052601260045260246000fd5b1561239557565b608460405162461bcd60e51b815260206004820152603060248201527f53796e74686558506f6f6c3a204f6e6c792053796e746865582063616e20636160448201527f6c6c20746869732066756e6374696f6e000000000000000000000000000000006064820152fd5b6001600160a01b031690811561245e577fddf252ad1be2c89b69c2b068fc378daa952ba7f163c4a11628f55a4df523b3ef602082612441600094603554611b56565b6035558484526033825260408420818154019055604051908152a3565b606460405162461bcd60e51b815260206004820152601f60248201527f45524332303a206d696e7420746f20746865207a65726f2061646472657373006044820152fdfea2646970667358221220dae7d018cebaf4afdd47282b716a627f60e5702fa099eec33bf4ca424b9f923f64736f6c63430008110033",
  "linkReferences": {},
  "deployedLinkReferences": {}
}