{
  "_format": "hh-sol-artifact-1",
  "contractName": "Unlocker",
  "sourceName": "contracts/token/Unlocker.sol",
  "abi": [
    {
      "inputs": [
        {
          "internalType": "address",
          "name": "_SEALED_SYN",
          "type": "address"
        },
        {
          "internalType": "address",
          "name": "_SYN",
          "type": "address"
        }
      ],
      "stateMutability": "nonpayable",
      "type": "constructor"
    },
    {
      "anonymous": false,
      "inputs": [
        {
          "indexed": true,
          "internalType": "address",
          "name": "previousOwner",
          "type": "address"
        },
        {
          "indexed": true,
          "internalType": "address",
          "name": "newOwner",
          "type": "address"
        }
      ],
      "name": "OwnershipTransferred",
      "type": "event"
    },
    {
      "anonymous": false,
      "inputs": [
        {
          "indexed": false,
          "internalType": "uint256",
          "name": "_lockPeriod",
          "type": "uint256"
        }
      ],
      "name": "SetLockPeriod",
      "type": "event"
    },
    {
      "anonymous": false,
      "inputs": [
        {
          "indexed": true,
          "internalType": "address",
          "name": "user",
          "type": "address"
        },
        {
          "indexed": false,
          "internalType": "bytes32",
          "name": "requestId",
          "type": "bytes32"
        },
        {
          "indexed": false,
          "internalType": "uint256",
          "name": "amount",
          "type": "uint256"
        }
      ],
      "name": "UnlockRequested",
      "type": "event"
    },
    {
      "anonymous": false,
      "inputs": [
        {
          "indexed": true,
          "internalType": "address",
          "name": "user",
          "type": "address"
        },
        {
          "indexed": false,
          "internalType": "bytes32",
          "name": "requestId",
          "type": "bytes32"
        },
        {
          "indexed": false,
          "internalType": "uint256",
          "name": "amount",
          "type": "uint256"
        }
      ],
      "name": "Unlocked",
      "type": "event"
    },
    {
      "inputs": [],
      "name": "SEALED_SYN",
      "outputs": [
        {
          "internalType": "contract IERC20",
          "name": "",
          "type": "address"
        }
      ],
      "stateMutability": "view",
      "type": "function"
    },
    {
      "inputs": [],
      "name": "SYN",
      "outputs": [
        {
          "internalType": "contract IERC20",
          "name": "",
          "type": "address"
        }
      ],
      "stateMutability": "view",
      "type": "function"
    },
    {
      "inputs": [],
      "name": "lockPeriod",
      "outputs": [
        {
          "internalType": "uint256",
          "name": "",
          "type": "uint256"
        }
      ],
      "stateMutability": "view",
      "type": "function"
    },
    {
      "inputs": [],
      "name": "owner",
      "outputs": [
        {
          "internalType": "address",
          "name": "",
          "type": "address"
        }
      ],
      "stateMutability": "view",
      "type": "function"
    },
    {
      "inputs": [],
      "name": "renounceOwnership",
      "outputs": [],
      "stateMutability": "nonpayable",
      "type": "function"
    },
    {
      "inputs": [
        {
          "internalType": "uint256",
          "name": "_amount",
          "type": "uint256"
        }
      ],
      "name": "requestUnlock",
      "outputs": [],
      "stateMutability": "nonpayable",
      "type": "function"
    },
    {
      "inputs": [
        {
          "internalType": "uint256",
          "name": "_lockPeriod",
          "type": "uint256"
        }
      ],
      "name": "setLockPeriod",
      "outputs": [],
      "stateMutability": "nonpayable",
      "type": "function"
    },
    {
      "inputs": [
        {
          "internalType": "address",
          "name": "newOwner",
          "type": "address"
        }
      ],
      "name": "transferOwnership",
      "outputs": [],
      "stateMutability": "nonpayable",
      "type": "function"
    },
    {
      "inputs": [
        {
          "internalType": "bytes32",
          "name": "_requestId",
          "type": "bytes32"
        }
      ],
      "name": "unlock",
      "outputs": [],
      "stateMutability": "nonpayable",
      "type": "function"
    },
    {
      "inputs": [
        {
          "internalType": "address",
          "name": "",
          "type": "address"
        }
      ],
      "name": "unlockRequestCount",
      "outputs": [
        {
          "internalType": "uint256",
          "name": "",
          "type": "uint256"
        }
      ],
      "stateMutability": "view",
      "type": "function"
    },
    {
      "inputs": [
        {
          "internalType": "bytes32",
          "name": "",
          "type": "bytes32"
        }
      ],
      "name": "unlockRequests",
      "outputs": [
        {
          "internalType": "uint256",
          "name": "amount",
          "type": "uint256"
        },
        {
          "internalType": "uint256",
          "name": "requestTime",
          "type": "uint256"
        }
      ],
      "stateMutability": "view",
      "type": "function"
    }
  ],
  "bytecode": "0x6080346100c357601f6109ab38819003918201601f19168301916001600160401b038311848410176100c85780849260409485528339810103126100c357610052602061004b836100de565b92016100de565b60008054336001600160a01b0319808316821784556040519590946001600160a01b03949093859391908416907f8be0079c531659141344cd1fd0a4f28419497f9722a3daafe3b4186f6b6457e09080a316836001541617600155169060025416176002556108b890816100f38239f35b600080fd5b634e487b7160e01b600052604160045260246000fd5b51906001600160a01b03821682036100c35756fe608060408181526004908136101561001657600080fd5b600092833560e01c908163117eb2551461077f575080633fd8b02f14610760578063715018a6146106f7578063779972da146106a95780638da5cb5b14610683578063b878b86c1461065b578063c9d2ff9d146104b6578063d15babfd1461048e578063e7017f781461045d578063ec9b5b3a1461018b5763f2fde38b1461009d57600080fd5b34610187576020366003190112610187578135916001600160a01b0391828416809403610183576100cc6107b9565b831561011a57505082548273ffffffffffffffffffffffffffffffffffffffff198216178455167f8be0079c531659141344cd1fd0a4f28419497f9722a3daafe3b4186f6b6457e08380a380f35b906020608492519162461bcd60e51b8352820152602660248201527f4f776e61626c653a206e6577206f776e657220697320746865207a65726f206160448201527f64647265737300000000000000000000000000000000000000000000000000006064820152fd5b8480fd5b8280fd5b508290346104595760209081600319360112610187578335918284528481528184208251906101b982610811565b600181549182845201549083830191825215610417575160035481018091116104045742106103c25751906001600160a01b036002541683517f70a08231000000000000000000000000000000000000000000000000000000009081815230898201528381602481865afa9081156103b857889392918691859161037e575b501061031a575b50829060448651809481937fa9059cbb000000000000000000000000000000000000000000000000000000008352338d8401528860248401525af18015610310576102e3575b508385528581528285208054908382039182116102d0577f11f87fd5adcd05786919b8b868f59a70d78ae4eb6f305c5927f9c5b1659841a4959697505582519485528401523392a280f35b60248760118a634e487b7160e01b835252fd5b61030290823d8411610309575b6102fa8183610843565b810190610865565b5086610285565b503d6102f0565b84513d88823e3d90fd5b91509250835190815230878201528181602481865afa9081156103105786918391839161034a575b50939061023f565b92505081813d8311610377575b6103618183610843565b81010312610373578186915189610342565b8580fd5b503d610357565b9293945050508381813d83116103b1575b6103998183610843565b810103126103ad579084889392518b610238565b8780fd5b503d61038f565b86513d8a823e3d90fd5b6064868385519162461bcd60e51b8352820152601c60248201527f556e6c6f636b20706572696f6420686173206e6f7420706173736564000000006044820152fd5b602486601189634e487b7160e01b835252fd5b6064878486519162461bcd60e51b8352820152601d60248201527f556e6c6f636b207265717565737420646f6573206e6f742065786973740000006044820152fd5b5080fd5b5090346101875760203660031901126101875791828293358252602052206001815491015482519182526020820152f35b8382346104595781600319360112610459576020906001600160a01b03600154169051908152f35b508290346104595760209081600319360112610187578335338452600583528184205492825193818501903360601b8252603486015260348552606085019085821067ffffffffffffffff8311176106485781855285519020948587528783528487205461060957505084816001600160a01b036001541660648651809481937f23b872dd000000000000000000000000000000000000000000000000000000008352338d8401523060248401528860448401525af18015610310576105ec575b50825161058381610811565b8281526001828201428152868852888452858820925183555191015533855260058152828520805460001981146102d0577f1659b216382c9d81c5fa8729673f92f40edf13de41cfd0ece4bb3974e6595e5795969750600101905582519485528401523392a280f35b61060290823d8411610309576102fa8183610843565b5086610577565b60a47f556e6c6f636b207265717565737420616c7265616479206578697374730000009160649462461bcd60e51b855285820152601d60848201520152fd5b60248760418a634e487b7160e01b835252fd5b8382346104595781600319360112610459576020906001600160a01b03600254169051908152f35b8382346104595781600319360112610459576001600160a01b0360209254169051908152f35b509034610187576020366003190112610187577f10b74ff47741c85819c3e5742d82e410f965b0e1cc86a458674914886eb9d2629160209135906106eb6107b9565b8160035551908152a180f35b833461075d578060031936011261075d576107106107b9565b806001600160a01b03815473ffffffffffffffffffffffffffffffffffffffff1981168355167f8be0079c531659141344cd1fd0a4f28419497f9722a3daafe3b4186f6b6457e08280a380f35b80fd5b8382346104595781600319360112610459576020906003549051908152f35b929050346107b55760203660031901126107b557356001600160a01b0381168091036107b5579260209381526005845220548152f35b8380fd5b6001600160a01b036000541633036107cd57565b606460405162461bcd60e51b815260206004820152602060248201527f4f776e61626c653a2063616c6c6572206973206e6f7420746865206f776e65726044820152fd5b6040810190811067ffffffffffffffff82111761082d57604052565b634e487b7160e01b600052604160045260246000fd5b90601f8019910116810190811067ffffffffffffffff82111761082d57604052565b9081602091031261087d5751801515810361087d5790565b600080fdfea2646970667358221220375ba7dcad2e89d444f161dfea5ebd2fb7cf52d856cc758ecae947db50ee6de564736f6c63430008110033",
  "linkReferences": {},
  "deployedLinkReferences": {}
}