{
  "_format": "hh-sol-artifact-1",
  "contractName": "SyntheXToken",
  "sourceName": "contracts/token/SyntheXToken.sol",
  "abi": [
    {
      "inputs": [],
      "stateMutability": "nonpayable",
      "type": "constructor"
    },
    {
      "anonymous": false,
      "inputs": [
        {
          "indexed": true,
          "internalType": "address",
          "name": "owner",
          "type": "address"
        },
        {
          "indexed": true,
          "internalType": "address",
          "name": "spender",
          "type": "address"
        },
        {
          "indexed": false,
          "internalType": "uint256",
          "name": "value",
          "type": "uint256"
        }
      ],
      "name": "Approval",
      "type": "event"
    },
    {
      "anonymous": false,
      "inputs": [
        {
          "indexed": true,
          "internalType": "address",
          "name": "delegator",
          "type": "address"
        },
        {
          "indexed": true,
          "internalType": "address",
          "name": "fromDelegate",
          "type": "address"
        },
        {
          "indexed": true,
          "internalType": "address",
          "name": "toDelegate",
          "type": "address"
        }
      ],
      "name": "DelegateChanged",
      "type": "event"
    },
    {
      "anonymous": false,
      "inputs": [
        {
          "indexed": true,
          "internalType": "address",
          "name": "delegate",
          "type": "address"
        },
        {
          "indexed": false,
          "internalType": "uint256",
          "name": "previousBalance",
          "type": "uint256"
        },
        {
          "indexed": false,
          "internalType": "uint256",
          "name": "newBalance",
          "type": "uint256"
        }
      ],
      "name": "DelegateVotesChanged",
      "type": "event"
    },
    {
      "anonymous": false,
      "inputs": [
        {
          "indexed": false,
          "internalType": "address",
          "name": "account",
          "type": "address"
        }
      ],
      "name": "Paused",
      "type": "event"
    },
    {
      "anonymous": false,
      "inputs": [
        {
          "indexed": true,
          "internalType": "bytes32",
          "name": "role",
          "type": "bytes32"
        },
        {
          "indexed": true,
          "internalType": "bytes32",
          "name": "previousAdminRole",
          "type": "bytes32"
        },
        {
          "indexed": true,
          "internalType": "bytes32",
          "name": "newAdminRole",
          "type": "bytes32"
        }
      ],
      "name": "RoleAdminChanged",
      "type": "event"
    },
    {
      "anonymous": false,
      "inputs": [
        {
          "indexed": true,
          "internalType": "bytes32",
          "name": "role",
          "type": "bytes32"
        },
        {
          "indexed": true,
          "internalType": "address",
          "name": "account",
          "type": "address"
        },
        {
          "indexed": true,
          "internalType": "address",
          "name": "sender",
          "type": "address"
        }
      ],
      "name": "RoleGranted",
      "type": "event"
    },
    {
      "anonymous": false,
      "inputs": [
        {
          "indexed": true,
          "internalType": "bytes32",
          "name": "role",
          "type": "bytes32"
        },
        {
          "indexed": true,
          "internalType": "address",
          "name": "account",
          "type": "address"
        },
        {
          "indexed": true,
          "internalType": "address",
          "name": "sender",
          "type": "address"
        }
      ],
      "name": "RoleRevoked",
      "type": "event"
    },
    {
      "anonymous": false,
      "inputs": [
        {
          "indexed": true,
          "internalType": "address",
          "name": "from",
          "type": "address"
        },
        {
          "indexed": true,
          "internalType": "address",
          "name": "to",
          "type": "address"
        },
        {
          "indexed": false,
          "internalType": "uint256",
          "name": "value",
          "type": "uint256"
        }
      ],
      "name": "Transfer",
      "type": "event"
    },
    {
      "anonymous": false,
      "inputs": [
        {
          "indexed": false,
          "internalType": "address",
          "name": "account",
          "type": "address"
        }
      ],
      "name": "Unpaused",
      "type": "event"
    },
    {
      "inputs": [],
      "name": "DEFAULT_ADMIN_ROLE",
      "outputs": [
        {
          "internalType": "bytes32",
          "name": "",
          "type": "bytes32"
        }
      ],
      "stateMutability": "view",
      "type": "function"
    },
    {
      "inputs": [],
      "name": "DOMAIN_SEPARATOR",
      "outputs": [
        {
          "internalType": "bytes32",
          "name": "",
          "type": "bytes32"
        }
      ],
      "stateMutability": "view",
      "type": "function"
    },
    {
      "inputs": [],
      "name": "MINTER_ROLE",
      "outputs": [
        {
          "internalType": "bytes32",
          "name": "",
          "type": "bytes32"
        }
      ],
      "stateMutability": "view",
      "type": "function"
    },
    {
      "inputs": [],
      "name": "PAUSER_ROLE",
      "outputs": [
        {
          "internalType": "bytes32",
          "name": "",
          "type": "bytes32"
        }
      ],
      "stateMutability": "view",
      "type": "function"
    },
    {
      "inputs": [
        {
          "internalType": "address",
          "name": "owner",
          "type": "address"
        },
        {
          "internalType": "address",
          "name": "spender",
          "type": "address"
        }
      ],
      "name": "allowance",
      "outputs": [
        {
          "internalType": "uint256",
          "name": "",
          "type": "uint256"
        }
      ],
      "stateMutability": "view",
      "type": "function"
    },
    {
      "inputs": [
        {
          "internalType": "address",
          "name": "spender",
          "type": "address"
        },
        {
          "internalType": "uint256",
          "name": "amount",
          "type": "uint256"
        }
      ],
      "name": "approve",
      "outputs": [
        {
          "internalType": "bool",
          "name": "",
          "type": "bool"
        }
      ],
      "stateMutability": "nonpayable",
      "type": "function"
    },
    {
      "inputs": [
        {
          "internalType": "address",
          "name": "account",
          "type": "address"
        }
      ],
      "name": "balanceOf",
      "outputs": [
        {
          "internalType": "uint256",
          "name": "",
          "type": "uint256"
        }
      ],
      "stateMutability": "view",
      "type": "function"
    },
    {
      "inputs": [
        {
          "internalType": "uint256",
          "name": "amount",
          "type": "uint256"
        }
      ],
      "name": "burn",
      "outputs": [],
      "stateMutability": "nonpayable",
      "type": "function"
    },
    {
      "inputs": [
        {
          "internalType": "address",
          "name": "account",
          "type": "address"
        },
        {
          "internalType": "uint256",
          "name": "amount",
          "type": "uint256"
        }
      ],
      "name": "burnFrom",
      "outputs": [],
      "stateMutability": "nonpayable",
      "type": "function"
    },
    {
      "inputs": [
        {
          "internalType": "address",
          "name": "account",
          "type": "address"
        },
        {
          "internalType": "uint32",
          "name": "pos",
          "type": "uint32"
        }
      ],
      "name": "checkpoints",
      "outputs": [
        {
          "components": [
            {
              "internalType": "uint32",
              "name": "fromBlock",
              "type": "uint32"
            },
            {
              "internalType": "uint224",
              "name": "votes",
              "type": "uint224"
            }
          ],
          "internalType": "struct ERC20Votes.Checkpoint",
          "name": "",
          "type": "tuple"
        }
      ],
      "stateMutability": "view",
      "type": "function"
    },
    {
      "inputs": [],
      "name": "decimals",
      "outputs": [
        {
          "internalType": "uint8",
          "name": "",
          "type": "uint8"
        }
      ],
      "stateMutability": "view",
      "type": "function"
    },
    {
      "inputs": [
        {
          "internalType": "address",
          "name": "spender",
          "type": "address"
        },
        {
          "internalType": "uint256",
          "name": "subtractedValue",
          "type": "uint256"
        }
      ],
      "name": "decreaseAllowance",
      "outputs": [
        {
          "internalType": "bool",
          "name": "",
          "type": "bool"
        }
      ],
      "stateMutability": "nonpayable",
      "type": "function"
    },
    {
      "inputs": [
        {
          "internalType": "address",
          "name": "delegatee",
          "type": "address"
        }
      ],
      "name": "delegate",
      "outputs": [],
      "stateMutability": "nonpayable",
      "type": "function"
    },
    {
      "inputs": [
        {
          "internalType": "address",
          "name": "delegatee",
          "type": "address"
        },
        {
          "internalType": "uint256",
          "name": "nonce",
          "type": "uint256"
        },
        {
          "internalType": "uint256",
          "name": "expiry",
          "type": "uint256"
        },
        {
          "internalType": "uint8",
          "name": "v",
          "type": "uint8"
        },
        {
          "internalType": "bytes32",
          "name": "r",
          "type": "bytes32"
        },
        {
          "internalType": "bytes32",
          "name": "s",
          "type": "bytes32"
        }
      ],
      "name": "delegateBySig",
      "outputs": [],
      "stateMutability": "nonpayable",
      "type": "function"
    },
    {
      "inputs": [
        {
          "internalType": "address",
          "name": "account",
          "type": "address"
        }
      ],
      "name": "delegates",
      "outputs": [
        {
          "internalType": "address",
          "name": "",
          "type": "address"
        }
      ],
      "stateMutability": "view",
      "type": "function"
    },
    {
      "inputs": [
        {
          "internalType": "address",
          "name": "token",
          "type": "address"
        },
        {
          "internalType": "uint256",
          "name": "amount",
          "type": "uint256"
        }
      ],
      "name": "flashFee",
      "outputs": [
        {
          "internalType": "uint256",
          "name": "",
          "type": "uint256"
        }
      ],
      "stateMutability": "view",
      "type": "function"
    },
    {
      "inputs": [
        {
          "internalType": "contract IERC3156FlashBorrower",
          "name": "receiver",
          "type": "address"
        },
        {
          "internalType": "address",
          "name": "token",
          "type": "address"
        },
        {
          "internalType": "uint256",
          "name": "amount",
          "type": "uint256"
        },
        {
          "internalType": "bytes",
          "name": "data",
          "type": "bytes"
        }
      ],
      "name": "flashLoan",
      "outputs": [
        {
          "internalType": "bool",
          "name": "",
          "type": "bool"
        }
      ],
      "stateMutability": "nonpayable",
      "type": "function"
    },
    {
      "inputs": [
        {
          "internalType": "uint256",
          "name": "blockNumber",
          "type": "uint256"
        }
      ],
      "name": "getPastTotalSupply",
      "outputs": [
        {
          "internalType": "uint256",
          "name": "",
          "type": "uint256"
        }
      ],
      "stateMutability": "view",
      "type": "function"
    },
    {
      "inputs": [
        {
          "internalType": "address",
          "name": "account",
          "type": "address"
        },
        {
          "internalType": "uint256",
          "name": "blockNumber",
          "type": "uint256"
        }
      ],
      "name": "getPastVotes",
      "outputs": [
        {
          "internalType": "uint256",
          "name": "",
          "type": "uint256"
        }
      ],
      "stateMutability": "view",
      "type": "function"
    },
    {
      "inputs": [
        {
          "internalType": "bytes32",
          "name": "role",
          "type": "bytes32"
        }
      ],
      "name": "getRoleAdmin",
      "outputs": [
        {
          "internalType": "bytes32",
          "name": "",
          "type": "bytes32"
        }
      ],
      "stateMutability": "view",
      "type": "function"
    },
    {
      "inputs": [
        {
          "internalType": "address",
          "name": "account",
          "type": "address"
        }
      ],
      "name": "getVotes",
      "outputs": [
        {
          "internalType": "uint256",
          "name": "",
          "type": "uint256"
        }
      ],
      "stateMutability": "view",
      "type": "function"
    },
    {
      "inputs": [
        {
          "internalType": "bytes32",
          "name": "role",
          "type": "bytes32"
        },
        {
          "internalType": "address",
          "name": "account",
          "type": "address"
        }
      ],
      "name": "grantRole",
      "outputs": [],
      "stateMutability": "nonpayable",
      "type": "function"
    },
    {
      "inputs": [
        {
          "internalType": "bytes32",
          "name": "role",
          "type": "bytes32"
        },
        {
          "internalType": "address",
          "name": "account",
          "type": "address"
        }
      ],
      "name": "hasRole",
      "outputs": [
        {
          "internalType": "bool",
          "name": "",
          "type": "bool"
        }
      ],
      "stateMutability": "view",
      "type": "function"
    },
    {
      "inputs": [
        {
          "internalType": "address",
          "name": "spender",
          "type": "address"
        },
        {
          "internalType": "uint256",
          "name": "addedValue",
          "type": "uint256"
        }
      ],
      "name": "increaseAllowance",
      "outputs": [
        {
          "internalType": "bool",
          "name": "",
          "type": "bool"
        }
      ],
      "stateMutability": "nonpayable",
      "type": "function"
    },
    {
      "inputs": [
        {
          "internalType": "address",
          "name": "token",
          "type": "address"
        }
      ],
      "name": "maxFlashLoan",
      "outputs": [
        {
          "internalType": "uint256",
          "name": "",
          "type": "uint256"
        }
      ],
      "stateMutability": "view",
      "type": "function"
    },
    {
      "inputs": [
        {
          "internalType": "address",
          "name": "to",
          "type": "address"
        },
        {
          "internalType": "uint256",
          "name": "amount",
          "type": "uint256"
        }
      ],
      "name": "mint",
      "outputs": [],
      "stateMutability": "nonpayable",
      "type": "function"
    },
    {
      "inputs": [],
      "name": "name",
      "outputs": [
        {
          "internalType": "string",
          "name": "",
          "type": "string"
        }
      ],
      "stateMutability": "view",
      "type": "function"
    },
    {
      "inputs": [
        {
          "internalType": "address",
          "name": "owner",
          "type": "address"
        }
      ],
      "name": "nonces",
      "outputs": [
        {
          "internalType": "uint256",
          "name": "",
          "type": "uint256"
        }
      ],
      "stateMutability": "view",
      "type": "function"
    },
    {
      "inputs": [
        {
          "internalType": "address",
          "name": "account",
          "type": "address"
        }
      ],
      "name": "numCheckpoints",
      "outputs": [
        {
          "internalType": "uint32",
          "name": "",
          "type": "uint32"
        }
      ],
      "stateMutability": "view",
      "type": "function"
    },
    {
      "inputs": [],
      "name": "pause",
      "outputs": [],
      "stateMutability": "nonpayable",
      "type": "function"
    },
    {
      "inputs": [],
      "name": "paused",
      "outputs": [
        {
          "internalType": "bool",
          "name": "",
          "type": "bool"
        }
      ],
      "stateMutability": "view",
      "type": "function"
    },
    {
      "inputs": [
        {
          "internalType": "address",
          "name": "owner",
          "type": "address"
        },
        {
          "internalType": "address",
          "name": "spender",
          "type": "address"
        },
        {
          "internalType": "uint256",
          "name": "value",
          "type": "uint256"
        },
        {
          "internalType": "uint256",
          "name": "deadline",
          "type": "uint256"
        },
        {
          "internalType": "uint8",
          "name": "v",
          "type": "uint8"
        },
        {
          "internalType": "bytes32",
          "name": "r",
          "type": "bytes32"
        },
        {
          "internalType": "bytes32",
          "name": "s",
          "type": "bytes32"
        }
      ],
      "name": "permit",
      "outputs": [],
      "stateMutability": "nonpayable",
      "type": "function"
    },
    {
      "inputs": [
        {
          "internalType": "bytes32",
          "name": "role",
          "type": "bytes32"
        },
        {
          "internalType": "address",
          "name": "account",
          "type": "address"
        }
      ],
      "name": "renounceRole",
      "outputs": [],
      "stateMutability": "nonpayable",
      "type": "function"
    },
    {
      "inputs": [
        {
          "internalType": "bytes32",
          "name": "role",
          "type": "bytes32"
        },
        {
          "internalType": "address",
          "name": "account",
          "type": "address"
        }
      ],
      "name": "revokeRole",
      "outputs": [],
      "stateMutability": "nonpayable",
      "type": "function"
    },
    {
      "inputs": [
        {
          "internalType": "bytes4",
          "name": "interfaceId",
          "type": "bytes4"
        }
      ],
      "name": "supportsInterface",
      "outputs": [
        {
          "internalType": "bool",
          "name": "",
          "type": "bool"
        }
      ],
      "stateMutability": "view",
      "type": "function"
    },
    {
      "inputs": [],
      "name": "symbol",
      "outputs": [
        {
          "internalType": "string",
          "name": "",
          "type": "string"
        }
      ],
      "stateMutability": "view",
      "type": "function"
    },
    {
      "inputs": [],
      "name": "totalSupply",
      "outputs": [
        {
          "internalType": "uint256",
          "name": "",
          "type": "uint256"
        }
      ],
      "stateMutability": "view",
      "type": "function"
    },
    {
      "inputs": [
        {
          "internalType": "address",
          "name": "to",
          "type": "address"
        },
        {
          "internalType": "uint256",
          "name": "amount",
          "type": "uint256"
        }
      ],
      "name": "transfer",
      "outputs": [
        {
          "internalType": "bool",
          "name": "",
          "type": "bool"
        }
      ],
      "stateMutability": "nonpayable",
      "type": "function"
    },
    {
      "inputs": [
        {
          "internalType": "address",
          "name": "from",
          "type": "address"
        },
        {
          "internalType": "address",
          "name": "to",
          "type": "address"
        },
        {
          "internalType": "uint256",
          "name": "amount",
          "type": "uint256"
        }
      ],
      "name": "transferFrom",
      "outputs": [
        {
          "internalType": "bool",
          "name": "",
          "type": "bool"
        }
      ],
      "stateMutability": "nonpayable",
      "type": "function"
    },
    {
      "inputs": [],
      "name": "unpause",
      "outputs": [],
      "stateMutability": "nonpayable",
      "type": "function"
    }
  ],
  "bytecode": "0x610140604052346200021e5762000015620002a0565b6200001f620002a0565b906200002a62000276565b6020916229aca760e91b83830152620000426200028b565b9280840192603160f81b8452855160018060401b0381116200020e575b620000778162000071600354620002e2565b6200031f565b82601f82116001146200017b579080620000b69392620000e498996000926200016f575b50508160011b916000199060031b1c191617600355620003d1565b620000c660ff1960055416600555565b8151910120925190208260e052610100928184524660a05262000682565b6080523060c0526101206000805160206200444f83398151915281526200010b33620004d5565b620001163362000568565b62000121336200074e565b6200012c3362000620565b60405190613557928362000ed8843960805183612edc015260a05183612f97015260c05183612ead015260e05183612f2b01525182612f5101525181612f080152f35b0151905038806200009b565b6003600052601f198216977fc2575a0e9e593c00f959f8c92f12db2869c3395a3b0502d05e2516446f71f85b9860005b818110620001f65750986001928492620000b69695620000e49b9c10620001dc575b505050811b01600355620003d1565b015160001960f88460031b161c19169055388080620001cd565b838301518b556001909a0199928601928601620001ab565b6200021862000223565b6200005f565b600080fd5b50634e487b7160e01b600052604160045260246000fd5b604081019081106001600160401b038211176200025657604052565b6200026062000223565b604052565b6040519062000274826200023a565b565b6040519062000285826200023a565b60038252565b604051906200029a826200023a565b60018252565b60405190620002af826200023a565b600d82526c29bcb73a3432ac102a37b5b2b760991b6020830152565b50634e487b7160e01b600052601160045260246000fd5b90600182811c9216801562000314575b6020831014620002fe57565b634e487b7160e01b600052602260045260246000fd5b91607f1691620002f2565b601f81116200032c575050565b6000906003825260208220906020601f850160051c830194106200036d575b601f0160051c01915b8281106200036157505050565b81815560010162000354565b90925082906200034b565b601f811162000385575050565b6000906004825260208220906020601f850160051c83019410620003c6575b601f0160051c01915b828110620003ba57505050565b818155600101620003ad565b9092508290620003a4565b80519091906001600160401b038111620004c5575b620003fe81620003f8600454620002e2565b62000378565b602080601f83116001146200043d575081929360009262000431575b50508160011b916000199060031b1c191617600455565b0151905038806200041a565b6004600052601f198316949091907f8a35acfbc15ff81a39ae7d344fd709f28e8600b4aa8c65c6b64bfe7fe36bd19b926000905b878210620004ac57505083600195961062000492575b505050811b01600455565b015160001960f88460031b161c1916905538808062000487565b8060018596829496860151815501950193019062000471565b620004cf62000223565b620003e6565b6001600160a01b03811660009081527f54cdd369e4e8a8515e52ca72ec816c2101831ad1f18bf44102ed171459c9b4f8602052604081205460ff16156200051a575050565b8080526006602090815260408083206001600160a01b038516600090815292529020805460ff1916600117905533916001600160a01b0316906000805160206200442f8339815191528180a4565b6001600160a01b03811660009081527fe09f975e15f8f53f24cbbc282b13c40b84df485fcdb8d3997fa103dc5a4ef841602052604081207f65d7a28e3265b37a6474929f336521b332c1681b933f6cb9f3376673440d862a9060ff905b541615620005d257505050565b8082526006602090815260408084206001600160a01b038616600090815292529020805460ff1916600117905533926001600160a01b0316916000805160206200442f8339815191529080a4565b6001600160a01b03811660009081527f3195c024b2ddd6d9b8f6c836aa52f67fe69376c8903d009b80229b3ce4425f51602052604081207f9f2df0fed2c77648de5860a4cc508cd0818c85b8b8a1ab4ceeef8d981c8956a69060ff90620005c5565b906040519060208201926000805160206200444f8339815191528452604083015260608201524660808201523060a082015260a0815260c0810181811060018060401b03821117620006d8575b60405251902090565b620006e262000223565b620006cf565b15620006f057565b60405162461bcd60e51b815260206004820152603060248201527f4552433230566f7465733a20746f74616c20737570706c79207269736b73206f60448201526f766572666c6f77696e6720766f74657360801b6064820152608490fd5b6001600160a01b038116908115620008575760ff600554166200081f57620007f99162000786620007816002546200089c565b600255565b6001600160a01b03821660009081526020819052604090206a1a8d707ca17eff16800000815401905560007fddf252ad1be2c89b69c2b068fc378daa952ba7f163c4a11628f55a4df523b3ef60405180620007f081906a1a8d707ca17eff16800000602083019252565b0390a362000d9e565b60025462000811906001600160e01b031015620006e8565b6200081b62000a0c565b5050565b60405162461bcd60e51b815260206004820152601060248201526f14185d5cd8589b194e881c185d5cd95960821b6044820152606490fd5b60405162461bcd60e51b815260206004820152601f60248201527f45524332303a206d696e7420746f20746865207a65726f2061646472657373006044820152606490fd5b906a1a8d707ca17eff168000008201809211620008b557565b62000274620002cb565b600019810191908211620008b557565b604080519192919081016001600160401b0381118282101762000905575b604052602081935463ffffffff81168352811c910152565b6200090f62000223565b620008ed565b600b5490680100000000000000008210156200099a575b6001820180600b558210156200098457600b600052805160209182015190911b63ffffffff191663ffffffff91909116177f0175b7a638427703f0dbe7bb9bbf987a2551717b34e79f33b5b1008d1fa01db990910155565b634e487b7160e01b600052603260045260246000fd5b620009a462000223565b6200092c565b90815468010000000000000000811015620009fc575b600181018084558110156200098457600092835260209283902082519284015190931b63ffffffff191663ffffffff9290921691909117910155565b62000a0662000223565b620009c0565b600b5490811590811562000b355762000a2462000265565b6000815260006020820152925b602084015162000a51906001600160e01b03165b6001600160e01b031690565b9362000a5d8562000e97565b9315908162000b1d575b501562000ace57620002749062000ab762000a8d62000a868662000cce565b92620008bf565b600b6000527f0175b7a638427703f0dbe7bb9bbf987a2551717b34e79f33b5b1008d1fa01db90190565b9063ffffffff82549181199060201b169116179055565b506200027462000ade4362000d38565b62000b1762000aed8562000cce565b62000b0762000afb62000265565b63ffffffff9094168452565b6001600160e01b03166020830152565b62000915565b5163ffffffff16905063ffffffff1643143862000a67565b62000b4e62000b4862000a8d85620008bf565b620008cf565b9262000a31565b805491821591821562000c445762000b6c62000265565b6000815260006020820152935b602085015162000b92906001600160e01b031662000a45565b9462000b9e8662000ebd565b9415908162000c2c575b501562000bdb5762000ab7620002749262000bce62000bc78762000cce565b93620008bf565b9060005260206000200190565b50620002749062000bec4362000d38565b9062000c2662000bfc8662000cce565b62000c1662000c0a62000265565b63ffffffff9095168552565b6001600160e01b03166020840152565b620009aa565b5163ffffffff16905063ffffffff1643143862000ba8565b62000c6462000b4862000c5786620008bf565b8360005260206000200190565b9362000b79565b805491821591821562000cb45762000c8262000265565b6000815260006020820152935b602085015162000ca8906001600160e01b031662000a45565b9462000b9e8662000e97565b62000cc762000b4862000c5786620008bf565b9362000c8f565b6001600160e01b039081811162000ce3571690565b60405162461bcd60e51b815260206004820152602760248201527f53616665436173743a2076616c756520646f65736e27742066697420696e20326044820152663234206269747360c81b6064820152608490fd5b63ffffffff9081811162000d4a571690565b60405162461bcd60e51b815260206004820152602660248201527f53616665436173743a2076616c756520646f65736e27742066697420696e203360448201526532206269747360d01b6064820152608490fd5b60096020527fec8156718a8372b1db44bb411437d0870f3e3790d4a08526d024ce1b0b668f6b546001600160a01b039182166000908152604081205483169290911690818314158062000e8e575b62000df657505050565b8162000e4f575b50508062000e085750565b6001600160a01b0381166000908152600a602052604090206000805160206200446f8339815191529062000e3c9062000c6b565b60408051928352602083019190915290a2565b62000e75604082846000805160206200446f8339815191529452600a6020522062000b55565b60408051928352602083019190915290a2388062000dfd565b50600162000dec565b6a1a8d707ca17eff16800000810180911162000eb05790565b62000eba620002cb565b90565b6a1a8d707ca17eff167fffff19810190811162000eb0579056fe60806040526004361015610013575b600080fd5b60003560e01c806301ffc9a71461033357806306fdde031461032a578063095ea7b31461032157806318160ddd1461031857806323b872dd1461030f578063248a9ca3146103065780632f2ff15d146102fd578063313ce567146102f45780633644e515146102eb57806336568abe146102e257806339509351146102d95780633a46b1a8146102d05780633f4ba83a146102c757806340c10f19146102be57806342966c68146102b5578063587cde1e146102ac5780635c19a95c146102a35780635c975abb1461029a5780635cffe9de14610291578063613255ab146102885780636fcfff451461027f57806370a082311461027657806379cc67901461026d5780637ecebe00146102645780638456cb591461025b5780638e539e8c1461025257806391d148541461024957806395d89b41146102405780639ab24eb014610237578063a217fddf1461022e578063a457c2d714610225578063a9059cbb1461021c578063c3cda52014610213578063d505accf1461020a578063d539139314610201578063d547741f146101f8578063d9d98ce4146101ef578063dd62ed3e146101e6578063e63ab1e9146101dd5763f1127ed8146101d557600080fd5b61000e611790565b5061000e611754565b5061000e6116ee565b5061000e6116c2565b5061000e61167f565b5061000e611643565b5061000e6114f6565b5061000e6113c2565b5061000e611377565b5061000e6112a0565b5061000e611283565b5061000e611204565b5061000e611140565b5061000e6110e8565b5061000e610f96565b5061000e610f3b565b5061000e610efc565b5061000e610e24565b5061000e610de5565b5061000e610d98565b5061000e610d70565b5061000e610ce7565b5061000e610cc3565b5061000e610c9c565b5061000e610c5b565b5061000e610b33565b5061000e610a1f565b5061000e610982565b5061000e610836565b5061000e6107c9565b5061000e610723565b5061000e6106ff565b5061000e6106e2565b5061000e610608565b5061000e6105d8565b5061000e610597565b5061000e610578565b5061000e610542565b5061000e610424565b503461000e57602036600319011261000e576004357fffffffff00000000000000000000000000000000000000000000000000000000811680910361000e57807f7965db0b00000000000000000000000000000000000000000000000000000000602092149081156103ab575b506040519015158152f35b7f01ffc9a700000000000000000000000000000000000000000000000000000000915014386103a0565b60005b8381106103e85750506000910152565b81810151838201526020016103d8565b6040916020825261041881518092816020860152602086860191016103d5565b601f01601f1916010190565b503461000e5760008060031936011261052e5760405190806003549060019180831c92808216928315610524575b60209283861085146105105785885260208801949081156104ef5750600114610496575b6104928761048681890382611a9e565b604051918291826103f8565b0390f35b600360005294509192917fc2575a0e9e593c00f959f8c92f12db2869c3395a3b0502d05e2516446f71f85b5b8386106104de5750505091019050610486826104923880610476565b8054858701529482019481016104c2565b60ff191685525050505090151560051b019050610486826104923880610476565b602482634e487b7160e01b81526022600452fd5b93607f1693610452565b80fd5b6001600160a01b0381160361000e57565b503461000e57604036600319011261000e5761056d60043561056381610531565b6024359033611df3565b602060405160018152f35b503461000e57600036600319011261000e576020600254604051908152f35b503461000e57606036600319011261000e5761056d6004356105b881610531565b6024356105c481610531565b604435916105d3833383611f57565b611d27565b503461000e57602036600319011261000e5760043560005260066020526020600160406000200154604051908152f35b503461000e57604036600319011261000e5760043560243561062981610531565b6000918083526006602052610644600160408520015461195a565b808352600660205260ff61066e8360408620906001600160a01b0316600052602052604060002090565b541615610679578280f35b80835260066020526106a18260408520906001600160a01b0316600052602052604060002090565b805460ff1916600117905533916001600160a01b0316907f2f8788117e7eff1d82e926ec794901d17c78024a50270940304540a733656f0d8480a438808280f35b503461000e57600036600319011261000e57602060405160128152f35b503461000e57600036600319011261000e57602061071b612ea3565b604051908152f35b503461000e57604036600319011261000e5760243561074181610531565b336001600160a01b0382160361075f5761075d90600435611ac0565b005b608460405162461bcd60e51b815260206004820152602f60248201527f416363657373436f6e74726f6c3a2063616e206f6e6c792072656e6f756e636560448201527f20726f6c657320666f722073656c6600000000000000000000000000000000006064820152fd5b503461000e57604036600319011261000e5761056d6004356107ea81610531565b336000526001602052610814816040600020906001600160a01b0316600052602052604060002090565b54906024358201809211610829575b33611df3565b610831611b59565b610823565b503461000e57604036600319011261000e5760043561085481610531565b6001600160a01b036024359161086b4384106123b7565b16600052600a602052604060002080549160008360058111610931575b50905b8382106108dc575050816108b1575050602060005b6001600160e01b0360405191168152f35b6108d06108d7916108c3602094611ffb565b9060005260206000200190565b5460201c90565b6108a0565b90926108e8818561304e565b90818363ffffffff61090e610904848960005260206000200190565b5463ffffffff1690565b16111561091f575050925b9061088b565b90945061092c9150611b70565b610919565b806109416109479296939661306b565b9061200a565b908263ffffffff610962610904858860005260206000200190565b1611156109725750925b38610888565b935061097d90611b70565b61096c565b503461000e57600036600319011261000e5761099c611817565b60055460ff8116156109db5760ff19166005557f5db9ee0a495bf2e6ff9c91a7834c1ba4fdd244a5e8aa4e537bd38aeae4b073aa6020604051338152a1005b606460405162461bcd60e51b815260206004820152601460248201527f5061757361626c653a206e6f74207061757365640000000000000000000000006044820152fd5b503461000e57604036600319011261000e57600435610a3d81610531565b602435610a48611905565b6001600160a01b038216918215610aef5781610ad59161075d94610a6a6132b6565b610a7e610a7984600254611b88565b600255565b610a9b826001600160a01b03166000526000602052604060002090565b8054840190556040518381526000907fddf252ad1be2c89b69c2b068fc378daa952ba7f163c4a11628f55a4df523b3ef90602090a3613306565b610aea6001600160e01b0360025411156133b7565b6127d6565b606460405162461bcd60e51b815260206004820152601f60248201527f45524332303a206d696e7420746f20746865207a65726f2061646472657373006044820152fd5b503461000e57602036600319011261000e576004353315610bf15761075d90610b5a6132b6565b80610b78336001600160a01b03166000526000602052604060002090565b54610b8582821015613496565b03610ba3336001600160a01b03166000526000602052604060002090565b55610bb18160025403600255565b60405181815260009033907fddf252ad1be2c89b69c2b068fc378daa952ba7f163c4a11628f55a4df523b3ef90602090a3610bec8133613351565b6128b1565b608460405162461bcd60e51b815260206004820152602160248201527f45524332303a206275726e2066726f6d20746865207a65726f2061646472657360448201527f73000000000000000000000000000000000000000000000000000000000000006064820152fd5b503461000e57602036600319011261000e576020600435610c7b81610531565b6001600160a01b038091166000526009825260406000205416604051908152f35b503461000e57602036600319011261000e5761075d600435610cbd81610531565b3361244d565b503461000e57600036600319011261000e57602060ff600554166040519015158152f35b503461000e57608036600319011261000e57600435610d0581610531565b602435610d1181610531565b6064359067ffffffffffffffff9081831161000e573660238401121561000e57826004013591821161000e57366024838501011161000e57610492936024610d5e94019160443591612205565b60405190151581529081906020820190565b503461000e57602036600319011261000e57602061071b600435610d9381610531565b612017565b503461000e57602036600319011261000e576001600160a01b03600435610dbe81610531565b16600052600a6020526020610dd760406000205461323b565b63ffffffff60405191168152f35b503461000e57602036600319011261000e576001600160a01b03600435610e0b81610531565b1660005260006020526020604060002054604051908152f35b503461000e57604036600319011261000e57600435610e4281610531565b602435610e50813384611f57565b6001600160a01b038216918215610bf15781610bec91600061075d95610e746132b6565b83610e92846001600160a01b03166000526000602052604060002090565b54610e9f82821015613496565b03610ebd846001600160a01b03166000526000602052604060002090565b55610ecb8460025403600255565b6040518481527fddf252ad1be2c89b69c2b068fc378daa952ba7f163c4a11628f55a4df523b3ef90602090a3613351565b503461000e57602036600319011261000e576001600160a01b03600435610f2281610531565b1660005260076020526020604060002054604051908152f35b503461000e57600036600319011261000e57610f55611817565b610f5d6132b6565b600160ff1960055416176005557f62e78cea01bee320cd4e420270b5ea74000d11b0c9f74754ebdbfc544b05a2586020604051338152a1005b503461000e57602036600319011261000e57600435610fb64382106123b7565b600b549060008260058111611081575b50905b82821061101e578280610fe3575060405160008152602090f35b6108d76108d0610ff4602093611ffb565b600b6000527f0175b7a638427703f0dbe7bb9bbf987a2551717b34e79f33b5b1008d1fa01db90190565b909161102a818461304e565b600b600052908263ffffffff6110617f0175b7a638427703f0dbe7bb9bbf987a2551717b34e79f33b5b1008d1fa01db98501610904565b1611156110715750915b90610fc9565b925061107c90611b70565b61106b565b806109416110919295939561306b565b600b600052908263ffffffff6110c87f0175b7a638427703f0dbe7bb9bbf987a2551717b34e79f33b5b1008d1fa01db98501610904565b1611156110d85750915b38610fc6565b92506110e390611b70565b6110d2565b503461000e57604036600319011261000e57602060ff61113460243561110d81610531565b600435600052600684526040600020906001600160a01b0316600052602052604060002090565b54166040519015158152f35b503461000e5760008060031936011261052e5760405190806004549060019180831c928082169283156111fa575b60209283861085146105105785885260208801949081156104ef57506001146111a1576104928761048681890382611a9e565b600460005294509192917f8a35acfbc15ff81a39ae7d344fd709f28e8600b4aa8c65c6b64bfe7fe36bd19b5b8386106111e95750505091019050610486826104923880610476565b8054858701529482019481016111cd565b93607f169361116e565b503461000e57602036600319011261000e576001600160a01b0360043561122a81610531565b16600052600a6020526040600020546000811560001461125257505060405160008152602090f35b602091604061126d922060001982019182116112765761236f565b5054811c6108a0565b61127e611b59565b61236f565b503461000e57600036600319011261000e57602060405160008152f35b503461000e57604036600319011261000e576004356112be81610531565b602435903360005260016020526112ec816040600020906001600160a01b0316600052602052604060002090565b549180831061130d5761130192039033611df3565b60405160018152602090f35b608460405162461bcd60e51b815260206004820152602560248201527f45524332303a2064656372656173656420616c6c6f77616e63652062656c6f7760448201527f207a65726f0000000000000000000000000000000000000000000000000000006064820152fd5b503461000e57604036600319011261000e5761056d60043561139881610531565b6024359033611d27565b6064359060ff8216820361000e57565b6084359060ff8216820361000e57565b503461000e5760c036600319011261000e576004356113e081610531565b604435906024356113ef6113a2565b928042116114b2576114806114ad9161075d95604051906114688261145a6020820195898b886060919493926001600160a01b0360808301967fe48329057bfd03d55e49b547132e39cffd9c1820ad7b9d4c5307691425d15adf845216602083015260408201520152565b03601f198101845283611a9e565b61147b60a4359360843593519020612fbd565b612ca1565b916114a7836001600160a01b03166000526007602052604060002090815491600183019055565b14612402565b61244d565b606460405162461bcd60e51b815260206004820152601d60248201527f4552433230566f7465733a207369676e617475726520657870697265640000006044820152fd5b503461000e5760e036600319011261000e5760043561151481610531565b60243561152081610531565b60443590606435926115306113b2565b938042116115ff576115e76115fa9161145a61075d976115d461156f876001600160a01b03166000526007602052604060002090815491600183019055565b9360405193849160208301968c8c8c8a91959493909260a09360c08401977f6e71edae12b1b97f4d1f60370fef10105fa2faae0126114a169c64845d6126c985526001600160a01b038092166020860152166040840152606083015260808201520152565b61147b60c4359360a43593519020612fbd565b6001600160a01b038084169116146129b5565b611df3565b606460405162461bcd60e51b815260206004820152601d60248201527f45524332305065726d69743a206578706972656420646561646c696e650000006044820152fd5b503461000e57600036600319011261000e5760206040517f9f2df0fed2c77648de5860a4cc508cd0818c85b8b8a1ab4ceeef8d981c8956a68152f35b503461000e57604036600319011261000e5761075d6024356004356116a382610531565b8060005260066020526116bd60016040600020015461195a565b611ac0565b503461000e57604036600319011261000e57602061071b6004356116e581610531565b60243590612034565b503461000e57604036600319011261000e57602061174b60043561171181610531565b6001600160a01b036024359161172683610531565b16600052600183526040600020906001600160a01b0316600052602052604060002090565b54604051908152f35b503461000e57600036600319011261000e5760206040517f65d7a28e3265b37a6474929f336521b332c1681b933f6cb9f3376673440d862a8152f35b503461000e57604036600319011261000e576004356117ae81610531565b63ffffffff602435818116810361000e5760206118056117ff6001600160e01b03936001600160a01b036040976000868a516117e981611a59565b828152015216600052600a84528660002061236f565b50612395565b84519381511684520151166020820152f35b3360009081527fe09f975e15f8f53f24cbbc282b13c40b84df485fcdb8d3997fa103dc5a4ef841602052604090205460ff161561185057565b61190160486118e961186133612ae6565b6118db61186c612b83565b6040519485937f416363657373436f6e74726f6c3a206163636f756e742000000000000000000060208601526118ac8151809260206037890191016103d5565b84017f206973206d697373696e6720726f6c652000000000000000000000000000000060378201520190611a2b565b03601f198101835282611a9e565b60405191829162461bcd60e51b8352600483016103f8565b0390fd5b3360009081527f3195c024b2ddd6d9b8f6c836aa52f67fe69376c8903d009b80229b3ce4425f51602052604090205460ff161561193e57565b61190160486118e961194f33612ae6565b6118db61186c612c12565b80600052600660205260ff611986336040600020906001600160a01b0316600052602052604060002090565b5416156119905750565b61199933612ae6565b906119a2612a00565b9060306119ae83612a3a565b5360786119ba83612a50565b5360415b600181116119dd5761190160486118e9866118db8761186c8815612a9b565b90806f181899199a1a9b1b9c1cb0b131b232b360811b600f611a1993166010811015611a1e575b1a611a0f8486612a61565b5360041c91612a80565b6119be565b611a26612358565b611a04565b90611a3e602092828151948592016103d5565b0190565b50634e487b7160e01b600052604160045260246000fd5b6040810190811067ffffffffffffffff821117611a7557604052565b611a7d611a42565b604052565b60c0810190811067ffffffffffffffff821117611a7557604052565b90601f8019910116810190811067ffffffffffffffff821117611a7557604052565b600090808252600660205260ff611aed8460408520906001600160a01b0316600052602052604060002090565b5416611af857505050565b8082526006602052611b208360408420906001600160a01b0316600052602052604060002090565b60ff1981541690557ff6391f5c32d9c69d2a47ea670b442974b53935d1edc7fd64eb21e047a839171b6001600160a01b033394169280a4565b50634e487b7160e01b600052601160045260246000fd5b9060018201809211611b7e57565b611b86611b59565b565b91908201809211611b7e57565b15611b9c57565b608460405162461bcd60e51b815260206004820152602360248201527f45524332303a207472616e7366657220746f20746865207a65726f206164647260448201526265737360e81b6064820152fd5b15611bf357565b608460405162461bcd60e51b815260206004820152602660248201527f45524332303a207472616e7366657220616d6f756e742065786365656473206260448201527f616c616e636500000000000000000000000000000000000000000000000000006064820152fd5b6001600160a01b0391501615611cbd57608460405162461bcd60e51b815260206004820152602360248201527f45524332303a207472616e7366657220746f20746865207a65726f206164647260448201526265737360e81b6064820152fd5b608460405162461bcd60e51b815260206004820152602560248201527f45524332303a207472616e736665722066726f6d20746865207a65726f20616460448201527f64726573730000000000000000000000000000000000000000000000000000006064820152fd5b91906001600160a01b03928381168015611cbd57611b8694831690611d4d821515611b95565b611d556132b6565b84611d73846001600160a01b03166000526000602052604060002090565b54611d8082821015611bec565b03611d9e846001600160a01b03166000526000602052604060002090565b55611dbc846001600160a01b03166000526000602052604060002090565b8054860190556040518581527fddf252ad1be2c89b69c2b068fc378daa952ba7f163c4a11628f55a4df523b3ef90602090a3613383565b906001600160a01b0391828116928315611eee578216938415611e845780611e6e7f8c5be1e5ebec7d5bd14f71427d1e84f3dd0314c0f7b2291e5b200ac8c7c3b92594611e56611e7f956001600160a01b03166000526001602052604060002090565b906001600160a01b0316600052602052604060002090565b556040519081529081906020820190565b0390a3565b608460405162461bcd60e51b815260206004820152602260248201527f45524332303a20617070726f766520746f20746865207a65726f20616464726560448201527f73730000000000000000000000000000000000000000000000000000000000006064820152fd5b608460405162461bcd60e51b8152602060048201526024808201527f45524332303a20617070726f76652066726f6d20746865207a65726f2061646460448201527f72657373000000000000000000000000000000000000000000000000000000006064820152fd5b906001600160a01b0382166000526001602052611f8b816040600020906001600160a01b0316600052602052604060002090565b549260018401611f9c575b50505050565b808410611fb757611fae930391611df3565b38808080611f96565b606460405162461bcd60e51b815260206004820152601d60248201527f45524332303a20696e73756666696369656e7420616c6c6f77616e63650000006044820152fd5b600019810191908211611b7e57565b91908203918211611b7e57565b6000906001600160a01b0316300361203157506002541990565b90565b6001600160a01b033091160361207857670de0b6b3a764000090670e043da6172500009081810291818304149015171561206c570490565b612074611b59565b0490565b606460405162461bcd60e51b815260206004820152601b60248201527f4552433230466c6173684d696e743a2077726f6e6720746f6b656e00000000006044820152fd5b156120c357565b608460405162461bcd60e51b815260206004820152602b60248201527f4552433230466c6173684d696e743a20616d6f756e742065786365656473206d60448201527f6178466c6173684c6f616e0000000000000000000000000000000000000000006064820152fd5b9081602091031261000e575190565b94919286949160c097946001600160a01b0380921688521660208701526040860152606085015260a060808501528160a0850152848401376000828201840152601f01601f1916010190565b506040513d6000823e3d90fd5b1561219c57565b608460405162461bcd60e51b8152602060048201526024808201527f4552433230466c6173684d696e743a20696e76616c69642072657475726e207660448201527f616c7565000000000000000000000000000000000000000000000000000000006064820152fd5b7f439148f0bbc682ca079e46d6e2c2f0c1e3b820f1a291b069d8882abf8cf18dd9906020846122bb9461229d6001600160a01b03979961224f61224784612017565b8511156120bc565b6122598484612034565b9889961699612268858c613428565b60405196879586957f23e30c8b000000000000000000000000000000000000000000000000000000008752336004880161213c565b03816000895af190811561233e575b600091612310575b5014612195565b6122cf6122c88285611b88565b3084611f57565b80158015612308575b156122f5576122ea906122f093611b88565b90613471565b600190565b506123036122f09282613471565b611c5d565b5060016122d8565b612331915060203d8111612337575b6123298183611a9e565b81019061212d565b386122b4565b503d61231f565b612346612188565b6122ac565b60405190611b8682611a59565b50634e487b7160e01b600052603260045260246000fd5b8054821015612388575b60005260206000200190600090565b612390612358565b612379565b906040516123a281611a59565b602081935463ffffffff81168352811c910152565b156123be57565b606460405162461bcd60e51b815260206004820152601f60248201527f4552433230566f7465733a20626c6f636b206e6f7420796574206d696e6564006044820152fd5b1561240957565b606460405162461bcd60e51b815260206004820152601960248201527f4552433230566f7465733a20696e76616c6964206e6f6e6365000000000000006044820152fd5b611b86916001600160a01b038092166000928184526009602052806040852054168092856020527f3134e8a2e6d97e929a7e54011ea5485d7d196dd5f0ba4d4ef95803e8e3fc257f60408720549660096020526040812094871694857fffffffffffffffffffffffff000000000000000000000000000000000000000082541617905580a45b91906001600160a01b03808216931683811415806126c7575b6124f65750505050565b80612569575b5082612509575b80611f96565b7fdec2bacdd2f05b59de34da9b523dff8be42e5e38e818c82fdb0bae774387a7249161254b612550926001600160a01b0316600052600a602052604060002090565b612908565b60408051928352602083019190915290a2388080612503565b80600052600a6020527fdec2bacdd2f05b59de34da9b523dff8be42e5e38e818c82fdb0bae774387a72460406000208054801591826000146126a0576125ad61234b565b6000815260006020820152915b6125dd6125d160208501516001600160e01b031690565b6001600160e01b031690565b926125e88985613507565b94159081612689575b501561263d57612610612627926108c361260a876131bd565b93611ffb565b9063ffffffff82549181199060201b169116179055565b604080519182526020820192909252a2386124fc565b506126849061264b4361323b565b9061267f612658866131bd565b61266f61266361234b565b63ffffffff9095168552565b6001600160e01b03166020840152565b612769565b612627565b5163ffffffff16905063ffffffff164314386125f1565b6126c16126bc6126af84611ffb565b8360005260206000200190565b612395565b916125ba565b508215156124ec565b611b86906001600160e01b036020600b546801000000000000000081101561275c575b6001810180600b5581101561274f575b600b600052835191909301519190911660201b63ffffffff191663ffffffff91909116177f0175b7a638427703f0dbe7bb9bbf987a2551717b34e79f33b5b1008d1fa01db99190910155565b612757612358565b612703565b612764611a42565b6126f3565b805461278c91680100000000000000008210156127c9575b60018201815561236f565b6127b357815160209283015190921b63ffffffff191663ffffffff92909216919091179055565b634e487b7160e01b600052600060045260246000fd5b6127d1611a42565b612781565b600b549091811591821561289d576127ec61234b565b60008152600060208201525b6128196128126125d160208401516001600160e01b031690565b9586613514565b93159081612886575b501561284157611b8690612610610ff461283b866131bd565b92611ffb565b50611b8661284e4361323b565b61288161285a856131bd565b61287161286561234b565b63ffffffff9094168452565b6001600160e01b03166020830152565b6126d0565b5163ffffffff16905063ffffffff16431438612822565b6128ac6126bc610ff483611ffb565b6127f8565b600b54909181159182156128f4576128c761234b565b60008152600060208201525b6128196128ed6125d160208401516001600160e01b031690565b9586613507565b6129036126bc610ff483611ffb565b6128d3565b9091815491821592836000146129945761292061234b565b60008152600060208201525b61294d6129466125d160208401516001600160e01b031690565b9687613514565b9415908161297d575b501561296f57612610611b86926108c361260a876131bd565b50611b869061264b4361323b565b5163ffffffff16905063ffffffff16431438612956565b6129b06126bc6129a383611ffb565b8460005260206000200190565b61292c565b156129bc57565b606460405162461bcd60e51b815260206004820152601e60248201527f45524332305065726d69743a20696e76616c6964207369676e617475726500006044820152fd5b604051906080820182811067ffffffffffffffff821117612a2d575b604052604282526060366020840137565b612a35611a42565b612a1c565b602090805115612a48570190565b611a3e612358565b602190805160011015612a48570190565b906020918051821015612a7357010190565b612a7b612358565b010190565b8015612a8e575b6000190190565b612a96611b59565b612a87565b15612aa257565b606460405162461bcd60e51b815260206004820152602060248201527f537472696e67733a20686578206c656e67746820696e73756666696369656e746044820152fd5b604051906060820182811067ffffffffffffffff821117612b76575b604052602a825260403660208401376030612b1c83612a3a565b536078612b2883612a50565b536029905b60018211612b4057612031915015612a9b565b806f181899199a1a9b1b9c1cb0b131b232b360811b600f612b7093166010811015611a1e571a611a0f8486612a61565b90612b2d565b612b7e611a42565b612b02565b7f65d7a28e3265b37a6474929f336521b332c1681b933f6cb9f3376673440d862a612bac612a00565b906030612bb883612a3a565b536078612bc483612a50565b536041905b60018211612bdc57612031915015612a9b565b806f181899199a1a9b1b9c1cb0b131b232b360811b600f612c0c93166010811015611a1e571a611a0f8486612a61565b90612bc9565b7f9f2df0fed2c77648de5860a4cc508cd0818c85b8b8a1ab4ceeef8d981c8956a6612c3b612a00565b906030612c4783612a3a565b536078612c5383612a50565b536041905b60018211612c6b57612031915015612a9b565b806f181899199a1a9b1b9c1cb0b131b232b360811b600f612c9b93166010811015611a1e571a611a0f8486612a61565b90612c58565b916120319391612cb093612e13565b919091612cd8565b60051115612cc257565b634e487b7160e01b600052602160045260246000fd5b612ce181612cb8565b80612ce95750565b612cf281612cb8565b60018103612d3f5760405162461bcd60e51b815260206004820152601860248201527f45434453413a20696e76616c6964207369676e617475726500000000000000006044820152606490fd5b612d4881612cb8565b60028103612d955760405162461bcd60e51b815260206004820152601f60248201527f45434453413a20696e76616c6964207369676e6174757265206c656e677468006044820152606490fd5b80612da1600392612cb8565b14612da857565b60405162461bcd60e51b815260206004820152602260248201527f45434453413a20696e76616c6964207369676e6174757265202773272076616c60448201527f75650000000000000000000000000000000000000000000000000000000000006064820152608490fd5b9291907f7fffffffffffffffffffffffffffffff5d576e7357a4501ddfe92f46681b20a08311612e975791608094939160ff602094604051948552168484015260408301526060820152600093849182805260015afa15612e8a575b81516001600160a01b03811615612e84579190565b50600190565b612e92612188565b612e6f565b50505050600090600390565b6001600160a01b037f000000000000000000000000000000000000000000000000000000000000000016301480612f94575b15612efe577f000000000000000000000000000000000000000000000000000000000000000090565b60405160208101907f000000000000000000000000000000000000000000000000000000000000000082527f000000000000000000000000000000000000000000000000000000000000000060408201527f000000000000000000000000000000000000000000000000000000000000000060608201524660808201523060a082015260a08152612f8e81611a82565b51902090565b507f00000000000000000000000000000000000000000000000000000000000000004614612ed5565b612fc5612ea3565b906040519060208201927f1901000000000000000000000000000000000000000000000000000000000000845260228301526042820152604281526080810181811067ffffffffffffffff821117613021575b60405251902090565b613029611a42565b613018565b8115613038570490565b634e487b7160e01b600052601260045260246000fd5b90808216911860011c81018091116130635790565b612031611b59565b80156131a5578061313e61313761312d61312361311961310f6131056130fb60016120319a6000908b60801c80613199575b508060401c8061318c575b508060201c8061317f575b508060101c80613172575b508060081c80613165575b508060041c80613158575b508060021c8061314b575b50821c613144575b811c1b6130f4818b61302e565b0160011c90565b6130f4818a61302e565b6130f4818961302e565b6130f4818861302e565b6130f4818761302e565b6130f4818661302e565b6130f4818561302e565b809261302e565b906131ab565b81016130e7565b60029150910190386130df565b60049150910190386130d4565b60089150910190386130c9565b60109150910190386130be565b60209150910190386130b3565b60409150910190386130a8565b9150506080903861309d565b50600090565b90808210156131b8575090565b905090565b6001600160e01b03908181116131d1571690565b608460405162461bcd60e51b815260206004820152602760248201527f53616665436173743a2076616c756520646f65736e27742066697420696e203260448201527f32342062697473000000000000000000000000000000000000000000000000006064820152fd5b63ffffffff9081811161324c571690565b608460405162461bcd60e51b815260206004820152602660248201527f53616665436173743a2076616c756520646f65736e27742066697420696e203360448201527f32206269747300000000000000000000000000000000000000000000000000006064820152fd5b60ff600554166132c257565b606460405162461bcd60e51b815260206004820152601060248201527f5061757361626c653a20706175736564000000000000000000000000000000006044820152fd5b60096020527fec8156718a8372b1db44bb411437d0870f3e3790d4a08526d024ce1b0b668f6b546001600160a01b0391821660009081526040902054611b86939290811691166124d3565b90611b86916001600160a01b0380911660005260096020528060406000205416906000805260406000205416906124d3565b90611b8692916001600160a01b038091166000526009602052808060406000205416921660005260406000205416906124d3565b156133be57565b608460405162461bcd60e51b815260206004820152603060248201527f4552433230566f7465733a20746f74616c20737570706c79207269736b73206f60448201527f766572666c6f77696e6720766f746573000000000000000000000000000000006064820152fd5b906001600160a01b038216918215610aef5781610ad5916134609461344b6132b6565b610a7e60025484810180911161346457600255565b5050565b61346c611b59565b610a79565b906001600160a01b038216918215610bf15781610bec91600061346095610e746132b6565b1561349d57565b608460405162461bcd60e51b815260206004820152602260248201527f45524332303a206275726e20616d6f756e7420657863656564732062616c616e60448201527f63650000000000000000000000000000000000000000000000000000000000006064820152fd5b9081039081116130635790565b908101809111613063579056fea26469706673582212203a68743aca2912c39246b14629f05dbc9837c06c4f8ffb45d303bdeff2cf974064736f6c634300081100332f8788117e7eff1d82e926ec794901d17c78024a50270940304540a733656f0d8b73c3c69bb8fe3d512ecc4cf759cc79239f7b179b0ffacaa9a75d522b39400fdec2bacdd2f05b59de34da9b523dff8be42e5e38e818c82fdb0bae774387a724",
  "linkReferences": {},
  "deployedLinkReferences": {}
}