{
  "_format": "hh-sol-artifact-1",
  "contractName": "SyntheXToken",
  "sourceName": "contracts/token/SyntheXToken.sol",
  "abi": [
    {
      "inputs": [],
      "stateMutability": "nonpayable",
      "type": "constructor"
    },
    {
      "anonymous": false,
      "inputs": [
        {
          "indexed": true,
          "internalType": "address",
          "name": "owner",
          "type": "address"
        },
        {
          "indexed": true,
          "internalType": "address",
          "name": "spender",
          "type": "address"
        },
        {
          "indexed": false,
          "internalType": "uint256",
          "name": "value",
          "type": "uint256"
        }
      ],
      "name": "Approval",
      "type": "event"
    },
    {
      "anonymous": false,
      "inputs": [
        {
          "indexed": true,
          "internalType": "address",
          "name": "delegator",
          "type": "address"
        },
        {
          "indexed": true,
          "internalType": "address",
          "name": "fromDelegate",
          "type": "address"
        },
        {
          "indexed": true,
          "internalType": "address",
          "name": "toDelegate",
          "type": "address"
        }
      ],
      "name": "DelegateChanged",
      "type": "event"
    },
    {
      "anonymous": false,
      "inputs": [
        {
          "indexed": true,
          "internalType": "address",
          "name": "delegate",
          "type": "address"
        },
        {
          "indexed": false,
          "internalType": "uint256",
          "name": "previousBalance",
          "type": "uint256"
        },
        {
          "indexed": false,
          "internalType": "uint256",
          "name": "newBalance",
          "type": "uint256"
        }
      ],
      "name": "DelegateVotesChanged",
      "type": "event"
    },
    {
      "anonymous": false,
      "inputs": [
        {
          "indexed": false,
          "internalType": "address",
          "name": "account",
          "type": "address"
        }
      ],
      "name": "Paused",
      "type": "event"
    },
    {
      "anonymous": false,
      "inputs": [
        {
          "indexed": true,
          "internalType": "bytes32",
          "name": "role",
          "type": "bytes32"
        },
        {
          "indexed": true,
          "internalType": "bytes32",
          "name": "previousAdminRole",
          "type": "bytes32"
        },
        {
          "indexed": true,
          "internalType": "bytes32",
          "name": "newAdminRole",
          "type": "bytes32"
        }
      ],
      "name": "RoleAdminChanged",
      "type": "event"
    },
    {
      "anonymous": false,
      "inputs": [
        {
          "indexed": true,
          "internalType": "bytes32",
          "name": "role",
          "type": "bytes32"
        },
        {
          "indexed": true,
          "internalType": "address",
          "name": "account",
          "type": "address"
        },
        {
          "indexed": true,
          "internalType": "address",
          "name": "sender",
          "type": "address"
        }
      ],
      "name": "RoleGranted",
      "type": "event"
    },
    {
      "anonymous": false,
      "inputs": [
        {
          "indexed": true,
          "internalType": "bytes32",
          "name": "role",
          "type": "bytes32"
        },
        {
          "indexed": true,
          "internalType": "address",
          "name": "account",
          "type": "address"
        },
        {
          "indexed": true,
          "internalType": "address",
          "name": "sender",
          "type": "address"
        }
      ],
      "name": "RoleRevoked",
      "type": "event"
    },
    {
      "anonymous": false,
      "inputs": [
        {
          "indexed": true,
          "internalType": "address",
          "name": "from",
          "type": "address"
        },
        {
          "indexed": true,
          "internalType": "address",
          "name": "to",
          "type": "address"
        },
        {
          "indexed": false,
          "internalType": "uint256",
          "name": "value",
          "type": "uint256"
        }
      ],
      "name": "Transfer",
      "type": "event"
    },
    {
      "anonymous": false,
      "inputs": [
        {
          "indexed": false,
          "internalType": "address",
          "name": "account",
          "type": "address"
        }
      ],
      "name": "Unpaused",
      "type": "event"
    },
    {
      "inputs": [],
      "name": "DEFAULT_ADMIN_ROLE",
      "outputs": [
        {
          "internalType": "bytes32",
          "name": "",
          "type": "bytes32"
        }
      ],
      "stateMutability": "view",
      "type": "function"
    },
    {
      "inputs": [],
      "name": "DOMAIN_SEPARATOR",
      "outputs": [
        {
          "internalType": "bytes32",
          "name": "",
          "type": "bytes32"
        }
      ],
      "stateMutability": "view",
      "type": "function"
    },
    {
      "inputs": [],
      "name": "MINTER_ROLE",
      "outputs": [
        {
          "internalType": "bytes32",
          "name": "",
          "type": "bytes32"
        }
      ],
      "stateMutability": "view",
      "type": "function"
    },
    {
      "inputs": [],
      "name": "PAUSER_ROLE",
      "outputs": [
        {
          "internalType": "bytes32",
          "name": "",
          "type": "bytes32"
        }
      ],
      "stateMutability": "view",
      "type": "function"
    },
    {
      "inputs": [
        {
          "internalType": "address",
          "name": "owner",
          "type": "address"
        },
        {
          "internalType": "address",
          "name": "spender",
          "type": "address"
        }
      ],
      "name": "allowance",
      "outputs": [
        {
          "internalType": "uint256",
          "name": "",
          "type": "uint256"
        }
      ],
      "stateMutability": "view",
      "type": "function"
    },
    {
      "inputs": [
        {
          "internalType": "address",
          "name": "spender",
          "type": "address"
        },
        {
          "internalType": "uint256",
          "name": "amount",
          "type": "uint256"
        }
      ],
      "name": "approve",
      "outputs": [
        {
          "internalType": "bool",
          "name": "",
          "type": "bool"
        }
      ],
      "stateMutability": "nonpayable",
      "type": "function"
    },
    {
      "inputs": [
        {
          "internalType": "address",
          "name": "account",
          "type": "address"
        }
      ],
      "name": "balanceOf",
      "outputs": [
        {
          "internalType": "uint256",
          "name": "",
          "type": "uint256"
        }
      ],
      "stateMutability": "view",
      "type": "function"
    },
    {
      "inputs": [
        {
          "internalType": "uint256",
          "name": "amount",
          "type": "uint256"
        }
      ],
      "name": "burn",
      "outputs": [],
      "stateMutability": "nonpayable",
      "type": "function"
    },
    {
      "inputs": [
        {
          "internalType": "address",
          "name": "account",
          "type": "address"
        },
        {
          "internalType": "uint256",
          "name": "amount",
          "type": "uint256"
        }
      ],
      "name": "burnFrom",
      "outputs": [],
      "stateMutability": "nonpayable",
      "type": "function"
    },
    {
      "inputs": [
        {
          "internalType": "address",
          "name": "account",
          "type": "address"
        },
        {
          "internalType": "uint32",
          "name": "pos",
          "type": "uint32"
        }
      ],
      "name": "checkpoints",
      "outputs": [
        {
          "components": [
            {
              "internalType": "uint32",
              "name": "fromBlock",
              "type": "uint32"
            },
            {
              "internalType": "uint224",
              "name": "votes",
              "type": "uint224"
            }
          ],
          "internalType": "struct ERC20Votes.Checkpoint",
          "name": "",
          "type": "tuple"
        }
      ],
      "stateMutability": "view",
      "type": "function"
    },
    {
      "inputs": [],
      "name": "decimals",
      "outputs": [
        {
          "internalType": "uint8",
          "name": "",
          "type": "uint8"
        }
      ],
      "stateMutability": "view",
      "type": "function"
    },
    {
      "inputs": [
        {
          "internalType": "address",
          "name": "spender",
          "type": "address"
        },
        {
          "internalType": "uint256",
          "name": "subtractedValue",
          "type": "uint256"
        }
      ],
      "name": "decreaseAllowance",
      "outputs": [
        {
          "internalType": "bool",
          "name": "",
          "type": "bool"
        }
      ],
      "stateMutability": "nonpayable",
      "type": "function"
    },
    {
      "inputs": [
        {
          "internalType": "address",
          "name": "delegatee",
          "type": "address"
        }
      ],
      "name": "delegate",
      "outputs": [],
      "stateMutability": "nonpayable",
      "type": "function"
    },
    {
      "inputs": [
        {
          "internalType": "address",
          "name": "delegatee",
          "type": "address"
        },
        {
          "internalType": "uint256",
          "name": "nonce",
          "type": "uint256"
        },
        {
          "internalType": "uint256",
          "name": "expiry",
          "type": "uint256"
        },
        {
          "internalType": "uint8",
          "name": "v",
          "type": "uint8"
        },
        {
          "internalType": "bytes32",
          "name": "r",
          "type": "bytes32"
        },
        {
          "internalType": "bytes32",
          "name": "s",
          "type": "bytes32"
        }
      ],
      "name": "delegateBySig",
      "outputs": [],
      "stateMutability": "nonpayable",
      "type": "function"
    },
    {
      "inputs": [
        {
          "internalType": "address",
          "name": "account",
          "type": "address"
        }
      ],
      "name": "delegates",
      "outputs": [
        {
          "internalType": "address",
          "name": "",
          "type": "address"
        }
      ],
      "stateMutability": "view",
      "type": "function"
    },
    {
      "inputs": [
        {
          "internalType": "uint256",
          "name": "blockNumber",
          "type": "uint256"
        }
      ],
      "name": "getPastTotalSupply",
      "outputs": [
        {
          "internalType": "uint256",
          "name": "",
          "type": "uint256"
        }
      ],
      "stateMutability": "view",
      "type": "function"
    },
    {
      "inputs": [
        {
          "internalType": "address",
          "name": "account",
          "type": "address"
        },
        {
          "internalType": "uint256",
          "name": "blockNumber",
          "type": "uint256"
        }
      ],
      "name": "getPastVotes",
      "outputs": [
        {
          "internalType": "uint256",
          "name": "",
          "type": "uint256"
        }
      ],
      "stateMutability": "view",
      "type": "function"
    },
    {
      "inputs": [
        {
          "internalType": "bytes32",
          "name": "role",
          "type": "bytes32"
        }
      ],
      "name": "getRoleAdmin",
      "outputs": [
        {
          "internalType": "bytes32",
          "name": "",
          "type": "bytes32"
        }
      ],
      "stateMutability": "view",
      "type": "function"
    },
    {
      "inputs": [
        {
          "internalType": "address",
          "name": "account",
          "type": "address"
        }
      ],
      "name": "getVotes",
      "outputs": [
        {
          "internalType": "uint256",
          "name": "",
          "type": "uint256"
        }
      ],
      "stateMutability": "view",
      "type": "function"
    },
    {
      "inputs": [
        {
          "internalType": "bytes32",
          "name": "role",
          "type": "bytes32"
        },
        {
          "internalType": "address",
          "name": "account",
          "type": "address"
        }
      ],
      "name": "grantRole",
      "outputs": [],
      "stateMutability": "nonpayable",
      "type": "function"
    },
    {
      "inputs": [
        {
          "internalType": "bytes32",
          "name": "role",
          "type": "bytes32"
        },
        {
          "internalType": "address",
          "name": "account",
          "type": "address"
        }
      ],
      "name": "hasRole",
      "outputs": [
        {
          "internalType": "bool",
          "name": "",
          "type": "bool"
        }
      ],
      "stateMutability": "view",
      "type": "function"
    },
    {
      "inputs": [
        {
          "internalType": "address",
          "name": "spender",
          "type": "address"
        },
        {
          "internalType": "uint256",
          "name": "addedValue",
          "type": "uint256"
        }
      ],
      "name": "increaseAllowance",
      "outputs": [
        {
          "internalType": "bool",
          "name": "",
          "type": "bool"
        }
      ],
      "stateMutability": "nonpayable",
      "type": "function"
    },
    {
      "inputs": [
        {
          "internalType": "address",
          "name": "to",
          "type": "address"
        },
        {
          "internalType": "uint256",
          "name": "amount",
          "type": "uint256"
        }
      ],
      "name": "mint",
      "outputs": [],
      "stateMutability": "nonpayable",
      "type": "function"
    },
    {
      "inputs": [],
      "name": "name",
      "outputs": [
        {
          "internalType": "string",
          "name": "",
          "type": "string"
        }
      ],
      "stateMutability": "view",
      "type": "function"
    },
    {
      "inputs": [
        {
          "internalType": "address",
          "name": "owner",
          "type": "address"
        }
      ],
      "name": "nonces",
      "outputs": [
        {
          "internalType": "uint256",
          "name": "",
          "type": "uint256"
        }
      ],
      "stateMutability": "view",
      "type": "function"
    },
    {
      "inputs": [
        {
          "internalType": "address",
          "name": "account",
          "type": "address"
        }
      ],
      "name": "numCheckpoints",
      "outputs": [
        {
          "internalType": "uint32",
          "name": "",
          "type": "uint32"
        }
      ],
      "stateMutability": "view",
      "type": "function"
    },
    {
      "inputs": [],
      "name": "pause",
      "outputs": [],
      "stateMutability": "nonpayable",
      "type": "function"
    },
    {
      "inputs": [],
      "name": "paused",
      "outputs": [
        {
          "internalType": "bool",
          "name": "",
          "type": "bool"
        }
      ],
      "stateMutability": "view",
      "type": "function"
    },
    {
      "inputs": [
        {
          "internalType": "address",
          "name": "owner",
          "type": "address"
        },
        {
          "internalType": "address",
          "name": "spender",
          "type": "address"
        },
        {
          "internalType": "uint256",
          "name": "value",
          "type": "uint256"
        },
        {
          "internalType": "uint256",
          "name": "deadline",
          "type": "uint256"
        },
        {
          "internalType": "uint8",
          "name": "v",
          "type": "uint8"
        },
        {
          "internalType": "bytes32",
          "name": "r",
          "type": "bytes32"
        },
        {
          "internalType": "bytes32",
          "name": "s",
          "type": "bytes32"
        }
      ],
      "name": "permit",
      "outputs": [],
      "stateMutability": "nonpayable",
      "type": "function"
    },
    {
      "inputs": [
        {
          "internalType": "bytes32",
          "name": "role",
          "type": "bytes32"
        },
        {
          "internalType": "address",
          "name": "account",
          "type": "address"
        }
      ],
      "name": "renounceRole",
      "outputs": [],
      "stateMutability": "nonpayable",
      "type": "function"
    },
    {
      "inputs": [
        {
          "internalType": "bytes32",
          "name": "role",
          "type": "bytes32"
        },
        {
          "internalType": "address",
          "name": "account",
          "type": "address"
        }
      ],
      "name": "revokeRole",
      "outputs": [],
      "stateMutability": "nonpayable",
      "type": "function"
    },
    {
      "inputs": [
        {
          "internalType": "bytes4",
          "name": "interfaceId",
          "type": "bytes4"
        }
      ],
      "name": "supportsInterface",
      "outputs": [
        {
          "internalType": "bool",
          "name": "",
          "type": "bool"
        }
      ],
      "stateMutability": "view",
      "type": "function"
    },
    {
      "inputs": [],
      "name": "symbol",
      "outputs": [
        {
          "internalType": "string",
          "name": "",
          "type": "string"
        }
      ],
      "stateMutability": "view",
      "type": "function"
    },
    {
      "inputs": [],
      "name": "totalSupply",
      "outputs": [
        {
          "internalType": "uint256",
          "name": "",
          "type": "uint256"
        }
      ],
      "stateMutability": "view",
      "type": "function"
    },
    {
      "inputs": [
        {
          "internalType": "address",
          "name": "to",
          "type": "address"
        },
        {
          "internalType": "uint256",
          "name": "amount",
          "type": "uint256"
        }
      ],
      "name": "transfer",
      "outputs": [
        {
          "internalType": "bool",
          "name": "",
          "type": "bool"
        }
      ],
      "stateMutability": "nonpayable",
      "type": "function"
    },
    {
      "inputs": [
        {
          "internalType": "address",
          "name": "from",
          "type": "address"
        },
        {
          "internalType": "address",
          "name": "to",
          "type": "address"
        },
        {
          "internalType": "uint256",
          "name": "amount",
          "type": "uint256"
        }
      ],
      "name": "transferFrom",
      "outputs": [
        {
          "internalType": "bool",
          "name": "",
          "type": "bool"
        }
      ],
      "stateMutability": "nonpayable",
      "type": "function"
    },
    {
      "inputs": [],
      "name": "unpause",
      "outputs": [],
      "stateMutability": "nonpayable",
      "type": "function"
    }
  ],
  "bytecode": "0x6101406040818152346200057a5762000018826200057f565b600d8252602091828101926c29bcb73a3432ac102a37b5b2b760991b9182855283519262000046846200057f565b600d8452828401528351946200005c866200057f565b6003948587526229aca760e91b848801528051946200007b866200057f565b60019283875285870191603160f81b835280519860018060401b03998a81116200047a578154928784811c941680156200056f575b8a85101462000559578190601f9485811162000503575b508a908583116001146200049c5760009262000490575b505060001982841b1c191690871b1781555b8a51918a83116200047a5760049b8c548881811c911680156200046f575b8b8210146200045a57908183869594931162000400575b508a91841160011462000396576000936200038a575b505082871b92600019911b1c19161789555b60ff19948560055416600555519020955190208560e052610100978189524660a052825190868201927f8b73c3c69bb8fe3d512ecc4cf759cc79239f7b179b0ffacaa9a75d522b39400f988985528584015260608301524660808301523060a083015260a0825260c0820198828a10908a11176200037557508783525190206080523060c052610120948552600080526006938481528160002033600052815260ff826000205416156200033b575b7f65d7a28e3265b37a6474929f336521b332c1681b933f6cb9f3376673440d862a806000528582528260002033600052825260ff83600020541615620002ff575b507f9f2df0fed2c77648de5860a4cc508cd0818c85b8b8a1ab4ceeef8d981c8956a694856000528082528260002033600052825260ff83600020541615620002c1575b61300b88888b836200059c8439608051836129fe015260a05183612ab9015260c051836129cf015260e05183612a4d01525182612a7301525181612a2a0152f35b856000528152816000209033600052526000209182541617905533903390600080516020620035a7833981519152600080a438808080808062000280565b806000528582528260002033600052825282600020848682541617905533903390600080516020620035a7833981519152600080a4386200023d565b600080528481528160002033600052815281600020838582541617905533336000600080516020620035a78339815191528180a4620001fc565b604190634e487b7160e01b6000525260246000fd5b0151915038806200013b565b60008e81528b81208a965093929190601f198616905b8d828210620003e95750508511620003ce575b50505050811b0189556200014d565b01519060f884600019921b161c1916905538808080620003bf565b8385015187558c98909601959384019301620003ac565b90919293508d6000528a6000208380870160051c8201928d881062000450575b918b918897969594930160051c01915b8281106200044057505062000125565b600081558796508b910162000430565b9250819262000420565b60228e634e487b7160e01b6000525260246000fd5b90607f16906200010e565b634e487b7160e01b600052604160045260246000fd5b015190503880620000de565b60008581528c81208b9550929190601f198516908e5b828210620004eb5750508411620004d2575b505050811b018155620000f0565b015160001983861b60f8161c19169055388080620004c4565b8385015186558d979095019493840193018e620004b2565b909150836000528a6000208580850160051c8201928d86106200054f575b918b91869594930160051c01915b8281106200053f575050620000c7565b600081558594508b91016200052f565b9250819262000521565b634e487b7160e01b600052602260045260246000fd5b93607f1693620000b0565b600080fd5b604081019081106001600160401b038211176200047a5760405256fe60806040526004361015610013575b600080fd5b60003560e01c806301ffc9a7146102f757806306fdde03146102ee578063095ea7b3146102e557806318160ddd146102dc57806323b872dd146102d3578063248a9ca3146102ca5780632f2ff15d146102c1578063313ce567146102b85780633644e515146102af57806336568abe146102a6578063395093511461029d5780633a46b1a8146102945780633f4ba83a1461028b57806340c10f191461028257806342966c6814610279578063587cde1e146102705780635c19a95c146102675780635c975abb1461025e5780636fcfff451461025557806370a082311461024c57806379cc6790146102435780637ecebe001461023a5780638456cb59146102315780638e539e8c1461022857806391d148541461021f57806395d89b41146102165780639ab24eb01461020d578063a217fddf14610204578063a457c2d7146101fb578063a9059cbb146101f2578063c3cda520146101e9578063d505accf146101e0578063d5391393146101d7578063d547741f146101ce578063dd62ed3e146101c5578063e63ab1e9146101bc5763f1127ed8146101b457600080fd5b61000e61162e565b5061000e6115f2565b5061000e611594565b5061000e611554565b5061000e611518565b5061000e6113d3565b5061000e6112a3565b5061000e61125c565b5061000e611189565b5061000e61116c565b5061000e6110f1565b5061000e61102d565b5061000e610fd9565b5061000e610e87565b5061000e610e2c565b5061000e610df1565b5061000e610d1d565b5061000e610ce2565b5061000e610c99565b5061000e610c75565b5061000e610c52565b5061000e610c16565b5061000e610aee565b5061000e6109de565b5061000e610941565b5061000e6107fd565b5061000e610794565b5061000e6106f2565b5061000e6106ce565b5061000e6106b1565b5061000e6105db565b5061000e6105ab565b5061000e610572565b5061000e610553565b5061000e610521565b5061000e6103e8565b503461000e57602036600319011261000e576004357fffffffff00000000000000000000000000000000000000000000000000000000811680910361000e57807f7965db0b000000000000000000000000000000000000000000000000000000006020921490811561036f575b506040519015158152f35b7f01ffc9a70000000000000000000000000000000000000000000000000000000091501438610364565b60005b8381106103ac5750506000910152565b818101518382015260200161039c565b604091602082526103dc8151809281602086015260208686019101610399565b601f01601f1916010190565b503461000e576000806003193601126104f25760405190806003549060019180831c928082169283156104e8575b60209283861085146104d45785885260208801949081156104b3575060011461045a575b6104568761044a81890382611938565b604051918291826103bc565b0390f35b600360005294509192917fc2575a0e9e593c00f959f8c92f12db2869c3395a3b0502d05e2516446f71f85b5b8386106104a2575050509101905061044a82610456388061043a565b805485870152948201948101610486565b60ff191685525050505090151560051b01905061044a82610456388061043a565b602482634e487b7160e01b81526022600452fd5b93607f1693610416565b80fd5b600435906001600160a01b038216820361000e57565b602435906001600160a01b038216820361000e57565b503461000e57604036600319011261000e5761054861053e6104f5565b6024359033611c47565b602060405160018152f35b503461000e57600036600319011261000e576020600254604051908152f35b503461000e57606036600319011261000e5761054861058f6104f5565b61059761050b565b604435916105a6833383611dab565b611b11565b503461000e57602036600319011261000e5760043560005260066020526020600160406000200154604051908152f35b503461000e57604036600319011261000e576004356105f861050b565b600091808352600660205261061360016040852001546117f4565b808352600660205260ff61063d8360408620906001600160a01b0316600052602052604060002090565b541615610648578280f35b80835260066020526106708260408520906001600160a01b0316600052602052604060002090565b805460ff1916600117905533916001600160a01b0316907f2f8788117e7eff1d82e926ec794901d17c78024a50270940304540a733656f0d8480a438808280f35b503461000e57600036600319011261000e57602060405160128152f35b503461000e57600036600319011261000e5760206106ea6129c5565b604051908152f35b503461000e57604036600319011261000e5761070c61050b565b336001600160a01b0382160361072a576107289060043561195a565b005b608460405162461bcd60e51b815260206004820152602f60248201527f416363657373436f6e74726f6c3a2063616e206f6e6c792072656e6f756e636560448201527f20726f6c657320666f722073656c6600000000000000000000000000000000006064820152fd5b503461000e57604036600319011261000e576105486107b16104f5565b3360005260016020526107db816040600020906001600160a01b0316600052602052604060002090565b549060243582018092116107f0575b33611c47565b6107f86119f3565b6107ea565b503461000e57604036600319011261000e576108176104f5565b6001600160a01b036024359161082e438410611ed7565b16600052600a6020526040600020805491600083600581116108f0575b50905b83821061089f57505081610874575050602060005b6001600160e01b0360405191168152f35b61089361089a91610886602094611ebb565b9060005260206000200190565b5460201c90565b610863565b90926108ab8185612b70565b908263ffffffff6108d06108c6858860005260206000200190565b5463ffffffff1690565b1611156108e05750925b9061084e565b93506108eb90611a0a565b6108da565b8061090061090692969396612b8d565b90611eca565b908263ffffffff6109216108c6858860005260206000200190565b1611156109315750925b3861084b565b935061093c90611a0a565b61092b565b503461000e57600036600319011261000e5761095b6116b1565b60055460ff81161561099a5760ff19166005557f5db9ee0a495bf2e6ff9c91a7834c1ba4fdd244a5e8aa4e537bd38aeae4b073aa6020604051338152a1005b606460405162461bcd60e51b815260206004820152601460248201527f5061757361626c653a206e6f74207061757365640000000000000000000000006044820152fd5b503461000e57604036600319011261000e576109f86104f5565b602435610a0361179f565b6001600160a01b038216918215610aaa5781610a909161072894610a25612dd8565b610a39610a3484600254611a22565b600255565b610a56826001600160a01b03166000526000602052604060002090565b8054840190556040518381526000907fddf252ad1be2c89b69c2b068fc378daa952ba7f163c4a11628f55a4df523b3ef90602090a3612e28565b610aa56001600160e01b036002541115612ed9565b6122f6565b606460405162461bcd60e51b815260206004820152601f60248201527f45524332303a206d696e7420746f20746865207a65726f2061646472657373006044820152fd5b503461000e57602036600319011261000e576004353315610bac5761072890610b15612dd8565b80610b33336001600160a01b03166000526000602052604060002090565b54610b4082821015612f4a565b03610b5e336001600160a01b03166000526000602052604060002090565b55610b6c8160025403600255565b60405181815260009033907fddf252ad1be2c89b69c2b068fc378daa952ba7f163c4a11628f55a4df523b3ef90602090a3610ba78133612e73565b6123d1565b608460405162461bcd60e51b815260206004820152602160248201527f45524332303a206275726e2066726f6d20746865207a65726f2061646472657360448201527f73000000000000000000000000000000000000000000000000000000000000006064820152fd5b503461000e57602036600319011261000e5760206001600160a01b0380610c3b6104f5565b166000526009825260406000205416604051908152f35b503461000e57602036600319011261000e57610728610c6f6104f5565b33611f6d565b503461000e57600036600319011261000e57602060ff600554166040519015158152f35b503461000e57602036600319011261000e576001600160a01b03610cbb6104f5565b16600052600a6020526020610cd4604060002054612d5d565b63ffffffff60405191168152f35b503461000e57602036600319011261000e576001600160a01b03610d046104f5565b1660005260006020526020604060002054604051908152f35b503461000e57604036600319011261000e57610d376104f5565b602435610d45813384611dab565b6001600160a01b038216918215610bac5781610ba791600061072895610d69612dd8565b83610d87846001600160a01b03166000526000602052604060002090565b54610d9482821015612f4a565b03610db2846001600160a01b03166000526000602052604060002090565b55610dc08460025403600255565b6040518481527fddf252ad1be2c89b69c2b068fc378daa952ba7f163c4a11628f55a4df523b3ef90602090a3612e73565b503461000e57602036600319011261000e576001600160a01b03610e136104f5565b1660005260076020526020604060002054604051908152f35b503461000e57600036600319011261000e57610e466116b1565b610e4e612dd8565b600160ff1960055416176005557f62e78cea01bee320cd4e420270b5ea74000d11b0c9f74754ebdbfc544b05a2586020604051338152a1005b503461000e57602036600319011261000e57600435610ea7438210611ed7565b600b549060008260058111610f72575b50905b828210610f0f578280610ed4575060405160008152602090f35b61089a610893610ee5602093611ebb565b600b6000527f0175b7a638427703f0dbe7bb9bbf987a2551717b34e79f33b5b1008d1fa01db90190565b9091610f1b8184612b70565b600b600052908263ffffffff610f527f0175b7a638427703f0dbe7bb9bbf987a2551717b34e79f33b5b1008d1fa01db985016108c6565b161115610f625750915b90610eba565b9250610f6d90611a0a565b610f5c565b80610900610f8292959395612b8d565b600b600052908263ffffffff610fb97f0175b7a638427703f0dbe7bb9bbf987a2551717b34e79f33b5b1008d1fa01db985016108c6565b161115610fc95750915b38610eb7565b9250610fd490611a0a565b610fc3565b503461000e57604036600319011261000e57602060ff611021610ffa61050b565b600435600052600684526040600020906001600160a01b0316600052602052604060002090565b54166040519015158152f35b503461000e576000806003193601126104f25760405190806004549060019180831c928082169283156110e7575b60209283861085146104d45785885260208801949081156104b3575060011461108e576104568761044a81890382611938565b600460005294509192917f8a35acfbc15ff81a39ae7d344fd709f28e8600b4aa8c65c6b64bfe7fe36bd19b5b8386106110d6575050509101905061044a82610456388061043a565b8054858701529482019481016110ba565b93607f169361105b565b503461000e57602036600319011261000e576001600160a01b036111136104f5565b16600052600a6020526040600020546000811560001461113b57505060405160008152602090f35b60209160406111569220600019820191821161115f57611e73565b5054811c610863565b6111676119f3565b611e73565b503461000e57600036600319011261000e57602060405160008152f35b503461000e57604036600319011261000e576111a36104f5565b602435903360005260016020526111d1816040600020906001600160a01b0316600052602052604060002090565b54918083106111f2576111e692039033611c47565b60405160018152602090f35b608460405162461bcd60e51b815260206004820152602560248201527f45524332303a2064656372656173656420616c6c6f77616e63652062656c6f7760448201527f207a65726f0000000000000000000000000000000000000000000000000000006064820152fd5b503461000e57604036600319011261000e576105486112796104f5565b6024359033611b11565b6064359060ff8216820361000e57565b6084359060ff8216820361000e57565b503461000e5760c036600319011261000e576112bd6104f5565b604435906024356112cc611283565b9280421161138f5761135d61138a916107289560405190611345826113376020820195898b886060919493926001600160a01b0360808301967fe48329057bfd03d55e49b547132e39cffd9c1820ad7b9d4c5307691425d15adf845216602083015260408201520152565b03601f198101845283611938565b61135860a4359360843593519020612adf565b6127c4565b91611384836001600160a01b03166000526007602052604060002090815491600183019055565b14611f22565b611f6d565b606460405162461bcd60e51b815260206004820152601d60248201527f4552433230566f7465733a207369676e617475726520657870697265640000006044820152fd5b503461000e5760e036600319011261000e576113ed6104f5565b6113f561050b565b6044359060643592611405611293565b938042116114d4576114bc6114cf91611337610728976114a9611444876001600160a01b03166000526007602052604060002090815491600183019055565b9360405193849160208301968c8c8c8a91959493909260a09360c08401977f6e71edae12b1b97f4d1f60370fef10105fa2faae0126114a169c64845d6126c985526001600160a01b038092166020860152166040840152606083015260808201520152565b61135860c4359360a43593519020612adf565b6001600160a01b038084169116146124d5565b611c47565b606460405162461bcd60e51b815260206004820152601d60248201527f45524332305065726d69743a206578706972656420646561646c696e650000006044820152fd5b503461000e57600036600319011261000e5760206040517f9f2df0fed2c77648de5860a4cc508cd0818c85b8b8a1ab4ceeef8d981c8956a68152f35b503461000e57604036600319011261000e5761072860043561157461050b565b9080600052600660205261158f6001604060002001546117f4565b61195a565b503461000e57604036600319011261000e5760206115e96115b36104f5565b6001600160a01b036115c361050b565b9116600052600183526040600020906001600160a01b0316600052602052604060002090565b54604051908152f35b503461000e57600036600319011261000e5760206040517f65d7a28e3265b37a6474929f336521b332c1681b933f6cb9f3376673440d862a8152f35b503461000e57604036600319011261000e576116486104f5565b63ffffffff602435818116810361000e57602061169f6116996001600160e01b03936001600160a01b036040976000868a51611683816118f3565b828152015216600052600a845286600020611e73565b50611e99565b84519381511684520151166020820152f35b3360009081527fe09f975e15f8f53f24cbbc282b13c40b84df485fcdb8d3997fa103dc5a4ef841602052604090205460ff16156116ea57565b61179b60486117836116fb33612606565b6117756117066126a6565b6040519485937f416363657373436f6e74726f6c3a206163636f756e74200000000000000000006020860152611746815180926020603789019101610399565b84017f206973206d697373696e6720726f6c6520000000000000000000000000000000603782015201906118c5565b03601f198101835282611938565b60405191829162461bcd60e51b8352600483016103bc565b0390fd5b3360009081527f3195c024b2ddd6d9b8f6c836aa52f67fe69376c8903d009b80229b3ce4425f51602052604090205460ff16156117d857565b61179b60486117836117e933612606565b611775611706612735565b80600052600660205260ff611820336040600020906001600160a01b0316600052602052604060002090565b54161561182a5750565b61183333612606565b9061183c612520565b9060306118488361255a565b53607861185483612570565b5360415b600181116118775761179b6048611783866117758761170688156125bb565b90806f181899199a1a9b1b9c1cb0b131b232b360811b600f6118b3931660108110156118b8575b1a6118a98486612581565b5360041c916125a0565b611858565b6118c0611e5c565b61189e565b906118d860209282815194859201610399565b0190565b50634e487b7160e01b600052604160045260246000fd5b6040810190811067ffffffffffffffff82111761190f57604052565b6119176118dc565b604052565b60c0810190811067ffffffffffffffff82111761190f57604052565b90601f8019910116810190811067ffffffffffffffff82111761190f57604052565b600090808252600660205260ff6119878460408520906001600160a01b0316600052602052604060002090565b541661199257505050565b80825260066020526119ba8360408420906001600160a01b0316600052602052604060002090565b60ff1981541690557ff6391f5c32d9c69d2a47ea670b442974b53935d1edc7fd64eb21e047a839171b6001600160a01b033394169280a4565b50634e487b7160e01b600052601160045260246000fd5b9060018201809211611a1857565b611a206119f3565b565b91908201809211611a1857565b15611a3657565b608460405162461bcd60e51b815260206004820152602360248201527f45524332303a207472616e7366657220746f20746865207a65726f206164647260448201527f65737300000000000000000000000000000000000000000000000000000000006064820152fd5b15611aa757565b608460405162461bcd60e51b815260206004820152602660248201527f45524332303a207472616e7366657220616d6f756e742065786365656473206260448201527f616c616e636500000000000000000000000000000000000000000000000000006064820152fd5b91906001600160a01b03928381168015611bdd57611a2094831690611b37821515611a2f565b611b3f612dd8565b84611b5d846001600160a01b03166000526000602052604060002090565b54611b6a82821015611aa0565b03611b88846001600160a01b03166000526000602052604060002090565b55611ba6846001600160a01b03166000526000602052604060002090565b8054860190556040518581527fddf252ad1be2c89b69c2b068fc378daa952ba7f163c4a11628f55a4df523b3ef90602090a3612ea5565b608460405162461bcd60e51b815260206004820152602560248201527f45524332303a207472616e736665722066726f6d20746865207a65726f20616460448201527f64726573730000000000000000000000000000000000000000000000000000006064820152fd5b906001600160a01b0391828116928315611d42578216938415611cd85780611cc27f8c5be1e5ebec7d5bd14f71427d1e84f3dd0314c0f7b2291e5b200ac8c7c3b92594611caa611cd3956001600160a01b03166000526001602052604060002090565b906001600160a01b0316600052602052604060002090565b556040519081529081906020820190565b0390a3565b608460405162461bcd60e51b815260206004820152602260248201527f45524332303a20617070726f766520746f20746865207a65726f20616464726560448201527f73730000000000000000000000000000000000000000000000000000000000006064820152fd5b608460405162461bcd60e51b8152602060048201526024808201527f45524332303a20617070726f76652066726f6d20746865207a65726f2061646460448201527f72657373000000000000000000000000000000000000000000000000000000006064820152fd5b906001600160a01b0382166000526001602052611ddf816040600020906001600160a01b0316600052602052604060002090565b549260018401611df0575b50505050565b808410611e0b57611e02930391611c47565b38808080611dea565b606460405162461bcd60e51b815260206004820152601d60248201527f45524332303a20696e73756666696369656e7420616c6c6f77616e63650000006044820152fd5b60405190611a20826118f3565b50634e487b7160e01b600052603260045260246000fd5b8054821015611e8c575b60005260206000200190600090565b611e94611e5c565b611e7d565b90604051611ea6816118f3565b602081935463ffffffff81168352811c910152565b600019810191908211611a1857565b91908203918211611a1857565b15611ede57565b606460405162461bcd60e51b815260206004820152601f60248201527f4552433230566f7465733a20626c6f636b206e6f7420796574206d696e6564006044820152fd5b15611f2957565b606460405162461bcd60e51b815260206004820152601960248201527f4552433230566f7465733a20696e76616c6964206e6f6e6365000000000000006044820152fd5b611a20916001600160a01b038092166000928184526009602052806040852054168092856020527f3134e8a2e6d97e929a7e54011ea5485d7d196dd5f0ba4d4ef95803e8e3fc257f60408720549660096020526040812094871694857fffffffffffffffffffffffff000000000000000000000000000000000000000082541617905580a45b91906001600160a01b03808216931683811415806121e7575b6120165750505050565b80612089575b5082612029575b80611dea565b7fdec2bacdd2f05b59de34da9b523dff8be42e5e38e818c82fdb0bae774387a7249161206b612070926001600160a01b0316600052600a602052604060002090565b612428565b60408051928352602083019190915290a2388080612023565b80600052600a6020527fdec2bacdd2f05b59de34da9b523dff8be42e5e38e818c82fdb0bae774387a72460406000208054801591826000146121c0576120cd611e4f565b6000815260006020820152915b6120fd6120f160208501516001600160e01b031690565b6001600160e01b031690565b926121088985612fbb565b941590816121a9575b501561215d576121306121479261088661212a87612cdf565b93611ebb565b9063ffffffff82549181199060201b169116179055565b604080519182526020820192909252a23861201c565b506121a49061216b43612d5d565b9061219f61217886612cdf565b61218f612183611e4f565b63ffffffff9095168552565b6001600160e01b03166020840152565b612289565b612147565b5163ffffffff16905063ffffffff16431438612111565b6121e16121dc6121cf84611ebb565b8360005260206000200190565b611e99565b916120da565b5082151561200c565b611a20906001600160e01b036020600b546801000000000000000081101561227c575b6001810180600b5581101561226f575b600b600052835191909301519190911660201b63ffffffff191663ffffffff91909116177f0175b7a638427703f0dbe7bb9bbf987a2551717b34e79f33b5b1008d1fa01db99190910155565b612277611e5c565b612223565b6122846118dc565b612213565b80546122ac91680100000000000000008210156122e9575b600182018155611e73565b6122d357815160209283015190921b63ffffffff191663ffffffff92909216919091179055565b634e487b7160e01b600052600060045260246000fd5b6122f16118dc565b6122a1565b600b54909181159182156123bd5761230c611e4f565b60008152600060208201525b6123396123326120f160208401516001600160e01b031690565b9586612fc8565b931590816123a6575b501561236157611a2090612130610ee561235b86612cdf565b92611ebb565b50611a2061236e43612d5d565b6123a161237a85612cdf565b612391612385611e4f565b63ffffffff9094168452565b6001600160e01b03166020830152565b6121f0565b5163ffffffff16905063ffffffff16431438612342565b6123cc6121dc610ee583611ebb565b612318565b600b5490918115918215612414576123e7611e4f565b60008152600060208201525b61233961240d6120f160208401516001600160e01b031690565b9586612fbb565b6124236121dc610ee583611ebb565b6123f3565b9091815491821592836000146124b457612440611e4f565b60008152600060208201525b61246d6124666120f160208401516001600160e01b031690565b9687612fc8565b9415908161249d575b501561248f57612130611a209261088661212a87612cdf565b50611a209061216b43612d5d565b5163ffffffff16905063ffffffff16431438612476565b6124d06121dc6124c383611ebb565b8460005260206000200190565b61244c565b156124dc57565b606460405162461bcd60e51b815260206004820152601e60248201527f45524332305065726d69743a20696e76616c6964207369676e617475726500006044820152fd5b604051906080820182811067ffffffffffffffff82111761254d575b604052604282526060366020840137565b6125556118dc565b61253c565b602090805115612568570190565b6118d8611e5c565b602190805160011015612568570190565b90602091805182101561259357010190565b61259b611e5c565b010190565b80156125ae575b6000190190565b6125b66119f3565b6125a7565b156125c257565b606460405162461bcd60e51b815260206004820152602060248201527f537472696e67733a20686578206c656e67746820696e73756666696369656e746044820152fd5b604051906060820182811067ffffffffffffffff821117612699575b604052602a82526040366020840137603061263c8361255a565b53607861264883612570565b536029905b60018211612663576126609150156125bb565b90565b806f181899199a1a9b1b9c1cb0b131b232b360811b600f612693931660108110156118b8571a6118a98486612581565b9061264d565b6126a16118dc565b612622565b7f65d7a28e3265b37a6474929f336521b332c1681b933f6cb9f3376673440d862a6126cf612520565b9060306126db8361255a565b5360786126e783612570565b536041905b600182116126ff576126609150156125bb565b806f181899199a1a9b1b9c1cb0b131b232b360811b600f61272f931660108110156118b8571a6118a98486612581565b906126ec565b7f9f2df0fed2c77648de5860a4cc508cd0818c85b8b8a1ab4ceeef8d981c8956a661275e612520565b90603061276a8361255a565b53607861277683612570565b536041905b6001821161278e576126609150156125bb565b806f181899199a1a9b1b9c1cb0b131b232b360811b600f6127be931660108110156118b8571a6118a98486612581565b9061277b565b9161266093916127d393612936565b9190916127fb565b600511156127e557565b634e487b7160e01b600052602160045260246000fd5b612804816127db565b8061280c5750565b612815816127db565b600181036128625760405162461bcd60e51b815260206004820152601860248201527f45434453413a20696e76616c6964207369676e617475726500000000000000006044820152606490fd5b61286b816127db565b600281036128b85760405162461bcd60e51b815260206004820152601f60248201527f45434453413a20696e76616c6964207369676e6174757265206c656e677468006044820152606490fd5b806128c46003926127db565b146128cb57565b60405162461bcd60e51b815260206004820152602260248201527f45434453413a20696e76616c6964207369676e6174757265202773272076616c60448201527f75650000000000000000000000000000000000000000000000000000000000006064820152608490fd5b9291907f7fffffffffffffffffffffffffffffff5d576e7357a4501ddfe92f46681b20a083116129b95791608094939160ff602094604051948552168484015260408301526060820152600093849182805260015afa156129ac5781516001600160a01b038116156129a6579190565b50600190565b50604051903d90823e3d90fd5b50505050600090600390565b6001600160a01b037f000000000000000000000000000000000000000000000000000000000000000016301480612ab6575b15612a20577f000000000000000000000000000000000000000000000000000000000000000090565b60405160208101907f000000000000000000000000000000000000000000000000000000000000000082527f000000000000000000000000000000000000000000000000000000000000000060408201527f000000000000000000000000000000000000000000000000000000000000000060608201524660808201523060a082015260a08152612ab08161191c565b51902090565b507f000000000000000000000000000000000000000000000000000000000000000046146129f7565b612ae76129c5565b906040519060208201927f1901000000000000000000000000000000000000000000000000000000000000845260228301526042820152604281526080810181811067ffffffffffffffff821117612b43575b60405251902090565b612b4b6118dc565b612b3a565b8115612b5a570490565b634e487b7160e01b600052601260045260246000fd5b90808216911860011c8101809111612b855790565b6126606119f3565b8015612cc75780612c60612c59612c4f612c45612c3b612c31612c27612c1d60016126609a6000908b60801c80612cbb575b508060401c80612cae575b508060201c80612ca1575b508060101c80612c94575b508060081c80612c87575b508060041c80612c7a575b508060021c80612c6d575b50821c612c66575b811c1b612c16818b612b50565b0160011c90565b612c16818a612b50565b612c168189612b50565b612c168188612b50565b612c168187612b50565b612c168186612b50565b612c168185612b50565b8092612b50565b90612ccd565b8101612c09565b6002915091019038612c01565b6004915091019038612bf6565b6008915091019038612beb565b6010915091019038612be0565b6020915091019038612bd5565b6040915091019038612bca565b91505060809038612bbf565b50600090565b9080821015612cda575090565b905090565b6001600160e01b0390818111612cf3571690565b608460405162461bcd60e51b815260206004820152602760248201527f53616665436173743a2076616c756520646f65736e27742066697420696e203260448201527f32342062697473000000000000000000000000000000000000000000000000006064820152fd5b63ffffffff90818111612d6e571690565b608460405162461bcd60e51b815260206004820152602660248201527f53616665436173743a2076616c756520646f65736e27742066697420696e203360448201527f32206269747300000000000000000000000000000000000000000000000000006064820152fd5b60ff60055416612de457565b606460405162461bcd60e51b815260206004820152601060248201527f5061757361626c653a20706175736564000000000000000000000000000000006044820152fd5b60096020527fec8156718a8372b1db44bb411437d0870f3e3790d4a08526d024ce1b0b668f6b546001600160a01b0391821660009081526040902054611a2093929081169116611ff3565b90611a20916001600160a01b038091166000526009602052806040600020541690600080526040600020541690611ff3565b90611a2092916001600160a01b03809116600052600960205280806040600020541692166000526040600020541690611ff3565b15612ee057565b608460405162461bcd60e51b815260206004820152603060248201527f4552433230566f7465733a20746f74616c20737570706c79207269736b73206f60448201527f766572666c6f77696e6720766f746573000000000000000000000000000000006064820152fd5b15612f5157565b608460405162461bcd60e51b815260206004820152602260248201527f45524332303a206275726e20616d6f756e7420657863656564732062616c616e60448201527f63650000000000000000000000000000000000000000000000000000000000006064820152fd5b908103908111612b855790565b908101809111612b85579056fea2646970667358221220549d6411ef1f694e5b9062c794e25e32de0a2c498e6285372107131280c9c94d64736f6c634300081100332f8788117e7eff1d82e926ec794901d17c78024a50270940304540a733656f0d",
  "linkReferences": {},
  "deployedLinkReferences": {}
}