{
  "_format": "hh-sol-artifact-1",
  "contractName": "SyntheXToken",
  "sourceName": "contracts/token/SyntheXToken.sol",
  "abi": [
    {
      "inputs": [],
      "stateMutability": "nonpayable",
      "type": "constructor"
    },
    {
      "anonymous": false,
      "inputs": [
        {
          "indexed": true,
          "internalType": "address",
          "name": "owner",
          "type": "address"
        },
        {
          "indexed": true,
          "internalType": "address",
          "name": "spender",
          "type": "address"
        },
        {
          "indexed": false,
          "internalType": "uint256",
          "name": "value",
          "type": "uint256"
        }
      ],
      "name": "Approval",
      "type": "event"
    },
    {
      "anonymous": false,
      "inputs": [
        {
          "indexed": true,
          "internalType": "address",
          "name": "delegator",
          "type": "address"
        },
        {
          "indexed": true,
          "internalType": "address",
          "name": "fromDelegate",
          "type": "address"
        },
        {
          "indexed": true,
          "internalType": "address",
          "name": "toDelegate",
          "type": "address"
        }
      ],
      "name": "DelegateChanged",
      "type": "event"
    },
    {
      "anonymous": false,
      "inputs": [
        {
          "indexed": true,
          "internalType": "address",
          "name": "delegate",
          "type": "address"
        },
        {
          "indexed": false,
          "internalType": "uint256",
          "name": "previousBalance",
          "type": "uint256"
        },
        {
          "indexed": false,
          "internalType": "uint256",
          "name": "newBalance",
          "type": "uint256"
        }
      ],
      "name": "DelegateVotesChanged",
      "type": "event"
    },
    {
      "anonymous": false,
      "inputs": [
        {
          "indexed": false,
          "internalType": "address",
          "name": "account",
          "type": "address"
        }
      ],
      "name": "Paused",
      "type": "event"
    },
    {
      "anonymous": false,
      "inputs": [
        {
          "indexed": true,
          "internalType": "bytes32",
          "name": "role",
          "type": "bytes32"
        },
        {
          "indexed": true,
          "internalType": "bytes32",
          "name": "previousAdminRole",
          "type": "bytes32"
        },
        {
          "indexed": true,
          "internalType": "bytes32",
          "name": "newAdminRole",
          "type": "bytes32"
        }
      ],
      "name": "RoleAdminChanged",
      "type": "event"
    },
    {
      "anonymous": false,
      "inputs": [
        {
          "indexed": true,
          "internalType": "bytes32",
          "name": "role",
          "type": "bytes32"
        },
        {
          "indexed": true,
          "internalType": "address",
          "name": "account",
          "type": "address"
        },
        {
          "indexed": true,
          "internalType": "address",
          "name": "sender",
          "type": "address"
        }
      ],
      "name": "RoleGranted",
      "type": "event"
    },
    {
      "anonymous": false,
      "inputs": [
        {
          "indexed": true,
          "internalType": "bytes32",
          "name": "role",
          "type": "bytes32"
        },
        {
          "indexed": true,
          "internalType": "address",
          "name": "account",
          "type": "address"
        },
        {
          "indexed": true,
          "internalType": "address",
          "name": "sender",
          "type": "address"
        }
      ],
      "name": "RoleRevoked",
      "type": "event"
    },
    {
      "anonymous": false,
      "inputs": [
        {
          "indexed": true,
          "internalType": "address",
          "name": "from",
          "type": "address"
        },
        {
          "indexed": true,
          "internalType": "address",
          "name": "to",
          "type": "address"
        },
        {
          "indexed": false,
          "internalType": "uint256",
          "name": "value",
          "type": "uint256"
        }
      ],
      "name": "Transfer",
      "type": "event"
    },
    {
      "anonymous": false,
      "inputs": [
        {
          "indexed": false,
          "internalType": "address",
          "name": "account",
          "type": "address"
        }
      ],
      "name": "Unpaused",
      "type": "event"
    },
    {
      "inputs": [],
      "name": "DEFAULT_ADMIN_ROLE",
      "outputs": [
        {
          "internalType": "bytes32",
          "name": "",
          "type": "bytes32"
        }
      ],
      "stateMutability": "view",
      "type": "function"
    },
    {
      "inputs": [],
      "name": "DOMAIN_SEPARATOR",
      "outputs": [
        {
          "internalType": "bytes32",
          "name": "",
          "type": "bytes32"
        }
      ],
      "stateMutability": "view",
      "type": "function"
    },
    {
      "inputs": [],
      "name": "MINTER_ROLE",
      "outputs": [
        {
          "internalType": "bytes32",
          "name": "",
          "type": "bytes32"
        }
      ],
      "stateMutability": "view",
      "type": "function"
    },
    {
      "inputs": [],
      "name": "PAUSER_ROLE",
      "outputs": [
        {
          "internalType": "bytes32",
          "name": "",
          "type": "bytes32"
        }
      ],
      "stateMutability": "view",
      "type": "function"
    },
    {
      "inputs": [
        {
          "internalType": "address",
          "name": "owner",
          "type": "address"
        },
        {
          "internalType": "address",
          "name": "spender",
          "type": "address"
        }
      ],
      "name": "allowance",
      "outputs": [
        {
          "internalType": "uint256",
          "name": "",
          "type": "uint256"
        }
      ],
      "stateMutability": "view",
      "type": "function"
    },
    {
      "inputs": [
        {
          "internalType": "address",
          "name": "spender",
          "type": "address"
        },
        {
          "internalType": "uint256",
          "name": "amount",
          "type": "uint256"
        }
      ],
      "name": "approve",
      "outputs": [
        {
          "internalType": "bool",
          "name": "",
          "type": "bool"
        }
      ],
      "stateMutability": "nonpayable",
      "type": "function"
    },
    {
      "inputs": [
        {
          "internalType": "address",
          "name": "account",
          "type": "address"
        }
      ],
      "name": "balanceOf",
      "outputs": [
        {
          "internalType": "uint256",
          "name": "",
          "type": "uint256"
        }
      ],
      "stateMutability": "view",
      "type": "function"
    },
    {
      "inputs": [
        {
          "internalType": "uint256",
          "name": "amount",
          "type": "uint256"
        }
      ],
      "name": "burn",
      "outputs": [],
      "stateMutability": "nonpayable",
      "type": "function"
    },
    {
      "inputs": [
        {
          "internalType": "address",
          "name": "account",
          "type": "address"
        },
        {
          "internalType": "uint256",
          "name": "amount",
          "type": "uint256"
        }
      ],
      "name": "burnFrom",
      "outputs": [],
      "stateMutability": "nonpayable",
      "type": "function"
    },
    {
      "inputs": [
        {
          "internalType": "address",
          "name": "account",
          "type": "address"
        },
        {
          "internalType": "uint32",
          "name": "pos",
          "type": "uint32"
        }
      ],
      "name": "checkpoints",
      "outputs": [
        {
          "components": [
            {
              "internalType": "uint32",
              "name": "fromBlock",
              "type": "uint32"
            },
            {
              "internalType": "uint224",
              "name": "votes",
              "type": "uint224"
            }
          ],
          "internalType": "struct ERC20Votes.Checkpoint",
          "name": "",
          "type": "tuple"
        }
      ],
      "stateMutability": "view",
      "type": "function"
    },
    {
      "inputs": [],
      "name": "decimals",
      "outputs": [
        {
          "internalType": "uint8",
          "name": "",
          "type": "uint8"
        }
      ],
      "stateMutability": "view",
      "type": "function"
    },
    {
      "inputs": [
        {
          "internalType": "address",
          "name": "spender",
          "type": "address"
        },
        {
          "internalType": "uint256",
          "name": "subtractedValue",
          "type": "uint256"
        }
      ],
      "name": "decreaseAllowance",
      "outputs": [
        {
          "internalType": "bool",
          "name": "",
          "type": "bool"
        }
      ],
      "stateMutability": "nonpayable",
      "type": "function"
    },
    {
      "inputs": [
        {
          "internalType": "address",
          "name": "delegatee",
          "type": "address"
        }
      ],
      "name": "delegate",
      "outputs": [],
      "stateMutability": "nonpayable",
      "type": "function"
    },
    {
      "inputs": [
        {
          "internalType": "address",
          "name": "delegatee",
          "type": "address"
        },
        {
          "internalType": "uint256",
          "name": "nonce",
          "type": "uint256"
        },
        {
          "internalType": "uint256",
          "name": "expiry",
          "type": "uint256"
        },
        {
          "internalType": "uint8",
          "name": "v",
          "type": "uint8"
        },
        {
          "internalType": "bytes32",
          "name": "r",
          "type": "bytes32"
        },
        {
          "internalType": "bytes32",
          "name": "s",
          "type": "bytes32"
        }
      ],
      "name": "delegateBySig",
      "outputs": [],
      "stateMutability": "nonpayable",
      "type": "function"
    },
    {
      "inputs": [
        {
          "internalType": "address",
          "name": "account",
          "type": "address"
        }
      ],
      "name": "delegates",
      "outputs": [
        {
          "internalType": "address",
          "name": "",
          "type": "address"
        }
      ],
      "stateMutability": "view",
      "type": "function"
    },
    {
      "inputs": [
        {
          "internalType": "address",
          "name": "token",
          "type": "address"
        },
        {
          "internalType": "uint256",
          "name": "amount",
          "type": "uint256"
        }
      ],
      "name": "flashFee",
      "outputs": [
        {
          "internalType": "uint256",
          "name": "",
          "type": "uint256"
        }
      ],
      "stateMutability": "view",
      "type": "function"
    },
    {
      "inputs": [
        {
          "internalType": "contract IERC3156FlashBorrower",
          "name": "receiver",
          "type": "address"
        },
        {
          "internalType": "address",
          "name": "token",
          "type": "address"
        },
        {
          "internalType": "uint256",
          "name": "amount",
          "type": "uint256"
        },
        {
          "internalType": "bytes",
          "name": "data",
          "type": "bytes"
        }
      ],
      "name": "flashLoan",
      "outputs": [
        {
          "internalType": "bool",
          "name": "",
          "type": "bool"
        }
      ],
      "stateMutability": "nonpayable",
      "type": "function"
    },
    {
      "inputs": [
        {
          "internalType": "uint256",
          "name": "blockNumber",
          "type": "uint256"
        }
      ],
      "name": "getPastTotalSupply",
      "outputs": [
        {
          "internalType": "uint256",
          "name": "",
          "type": "uint256"
        }
      ],
      "stateMutability": "view",
      "type": "function"
    },
    {
      "inputs": [
        {
          "internalType": "address",
          "name": "account",
          "type": "address"
        },
        {
          "internalType": "uint256",
          "name": "blockNumber",
          "type": "uint256"
        }
      ],
      "name": "getPastVotes",
      "outputs": [
        {
          "internalType": "uint256",
          "name": "",
          "type": "uint256"
        }
      ],
      "stateMutability": "view",
      "type": "function"
    },
    {
      "inputs": [
        {
          "internalType": "bytes32",
          "name": "role",
          "type": "bytes32"
        }
      ],
      "name": "getRoleAdmin",
      "outputs": [
        {
          "internalType": "bytes32",
          "name": "",
          "type": "bytes32"
        }
      ],
      "stateMutability": "view",
      "type": "function"
    },
    {
      "inputs": [
        {
          "internalType": "address",
          "name": "account",
          "type": "address"
        }
      ],
      "name": "getVotes",
      "outputs": [
        {
          "internalType": "uint256",
          "name": "",
          "type": "uint256"
        }
      ],
      "stateMutability": "view",
      "type": "function"
    },
    {
      "inputs": [
        {
          "internalType": "bytes32",
          "name": "role",
          "type": "bytes32"
        },
        {
          "internalType": "address",
          "name": "account",
          "type": "address"
        }
      ],
      "name": "grantRole",
      "outputs": [],
      "stateMutability": "nonpayable",
      "type": "function"
    },
    {
      "inputs": [
        {
          "internalType": "bytes32",
          "name": "role",
          "type": "bytes32"
        },
        {
          "internalType": "address",
          "name": "account",
          "type": "address"
        }
      ],
      "name": "hasRole",
      "outputs": [
        {
          "internalType": "bool",
          "name": "",
          "type": "bool"
        }
      ],
      "stateMutability": "view",
      "type": "function"
    },
    {
      "inputs": [
        {
          "internalType": "address",
          "name": "spender",
          "type": "address"
        },
        {
          "internalType": "uint256",
          "name": "addedValue",
          "type": "uint256"
        }
      ],
      "name": "increaseAllowance",
      "outputs": [
        {
          "internalType": "bool",
          "name": "",
          "type": "bool"
        }
      ],
      "stateMutability": "nonpayable",
      "type": "function"
    },
    {
      "inputs": [
        {
          "internalType": "address",
          "name": "token",
          "type": "address"
        }
      ],
      "name": "maxFlashLoan",
      "outputs": [
        {
          "internalType": "uint256",
          "name": "",
          "type": "uint256"
        }
      ],
      "stateMutability": "view",
      "type": "function"
    },
    {
      "inputs": [
        {
          "internalType": "address",
          "name": "to",
          "type": "address"
        },
        {
          "internalType": "uint256",
          "name": "amount",
          "type": "uint256"
        }
      ],
      "name": "mint",
      "outputs": [],
      "stateMutability": "nonpayable",
      "type": "function"
    },
    {
      "inputs": [],
      "name": "name",
      "outputs": [
        {
          "internalType": "string",
          "name": "",
          "type": "string"
        }
      ],
      "stateMutability": "view",
      "type": "function"
    },
    {
      "inputs": [
        {
          "internalType": "address",
          "name": "owner",
          "type": "address"
        }
      ],
      "name": "nonces",
      "outputs": [
        {
          "internalType": "uint256",
          "name": "",
          "type": "uint256"
        }
      ],
      "stateMutability": "view",
      "type": "function"
    },
    {
      "inputs": [
        {
          "internalType": "address",
          "name": "account",
          "type": "address"
        }
      ],
      "name": "numCheckpoints",
      "outputs": [
        {
          "internalType": "uint32",
          "name": "",
          "type": "uint32"
        }
      ],
      "stateMutability": "view",
      "type": "function"
    },
    {
      "inputs": [],
      "name": "pause",
      "outputs": [],
      "stateMutability": "nonpayable",
      "type": "function"
    },
    {
      "inputs": [],
      "name": "paused",
      "outputs": [
        {
          "internalType": "bool",
          "name": "",
          "type": "bool"
        }
      ],
      "stateMutability": "view",
      "type": "function"
    },
    {
      "inputs": [
        {
          "internalType": "address",
          "name": "owner",
          "type": "address"
        },
        {
          "internalType": "address",
          "name": "spender",
          "type": "address"
        },
        {
          "internalType": "uint256",
          "name": "value",
          "type": "uint256"
        },
        {
          "internalType": "uint256",
          "name": "deadline",
          "type": "uint256"
        },
        {
          "internalType": "uint8",
          "name": "v",
          "type": "uint8"
        },
        {
          "internalType": "bytes32",
          "name": "r",
          "type": "bytes32"
        },
        {
          "internalType": "bytes32",
          "name": "s",
          "type": "bytes32"
        }
      ],
      "name": "permit",
      "outputs": [],
      "stateMutability": "nonpayable",
      "type": "function"
    },
    {
      "inputs": [
        {
          "internalType": "bytes32",
          "name": "role",
          "type": "bytes32"
        },
        {
          "internalType": "address",
          "name": "account",
          "type": "address"
        }
      ],
      "name": "renounceRole",
      "outputs": [],
      "stateMutability": "nonpayable",
      "type": "function"
    },
    {
      "inputs": [
        {
          "internalType": "bytes32",
          "name": "role",
          "type": "bytes32"
        },
        {
          "internalType": "address",
          "name": "account",
          "type": "address"
        }
      ],
      "name": "revokeRole",
      "outputs": [],
      "stateMutability": "nonpayable",
      "type": "function"
    },
    {
      "inputs": [
        {
          "internalType": "bytes4",
          "name": "interfaceId",
          "type": "bytes4"
        }
      ],
      "name": "supportsInterface",
      "outputs": [
        {
          "internalType": "bool",
          "name": "",
          "type": "bool"
        }
      ],
      "stateMutability": "view",
      "type": "function"
    },
    {
      "inputs": [],
      "name": "symbol",
      "outputs": [
        {
          "internalType": "string",
          "name": "",
          "type": "string"
        }
      ],
      "stateMutability": "view",
      "type": "function"
    },
    {
      "inputs": [],
      "name": "totalSupply",
      "outputs": [
        {
          "internalType": "uint256",
          "name": "",
          "type": "uint256"
        }
      ],
      "stateMutability": "view",
      "type": "function"
    },
    {
      "inputs": [
        {
          "internalType": "address",
          "name": "to",
          "type": "address"
        },
        {
          "internalType": "uint256",
          "name": "amount",
          "type": "uint256"
        }
      ],
      "name": "transfer",
      "outputs": [
        {
          "internalType": "bool",
          "name": "",
          "type": "bool"
        }
      ],
      "stateMutability": "nonpayable",
      "type": "function"
    },
    {
      "inputs": [
        {
          "internalType": "address",
          "name": "from",
          "type": "address"
        },
        {
          "internalType": "address",
          "name": "to",
          "type": "address"
        },
        {
          "internalType": "uint256",
          "name": "amount",
          "type": "uint256"
        }
      ],
      "name": "transferFrom",
      "outputs": [
        {
          "internalType": "bool",
          "name": "",
          "type": "bool"
        }
      ],
      "stateMutability": "nonpayable",
      "type": "function"
    },
    {
      "inputs": [],
      "name": "unpause",
      "outputs": [],
      "stateMutability": "nonpayable",
      "type": "function"
    }
  ],
  "bytecode": "0x610140604052346200021e5762000015620002a0565b6200001f620002a0565b906200002a62000276565b6020916229aca760e91b83830152620000426200028b565b9280840192603160f81b8452855160018060401b0381116200020e575b620000778162000071600354620002e2565b6200031f565b82601f82116001146200017b579080620000b69392620000e498996000926200016f575b50508160011b916000199060031b1c191617600355620003d1565b620000c660ff1960055416600555565b8151910120925190208260e052610100928184524660a05262000682565b6080523060c0526101206000805160206200444b83398151915281526200010b33620004d5565b620001163362000568565b62000121336200074e565b6200012c3362000620565b60405190613553928362000ed8843960805183612ed8015260a05183612f93015260c05183612ea9015260e05183612f2701525182612f4d01525181612f040152f35b0151905038806200009b565b6003600052601f198216977fc2575a0e9e593c00f959f8c92f12db2869c3395a3b0502d05e2516446f71f85b9860005b818110620001f65750986001928492620000b69695620000e49b9c10620001dc575b505050811b01600355620003d1565b015160001960f88460031b161c19169055388080620001cd565b838301518b556001909a0199928601928601620001ab565b6200021862000223565b6200005f565b600080fd5b50634e487b7160e01b600052604160045260246000fd5b604081019081106001600160401b038211176200025657604052565b6200026062000223565b604052565b6040519062000274826200023a565b565b6040519062000285826200023a565b60038252565b604051906200029a826200023a565b60018252565b60405190620002af826200023a565b600d82526c29bcb73a3432ac102a37b5b2b760991b6020830152565b50634e487b7160e01b600052601160045260246000fd5b90600182811c9216801562000314575b6020831014620002fe57565b634e487b7160e01b600052602260045260246000fd5b91607f1691620002f2565b601f81116200032c575050565b6000906003825260208220906020601f850160051c830194106200036d575b601f0160051c01915b8281106200036157505050565b81815560010162000354565b90925082906200034b565b601f811162000385575050565b6000906004825260208220906020601f850160051c83019410620003c6575b601f0160051c01915b828110620003ba57505050565b818155600101620003ad565b9092508290620003a4565b80519091906001600160401b038111620004c5575b620003fe81620003f8600454620002e2565b62000378565b602080601f83116001146200043d575081929360009262000431575b50508160011b916000199060031b1c191617600455565b0151905038806200041a565b6004600052601f198316949091907f8a35acfbc15ff81a39ae7d344fd709f28e8600b4aa8c65c6b64bfe7fe36bd19b926000905b878210620004ac57505083600195961062000492575b505050811b01600455565b015160001960f88460031b161c1916905538808062000487565b8060018596829496860151815501950193019062000471565b620004cf62000223565b620003e6565b6001600160a01b03811660009081527f54cdd369e4e8a8515e52ca72ec816c2101831ad1f18bf44102ed171459c9b4f8602052604081205460ff16156200051a575050565b8080526006602090815260408083206001600160a01b038516600090815292529020805460ff1916600117905533916001600160a01b0316906000805160206200442b8339815191528180a4565b6001600160a01b03811660009081527fe09f975e15f8f53f24cbbc282b13c40b84df485fcdb8d3997fa103dc5a4ef841602052604081207f65d7a28e3265b37a6474929f336521b332c1681b933f6cb9f3376673440d862a9060ff905b541615620005d257505050565b8082526006602090815260408084206001600160a01b038616600090815292529020805460ff1916600117905533926001600160a01b0316916000805160206200442b8339815191529080a4565b6001600160a01b03811660009081527f3195c024b2ddd6d9b8f6c836aa52f67fe69376c8903d009b80229b3ce4425f51602052604081207f9f2df0fed2c77648de5860a4cc508cd0818c85b8b8a1ab4ceeef8d981c8956a69060ff90620005c5565b906040519060208201926000805160206200444b8339815191528452604083015260608201524660808201523060a082015260a0815260c0810181811060018060401b03821117620006d8575b60405251902090565b620006e262000223565b620006cf565b15620006f057565b60405162461bcd60e51b815260206004820152603060248201527f4552433230566f7465733a20746f74616c20737570706c79207269736b73206f60448201526f766572666c6f77696e6720766f74657360801b6064820152608490fd5b6001600160a01b038116908115620008575760ff600554166200081f57620007f99162000786620007816002546200089c565b600255565b6001600160a01b03821660009081526020819052604090206a1a8d707ca17eff16800000815401905560007fddf252ad1be2c89b69c2b068fc378daa952ba7f163c4a11628f55a4df523b3ef60405180620007f081906a1a8d707ca17eff16800000602083019252565b0390a362000d9e565b60025462000811906001600160e01b031015620006e8565b6200081b62000a0c565b5050565b60405162461bcd60e51b815260206004820152601060248201526f14185d5cd8589b194e881c185d5cd95960821b6044820152606490fd5b60405162461bcd60e51b815260206004820152601f60248201527f45524332303a206d696e7420746f20746865207a65726f2061646472657373006044820152606490fd5b906a1a8d707ca17eff168000008201809211620008b557565b62000274620002cb565b600019810191908211620008b557565b604080519192919081016001600160401b0381118282101762000905575b604052602081935463ffffffff81168352811c910152565b6200090f62000223565b620008ed565b600b5490680100000000000000008210156200099a575b6001820180600b558210156200098457600b600052805160209182015190911b63ffffffff191663ffffffff91909116177f0175b7a638427703f0dbe7bb9bbf987a2551717b34e79f33b5b1008d1fa01db990910155565b634e487b7160e01b600052603260045260246000fd5b620009a462000223565b6200092c565b90815468010000000000000000811015620009fc575b600181018084558110156200098457600092835260209283902082519284015190931b63ffffffff191663ffffffff9290921691909117910155565b62000a0662000223565b620009c0565b600b5490811590811562000b355762000a2462000265565b6000815260006020820152925b602084015162000a51906001600160e01b03165b6001600160e01b031690565b9362000a5d8562000e97565b9315908162000b1d575b501562000ace57620002749062000ab762000a8d62000a868662000cce565b92620008bf565b600b6000527f0175b7a638427703f0dbe7bb9bbf987a2551717b34e79f33b5b1008d1fa01db90190565b9063ffffffff82549181199060201b169116179055565b506200027462000ade4362000d38565b62000b1762000aed8562000cce565b62000b0762000afb62000265565b63ffffffff9094168452565b6001600160e01b03166020830152565b62000915565b5163ffffffff16905063ffffffff1643143862000a67565b62000b4e62000b4862000a8d85620008bf565b620008cf565b9262000a31565b805491821591821562000c445762000b6c62000265565b6000815260006020820152935b602085015162000b92906001600160e01b031662000a45565b9462000b9e8662000ebd565b9415908162000c2c575b501562000bdb5762000ab7620002749262000bce62000bc78762000cce565b93620008bf565b9060005260206000200190565b50620002749062000bec4362000d38565b9062000c2662000bfc8662000cce565b62000c1662000c0a62000265565b63ffffffff9095168552565b6001600160e01b03166020840152565b620009aa565b5163ffffffff16905063ffffffff1643143862000ba8565b62000c6462000b4862000c5786620008bf565b8360005260206000200190565b9362000b79565b805491821591821562000cb45762000c8262000265565b6000815260006020820152935b602085015162000ca8906001600160e01b031662000a45565b9462000b9e8662000e97565b62000cc762000b4862000c5786620008bf565b9362000c8f565b6001600160e01b039081811162000ce3571690565b60405162461bcd60e51b815260206004820152602760248201527f53616665436173743a2076616c756520646f65736e27742066697420696e20326044820152663234206269747360c81b6064820152608490fd5b63ffffffff9081811162000d4a571690565b60405162461bcd60e51b815260206004820152602660248201527f53616665436173743a2076616c756520646f65736e27742066697420696e203360448201526532206269747360d01b6064820152608490fd5b60096020527fec8156718a8372b1db44bb411437d0870f3e3790d4a08526d024ce1b0b668f6b546001600160a01b039182166000908152604081205483169290911690818314158062000e8e575b62000df657505050565b8162000e4f575b50508062000e085750565b6001600160a01b0381166000908152600a602052604090206000805160206200446b8339815191529062000e3c9062000c6b565b60408051928352602083019190915290a2565b62000e75604082846000805160206200446b8339815191529452600a6020522062000b55565b60408051928352602083019190915290a2388062000dfd565b50600162000dec565b6a1a8d707ca17eff16800000810180911162000eb05790565b62000eba620002cb565b90565b6a1a8d707ca17eff167fffff19810190811162000eb0579056fe60806040526004361015610013575b600080fd5b60003560e01c806301ffc9a71461033357806306fdde031461032a578063095ea7b31461032157806318160ddd1461031857806323b872dd1461030f578063248a9ca3146103065780632f2ff15d146102fd578063313ce567146102f45780633644e515146102eb57806336568abe146102e257806339509351146102d95780633a46b1a8146102d05780633f4ba83a146102c757806340c10f19146102be57806342966c68146102b5578063587cde1e146102ac5780635c19a95c146102a35780635c975abb1461029a5780635cffe9de14610291578063613255ab146102885780636fcfff451461027f57806370a082311461027657806379cc67901461026d5780637ecebe00146102645780638456cb591461025b5780638e539e8c1461025257806391d148541461024957806395d89b41146102405780639ab24eb014610237578063a217fddf1461022e578063a457c2d714610225578063a9059cbb1461021c578063c3cda52014610213578063d505accf1461020a578063d539139314610201578063d547741f146101f8578063d9d98ce4146101ef578063dd62ed3e146101e6578063e63ab1e9146101dd5763f1127ed8146101d557600080fd5b61000e61178c565b5061000e611750565b5061000e6116ea565b5061000e6116be565b5061000e61167b565b5061000e61163f565b5061000e6114f2565b5061000e6113be565b5061000e611373565b5061000e61129c565b5061000e61127f565b5061000e611200565b5061000e61113c565b5061000e6110e4565b5061000e610f92565b5061000e610f37565b5061000e610ef8565b5061000e610e20565b5061000e610de1565b5061000e610d94565b5061000e610d6c565b5061000e610ce3565b5061000e610cbf565b5061000e610c98565b5061000e610c57565b5061000e610b2f565b5061000e610a1b565b5061000e61097e565b5061000e610836565b5061000e6107c9565b5061000e610723565b5061000e6106ff565b5061000e6106e2565b5061000e610608565b5061000e6105d8565b5061000e610597565b5061000e610578565b5061000e610542565b5061000e610424565b503461000e57602036600319011261000e576004357fffffffff00000000000000000000000000000000000000000000000000000000811680910361000e57807f7965db0b00000000000000000000000000000000000000000000000000000000602092149081156103ab575b506040519015158152f35b7f01ffc9a700000000000000000000000000000000000000000000000000000000915014386103a0565b60005b8381106103e85750506000910152565b81810151838201526020016103d8565b6040916020825261041881518092816020860152602086860191016103d5565b601f01601f1916010190565b503461000e5760008060031936011261052e5760405190806003549060019180831c92808216928315610524575b60209283861085146105105785885260208801949081156104ef5750600114610496575b6104928761048681890382611a9a565b604051918291826103f8565b0390f35b600360005294509192917fc2575a0e9e593c00f959f8c92f12db2869c3395a3b0502d05e2516446f71f85b5b8386106104de5750505091019050610486826104923880610476565b8054858701529482019481016104c2565b60ff191685525050505090151560051b019050610486826104923880610476565b602482634e487b7160e01b81526022600452fd5b93607f1693610452565b80fd5b6001600160a01b0381160361000e57565b503461000e57604036600319011261000e5761056d60043561056381610531565b6024359033611def565b602060405160018152f35b503461000e57600036600319011261000e576020600254604051908152f35b503461000e57606036600319011261000e5761056d6004356105b881610531565b6024356105c481610531565b604435916105d3833383611f53565b611d23565b503461000e57602036600319011261000e5760043560005260066020526020600160406000200154604051908152f35b503461000e57604036600319011261000e5760043560243561062981610531565b60009180835260066020526106446001604085200154611956565b808352600660205260ff61066e8360408620906001600160a01b0316600052602052604060002090565b541615610679578280f35b80835260066020526106a18260408520906001600160a01b0316600052602052604060002090565b805460ff1916600117905533916001600160a01b0316907f2f8788117e7eff1d82e926ec794901d17c78024a50270940304540a733656f0d8480a438808280f35b503461000e57600036600319011261000e57602060405160128152f35b503461000e57600036600319011261000e57602061071b612e9f565b604051908152f35b503461000e57604036600319011261000e5760243561074181610531565b336001600160a01b0382160361075f5761075d90600435611abc565b005b608460405162461bcd60e51b815260206004820152602f60248201527f416363657373436f6e74726f6c3a2063616e206f6e6c792072656e6f756e636560448201527f20726f6c657320666f722073656c6600000000000000000000000000000000006064820152fd5b503461000e57604036600319011261000e5761056d6004356107ea81610531565b336000526001602052610814816040600020906001600160a01b0316600052602052604060002090565b54906024358201809211610829575b33611def565b610831611b55565b610823565b503461000e57604036600319011261000e5760043561085481610531565b6001600160a01b036024359161086b4384106123b3565b16600052600a60205260406000208054916000836005811161092d575b50905b8382106108dc575050816108b1575050602060005b6001600160e01b0360405191168152f35b6108d06108d7916108c3602094611ff7565b9060005260206000200190565b5460201c90565b6108a0565b90926108e8818561304a565b908263ffffffff61090d610903858860005260206000200190565b5463ffffffff1690565b16111561091d5750925b9061088b565b935061092890611b6c565b610917565b8061093d61094392969396613067565b90612006565b908263ffffffff61095e610903858860005260206000200190565b16111561096e5750925b38610888565b935061097990611b6c565b610968565b503461000e57600036600319011261000e57610998611813565b60055460ff8116156109d75760ff19166005557f5db9ee0a495bf2e6ff9c91a7834c1ba4fdd244a5e8aa4e537bd38aeae4b073aa6020604051338152a1005b606460405162461bcd60e51b815260206004820152601460248201527f5061757361626c653a206e6f74207061757365640000000000000000000000006044820152fd5b503461000e57604036600319011261000e57600435610a3981610531565b602435610a44611901565b6001600160a01b038216918215610aeb5781610ad19161075d94610a666132b2565b610a7a610a7584600254611b84565b600255565b610a97826001600160a01b03166000526000602052604060002090565b8054840190556040518381526000907fddf252ad1be2c89b69c2b068fc378daa952ba7f163c4a11628f55a4df523b3ef90602090a3613302565b610ae66001600160e01b0360025411156133b3565b6127d2565b606460405162461bcd60e51b815260206004820152601f60248201527f45524332303a206d696e7420746f20746865207a65726f2061646472657373006044820152fd5b503461000e57602036600319011261000e576004353315610bed5761075d90610b566132b2565b80610b74336001600160a01b03166000526000602052604060002090565b54610b8182821015613492565b03610b9f336001600160a01b03166000526000602052604060002090565b55610bad8160025403600255565b60405181815260009033907fddf252ad1be2c89b69c2b068fc378daa952ba7f163c4a11628f55a4df523b3ef90602090a3610be8813361334d565b6128ad565b608460405162461bcd60e51b815260206004820152602160248201527f45524332303a206275726e2066726f6d20746865207a65726f2061646472657360448201527f73000000000000000000000000000000000000000000000000000000000000006064820152fd5b503461000e57602036600319011261000e576020600435610c7781610531565b6001600160a01b038091166000526009825260406000205416604051908152f35b503461000e57602036600319011261000e5761075d600435610cb981610531565b33612449565b503461000e57600036600319011261000e57602060ff600554166040519015158152f35b503461000e57608036600319011261000e57600435610d0181610531565b602435610d0d81610531565b6064359067ffffffffffffffff9081831161000e573660238401121561000e57826004013591821161000e57366024838501011161000e57610492936024610d5a94019160443591612201565b60405190151581529081906020820190565b503461000e57602036600319011261000e57602061071b600435610d8f81610531565b612013565b503461000e57602036600319011261000e576001600160a01b03600435610dba81610531565b16600052600a6020526020610dd3604060002054613237565b63ffffffff60405191168152f35b503461000e57602036600319011261000e576001600160a01b03600435610e0781610531565b1660005260006020526020604060002054604051908152f35b503461000e57604036600319011261000e57600435610e3e81610531565b602435610e4c813384611f53565b6001600160a01b038216918215610bed5781610be891600061075d95610e706132b2565b83610e8e846001600160a01b03166000526000602052604060002090565b54610e9b82821015613492565b03610eb9846001600160a01b03166000526000602052604060002090565b55610ec78460025403600255565b6040518481527fddf252ad1be2c89b69c2b068fc378daa952ba7f163c4a11628f55a4df523b3ef90602090a361334d565b503461000e57602036600319011261000e576001600160a01b03600435610f1e81610531565b1660005260076020526020604060002054604051908152f35b503461000e57600036600319011261000e57610f51611813565b610f596132b2565b600160ff1960055416176005557f62e78cea01bee320cd4e420270b5ea74000d11b0c9f74754ebdbfc544b05a2586020604051338152a1005b503461000e57602036600319011261000e57600435610fb24382106123b3565b600b54906000826005811161107d575b50905b82821061101a578280610fdf575060405160008152602090f35b6108d76108d0610ff0602093611ff7565b600b6000527f0175b7a638427703f0dbe7bb9bbf987a2551717b34e79f33b5b1008d1fa01db90190565b9091611026818461304a565b600b600052908263ffffffff61105d7f0175b7a638427703f0dbe7bb9bbf987a2551717b34e79f33b5b1008d1fa01db98501610903565b16111561106d5750915b90610fc5565b925061107890611b6c565b611067565b8061093d61108d92959395613067565b600b600052908263ffffffff6110c47f0175b7a638427703f0dbe7bb9bbf987a2551717b34e79f33b5b1008d1fa01db98501610903565b1611156110d45750915b38610fc2565b92506110df90611b6c565b6110ce565b503461000e57604036600319011261000e57602060ff61113060243561110981610531565b600435600052600684526040600020906001600160a01b0316600052602052604060002090565b54166040519015158152f35b503461000e5760008060031936011261052e5760405190806004549060019180831c928082169283156111f6575b60209283861085146105105785885260208801949081156104ef575060011461119d576104928761048681890382611a9a565b600460005294509192917f8a35acfbc15ff81a39ae7d344fd709f28e8600b4aa8c65c6b64bfe7fe36bd19b5b8386106111e55750505091019050610486826104923880610476565b8054858701529482019481016111c9565b93607f169361116a565b503461000e57602036600319011261000e576001600160a01b0360043561122681610531565b16600052600a6020526040600020546000811560001461124e57505060405160008152602090f35b6020916040611269922060001982019182116112725761236b565b5054811c6108a0565b61127a611b55565b61236b565b503461000e57600036600319011261000e57602060405160008152f35b503461000e57604036600319011261000e576004356112ba81610531565b602435903360005260016020526112e8816040600020906001600160a01b0316600052602052604060002090565b5491808310611309576112fd92039033611def565b60405160018152602090f35b608460405162461bcd60e51b815260206004820152602560248201527f45524332303a2064656372656173656420616c6c6f77616e63652062656c6f7760448201527f207a65726f0000000000000000000000000000000000000000000000000000006064820152fd5b503461000e57604036600319011261000e5761056d60043561139481610531565b6024359033611d23565b6064359060ff8216820361000e57565b6084359060ff8216820361000e57565b503461000e5760c036600319011261000e576004356113dc81610531565b604435906024356113eb61139e565b928042116114ae5761147c6114a99161075d9560405190611464826114566020820195898b886060919493926001600160a01b0360808301967fe48329057bfd03d55e49b547132e39cffd9c1820ad7b9d4c5307691425d15adf845216602083015260408201520152565b03601f198101845283611a9a565b61147760a4359360843593519020612fb9565b612c9d565b916114a3836001600160a01b03166000526007602052604060002090815491600183019055565b146123fe565b612449565b606460405162461bcd60e51b815260206004820152601d60248201527f4552433230566f7465733a207369676e617475726520657870697265640000006044820152fd5b503461000e5760e036600319011261000e5760043561151081610531565b60243561151c81610531565b604435906064359261152c6113ae565b938042116115fb576115e36115f69161145661075d976115d061156b876001600160a01b03166000526007602052604060002090815491600183019055565b9360405193849160208301968c8c8c8a91959493909260a09360c08401977f6e71edae12b1b97f4d1f60370fef10105fa2faae0126114a169c64845d6126c985526001600160a01b038092166020860152166040840152606083015260808201520152565b61147760c4359360a43593519020612fb9565b6001600160a01b038084169116146129b1565b611def565b606460405162461bcd60e51b815260206004820152601d60248201527f45524332305065726d69743a206578706972656420646561646c696e650000006044820152fd5b503461000e57600036600319011261000e5760206040517f9f2df0fed2c77648de5860a4cc508cd0818c85b8b8a1ab4ceeef8d981c8956a68152f35b503461000e57604036600319011261000e5761075d60243560043561169f82610531565b8060005260066020526116b9600160406000200154611956565b611abc565b503461000e57604036600319011261000e57602061071b6004356116e181610531565b60243590612030565b503461000e57604036600319011261000e57602061174760043561170d81610531565b6001600160a01b036024359161172283610531565b16600052600183526040600020906001600160a01b0316600052602052604060002090565b54604051908152f35b503461000e57600036600319011261000e5760206040517f65d7a28e3265b37a6474929f336521b332c1681b933f6cb9f3376673440d862a8152f35b503461000e57604036600319011261000e576004356117aa81610531565b63ffffffff602435818116810361000e5760206118016117fb6001600160e01b03936001600160a01b036040976000868a516117e581611a55565b828152015216600052600a84528660002061236b565b50612391565b84519381511684520151166020820152f35b3360009081527fe09f975e15f8f53f24cbbc282b13c40b84df485fcdb8d3997fa103dc5a4ef841602052604090205460ff161561184c57565b6118fd60486118e561185d33612ae2565b6118d7611868612b7f565b6040519485937f416363657373436f6e74726f6c3a206163636f756e742000000000000000000060208601526118a88151809260206037890191016103d5565b84017f206973206d697373696e6720726f6c652000000000000000000000000000000060378201520190611a27565b03601f198101835282611a9a565b60405191829162461bcd60e51b8352600483016103f8565b0390fd5b3360009081527f3195c024b2ddd6d9b8f6c836aa52f67fe69376c8903d009b80229b3ce4425f51602052604090205460ff161561193a57565b6118fd60486118e561194b33612ae2565b6118d7611868612c0e565b80600052600660205260ff611982336040600020906001600160a01b0316600052602052604060002090565b54161561198c5750565b61199533612ae2565b9061199e6129fc565b9060306119aa83612a36565b5360786119b683612a4c565b5360415b600181116119d9576118fd60486118e5866118d7876118688815612a97565b90806f181899199a1a9b1b9c1cb0b131b232b360811b600f611a1593166010811015611a1a575b1a611a0b8486612a5d565b5360041c91612a7c565b6119ba565b611a22612354565b611a00565b90611a3a602092828151948592016103d5565b0190565b50634e487b7160e01b600052604160045260246000fd5b6040810190811067ffffffffffffffff821117611a7157604052565b611a79611a3e565b604052565b60c0810190811067ffffffffffffffff821117611a7157604052565b90601f8019910116810190811067ffffffffffffffff821117611a7157604052565b600090808252600660205260ff611ae98460408520906001600160a01b0316600052602052604060002090565b5416611af457505050565b8082526006602052611b1c8360408420906001600160a01b0316600052602052604060002090565b60ff1981541690557ff6391f5c32d9c69d2a47ea670b442974b53935d1edc7fd64eb21e047a839171b6001600160a01b033394169280a4565b50634e487b7160e01b600052601160045260246000fd5b9060018201809211611b7a57565b611b82611b55565b565b91908201809211611b7a57565b15611b9857565b608460405162461bcd60e51b815260206004820152602360248201527f45524332303a207472616e7366657220746f20746865207a65726f206164647260448201526265737360e81b6064820152fd5b15611bef57565b608460405162461bcd60e51b815260206004820152602660248201527f45524332303a207472616e7366657220616d6f756e742065786365656473206260448201527f616c616e636500000000000000000000000000000000000000000000000000006064820152fd5b6001600160a01b0391501615611cb957608460405162461bcd60e51b815260206004820152602360248201527f45524332303a207472616e7366657220746f20746865207a65726f206164647260448201526265737360e81b6064820152fd5b608460405162461bcd60e51b815260206004820152602560248201527f45524332303a207472616e736665722066726f6d20746865207a65726f20616460448201527f64726573730000000000000000000000000000000000000000000000000000006064820152fd5b91906001600160a01b03928381168015611cb957611b8294831690611d49821515611b91565b611d516132b2565b84611d6f846001600160a01b03166000526000602052604060002090565b54611d7c82821015611be8565b03611d9a846001600160a01b03166000526000602052604060002090565b55611db8846001600160a01b03166000526000602052604060002090565b8054860190556040518581527fddf252ad1be2c89b69c2b068fc378daa952ba7f163c4a11628f55a4df523b3ef90602090a361337f565b906001600160a01b0391828116928315611eea578216938415611e805780611e6a7f8c5be1e5ebec7d5bd14f71427d1e84f3dd0314c0f7b2291e5b200ac8c7c3b92594611e52611e7b956001600160a01b03166000526001602052604060002090565b906001600160a01b0316600052602052604060002090565b556040519081529081906020820190565b0390a3565b608460405162461bcd60e51b815260206004820152602260248201527f45524332303a20617070726f766520746f20746865207a65726f20616464726560448201527f73730000000000000000000000000000000000000000000000000000000000006064820152fd5b608460405162461bcd60e51b8152602060048201526024808201527f45524332303a20617070726f76652066726f6d20746865207a65726f2061646460448201527f72657373000000000000000000000000000000000000000000000000000000006064820152fd5b906001600160a01b0382166000526001602052611f87816040600020906001600160a01b0316600052602052604060002090565b549260018401611f98575b50505050565b808410611fb357611faa930391611def565b38808080611f92565b606460405162461bcd60e51b815260206004820152601d60248201527f45524332303a20696e73756666696369656e7420616c6c6f77616e63650000006044820152fd5b600019810191908211611b7a57565b91908203918211611b7a57565b6000906001600160a01b0316300361202d57506002541990565b90565b6001600160a01b033091160361207457670de0b6b3a764000090670e043da61725000090818102918183041490151715612068570490565b612070611b55565b0490565b606460405162461bcd60e51b815260206004820152601b60248201527f4552433230466c6173684d696e743a2077726f6e6720746f6b656e00000000006044820152fd5b156120bf57565b608460405162461bcd60e51b815260206004820152602b60248201527f4552433230466c6173684d696e743a20616d6f756e742065786365656473206d60448201527f6178466c6173684c6f616e0000000000000000000000000000000000000000006064820152fd5b9081602091031261000e575190565b94919286949160c097946001600160a01b0380921688521660208701526040860152606085015260a060808501528160a0850152848401376000828201840152601f01601f1916010190565b506040513d6000823e3d90fd5b1561219857565b608460405162461bcd60e51b8152602060048201526024808201527f4552433230466c6173684d696e743a20696e76616c69642072657475726e207660448201527f616c7565000000000000000000000000000000000000000000000000000000006064820152fd5b7f439148f0bbc682ca079e46d6e2c2f0c1e3b820f1a291b069d8882abf8cf18dd9906020846122b7946122996001600160a01b03979961224b61224384612013565b8511156120b8565b6122558484612030565b9889961699612264858c613424565b60405196879586957f23e30c8b0000000000000000000000000000000000000000000000000000000087523360048801612138565b03816000895af190811561233a575b60009161230c575b5014612191565b6122cb6122c48285611b84565b3084611f53565b80158015612304575b156122f1576122e6906122ec93611b84565b9061346d565b600190565b506122ff6122ec928261346d565b611c59565b5060016122d4565b61232d915060203d8111612333575b6123258183611a9a565b810190612129565b386122b0565b503d61231b565b612342612184565b6122a8565b60405190611b8282611a55565b50634e487b7160e01b600052603260045260246000fd5b8054821015612384575b60005260206000200190600090565b61238c612354565b612375565b9060405161239e81611a55565b602081935463ffffffff81168352811c910152565b156123ba57565b606460405162461bcd60e51b815260206004820152601f60248201527f4552433230566f7465733a20626c6f636b206e6f7420796574206d696e6564006044820152fd5b1561240557565b606460405162461bcd60e51b815260206004820152601960248201527f4552433230566f7465733a20696e76616c6964206e6f6e6365000000000000006044820152fd5b611b82916001600160a01b038092166000928184526009602052806040852054168092856020527f3134e8a2e6d97e929a7e54011ea5485d7d196dd5f0ba4d4ef95803e8e3fc257f60408720549660096020526040812094871694857fffffffffffffffffffffffff000000000000000000000000000000000000000082541617905580a45b91906001600160a01b03808216931683811415806126c3575b6124f25750505050565b80612565575b5082612505575b80611f92565b7fdec2bacdd2f05b59de34da9b523dff8be42e5e38e818c82fdb0bae774387a7249161254761254c926001600160a01b0316600052600a602052604060002090565b612904565b60408051928352602083019190915290a23880806124ff565b80600052600a6020527fdec2bacdd2f05b59de34da9b523dff8be42e5e38e818c82fdb0bae774387a724604060002080548015918260001461269c576125a9612347565b6000815260006020820152915b6125d96125cd60208501516001600160e01b031690565b6001600160e01b031690565b926125e48985613503565b94159081612685575b50156126395761260c612623926108c3612606876131b9565b93611ff7565b9063ffffffff82549181199060201b169116179055565b604080519182526020820192909252a2386124f8565b506126809061264743613237565b9061267b612654866131b9565b61266b61265f612347565b63ffffffff9095168552565b6001600160e01b03166020840152565b612765565b612623565b5163ffffffff16905063ffffffff164314386125ed565b6126bd6126b86126ab84611ff7565b8360005260206000200190565b612391565b916125b6565b508215156124e8565b611b82906001600160e01b036020600b5468010000000000000000811015612758575b6001810180600b5581101561274b575b600b600052835191909301519190911660201b63ffffffff191663ffffffff91909116177f0175b7a638427703f0dbe7bb9bbf987a2551717b34e79f33b5b1008d1fa01db99190910155565b612753612354565b6126ff565b612760611a3e565b6126ef565b805461278891680100000000000000008210156127c5575b60018201815561236b565b6127af57815160209283015190921b63ffffffff191663ffffffff92909216919091179055565b634e487b7160e01b600052600060045260246000fd5b6127cd611a3e565b61277d565b600b5490918115918215612899576127e8612347565b60008152600060208201525b61281561280e6125cd60208401516001600160e01b031690565b9586613510565b93159081612882575b501561283d57611b829061260c610ff0612837866131b9565b92611ff7565b50611b8261284a43613237565b61287d612856856131b9565b61286d612861612347565b63ffffffff9094168452565b6001600160e01b03166020830152565b6126cc565b5163ffffffff16905063ffffffff1643143861281e565b6128a86126b8610ff083611ff7565b6127f4565b600b54909181159182156128f0576128c3612347565b60008152600060208201525b6128156128e96125cd60208401516001600160e01b031690565b9586613503565b6128ff6126b8610ff083611ff7565b6128cf565b9091815491821592836000146129905761291c612347565b60008152600060208201525b6129496129426125cd60208401516001600160e01b031690565b9687613510565b94159081612979575b501561296b5761260c611b82926108c3612606876131b9565b50611b829061264743613237565b5163ffffffff16905063ffffffff16431438612952565b6129ac6126b861299f83611ff7565b8460005260206000200190565b612928565b156129b857565b606460405162461bcd60e51b815260206004820152601e60248201527f45524332305065726d69743a20696e76616c6964207369676e617475726500006044820152fd5b604051906080820182811067ffffffffffffffff821117612a29575b604052604282526060366020840137565b612a31611a3e565b612a18565b602090805115612a44570190565b611a3a612354565b602190805160011015612a44570190565b906020918051821015612a6f57010190565b612a77612354565b010190565b8015612a8a575b6000190190565b612a92611b55565b612a83565b15612a9e57565b606460405162461bcd60e51b815260206004820152602060248201527f537472696e67733a20686578206c656e67746820696e73756666696369656e746044820152fd5b604051906060820182811067ffffffffffffffff821117612b72575b604052602a825260403660208401376030612b1883612a36565b536078612b2483612a4c565b536029905b60018211612b3c5761202d915015612a97565b806f181899199a1a9b1b9c1cb0b131b232b360811b600f612b6c93166010811015611a1a571a611a0b8486612a5d565b90612b29565b612b7a611a3e565b612afe565b7f65d7a28e3265b37a6474929f336521b332c1681b933f6cb9f3376673440d862a612ba86129fc565b906030612bb483612a36565b536078612bc083612a4c565b536041905b60018211612bd85761202d915015612a97565b806f181899199a1a9b1b9c1cb0b131b232b360811b600f612c0893166010811015611a1a571a611a0b8486612a5d565b90612bc5565b7f9f2df0fed2c77648de5860a4cc508cd0818c85b8b8a1ab4ceeef8d981c8956a6612c376129fc565b906030612c4383612a36565b536078612c4f83612a4c565b536041905b60018211612c675761202d915015612a97565b806f181899199a1a9b1b9c1cb0b131b232b360811b600f612c9793166010811015611a1a571a611a0b8486612a5d565b90612c54565b9161202d9391612cac93612e0f565b919091612cd4565b60051115612cbe57565b634e487b7160e01b600052602160045260246000fd5b612cdd81612cb4565b80612ce55750565b612cee81612cb4565b60018103612d3b5760405162461bcd60e51b815260206004820152601860248201527f45434453413a20696e76616c6964207369676e617475726500000000000000006044820152606490fd5b612d4481612cb4565b60028103612d915760405162461bcd60e51b815260206004820152601f60248201527f45434453413a20696e76616c6964207369676e6174757265206c656e677468006044820152606490fd5b80612d9d600392612cb4565b14612da457565b60405162461bcd60e51b815260206004820152602260248201527f45434453413a20696e76616c6964207369676e6174757265202773272076616c60448201527f75650000000000000000000000000000000000000000000000000000000000006064820152608490fd5b9291907f7fffffffffffffffffffffffffffffff5d576e7357a4501ddfe92f46681b20a08311612e935791608094939160ff602094604051948552168484015260408301526060820152600093849182805260015afa15612e86575b81516001600160a01b03811615612e80579190565b50600190565b612e8e612184565b612e6b565b50505050600090600390565b6001600160a01b037f000000000000000000000000000000000000000000000000000000000000000016301480612f90575b15612efa577f000000000000000000000000000000000000000000000000000000000000000090565b60405160208101907f000000000000000000000000000000000000000000000000000000000000000082527f000000000000000000000000000000000000000000000000000000000000000060408201527f000000000000000000000000000000000000000000000000000000000000000060608201524660808201523060a082015260a08152612f8a81611a7e565b51902090565b507f00000000000000000000000000000000000000000000000000000000000000004614612ed1565b612fc1612e9f565b906040519060208201927f1901000000000000000000000000000000000000000000000000000000000000845260228301526042820152604281526080810181811067ffffffffffffffff82111761301d575b60405251902090565b613025611a3e565b613014565b8115613034570490565b634e487b7160e01b600052601260045260246000fd5b90808216911860011c810180911161305f5790565b61202d611b55565b80156131a1578061313a61313361312961311f61311561310b6131016130f7600161202d9a6000908b60801c80613195575b508060401c80613188575b508060201c8061317b575b508060101c8061316e575b508060081c80613161575b508060041c80613154575b508060021c80613147575b50821c613140575b811c1b6130f0818b61302a565b0160011c90565b6130f0818a61302a565b6130f0818961302a565b6130f0818861302a565b6130f0818761302a565b6130f0818661302a565b6130f0818561302a565b809261302a565b906131a7565b81016130e3565b60029150910190386130db565b60049150910190386130d0565b60089150910190386130c5565b60109150910190386130ba565b60209150910190386130af565b60409150910190386130a4565b91505060809038613099565b50600090565b90808210156131b4575090565b905090565b6001600160e01b03908181116131cd571690565b608460405162461bcd60e51b815260206004820152602760248201527f53616665436173743a2076616c756520646f65736e27742066697420696e203260448201527f32342062697473000000000000000000000000000000000000000000000000006064820152fd5b63ffffffff90818111613248571690565b608460405162461bcd60e51b815260206004820152602660248201527f53616665436173743a2076616c756520646f65736e27742066697420696e203360448201527f32206269747300000000000000000000000000000000000000000000000000006064820152fd5b60ff600554166132be57565b606460405162461bcd60e51b815260206004820152601060248201527f5061757361626c653a20706175736564000000000000000000000000000000006044820152fd5b60096020527fec8156718a8372b1db44bb411437d0870f3e3790d4a08526d024ce1b0b668f6b546001600160a01b0391821660009081526040902054611b82939290811691166124cf565b90611b82916001600160a01b0380911660005260096020528060406000205416906000805260406000205416906124cf565b90611b8292916001600160a01b038091166000526009602052808060406000205416921660005260406000205416906124cf565b156133ba57565b608460405162461bcd60e51b815260206004820152603060248201527f4552433230566f7465733a20746f74616c20737570706c79207269736b73206f60448201527f766572666c6f77696e6720766f746573000000000000000000000000000000006064820152fd5b906001600160a01b038216918215610aeb5781610ad19161345c946134476132b2565b610a7a60025484810180911161346057600255565b5050565b613468611b55565b610a75565b906001600160a01b038216918215610bed5781610be891600061345c95610e706132b2565b1561349957565b608460405162461bcd60e51b815260206004820152602260248201527f45524332303a206275726e20616d6f756e7420657863656564732062616c616e60448201527f63650000000000000000000000000000000000000000000000000000000000006064820152fd5b90810390811161305f5790565b90810180911161305f579056fea26469706673582212203a68743aca2912c39246b14629f05dbc9837c06c4f8ffb45d303bdeff2cf974064736f6c634300081100332f8788117e7eff1d82e926ec794901d17c78024a50270940304540a733656f0d8b73c3c69bb8fe3d512ecc4cf759cc79239f7b179b0ffacaa9a75d522b39400fdec2bacdd2f05b59de34da9b523dff8be42e5e38e818c82fdb0bae774387a724",
  "linkReferences": {},
  "deployedLinkReferences": {}
}