{
  "_format": "hh-sol-artifact-1",
  "contractName": "SyntheX",
  "sourceName": "contracts/SyntheX.sol",
  "abi": [
    {
      "inputs": [],
      "stateMutability": "nonpayable",
      "type": "constructor"
    },
    {
      "anonymous": false,
      "inputs": [
        {
          "indexed": false,
          "internalType": "address",
          "name": "previousAdmin",
          "type": "address"
        },
        {
          "indexed": false,
          "internalType": "address",
          "name": "newAdmin",
          "type": "address"
        }
      ],
      "name": "AdminChanged",
      "type": "event"
    },
    {
      "anonymous": false,
      "inputs": [
        {
          "indexed": true,
          "internalType": "address",
          "name": "beacon",
          "type": "address"
        }
      ],
      "name": "BeaconUpgraded",
      "type": "event"
    },
    {
      "anonymous": false,
      "inputs": [
        {
          "indexed": true,
          "internalType": "address",
          "name": "user",
          "type": "address"
        },
        {
          "indexed": true,
          "internalType": "address",
          "name": "tradingPool",
          "type": "address"
        },
        {
          "indexed": true,
          "internalType": "address",
          "name": "asset",
          "type": "address"
        },
        {
          "indexed": false,
          "internalType": "uint256",
          "name": "amount",
          "type": "uint256"
        }
      ],
      "name": "Burn",
      "type": "event"
    },
    {
      "anonymous": false,
      "inputs": [
        {
          "indexed": true,
          "internalType": "address",
          "name": "asset",
          "type": "address"
        }
      ],
      "name": "CollateralDisabled",
      "type": "event"
    },
    {
      "anonymous": false,
      "inputs": [
        {
          "indexed": true,
          "internalType": "address",
          "name": "asset",
          "type": "address"
        },
        {
          "indexed": false,
          "internalType": "uint256",
          "name": "volatilityRatio",
          "type": "uint256"
        }
      ],
      "name": "CollateralEnabled",
      "type": "event"
    },
    {
      "anonymous": false,
      "inputs": [
        {
          "indexed": true,
          "internalType": "address",
          "name": "asset",
          "type": "address"
        }
      ],
      "name": "CollateralRemoved",
      "type": "event"
    },
    {
      "anonymous": false,
      "inputs": [
        {
          "indexed": true,
          "internalType": "address",
          "name": "user",
          "type": "address"
        },
        {
          "indexed": true,
          "internalType": "address",
          "name": "asset",
          "type": "address"
        },
        {
          "indexed": false,
          "internalType": "uint256",
          "name": "amount",
          "type": "uint256"
        }
      ],
      "name": "Deposit",
      "type": "event"
    },
    {
      "anonymous": false,
      "inputs": [
        {
          "indexed": true,
          "internalType": "address",
          "name": "pool",
          "type": "address"
        },
        {
          "indexed": false,
          "internalType": "address",
          "name": "_account",
          "type": "address"
        },
        {
          "indexed": false,
          "internalType": "uint256",
          "name": "accountDelta",
          "type": "uint256"
        },
        {
          "indexed": false,
          "internalType": "uint256",
          "name": "rewardIndex",
          "type": "uint256"
        }
      ],
      "name": "DistributedSYN",
      "type": "event"
    },
    {
      "anonymous": false,
      "inputs": [
        {
          "indexed": true,
          "internalType": "address",
          "name": "user",
          "type": "address"
        },
        {
          "indexed": true,
          "internalType": "address",
          "name": "tradingPool",
          "type": "address"
        },
        {
          "indexed": true,
          "internalType": "address",
          "name": "fromAsset",
          "type": "address"
        },
        {
          "indexed": false,
          "internalType": "address",
          "name": "toAsset",
          "type": "address"
        },
        {
          "indexed": false,
          "internalType": "uint256",
          "name": "fromAmount",
          "type": "uint256"
        },
        {
          "indexed": false,
          "internalType": "uint256",
          "name": "toAmount",
          "type": "uint256"
        }
      ],
      "name": "Exchange",
      "type": "event"
    },
    {
      "anonymous": false,
      "inputs": [
        {
          "indexed": false,
          "internalType": "uint8",
          "name": "version",
          "type": "uint8"
        }
      ],
      "name": "Initialized",
      "type": "event"
    },
    {
      "anonymous": false,
      "inputs": [
        {
          "indexed": true,
          "internalType": "address",
          "name": "user",
          "type": "address"
        },
        {
          "indexed": true,
          "internalType": "address",
          "name": "tradingPool",
          "type": "address"
        },
        {
          "indexed": true,
          "internalType": "address",
          "name": "asset",
          "type": "address"
        },
        {
          "indexed": false,
          "internalType": "uint256",
          "name": "amount",
          "type": "uint256"
        }
      ],
      "name": "Issue",
      "type": "event"
    },
    {
      "anonymous": false,
      "inputs": [
        {
          "indexed": false,
          "internalType": "uint256",
          "name": "_exchangeFee",
          "type": "uint256"
        }
      ],
      "name": "NewExchangeFee",
      "type": "event"
    },
    {
      "anonymous": false,
      "inputs": [
        {
          "indexed": true,
          "internalType": "address",
          "name": "oracle",
          "type": "address"
        }
      ],
      "name": "NewPriceOracle",
      "type": "event"
    },
    {
      "anonymous": false,
      "inputs": [
        {
          "indexed": false,
          "internalType": "address",
          "name": "account",
          "type": "address"
        }
      ],
      "name": "Paused",
      "type": "event"
    },
    {
      "anonymous": false,
      "inputs": [
        {
          "indexed": true,
          "internalType": "bytes32",
          "name": "role",
          "type": "bytes32"
        },
        {
          "indexed": true,
          "internalType": "bytes32",
          "name": "previousAdminRole",
          "type": "bytes32"
        },
        {
          "indexed": true,
          "internalType": "bytes32",
          "name": "newAdminRole",
          "type": "bytes32"
        }
      ],
      "name": "RoleAdminChanged",
      "type": "event"
    },
    {
      "anonymous": false,
      "inputs": [
        {
          "indexed": true,
          "internalType": "bytes32",
          "name": "role",
          "type": "bytes32"
        },
        {
          "indexed": true,
          "internalType": "address",
          "name": "account",
          "type": "address"
        },
        {
          "indexed": true,
          "internalType": "address",
          "name": "sender",
          "type": "address"
        }
      ],
      "name": "RoleGranted",
      "type": "event"
    },
    {
      "anonymous": false,
      "inputs": [
        {
          "indexed": true,
          "internalType": "bytes32",
          "name": "role",
          "type": "bytes32"
        },
        {
          "indexed": true,
          "internalType": "address",
          "name": "account",
          "type": "address"
        },
        {
          "indexed": true,
          "internalType": "address",
          "name": "sender",
          "type": "address"
        }
      ],
      "name": "RoleRevoked",
      "type": "event"
    },
    {
      "anonymous": false,
      "inputs": [
        {
          "indexed": true,
          "internalType": "address",
          "name": "pool",
          "type": "address"
        },
        {
          "indexed": false,
          "internalType": "uint256",
          "name": "rewardSpeed",
          "type": "uint256"
        }
      ],
      "name": "SetPoolRewardSpeed",
      "type": "event"
    },
    {
      "anonymous": false,
      "inputs": [
        {
          "indexed": true,
          "internalType": "address",
          "name": "pool",
          "type": "address"
        }
      ],
      "name": "TradingPoolDisabled",
      "type": "event"
    },
    {
      "anonymous": false,
      "inputs": [
        {
          "indexed": true,
          "internalType": "address",
          "name": "pool",
          "type": "address"
        },
        {
          "indexed": false,
          "internalType": "uint256",
          "name": "volatilityRatio",
          "type": "uint256"
        }
      ],
      "name": "TradingPoolEnabled",
      "type": "event"
    },
    {
      "anonymous": false,
      "inputs": [
        {
          "indexed": true,
          "internalType": "address",
          "name": "pool",
          "type": "address"
        }
      ],
      "name": "TradingPoolRemoved",
      "type": "event"
    },
    {
      "anonymous": false,
      "inputs": [
        {
          "indexed": false,
          "internalType": "address",
          "name": "account",
          "type": "address"
        }
      ],
      "name": "Unpaused",
      "type": "event"
    },
    {
      "anonymous": false,
      "inputs": [
        {
          "indexed": true,
          "internalType": "address",
          "name": "implementation",
          "type": "address"
        }
      ],
      "name": "Upgraded",
      "type": "event"
    },
    {
      "anonymous": false,
      "inputs": [
        {
          "indexed": true,
          "internalType": "address",
          "name": "user",
          "type": "address"
        },
        {
          "indexed": true,
          "internalType": "address",
          "name": "asset",
          "type": "address"
        },
        {
          "indexed": false,
          "internalType": "uint256",
          "name": "amount",
          "type": "uint256"
        }
      ],
      "name": "Withdraw",
      "type": "event"
    },
    {
      "inputs": [],
      "name": "ADMIN_ROLE",
      "outputs": [
        {
          "internalType": "bytes32",
          "name": "",
          "type": "bytes32"
        }
      ],
      "stateMutability": "view",
      "type": "function"
    },
    {
      "inputs": [],
      "name": "DEFAULT_ADMIN_ROLE",
      "outputs": [
        {
          "internalType": "bytes32",
          "name": "",
          "type": "bytes32"
        }
      ],
      "stateMutability": "view",
      "type": "function"
    },
    {
      "inputs": [],
      "name": "PAUSE_GUARDIAN_ROLE",
      "outputs": [
        {
          "internalType": "bytes32",
          "name": "",
          "type": "bytes32"
        }
      ],
      "stateMutability": "view",
      "type": "function"
    },
    {
      "inputs": [],
      "name": "POOL_MANAGER_ROLE",
      "outputs": [
        {
          "internalType": "bytes32",
          "name": "",
          "type": "bytes32"
        }
      ],
      "stateMutability": "view",
      "type": "function"
    },
    {
      "inputs": [
        {
          "internalType": "address",
          "name": "",
          "type": "address"
        },
        {
          "internalType": "address",
          "name": "",
          "type": "address"
        }
      ],
      "name": "accountCollateralBalance",
      "outputs": [
        {
          "internalType": "uint256",
          "name": "",
          "type": "uint256"
        }
      ],
      "stateMutability": "view",
      "type": "function"
    },
    {
      "inputs": [
        {
          "internalType": "address",
          "name": "",
          "type": "address"
        },
        {
          "internalType": "uint256",
          "name": "",
          "type": "uint256"
        }
      ],
      "name": "accountCollaterals",
      "outputs": [
        {
          "internalType": "address",
          "name": "",
          "type": "address"
        }
      ],
      "stateMutability": "view",
      "type": "function"
    },
    {
      "inputs": [
        {
          "internalType": "address",
          "name": "",
          "type": "address"
        },
        {
          "internalType": "uint256",
          "name": "",
          "type": "uint256"
        }
      ],
      "name": "accountPools",
      "outputs": [
        {
          "internalType": "address",
          "name": "",
          "type": "address"
        }
      ],
      "stateMutability": "view",
      "type": "function"
    },
    {
      "inputs": [
        {
          "internalType": "address",
          "name": "_tradingPool",
          "type": "address"
        },
        {
          "internalType": "address",
          "name": "_synth",
          "type": "address"
        },
        {
          "internalType": "uint256",
          "name": "_amount",
          "type": "uint256"
        }
      ],
      "name": "burn",
      "outputs": [],
      "stateMutability": "nonpayable",
      "type": "function"
    },
    {
      "inputs": [
        {
          "internalType": "address",
          "name": "holder",
          "type": "address"
        },
        {
          "internalType": "address[]",
          "name": "cTokens",
          "type": "address[]"
        }
      ],
      "name": "claimSYN",
      "outputs": [],
      "stateMutability": "nonpayable",
      "type": "function"
    },
    {
      "inputs": [
        {
          "internalType": "address",
          "name": "holder",
          "type": "address"
        }
      ],
      "name": "claimSYN",
      "outputs": [],
      "stateMutability": "nonpayable",
      "type": "function"
    },
    {
      "inputs": [
        {
          "internalType": "address[]",
          "name": "holders",
          "type": "address[]"
        },
        {
          "internalType": "address[]",
          "name": "_tradingPools",
          "type": "address[]"
        }
      ],
      "name": "claimSYN",
      "outputs": [],
      "stateMutability": "nonpayable",
      "type": "function"
    },
    {
      "inputs": [
        {
          "internalType": "address",
          "name": "market",
          "type": "address"
        },
        {
          "internalType": "address",
          "name": "account",
          "type": "address"
        }
      ],
      "name": "collateralMembership",
      "outputs": [
        {
          "internalType": "bool",
          "name": "",
          "type": "bool"
        }
      ],
      "stateMutability": "view",
      "type": "function"
    },
    {
      "inputs": [
        {
          "internalType": "address",
          "name": "",
          "type": "address"
        }
      ],
      "name": "collaterals",
      "outputs": [
        {
          "internalType": "bool",
          "name": "isEnabled",
          "type": "bool"
        },
        {
          "internalType": "uint256",
          "name": "volatilityRatio",
          "type": "uint256"
        }
      ],
      "stateMutability": "view",
      "type": "function"
    },
    {
      "inputs": [
        {
          "internalType": "uint256",
          "name": "",
          "type": "uint256"
        }
      ],
      "name": "collateralsList",
      "outputs": [
        {
          "internalType": "address",
          "name": "",
          "type": "address"
        }
      ],
      "stateMutability": "view",
      "type": "function"
    },
    {
      "inputs": [],
      "name": "compInitialIndex",
      "outputs": [
        {
          "internalType": "uint256",
          "name": "",
          "type": "uint256"
        }
      ],
      "stateMutability": "view",
      "type": "function"
    },
    {
      "inputs": [
        {
          "internalType": "address",
          "name": "_collateral",
          "type": "address"
        },
        {
          "internalType": "uint256",
          "name": "_amount",
          "type": "uint256"
        }
      ],
      "name": "deposit",
      "outputs": [],
      "stateMutability": "payable",
      "type": "function"
    },
    {
      "inputs": [
        {
          "internalType": "address",
          "name": "_collateral",
          "type": "address"
        }
      ],
      "name": "disableCollateral",
      "outputs": [],
      "stateMutability": "nonpayable",
      "type": "function"
    },
    {
      "inputs": [
        {
          "internalType": "address",
          "name": "_tradingPool",
          "type": "address"
        }
      ],
      "name": "disableTradingPool",
      "outputs": [],
      "stateMutability": "nonpayable",
      "type": "function"
    },
    {
      "inputs": [
        {
          "internalType": "address",
          "name": "_collateral",
          "type": "address"
        },
        {
          "internalType": "uint256",
          "name": "_volatilityRatio",
          "type": "uint256"
        }
      ],
      "name": "enableCollateral",
      "outputs": [],
      "stateMutability": "nonpayable",
      "type": "function"
    },
    {
      "inputs": [
        {
          "internalType": "address",
          "name": "_tradingPool",
          "type": "address"
        },
        {
          "internalType": "uint256",
          "name": "_volatilityRatio",
          "type": "uint256"
        }
      ],
      "name": "enableTradingPool",
      "outputs": [],
      "stateMutability": "nonpayable",
      "type": "function"
    },
    {
      "inputs": [
        {
          "internalType": "address",
          "name": "_collateral",
          "type": "address"
        },
        {
          "internalType": "uint256",
          "name": "_amount",
          "type": "uint256"
        }
      ],
      "name": "enterAndDeposit",
      "outputs": [],
      "stateMutability": "payable",
      "type": "function"
    },
    {
      "inputs": [
        {
          "internalType": "address",
          "name": "_tradingPool",
          "type": "address"
        },
        {
          "internalType": "address",
          "name": "_synth",
          "type": "address"
        },
        {
          "internalType": "uint256",
          "name": "_amount",
          "type": "uint256"
        }
      ],
      "name": "enterAndIssue",
      "outputs": [],
      "stateMutability": "nonpayable",
      "type": "function"
    },
    {
      "inputs": [
        {
          "internalType": "address",
          "name": "_collateral",
          "type": "address"
        }
      ],
      "name": "enterCollateral",
      "outputs": [],
      "stateMutability": "nonpayable",
      "type": "function"
    },
    {
      "inputs": [
        {
          "internalType": "address",
          "name": "_tradingPool",
          "type": "address"
        }
      ],
      "name": "enterPool",
      "outputs": [],
      "stateMutability": "nonpayable",
      "type": "function"
    },
    {
      "inputs": [
        {
          "internalType": "address",
          "name": "_tradingPool",
          "type": "address"
        },
        {
          "internalType": "address",
          "name": "_synthFrom",
          "type": "address"
        },
        {
          "internalType": "address",
          "name": "_synthTo",
          "type": "address"
        },
        {
          "internalType": "uint256",
          "name": "_amount",
          "type": "uint256"
        }
      ],
      "name": "exchange",
      "outputs": [],
      "stateMutability": "nonpayable",
      "type": "function"
    },
    {
      "inputs": [],
      "name": "exchangeFee",
      "outputs": [
        {
          "internalType": "uint256",
          "name": "",
          "type": "uint256"
        }
      ],
      "stateMutability": "view",
      "type": "function"
    },
    {
      "inputs": [],
      "name": "exchangeFeeMantissa",
      "outputs": [
        {
          "internalType": "uint256",
          "name": "",
          "type": "uint256"
        }
      ],
      "stateMutability": "view",
      "type": "function"
    },
    {
      "inputs": [
        {
          "internalType": "address",
          "name": "_collateral",
          "type": "address"
        }
      ],
      "name": "exitCollateral",
      "outputs": [],
      "stateMutability": "nonpayable",
      "type": "function"
    },
    {
      "inputs": [
        {
          "internalType": "address",
          "name": "_tradingPool",
          "type": "address"
        }
      ],
      "name": "exitPool",
      "outputs": [],
      "stateMutability": "nonpayable",
      "type": "function"
    },
    {
      "inputs": [
        {
          "internalType": "address",
          "name": "_account",
          "type": "address"
        }
      ],
      "name": "getAdjustedUserTotalCollateralUSD",
      "outputs": [
        {
          "internalType": "uint256",
          "name": "",
          "type": "uint256"
        }
      ],
      "stateMutability": "view",
      "type": "function"
    },
    {
      "inputs": [
        {
          "internalType": "address",
          "name": "_account",
          "type": "address"
        }
      ],
      "name": "getAdjustedUserTotalDebtUSD",
      "outputs": [
        {
          "internalType": "uint256",
          "name": "",
          "type": "uint256"
        }
      ],
      "stateMutability": "view",
      "type": "function"
    },
    {
      "inputs": [
        {
          "internalType": "address",
          "name": "_account",
          "type": "address"
        }
      ],
      "name": "getLTV",
      "outputs": [
        {
          "internalType": "uint256",
          "name": "",
          "type": "uint256"
        }
      ],
      "stateMutability": "view",
      "type": "function"
    },
    {
      "inputs": [
        {
          "internalType": "address",
          "name": "_tradingPool",
          "type": "address"
        }
      ],
      "name": "getPoolTotalDebtUSD",
      "outputs": [
        {
          "internalType": "uint256",
          "name": "",
          "type": "uint256"
        }
      ],
      "stateMutability": "view",
      "type": "function"
    },
    {
      "inputs": [
        {
          "internalType": "bytes32",
          "name": "role",
          "type": "bytes32"
        }
      ],
      "name": "getRoleAdmin",
      "outputs": [
        {
          "internalType": "bytes32",
          "name": "",
          "type": "bytes32"
        }
      ],
      "stateMutability": "view",
      "type": "function"
    },
    {
      "inputs": [
        {
          "internalType": "address",
          "name": "_account",
          "type": "address"
        }
      ],
      "name": "getSYNAccrued",
      "outputs": [
        {
          "internalType": "uint256",
          "name": "",
          "type": "uint256"
        }
      ],
      "stateMutability": "nonpayable",
      "type": "function"
    },
    {
      "inputs": [
        {
          "internalType": "address",
          "name": "_account",
          "type": "address"
        },
        {
          "internalType": "address",
          "name": "_tradingPool",
          "type": "address"
        }
      ],
      "name": "getUserPoolDebtUSD",
      "outputs": [
        {
          "internalType": "uint256",
          "name": "",
          "type": "uint256"
        }
      ],
      "stateMutability": "view",
      "type": "function"
    },
    {
      "inputs": [
        {
          "internalType": "address",
          "name": "_account",
          "type": "address"
        }
      ],
      "name": "getUserTotalCollateralUSD",
      "outputs": [
        {
          "internalType": "uint256",
          "name": "",
          "type": "uint256"
        }
      ],
      "stateMutability": "view",
      "type": "function"
    },
    {
      "inputs": [
        {
          "internalType": "address",
          "name": "_account",
          "type": "address"
        }
      ],
      "name": "getUserTotalDebtUSD",
      "outputs": [
        {
          "internalType": "uint256",
          "name": "",
          "type": "uint256"
        }
      ],
      "stateMutability": "view",
      "type": "function"
    },
    {
      "inputs": [
        {
          "internalType": "bytes32",
          "name": "role",
          "type": "bytes32"
        },
        {
          "internalType": "address",
          "name": "account",
          "type": "address"
        }
      ],
      "name": "grantRole",
      "outputs": [],
      "stateMutability": "nonpayable",
      "type": "function"
    },
    {
      "inputs": [
        {
          "internalType": "bytes32",
          "name": "role",
          "type": "bytes32"
        },
        {
          "internalType": "address",
          "name": "account",
          "type": "address"
        }
      ],
      "name": "hasRole",
      "outputs": [
        {
          "internalType": "bool",
          "name": "",
          "type": "bool"
        }
      ],
      "stateMutability": "view",
      "type": "function"
    },
    {
      "inputs": [
        {
          "internalType": "address",
          "name": "_account",
          "type": "address"
        }
      ],
      "name": "healthFactor",
      "outputs": [
        {
          "internalType": "uint256",
          "name": "",
          "type": "uint256"
        }
      ],
      "stateMutability": "view",
      "type": "function"
    },
    {
      "inputs": [
        {
          "internalType": "address",
          "name": "_syn",
          "type": "address"
        },
        {
          "internalType": "address",
          "name": "admin",
          "type": "address"
        },
        {
          "internalType": "address",
          "name": "pauser",
          "type": "address"
        },
        {
          "internalType": "address",
          "name": "poolManager",
          "type": "address"
        }
      ],
      "name": "initialize",
      "outputs": [],
      "stateMutability": "nonpayable",
      "type": "function"
    },
    {
      "inputs": [
        {
          "internalType": "address",
          "name": "_tradingPool",
          "type": "address"
        },
        {
          "internalType": "address",
          "name": "_synth",
          "type": "address"
        },
        {
          "internalType": "uint256",
          "name": "_amount",
          "type": "uint256"
        }
      ],
      "name": "issue",
      "outputs": [],
      "stateMutability": "nonpayable",
      "type": "function"
    },
    {
      "inputs": [
        {
          "internalType": "address",
          "name": "_account",
          "type": "address"
        },
        {
          "internalType": "address",
          "name": "_tradingPool",
          "type": "address"
        },
        {
          "internalType": "address",
          "name": "_inAsset",
          "type": "address"
        },
        {
          "internalType": "uint256",
          "name": "_inAmount",
          "type": "uint256"
        },
        {
          "internalType": "address",
          "name": "_outAsset",
          "type": "address"
        }
      ],
      "name": "liquidate",
      "outputs": [],
      "stateMutability": "nonpayable",
      "type": "function"
    },
    {
      "inputs": [],
      "name": "oracle",
      "outputs": [
        {
          "internalType": "contract PriceOracle",
          "name": "",
          "type": "address"
        }
      ],
      "stateMutability": "view",
      "type": "function"
    },
    {
      "inputs": [],
      "name": "pause",
      "outputs": [],
      "stateMutability": "nonpayable",
      "type": "function"
    },
    {
      "inputs": [],
      "name": "paused",
      "outputs": [
        {
          "internalType": "bool",
          "name": "",
          "type": "bool"
        }
      ],
      "stateMutability": "view",
      "type": "function"
    },
    {
      "inputs": [],
      "name": "proxiableUUID",
      "outputs": [
        {
          "internalType": "bytes32",
          "name": "",
          "type": "bytes32"
        }
      ],
      "stateMutability": "view",
      "type": "function"
    },
    {
      "inputs": [
        {
          "internalType": "address",
          "name": "_collateral",
          "type": "address"
        }
      ],
      "name": "removeCollateral",
      "outputs": [],
      "stateMutability": "nonpayable",
      "type": "function"
    },
    {
      "inputs": [
        {
          "internalType": "address",
          "name": "_tradingPool",
          "type": "address"
        }
      ],
      "name": "removeTradingPool",
      "outputs": [],
      "stateMutability": "nonpayable",
      "type": "function"
    },
    {
      "inputs": [
        {
          "internalType": "bytes32",
          "name": "role",
          "type": "bytes32"
        },
        {
          "internalType": "address",
          "name": "account",
          "type": "address"
        }
      ],
      "name": "renounceRole",
      "outputs": [],
      "stateMutability": "nonpayable",
      "type": "function"
    },
    {
      "inputs": [
        {
          "internalType": "bytes32",
          "name": "role",
          "type": "bytes32"
        },
        {
          "internalType": "address",
          "name": "account",
          "type": "address"
        }
      ],
      "name": "revokeRole",
      "outputs": [],
      "stateMutability": "nonpayable",
      "type": "function"
    },
    {
      "inputs": [],
      "name": "safeCRatio",
      "outputs": [
        {
          "internalType": "uint256",
          "name": "",
          "type": "uint256"
        }
      ],
      "stateMutability": "view",
      "type": "function"
    },
    {
      "inputs": [
        {
          "internalType": "uint256",
          "name": "_exchangeFee",
          "type": "uint256"
        }
      ],
      "name": "setExchangeFee",
      "outputs": [],
      "stateMutability": "nonpayable",
      "type": "function"
    },
    {
      "inputs": [
        {
          "internalType": "address",
          "name": "_oracle",
          "type": "address"
        }
      ],
      "name": "setOracle",
      "outputs": [],
      "stateMutability": "nonpayable",
      "type": "function"
    },
    {
      "inputs": [
        {
          "internalType": "address",
          "name": "_tradingPool",
          "type": "address"
        },
        {
          "internalType": "uint256",
          "name": "_speed",
          "type": "uint256"
        }
      ],
      "name": "setPoolSpeed",
      "outputs": [],
      "stateMutability": "nonpayable",
      "type": "function"
    },
    {
      "inputs": [
        {
          "internalType": "bytes4",
          "name": "interfaceId",
          "type": "bytes4"
        }
      ],
      "name": "supportsInterface",
      "outputs": [
        {
          "internalType": "bool",
          "name": "",
          "type": "bool"
        }
      ],
      "stateMutability": "view",
      "type": "function"
    },
    {
      "inputs": [],
      "name": "syn",
      "outputs": [
        {
          "internalType": "contract SyntheXToken",
          "name": "",
          "type": "address"
        }
      ],
      "stateMutability": "view",
      "type": "function"
    },
    {
      "inputs": [
        {
          "internalType": "address",
          "name": "",
          "type": "address"
        }
      ],
      "name": "synAccrued",
      "outputs": [
        {
          "internalType": "uint256",
          "name": "",
          "type": "uint256"
        }
      ],
      "stateMutability": "view",
      "type": "function"
    },
    {
      "inputs": [
        {
          "internalType": "address",
          "name": "",
          "type": "address"
        },
        {
          "internalType": "address",
          "name": "",
          "type": "address"
        }
      ],
      "name": "synBorrowerIndex",
      "outputs": [
        {
          "internalType": "uint256",
          "name": "",
          "type": "uint256"
        }
      ],
      "stateMutability": "view",
      "type": "function"
    },
    {
      "inputs": [
        {
          "internalType": "address",
          "name": "",
          "type": "address"
        }
      ],
      "name": "synRewardSpeeds",
      "outputs": [
        {
          "internalType": "uint256",
          "name": "",
          "type": "uint256"
        }
      ],
      "stateMutability": "view",
      "type": "function"
    },
    {
      "inputs": [
        {
          "internalType": "address",
          "name": "",
          "type": "address"
        }
      ],
      "name": "synRewardState",
      "outputs": [
        {
          "internalType": "uint224",
          "name": "index",
          "type": "uint224"
        },
        {
          "internalType": "uint32",
          "name": "timestamp",
          "type": "uint32"
        }
      ],
      "stateMutability": "view",
      "type": "function"
    },
    {
      "inputs": [
        {
          "internalType": "address",
          "name": "market",
          "type": "address"
        },
        {
          "internalType": "address",
          "name": "account",
          "type": "address"
        }
      ],
      "name": "tradingPoolMembership",
      "outputs": [
        {
          "internalType": "bool",
          "name": "",
          "type": "bool"
        }
      ],
      "stateMutability": "view",
      "type": "function"
    },
    {
      "inputs": [
        {
          "internalType": "address",
          "name": "",
          "type": "address"
        }
      ],
      "name": "tradingPools",
      "outputs": [
        {
          "internalType": "bool",
          "name": "isEnabled",
          "type": "bool"
        },
        {
          "internalType": "uint256",
          "name": "volatilityRatio",
          "type": "uint256"
        }
      ],
      "stateMutability": "view",
      "type": "function"
    },
    {
      "inputs": [
        {
          "internalType": "uint256",
          "name": "",
          "type": "uint256"
        }
      ],
      "name": "tradingPoolsList",
      "outputs": [
        {
          "internalType": "address",
          "name": "",
          "type": "address"
        }
      ],
      "stateMutability": "view",
      "type": "function"
    },
    {
      "inputs": [],
      "name": "unpause",
      "outputs": [],
      "stateMutability": "nonpayable",
      "type": "function"
    },
    {
      "inputs": [
        {
          "internalType": "address",
          "name": "newImplementation",
          "type": "address"
        }
      ],
      "name": "upgradeTo",
      "outputs": [],
      "stateMutability": "nonpayable",
      "type": "function"
    },
    {
      "inputs": [
        {
          "internalType": "address",
          "name": "newImplementation",
          "type": "address"
        },
        {
          "internalType": "bytes",
          "name": "data",
          "type": "bytes"
        }
      ],
      "name": "upgradeToAndCall",
      "outputs": [],
      "stateMutability": "payable",
      "type": "function"
    },
    {
      "inputs": [
        {
          "internalType": "address",
          "name": "_collateral",
          "type": "address"
        },
        {
          "internalType": "uint256",
          "name": "_amount",
          "type": "uint256"
        }
      ],
      "name": "withdraw",
      "outputs": [],
      "stateMutability": "nonpayable",
      "type": "function"
    }
  ],
  "bytecode": "0x60a0806040523461003157306080526155219081610037823960805181818161202e015281816121660152612cc40152f35b600080fdfe608080604052600436101561001357600080fd5b600090813560e01c90816301ffc9a7146134c0575080630b0d33791461326b57806315deef4b146132475780631b57d1ac146131fb578063248a9ca3146131ce5780632558626d146131a157806329553e991461312a5780632cf41e25146130f85780632ecd3be4146130d95780632f2ff15d1461302557806336568abe14612f855780633659cfe614612c9d57806336cc366b14612c595780633bf0a54914612c315780633f4ba83a14612b9357806344f7a1b014612aa75780634509e6ae14612a6c57806347e7ef24146128cd5780634b2bc5df1461245a5780634f1ef286146120e857806352d1902d1461201357806352e7ce9114611f7a57806353640ac214611ee557806356d7356814611eaa5780635c975abb14611e865780636aa3f86c14611e4d5780636ad9f9df14611e2957806375b238fc14611dee57806375c038b714611d7757806378c5266b14611d1b5780637adbf97314611ca95780637dc0d1d014611c815780638456cb5914611c255780638b2e1eaa14611bd157806391d1485414611b845780639df8cc7b14611b35578063a217fddf14611b19578063a7f0e23114611aef578063a982493114611acd578063aa3b3a1e14611a74578063aca25f9a14611a50578063aed0bf88146119f7578063b140bf03146119d8578063b358189814611980578063b3593f201461195d578063b61399921461194e578063b7f85d0f146118c0578063ba5a2d33146117d7578063be281f6714611786578063c29611f714611735578063c99d3a06146115dd578063caca550f1461157f578063cd82b76e14611535578063d547741f146114f7578063d74fbae91461146c578063db46f7021461140e578063ec3b8f1a146113ea578063edc280c1146113c6578063eeb97d3b1461136a578063ef9fb99114611041578063f0a4d9e214611008578063f3fef3a314610da7578063f43100cf14610d79578063f6b911bc14610b25578063f8c8765e146103bd578063fca3508b14610399578063fd1e8c851461036b578063fe35ea951461033f5763ffd10e071461031857600080fd5b3461033c57602036600319011261033c57610339610334613548565b6140e3565b80f35b80fd5b503461033c57602036600319011261033c57602061036361035e613548565b614e3f565b604051908152f35b503461033c57604036600319011261033c57610339610388613548565b6103906139af565b6024359061478b565b503461033c57602036600319011261033c5760206103636103b8613548565b6152c2565b503461033c57608036600319011261033c576103d7613548565b6103df61355e565b6103e7613574565b6064356001600160a01b038116809103610b205784549360ff8560081c161594858096610b13575b8015610afc575b15610a925760ff198116600117875585610a81575b5061046560ff875460081c166104408161404a565b6104498161404a565b6104528161404a565b600160fb556104608161404a565b61404a565b61012d60ff1981541690556001600160a01b0361015f911673ffffffffffffffffffffffffffffffffffffffff1982541617905567120a871cc00200006101615584805260c992836020526001600160a01b03604087209116908160005260205260ff6040600020541615610a33575b7fa49807205ce4d355092ef5a8a18f56e8913cf4a201fbe287825b095693c2177560005283602052600060016040822001548160016040822001557fa49807205ce4d355092ef5a8a18f56e8913cf4a201fbe287825b095693c217757fbd79b86ffe0ab8e8776151514217cd7cacd52c909f66475c3af44e129f0b00ff8380a47fa49807205ce4d355092ef5a8a18f56e8913cf4a201fbe287825b095693c21775865283602052604086208160005260205260ff60406000205416156109a4575b507f6077685936c8169d09204a1d97db12e41713588c38e1d29a61867d3dcee98aff60005282602052600060016040822001548160016040822001557f6077685936c8169d09204a1d97db12e41713588c38e1d29a61867d3dcee98aff7fbd79b86ffe0ab8e8776151514217cd7cacd52c909f66475c3af44e129f0b00ff8380a47f6077685936c8169d09204a1d97db12e41713588c38e1d29a61867d3dcee98aff855282602052604085208160005260205260ff6040600020541615610915575b507f3bb181d5689164b4d72d34b056228c95b51f3fb0f6dbdb7f9ddba5f91c6821dd90816000528260205260006001604082200154816001604082200155837fbd79b86ffe0ab8e8776151514217cd7cacd52c909f66475c3af44e129f0b00ff8380a4818552826020526001600160a01b03604086209116908160005260205260ff60406000205416156108c6575b50507fa49807205ce4d355092ef5a8a18f56e8913cf4a201fbe287825b095693c21775835280602052604083203360005260205260ff6040600020541615610838575b7f6077685936c8169d09204a1d97db12e41713588c38e1d29a61867d3dcee98aff835280602052604083203360005260205260ff60406000205416156107aa575b506107735780f35b61ff001981541681557f7f26b83ff96e1f2b6a682f133852f6798a09c465da95921460cefb3847402498602060405160018152a180f35b7f6077685936c8169d09204a1d97db12e41713588c38e1d29a61867d3dcee98aff835260205260408220336000526020526040600020600160ff1982541617905533337f6077685936c8169d09204a1d97db12e41713588c38e1d29a61867d3dcee98aff7f2f8788117e7eff1d82e926ec794901d17c78024a50270940304540a733656f0d8580a43861076b565b7fa49807205ce4d355092ef5a8a18f56e8913cf4a201fbe287825b095693c2177583528060205260408320336000526020526040600020600160ff1982541617905533337fa49807205ce4d355092ef5a8a18f56e8913cf4a201fbe287825b095693c217757f2f8788117e7eff1d82e926ec794901d17c78024a50270940304540a733656f0d8680a461072a565b8185528260205260408520816000526020526040600020600160ff1982541617905533917f2f8788117e7eff1d82e926ec794901d17c78024a50270940304540a733656f0d8680a438806106e7565b7f6077685936c8169d09204a1d97db12e41713588c38e1d29a61867d3dcee98aff85528260205260408520816000526020526040600020600160ff1982541617905533907f6077685936c8169d09204a1d97db12e41713588c38e1d29a61867d3dcee98aff7f2f8788117e7eff1d82e926ec794901d17c78024a50270940304540a733656f0d8780a438610658565b7fa49807205ce4d355092ef5a8a18f56e8913cf4a201fbe287825b095693c2177586528360205260408620816000526020526040600020600160ff1982541617905533907fa49807205ce4d355092ef5a8a18f56e8913cf4a201fbe287825b095693c217757f2f8788117e7eff1d82e926ec794901d17c78024a50270940304540a733656f0d8880a438610596565b8580528360205260408620816000526020526040600020600160ff198254161790553381877f2f8788117e7eff1d82e926ec794901d17c78024a50270940304540a733656f0d8180a46104d5565b61ffff19166101011786553861042b565b608460405162461bcd60e51b815260206004820152602e60248201527f496e697469616c697a61626c653a20636f6e747261637420697320616c72656160448201527f647920696e697469616c697a65640000000000000000000000000000000000006064820152fd5b50303b1580156104165750600160ff821614610416565b50600160ff82161061040f565b600080fd5b503461033c57610b3436613752565b610b3c61423e565b610b4461428f565b610b4d8361480c565b610b573384614989565b6001600160a01b03918261016254169360405163b3596f0760e01b8152604081602481888716998a60048301525afa8015610d6e578790610d2e575b610bb69150610bb06020610ba8835188613f1b565b920151614583565b90614591565b93610bc182336151d9565b85811015610d2657915b670de0b6b3a76400009283810290808204851490151715610d125792610c03819392610bf9898c9897614591565b9384911698613f1b565b04863b15610d0e57604051632770a7eb60e21b815233600482015260248101919091528481604481838b5af1908115610d03578591610cef575b5050610c499085613f1b565b0490843b15610ceb57604051637d9e4b0960e11b81526001600160a01b039190911660048201523360248201526044810191909152818160648183885af18015610ce057610cc8575b50506040519081527ff8a861f822ed8ac8743e429937c8bb8952ca8617a40319ef7fde892039aac12860203392a4600160fb5580f35b610cd190613626565b610cdc578338610c92565b8380fd5b6040513d84823e3d90fd5b8280fd5b610cf890613626565b610cdc578338610c3d565b6040513d87823e3d90fd5b8480fd5b602489634e487b7160e01b81526011600452fd5b508491610bcb565b5060403d604011610d67575b610d44818361368e565b810190604081830312610d6357610bb691610d5e9161454a565b610b93565b8780fd5b503d610d3a565b6040513d89823e3d90fd5b503461033c57604036600319011261033c57610339610d96613548565b610d9e613787565b602435906146fa565b503461033c57604036600319011261033c57610dc1613548565b602435610dcc61423e565b610dd461428f565b3383526101656020908082526001600160a01b0360408620941693846000528252604060002054838110610fc45783610e0c91614138565b903386528252604085208460005282526040600020558215600014610eed57814710610ea9578380838015610e9f575b8280929181923390f115610e94577f9b1bfa7fa9ee420a16e124f794c35ac9f90472acc99140eb2f6447c714cad8eb905b610e83610e7933614dbd565b610161541061445a565b6040519283523392a3600160fb5580f35b6040513d85823e3d90fd5b6108fc9150610e3c565b6064906040519062461bcd60e51b82526004820152601860248201527f496e73756666696369656e74204554482062616c616e636500000000000000006044820152fd5b6040516370a0823160e01b81523060048201528181602481875afa8015610d035783918691610f93575b5010610f4f577f9b1bfa7fa9ee420a16e124f794c35ac9f90472acc99140eb2f6447c714cad8eb90610f4a8333866144a5565b610e6d565b6064906040519062461bcd60e51b82526004820152601a60248201527f496e73756666696369656e742045524332302062616c616e63650000000000006044820152fd5b809250838092503d8311610fbd575b610fac818361368e565b81010312610b205782905138610f17565b503d610fa2565b6064836040519062461bcd60e51b82526004820152601460248201527f496e73756666696369656e742062616c616e63650000000000000000000000006044820152fd5b503461033c57602036600319011261033c5760406020916001600160a01b0361102f613548565b16815261016d83522054604051908152f35b503461033c5761105036613752565b611059836140e3565b61106161423e565b61106961428f565b6001600160a01b0380841692838652602091610166835260026040882061109360ff8254166144ff565b3360005201835260ff604060002054161561132657604051957f9f087dd60000000000000000000000000000000000000000000000000000000087528183169687600482015284816024818a5afa90811561131b5789916112ee575b50156112aa5760408893926111108361110960249561480c565b3390614989565b610162541681519283809263b3596f0760e01b82528b60048301525afa8015610e9457839061126e575b61114e9150610bb085610ba8835189613f1b565b853b15610ceb576040517f40c10f1900000000000000000000000000000000000000000000000000000000815233600482015260248101919091528281604481838a5af1908115610e9457839161125a575b5050843b15611256576040517f5bf0abbc0000000000000000000000000000000000000000000000000000000081526001600160a01b0391909116600482015233602482015260448101849052818160648183895af18015610ce057611242575b50507f65adeb76912378393e600cb6f64f3310842a42e1eae86273dc775d0c47a0f2dc90611231610e7933614dbd565b6040519283523392a4600160fb5580f35b61124b90613626565b610d0e578438611201565b5080fd5b61126390613626565b6112565781386111a0565b5060403d6040116112a3575b611284818361368e565b810190604081830312610cdc5761114e9161129e9161454a565b61113a565b503d61127a565b6064846040519062461bcd60e51b82526004820152601160248201527f53796e7468206e6f7420656e61626c65640000000000000000000000000000006044820152fd5b61130e9150853d8711611314575b611306818361368e565b8101906142e4565b386110ef565b503d6112fc565b6040513d8b823e3d90fd5b6064836040519062461bcd60e51b82526004820152601b60248201527f4163636f756e74206e6f7420696e2074726164696e6720706f6f6c00000000006044820152fd5b503461033c57602036600319011261033c576040906001600160a01b0361138f613548565b16815261016760205220600160ff825416910154906113c260405192839283602090939291936040810194151581520152565b0390f35b503461033c57602036600319011261033c5760206103636113e5613548565b615149565b503461033c57602036600319011261033c576020610363611409613548565b614f7d565b503461033c57602036600319011261033c576004359061016990815483101561033c5760206001600160a01b0384846000527fbd88e1fd0aa5f3038c0cd2a68644e2d11f4e4e7e3693adba414318f2127ca426015416604051908152f35b503461033c57604036600319011261033c57611486613548565b7f5d3499d6e736144c38c9b359bc39a19d214790ce4b72f63523d104f98af5a99a60206024356114b4613787565b6114df6001600160a01b0385169485875261016684526114da60ff6040892054166144ff565b61480c565b83855261016a8252806040862055604051908152a280f35b503461033c57604036600319011261033c5761033960043561151761355e565b9080845260c96020526115306001604086200154613afb565b613c5a565b503461033c57602036600319011261033c57604080916001600160a01b0361155b613548565b16815261016b60205220548151906001600160e01b038116825260e01c6020820152f35b503461033c57602036600319011261033c576004359061016890815483101561033c5760206001600160a01b0384846000527f8077777ae4769de06cbfd1c0b8b1f653b51ec156d91a9aca16a4102f19e03d9e015416604051908152f35b503461033c57602036600319011261033c576115f7613548565b6115ff6139af565b6001600160a01b0390811680835261016760205260408320805460ff19169055825b61016980548083101561172d578484611639856135d7565b929054600393841b1c16146116595750505061165490614129565b611621565b93949193600019939291848101908111611719579161168b9161167f6116b095946135d7565b9054911b1c16916135d7565b90919082549060031b916001600160a01b039283811b93849216901b16911916179055565b815480156117035701906116db6116c6836135d7565b6001600160a01b0382549160031b1b19169055565b557fd89d2ee68ab04dca0193f48a4aff55e20fa5ec0429a8a8c1c51b8dad6178a5938280a280f35b634e487b7160e01b600052603160045260246000fd5b602488634e487b7160e01b81526011600452fd5b505050505080f35b503461033c57604036600319011261033c5761174f613548565b604061175961355e565b926001600160a01b03809316815261016c6020522091166000526020526020604060002054604051908152f35b503461033c57604036600319011261033c576117a0613548565b60406117aa61355e565b926001600160a01b0380931681526101656020522091166000526020526020604060002054604051908152f35b503461033c57602080600319360112611256576001600160a01b0390816117fc613548565b1690818452610166815260026040852001336000528152604060002060ff198154169055835b338552610163808352604086205482101561172d5784846118468460408a2061360e565b929054600393841b1c161461186557505061186090614129565b611822565b909491929350338652848452604086206040872054906000198201918211611719579161189a6118b095949261168b9461360e565b9054911b1c16913387528585526040872061360e565b3383525261033960408220614145565b503461033c57602080600319360112611256576001600160a01b0390816118e5613548565b1690818452610167815260026040852001336000528152604060002060ff198154169055835b338552610164808352604086205482101561172d57848461192f8460408a2061360e565b929054600393841b1c161461186557505061194990614129565b61190b565b503461033c5761105936613752565b503461033c578060031936011261033c576020604051670de0b6b3a76400008152f35b503461033c57602036600319011261033c576040906001600160a01b036119a5613548565b16815261016660205220600160ff825416910154906113c260405192839283602090939291936040810194151581520152565b503461033c578060031936011261033c57602061016154604051908152f35b503461033c57604036600319011261033c57611a11613548565b60026040611a1d61355e565b936001600160a01b03809416815261016660205220019116600052602052602060ff604060002054166040519015158152f35b503461033c57602036600319011261033c576020610363611a6f613548565b614e03565b503461033c57604036600319011261033c57611a8e613548565b60026040611a9a61355e565b936001600160a01b03809416815261016760205220019116600052602052602060ff604060002054166040519015158152f35b503461033c57602036600319011261033c57610339611aea613548565b614162565b503461033c578060031936011261033c5760206040516ec097ce7bc90715b34b9f10000000008152f35b503461033c578060031936011261033c57602090604051908152f35b503461033c57602036600319011261033c577fae372d52810608dca793b2c8d4a85801f12f42beef5d474998c67936a4c277bd6020600435611b756139af565b8061016055604051908152a180f35b503461033c57604036600319011261033c576001600160a01b036040611ba861355e565b92600435815260c9602052209116600052602052602060ff604060002054166040519015158152f35b503461033c57604036600319011261033c5767ffffffffffffffff600435818111610ceb57611c049036906004016136c8565b602435918211610ceb57611c1f6103399236906004016136c8565b90614c05565b503461033c578060031936011261033c57611c3e6139af565b611c4661423e565b61012d600160ff198254161790557f62e78cea01bee320cd4e420270b5ea74000d11b0c9f74754ebdbfc544b05a2586020604051338152a180f35b503461033c578060031936011261033c5760206001600160a01b036101625416604051908152f35b503461033c57602036600319011261033c576001600160a01b03611ccb613548565b611cd36139af565b166101628173ffffffffffffffffffffffffffffffffffffffff198254161790557ff261845a790fe29bbd6631e2ca4a5bdc83e6eed7c3271d9590d97287e00e91238280a280f35b503461033c57604036600319011261033c57611d35613548565b602435916001600160a01b0380921681526101636020526040812090815484101561033c5750602092611d679161360e565b9190546040519260031b1c168152f35b503461033c57602036600319011261033c576001600160a01b03611d99613548565b611da16139af565b1680825261016760205260ff604083205416611dbb575080f35b60408220805460ff191690557f192895f9a14975ce177e9612fd4f4459e31169d79cb650596bcce0622bd70a928280a280f35b503461033c578060031936011261033c5760206040517fa49807205ce4d355092ef5a8a18f56e8913cf4a201fbe287825b095693c217758152f35b503461033c57602036600319011261033c576020610363611e48613548565b614dbd565b503461033c57602036600319011261033c5760406020916001600160a01b03611e74613548565b16815261016a83522054604051908152f35b503461033c578060031936011261033c57602060ff61012d54166040519015158152f35b503461033c578060031936011261033c5760206040517f6077685936c8169d09204a1d97db12e41713588c38e1d29a61867d3dcee98aff8152f35b503461033c576020908160031936011261033c57611f01613548565b60405161016880548083526000918252828601959293927f8077777ae4769de06cbfd1c0b8b1f653b51ec156d91a9aca16a4102f19e03d9e92905b828210611f5a57866103398787611f55828d038361368e565b614b85565b83546001600160a01b031688529687019660019384019390910190611f3c565b503461033c576020908160031936011261033c57611f96613548565b815b61016854811015611ff45780611fea836001600160a01b03611fbc611fef9561358a565b90549060031b1c168087526101668852611fdc60ff604089205416614bba565b611fe58161480c565b614989565b614129565b611f98565b50906001600160a01b0360409216815261016d83522054604051908152f35b503461033c578060031936011261033c576001600160a01b037f000000000000000000000000000000000000000000000000000000000000000016300361207e5760206040517f360894a13ba1a3210667c828492db98dca3e2076cc3735a920a3ca505d382bbc8152f35b608460405162461bcd60e51b815260206004820152603860248201527f555550535570677261646561626c653a206d757374206e6f742062652063616c60448201527f6c6564207468726f7567682064656c656761746563616c6c00000000000000006064820152fd5b50604036600319011261033c576120fd613548565b90602491823567ffffffffffffffff8111610ceb5736602382011215610ceb5780600401359061212c82613736565b612139604051918261368e565b828152602092838201923688838301011161245657818792898793018637830101526001600160a01b03807f0000000000000000000000000000000000000000000000000000000000000000169061219382301415613cd1565b6121c27f360894a13ba1a3210667c828492db98dca3e2076cc3735a920a3ca505d382bbc928284541614613d42565b6121ca6139af565b7f4910fdfa16fed3260ed0e7147f7cc6da11a60208b5b9406d12a635614ffd91435460ff1615612204575050505050610339919250613db3565b8596949616906040516352d1902d60e01b81528781600481865afa60009181612427575b5061229657608488602e8b6040519262461bcd60e51b845260048401528201527f45524331393637557067726164653a206e657720696d706c656d656e7461746960448201527f6f6e206973206e6f7420555550530000000000000000000000000000000000006064820152fd5b9791929394969597036123d2576122ac87613db3565b604051917fbc7cd75a20ee27fd9adebab32041f755214dbc6bffa90cc0225b39da2e5c2d3b600080a28251158015906123ca575b6122ef575b5050505050905080f35b863b1561237b57505061236f9394600092839251915af461230e613e6d565b907f416464726573733a206c6f772d6c6576656c2064656c65676174652063616c6c6040519361233d8561363a565b602785528401527f206661696c6564000000000000000000000000000000000000000000000000006040840152613e9d565b508038808080806122e5565b9060266084928662461bcd60e51b845260048401528201527f416464726573733a2064656c65676174652063616c6c20746f206e6f6e2d636f6044820152651b9d1c9858dd60d21b6064820152fd5b5060016122e0565b8460296084926040519262461bcd60e51b845260048401528201527f45524331393637557067726164653a20756e737570706f727465642070726f786044820152681a58589b195555525160ba1b6064820152fd5b90918982813d831161244f575b61243e818361368e565b8101031261033c5750519038612228565b503d612434565b8680fd5b503461033c5760a036600319011261033c57612474613548565b61247c61355e565b612484613574565b608435926001600160a01b0384168403610b20576124a061423e565b6124a861428f565b6124b181614dbd565b670de0b6b3a764000081101561288957156128455784916124d560643515156145b1565b6124de82614e03565b61254b846040516124ee8161363a565b600281526040366020830137612503816145fc565b6001600160a01b03861690526001600160a01b03891661252282614609565b526001600160a01b036101625416604051808095819463053c81b560e01b8352600483016146b6565b03915afa908115610d03578591612823575b506001600160a01b038716855261016760205260026040862061258360ff8254166141a8565b6001600160a01b038616600052016020526125a560ff604060002054166141f3565b6001600160a01b0384168552610165602052604085206001600160a01b0388166000526020526040600020549561263f612631670de0b6b3a764000061261f8661261a6125fe6125f4896145fc565b5151606435613f1b565b612614602061260c8b614609565b510151614583565b90613f1b565b613f1b565b0461262985614609565b515190614591565b610bb0602061260c866145fc565b9687811061281b575b9061265b886001600160a01b0393614138565b828716885261016560205260408820838b1660005260205260406000205516936126b16126a38461269e61269961269187614609565b51518c613f1b565b613ee8565b614591565b610bb0602061260c86614609565b90853b1561245657604051632770a7eb60e21b81526001600160a01b039190911660048201526024810191909152858160448183895af1801561281057879187916127f9575b5050602061260c61273c6127336127429661269e612699612726610bb09861271e8b614609565b515190613f1b565b6126148861260c8c6145fc565b612629866145fc565b93614609565b823b15610cdc57604051637d9e4b0960e11b81526001600160a01b0392909216600483015233602483015260448201529082908290606490829084905af18015610ce0576127e5575b50506127b990338452610165602052604084206001600160a01b038416600052602052604060002054613f2e565b903383526101656020526001600160a01b03604084209116600052602052604060002055600160fb5580f35b6127ee90613626565b610ceb57823861278b565b612804919250613626565b610d0e578585386126f7565b6040513d88823e3d90fd5b965086612648565b61283f91503d8087833e612837818361368e565b81019061462d565b3861255d565b606460405162461bcd60e51b815260206004820152601d60248201527f4163636f756e7420697320616c7265616479206c6971756964617465640000006044820152fd5b606460405162461bcd60e51b815260206004820152601560248201527f4865616c746820666163746f722061626f7665203100000000000000000000006044820152fd5b50604036600319011261033c576128e2613548565b6001600160a01b03602435916128f661423e565b6128fe61428f565b16908183526020610167815260026040852061291d60ff8254166141a8565b3360005201815261293560ff604060002054166141f3565b826129f1578134036129ad577f5548c837ab068cf56a2c2479df0882a4922fd203edb7517321831d95078c5f62905b3385526101658082526040862085600052825261298684604060002054613f2e565b903387528252604086208560005282526040600020556040519283523392a3600160fb5580f35b6064906040519062461bcd60e51b82526004820152601460248201527f496e636f72726563742045544820616d6f756e740000000000000000000000006044820152fd5b6040517f23b872dd0000000000000000000000000000000000000000000000000000000082820152336024820152306044820152606480820184905281527f5548c837ab068cf56a2c2479df0882a4922fd203edb7517321831d95078c5f629190612a6790612a6160848261368e565b856142fc565b612964565b503461033c578060031936011261033c5760206040517f3bb181d5689164b4d72d34b056228c95b51f3fb0f6dbdb7f9ddba5f91c6821dd8152f35b503461033c57602036600319011261033c57612ac1613548565b612ac9613787565b6001600160a01b0390811680835261016660205260408320805460ff19169055825b61016880548083101561172d578484612b038561358a565b929054600393841b1c1614612b2357505050612b1e90614129565b612aeb565b93949193600019939291848101908111611719579161168b91612b49612b55959461358a565b9054911b1c169161358a565b81548015611703570190612b6b6116c68361358a565b557fd7bc7aa3441295e542e42197effcd361e36921102724a91445e9dd47f19ddcbc8280a280f35b503461033c578060031936011261033c57612bac6139af565b61012d805460ff811615612bed5760ff191690557f5db9ee0a495bf2e6ff9c91a7834c1ba4fdd244a5e8aa4e537bd38aeae4b073aa6020604051338152a180f35b606460405162461bcd60e51b815260206004820152601460248201527f5061757361626c653a206e6f74207061757365640000000000000000000000006044820152fd5b503461033c578060031936011261033c5760206001600160a01b0361015f5416604051908152f35b503461033c57604036600319011261033c57612c73613548565b6024359067ffffffffffffffff8211610ceb57612c976103399236906004016136c8565b90614b85565b503461033c5760208060031936011261125657612cb8613548565b906001600160a01b03807f000000000000000000000000000000000000000000000000000000000000000016612cf081301415613cd1565b612d1f7f360894a13ba1a3210667c828492db98dca3e2076cc3735a920a3ca505d382bbc918383541614613d42565b612d276139af565b604051908382019282841067ffffffffffffffff851117612f6f578360405286835260ff7f4910fdfa16fed3260ed0e7147f7cc6da11a60208b5b9406d12a635614ffd91435416600014612d8357505050505061033990613db3565b8596949516906040516352d1902d60e01b81528681600481865afa60009181612f40575b50612e16576084876040519062461bcd60e51b82526004820152602e60248201527f45524331393637557067726164653a206e657720696d706c656d656e7461746960448201527f6f6e206973206e6f7420555550530000000000000000000000000000000000006064820152fd5b95949503612eea57612e2786613db3565b604051907fbc7cd75a20ee27fd9adebab32041f755214dbc6bffa90cc0225b39da2e5c2d3b600080a2815115801590612ee2575b612e69575b50505050905080f35b853b15612e925750612e879394600092839251915af461230e613e6d565b508038808080612e60565b808462461bcd60e51b608493526004820152602660248201527f416464726573733a2064656c65676174652063616c6c20746f206e6f6e2d636f6044820152651b9d1c9858dd60d21b6064820152fd5b506000612e5b565b6084846040519062461bcd60e51b82526004820152602960248201527f45524331393637557067726164653a20756e737570706f727465642070726f786044820152681a58589b195555525160ba1b6064820152fd5b90918882813d8311612f68575b612f57818361368e565b8101031261033c5750519038612da7565b503d612f4d565b634e487b7160e01b600052604160045260246000fd5b503461033c57604036600319011261033c57612f9f61355e565b336001600160a01b03821603612fbb5761033990600435613c5a565b608460405162461bcd60e51b815260206004820152602f60248201527f416363657373436f6e74726f6c3a2063616e206f6e6c792072656e6f756e636560448201527f20726f6c657320666f722073656c6600000000000000000000000000000000006064820152fd5b503461033c57604036600319011261033c5760043561304261355e565b81835260c960205261305a6001604085200154613afb565b81835260c96020526001600160a01b03604084209116908160005260205260ff604060002054161561308a578280f35b81835260c960205260408320816000526020526040600020600160ff1982541617905533917f2f8788117e7eff1d82e926ec794901d17c78024a50270940304540a733656f0d8480a438808280f35b503461033c578060031936011261033c57602061016054604051908152f35b50604036600319011261033c5761310d613548565b6001600160a01b036024359161312281614162565b6128f661423e565b503461033c57602036600319011261033c576001600160a01b0361314c613548565b613154613787565b1680825261016660205260ff60408320541661316e575080f35b60408220805460ff191690557f40df287591e0c328c46e4a6e6a392c11257b2068c75575828d622838c83efd3a8280a280f35b503461033c57604036600319011261033c5760206103636131c0613548565b6131c861355e565b906151d9565b503461033c57602036600319011261033c5760016040602092600435815260c98452200154604051908152f35b503461033c57604036600319011261033c57613215613548565b602435916001600160a01b0380921681526101646020526040812090815484101561033c5750602092611d679161360e565b503461033c57602036600319011261033c576020610363613266613548565b6150eb565b503461033c57608036600319011261033c57613285613548565b61328d61355e565b613295613574565b606435926132a161423e565b6132a961428f565b6001600160a01b03938480841694169484861461347c576132cb8215156145b1565b61331e876040516132db8161363a565b600281526040366020830137886132f1826145fc565b52876132fc82614609565b52836101625416604051808095819463053c81b560e01b8352600483016146b6565b03915afa801561347157613372918991613457575b50610bb0602061260c61336c61336361335661334e876145fc565b51518a613f1b565b6126148561260c89614609565b61262986614609565b936145fc565b921693843b1561245657604051907f4798ce5b0000000000000000000000000000000000000000000000000000000082528660048301526024820152336044820152816064820152826084820152868160a48183895af18015610d6e57613422575b50604080516001600160a01b03949094168452602084019190915282015233907f22bfc3d7b9d92e3f2b35d94c61a1a9f1c86d0793bb7645294eaf8beb03c0347990606090a4600160fb5580f35b9561344f7f22bfc3d7b9d92e3f2b35d94c61a1a9f1c86d0793bb7645294eaf8beb03c03479939297613626565b9590916133d4565b61346b91503d808b833e612837818361368e565b38613333565b6040513d8a823e3d90fd5b606460405162461bcd60e51b815260206004820152601360248201527f53796e74687320617265207468652073616d65000000000000000000000000006044820152fd5b905034611256576020366003190112611256576004356001600160e01b03198116809103610ceb57602092507f7965db0b00000000000000000000000000000000000000000000000000000000811490811561351e575b5015158152f35b7f01ffc9a70000000000000000000000000000000000000000000000000000000091501438613517565b600435906001600160a01b0382168203610b2057565b602435906001600160a01b0382168203610b2057565b604435906001600160a01b0382168203610b2057565b61016880548210156135c1576000527f8077777ae4769de06cbfd1c0b8b1f653b51ec156d91a9aca16a4102f19e03d9e0190600090565b634e487b7160e01b600052603260045260246000fd5b61016980548210156135c1576000527fbd88e1fd0aa5f3038c0cd2a68644e2d11f4e4e7e3693adba414318f2127ca4260190600090565b80548210156135c15760005260206000200190600090565b67ffffffffffffffff8111612f6f57604052565b6060810190811067ffffffffffffffff821117612f6f57604052565b6040810190811067ffffffffffffffff821117612f6f57604052565b6080810190811067ffffffffffffffff821117612f6f57604052565b90601f8019910116810190811067ffffffffffffffff821117612f6f57604052565b67ffffffffffffffff8111612f6f5760051b60200190565b81601f82011215610b20578035916136df836136b0565b926136ed604051948561368e565b808452602092838086019260051b820101928311610b20578301905b828210613717575050505090565b81356001600160a01b0381168103610b20578152908301908301613709565b67ffffffffffffffff8111612f6f57601f01601f191660200190565b6060906003190112610b20576001600160a01b03906004358281168103610b2057916024359081168103610b20579060443590565b3360009081527fd4e781d79508cd7288b0dc12f8a54f50b0d15d7b669a4bfe9db5db37fbdf17bb60209081526040808320549092907f6077685936c8169d09204a1d97db12e41713588c38e1d29a61867d3dcee98aff9060ff16156137ec5750505050565b6137f533613f4c565b84519161380183613672565b6042835284830193606036863783511561399b576030855383519060019182101561399b5790607860218601536041915b81831161392d575050506138eb5761388d9385936138d1936138c26048946138e7995198857f416363657373436f6e74726f6c3a206163636f756e74200000000000000000008b978801528251928391603789019101613c0b565b8401917f206973206d697373696e6720726f6c6520000000000000000000000000000000603784015251809386840190613c0b565b0103602881018552018361368e565b5191829162461bcd60e51b835260048301613c2e565b0390fd5b60648486519062461bcd60e51b825280600483015260248201527f537472696e67733a20686578206c656e67746820696e73756666696369656e746044820152fd5b909192600f81166010811015613987576f181899199a1a9b1b9c1cb0b131b232b360811b901a61395d8588613f3b565b5360041c92801561397357600019019190613832565b602482634e487b7160e01b81526011600452fd5b602483634e487b7160e01b81526032600452fd5b80634e487b7160e01b602492526032600452fd5b3360009081527f56eafcfe4e056e5ee1febf92b17728968883505f0e8dc799e4f43119d826ca8560209081526040808320549092907fa49807205ce4d355092ef5a8a18f56e8913cf4a201fbe287825b095693c217759060ff1615613a145750505050565b613a1d33613f4c565b845191613a2983613672565b6042835284830193606036863783511561399b576030855383519060019182101561399b5790607860218601536041915b818311613ab5575050506138eb5761388d9385936138d1936138c26048946138e7995198857f416363657373436f6e74726f6c3a206163636f756e74200000000000000000008b978801528251928391603789019101613c0b565b909192600f81166010811015613987576f181899199a1a9b1b9c1cb0b131b232b360811b901a613ae58588613f3b565b5360041c92801561397357600019019190613a5a565b600081815260209060c98252604092838220338352835260ff848320541615613b245750505050565b613b2d33613f4c565b845191613b3983613672565b6042835284830193606036863783511561399b576030855383519060019182101561399b5790607860218601536041915b818311613bc5575050506138eb5761388d9385936138d1936138c26048946138e7995198857f416363657373436f6e74726f6c3a206163636f756e74200000000000000000008b978801528251928391603789019101613c0b565b909192600f81166010811015613987576f181899199a1a9b1b9c1cb0b131b232b360811b901a613bf58588613f3b565b5360041c92801561397357600019019190613b6a565b60005b838110613c1e5750506000910152565b8181015183820152602001613c0e565b60409160208252613c4e8151809281602086015260208686019101613c0b565b601f01601f1916010190565b9060009180835260c96020526001600160a01b036040842092169182845260205260ff604084205416613c8c57505050565b80835260c9602052604083208284526020526040832060ff1981541690557ff6391f5c32d9c69d2a47ea670b442974b53935d1edc7fd64eb21e047a839171b339380a4565b15613cd857565b608460405162461bcd60e51b815260206004820152602c60248201527f46756e6374696f6e206d7573742062652063616c6c6564207468726f7567682060448201527f64656c656761746563616c6c00000000000000000000000000000000000000006064820152fd5b15613d4957565b608460405162461bcd60e51b815260206004820152602c60248201527f46756e6374696f6e206d7573742062652063616c6c6564207468726f7567682060448201527f6163746976652070726f787900000000000000000000000000000000000000006064820152fd5b803b15613e03576001600160a01b037f360894a13ba1a3210667c828492db98dca3e2076cc3735a920a3ca505d382bbc911673ffffffffffffffffffffffffffffffffffffffff19825416179055565b608460405162461bcd60e51b815260206004820152602d60248201527f455243313936373a206e657720696d706c656d656e746174696f6e206973206e60448201527f6f74206120636f6e7472616374000000000000000000000000000000000000006064820152fd5b3d15613e98573d90613e7e82613736565b91613e8c604051938461368e565b82523d6000602084013e565b606090565b909160609115613eac57505090565b613eb7919392613eb9565b565b805190925015613ecc5750805190602001fd5b6138e79060405191829162461bcd60e51b835260048301613c2e565b90670de0b6b3a764000091828102928184041490151715613f0557565b634e487b7160e01b600052601160045260246000fd5b81810292918115918404141715613f0557565b91908201809211613f0557565b9081518110156135c1570160200190565b60405190613f598261363a565b602a82526020820160403682378251156135c1576030905381516001908110156135c157607860218401536029905b808211613fdc575050613f985790565b606460405162461bcd60e51b815260206004820152602060248201527f537472696e67733a20686578206c656e67746820696e73756666696369656e746044820152fd5b9091600f81166010811015614035576f181899199a1a9b1b9c1cb0b131b232b360811b901a61400b8486613f3b565b5360041c918015614020576000190190613f88565b60246000634e487b7160e01b81526011600452fd5b60246000634e487b7160e01b81526032600452fd5b1561405157565b608460405162461bcd60e51b815260206004820152602b60248201527f496e697469616c697a61626c653a20636f6e7472616374206973206e6f74206960448201527f6e697469616c697a696e670000000000000000000000000000000000000000006064820152fd5b9081549168010000000000000000831015612f6f578261168b916001613eb79501815561360e565b613eb7906001600160a01b0381166000526101666020526002604060002001336000526020526040600020600160ff1982541617905561016360205260406000206140bb565b6000198114613f055760010190565b91908203918211613f0557565b8054801561170357600019019061415f6116c6838361360e565b55565b613eb7906001600160a01b0381166000526101676020526002604060002001336000526020526040600020600160ff1982541617905561016460205260406000206140bb565b156141af57565b606460405162461bcd60e51b815260206004820152601660248201527f436f6c6c61746572616c206e6f7420656e61626c6564000000000000000000006044820152fd5b156141fa57565b606460405162461bcd60e51b815260206004820152601960248201527f4163636f756e74206e6f7420696e20636f6c6c61746572616c000000000000006044820152fd5b60ff61012d541661424b57565b606460405162461bcd60e51b815260206004820152601060248201527f5061757361626c653a20706175736564000000000000000000000000000000006044820152fd5b600260fb54146142a057600260fb55565b606460405162461bcd60e51b815260206004820152601f60248201527f5265656e7472616e637947756172643a207265656e7472616e742063616c6c006044820152fd5b90816020910312610b2057518015158103610b205790565b60405161435a916001600160a01b031661431582613656565b6000806020958685527f5361666545524332303a206c6f772d6c6576656c2063616c6c206661696c656487860152868151910182855af1614354613e6d565b916143e9565b8051908161436757505050565b82806143779383010191016142e4565b1561437f5750565b6084906040519062461bcd60e51b82526004820152602a60248201527f5361666545524332303a204552433230206f7065726174696f6e20646964206e60448201527f6f742073756363656564000000000000000000000000000000000000000000006064820152fd5b91926060911561444d575050815115614400575090565b3b156144095790565b606460405162461bcd60e51b815260206004820152601d60248201527f416464726573733a2063616c6c20746f206e6f6e2d636f6e74726163740000006044820152fd5b909392613eb79250613eb9565b1561446157565b606460405162461bcd60e51b815260206004820152601e60248201527f4865616c746820666163746f722062656c6f77207361666543526174696f00006044820152fd5b6040517fa9059cbb0000000000000000000000000000000000000000000000000000000060208201526001600160a01b03929092166024830152604480830193909352918152613eb7916144fa60648361368e565b6142fc565b1561450657565b606460405162461bcd60e51b815260206004820152601860248201527f54726164696e6720706f6f6c206e6f7420656e61626c656400000000000000006044820152fd5b9190826040910312610b20576040516040810181811067ffffffffffffffff821117612f6f576040526020808294805184520151910152565b604d8111613f0557600a0a90565b811561459b570490565b634e487b7160e01b600052601260045260246000fd5b156145b857565b606460405162461bcd60e51b815260206004820152601d60248201527f416d6f756e74206d7573742062652067726561746572207468616e20300000006044820152fd5b8051156135c15760200190565b8051600110156135c15760400190565b80518210156135c15760209160051b010190565b906020918281830312610b205780519067ffffffffffffffff8211610b20570181601f82011215610b2057805192614664846136b0565b936040936146748551968761368e565b818652828087019260061b85010193818511610b20578301915b84831061469e5750505050505090565b8386916146ab848661454a565b81520192019161468e565b6020908160408183019282815285518094520193019160005b8281106146dd575050505090565b83516001600160a01b0316855293810193928101926001016146cf565b6001600160a01b03811691826000526101666020526040600020805460ff81166147845782916001809260ff1916178155015561016890815468010000000000000000811015612f6f577ffe83615d888076df1cf968a4c6694405f082fa2b2b353afde0af6438a9af7c0b9361168b82602095600161477b9501905561358a565b604051908152a2565b5050505050565b6001600160a01b03811691826000526101676020526040600020805460ff81166147845782916001809260ff1916178155015561016990815468010000000000000000811015612f6f577f0dabbae73ad87de9f00d48ce6bc2fdee3a04023481e61ba06071d8d35b56951d9361168b82602095600161477b950190556135d7565b6001600160a01b0316600081815260209061016b8252604081209261016a8352604082205490614840855460e01c42614138565b9081156149815782156149595784600491604051928380926318160ddd60e01b82525afa94851561494e57849561491c575b50509061487e91613f1b565b90821561490f576ec097ce7bc90715b34b9f1000000000918281029281840414901517156148fb5750613eb792916148b591614591565b6001600160e01b03198254916148d56001600160e01b0391828516613f2e565b6001600160e01b0392909316921691909117164260e01b6001600160e01b031916179055565b80634e487b7160e01b602492526011600452fd5b9050613eb79291506148b5565b9080929550813d8311614947575b614934818361368e565b81010312610ceb57519261487e38614872565b503d61492a565b6040513d86823e3d90fd5b505083546001600160e01b03164260e01b6001600160e01b0319161790935550613eb7915050565b505050505050565b6001600160a01b03908116600081815261016b602090815260408083205461016c835281842095871680855295835281842080546001600160e01b039092169081905593979694959294939290801580614b14575b614afe575b6149ed9084614138565b82516370a0823160e01b815282600482015286816024818b5afa908115614af4578a91614aa3575b50927f39830ba333221bc394b51f96c7ffa4b7a1081f4a18e6f8b63a2be77606ac232a9798996ec097ce7bc90715b34b9f1000000000614a5b839594614a9e9897613f1b565b049783825261016d90818152614a748a85852054613f2e565b94835252205551938493846040919493926001600160a01b03606083019616825260208201520152565b0390a2565b90508681813d8311614aed575b614aba818361368e565b81010312614ae957517f39830ba333221bc394b51f96c7ffa4b7a1081f4a18e6f8b63a2be77606ac232a614a15565b8980fd5b503d614ab0565b84513d8c823e3d90fd5b506ec097ce7bc90715b34b9f10000000006149e3565b506ec097ce7bc90715b34b9f10000000008410156149de565b9060405191828154918282526020928383019160005283600020936000905b828210614b6257505050613eb79250038361368e565b85546001600160a01b031684526001958601958895509381019390910190614b4c565b90604051614b9281613656565b600181526020810160203682378151156135c1576001600160a01b03613eb794169052614c05565b15614bc157565b606460405162461bcd60e51b815260206004820152601560248201527f6d61726b6574206d757374206265206c697374656400000000000000000000006044820152fd5b906000915b8151831015614c8e576001600160a01b039182614c278583614619565b51169485600052610166602052614c4560ff60406000205416614bba565b614c4e8661480c565b60005b8351811015614c795780611fea86614c6c614c749488614619565b511689614989565b614c51565b509450915091614c8890614129565b91614c0a565b91505060005b8151811015614d1357614d0e906001600160a01b0380614cb48386614619565b511681614cc18487614619565b511660005261016d6020818152614cef604093846000205490614ce261423e565b614cea61428f565b614d17565b93600160fb55614cff8689614619565b51166000525260002055614129565b614c94565b5050565b906001600160a01b0361015f5416916040516370a0823160e01b8152306004820152602081602481875afa908115614db157600091614d80575b508215159081614d75575b50614d675750905090565b614d70926144a5565b600090565b905082111538614d5c565b906020823d8211614da9575b81614d996020938361368e565b8101031261033c57505138614d51565b3d9150614d8c565b6040513d6000823e3d90fd5b614dcf614dc982614f7d565b91615149565b8015614dfb57670de0b6b3a764000091828102928184041490151715613f0557614df891614591565b90565b505060001990565b614dcf614e0f82614e3f565b916150eb565b604051906040820182811067ffffffffffffffff821117612f6f5760405260006020838281520152565b600090614e4a614e15565b50816001600160a01b0393846101625416915b858416806000526020610164815260408060002054881015614f715788614e87898360002061360e565b90549060031b1c1681519363b3596f0760e01b855281600486015282856024818b5afa948515614f6657908b969594939291600095614f09575b50614f019593610ba8614ef594614efb9794610bb09460005261016584528160002090600052835260002054845190613f1b565b90613f2e565b95614129565b949050614e5d565b9095965082939491923d8511614f5f575b614f24818361368e565b810191848284031261033c5750614efb94610ba88d9895614ef595614f50614f019a96610bb09661454a565b98509493509450509395614ec1565b503d614f1a565b83513d6000823e3d90fd5b50505093509350505090565b90600091614f89614e15565b5082916001600160a01b0393846101625416905b8584168060005260206101648152604080600020548810156150df5788614fc7898360002061360e565b90549060031b1c169080519363b3596f0760e01b855282600486015281856024818a5afa9485156150d457908b96959493929160009561506a575b506150629593670de0b6b3a7640000615059614ef5956001614efb9996610bb0966000526101658652806000208360005286526150458160002054895190613f1b565b926000526101678652600020015490613f1b565b04920151614583565b949050614f9d565b9095965081929394913d84116150cd575b615085818361368e565b810191838284031261033c5750614efb94670de0b6b3a76400006150598e99966001614ef5976150bc6150629c98610bb09861454a565b9a5096955050955050509395615002565b503d61507b565b82513d6000823e3d90fd5b50505093505092505090565b6000906001600160a01b03808216835261016360205261510d60408420614b2d565b835b81518510156151415761513561513b91614ef58561512d8987614619565b5116876151d9565b94614129565b9361510f565b935050505090565b6000906001600160a01b039081811683526020916101638352604061516f818620614b2d565b93855b85518710156151cf576151c36151c991614ef58860016151ba6126998a6151b28f8261519e8289614619565b51166000526101668c528c60002096614619565b51168c6151d9565b91015490614591565b96614129565b95615172565b9550505050505090565b906001600160a01b0390818116604051936318160ddd60e01b85526020938486600481865afa958615614db157600096615293575b508515615288576024859260405194859384926370a0823160e01b84521660048301525afa928315614db157600093615255575b5050614df8929161261461269e926152c2565b8181949293943d8311615281575b61526d818361368e565b8101031261033c5750519080612614615242565b503d615263565b505050505050600090565b90958582813d83116152bb575b6152aa818361368e565b8101031261033c575051943861520e565b503d6152a0565b906040908151907faf8083da0000000000000000000000000000000000000000000000000000000082526000926004848482816001600160a01b03809a165afa9384156154e1578594615442575b50849293949261531e614e15565b508095876101625416945b8151881015615436578861533d8984614619565b511685519063b3596f0760e01b8252808683015286826024818b5afa91821561542c5785926153f2575b50865180916318160ddd60e01b8252818860209485935afa9081156153e85786916153b5575b5082610bb06153af9593610ba8614ef5946153a9975190613f1b565b97614129565b96615329565b90508181813d83116153e1575b6153cc818361368e565b810103126153dd57516153a961538d565b8580fd5b503d6153c2565b88513d88823e3d90fd5b909150863d8811615425575b615408818361368e565b81019087818303126153dd579061541e9161454a565b9038615367565b503d6153fe565b87513d87823e3d90fd5b96505050505050915090565b9093503d8086833e615454818361368e565b81019060209081818403126124565780519067ffffffffffffffff8211610d6357019180601f8401121561245657825161548d816136b0565b9361549a8651958661368e565b818552838086019260051b8201019283116154dd578301905b8282106154c557505050509238615310565b81518a81168103614ae95781529083019083016154b3565b8880fd5b82513d87823e3d90fdfea2646970667358221220990b40a1d366e5ed93d699087d18e24159953c071929b71c8536ef58dd532a9c64736f6c63430008110033",
  "linkReferences": {},
  "deployedLinkReferences": {}
}