{
  "_format": "hh-sol-artifact-1",
  "contractName": "SyntheX",
  "sourceName": "contracts/SyntheX.sol",
  "abi": [
    {
      "inputs": [],
      "stateMutability": "nonpayable",
      "type": "constructor"
    },
    {
      "anonymous": false,
      "inputs": [
        {
          "indexed": false,
          "internalType": "address",
          "name": "previousAdmin",
          "type": "address"
        },
        {
          "indexed": false,
          "internalType": "address",
          "name": "newAdmin",
          "type": "address"
        }
      ],
      "name": "AdminChanged",
      "type": "event"
    },
    {
      "anonymous": false,
      "inputs": [
        {
          "indexed": true,
          "internalType": "address",
          "name": "beacon",
          "type": "address"
        }
      ],
      "name": "BeaconUpgraded",
      "type": "event"
    },
    {
      "anonymous": false,
      "inputs": [
        {
          "indexed": true,
          "internalType": "address",
          "name": "user",
          "type": "address"
        },
        {
          "indexed": true,
          "internalType": "address",
          "name": "tradingPool",
          "type": "address"
        },
        {
          "indexed": true,
          "internalType": "address",
          "name": "asset",
          "type": "address"
        },
        {
          "indexed": false,
          "internalType": "uint256",
          "name": "amount",
          "type": "uint256"
        }
      ],
      "name": "Burn",
      "type": "event"
    },
    {
      "anonymous": false,
      "inputs": [
        {
          "indexed": true,
          "internalType": "address",
          "name": "asset",
          "type": "address"
        }
      ],
      "name": "CollateralDisabled",
      "type": "event"
    },
    {
      "anonymous": false,
      "inputs": [
        {
          "indexed": true,
          "internalType": "address",
          "name": "asset",
          "type": "address"
        },
        {
          "indexed": false,
          "internalType": "uint256",
          "name": "volatilityRatio",
          "type": "uint256"
        }
      ],
      "name": "CollateralEnabled",
      "type": "event"
    },
    {
      "anonymous": false,
      "inputs": [
        {
          "indexed": true,
          "internalType": "address",
          "name": "user",
          "type": "address"
        },
        {
          "indexed": true,
          "internalType": "address",
          "name": "asset",
          "type": "address"
        },
        {
          "indexed": false,
          "internalType": "uint256",
          "name": "amount",
          "type": "uint256"
        }
      ],
      "name": "Deposit",
      "type": "event"
    },
    {
      "anonymous": false,
      "inputs": [
        {
          "indexed": true,
          "internalType": "address",
          "name": "pool",
          "type": "address"
        },
        {
          "indexed": false,
          "internalType": "address",
          "name": "_account",
          "type": "address"
        },
        {
          "indexed": false,
          "internalType": "uint256",
          "name": "accountDelta",
          "type": "uint256"
        },
        {
          "indexed": false,
          "internalType": "uint256",
          "name": "rewardIndex",
          "type": "uint256"
        }
      ],
      "name": "DistributedSYN",
      "type": "event"
    },
    {
      "anonymous": false,
      "inputs": [
        {
          "indexed": true,
          "internalType": "address",
          "name": "user",
          "type": "address"
        },
        {
          "indexed": true,
          "internalType": "address",
          "name": "tradingPool",
          "type": "address"
        },
        {
          "indexed": true,
          "internalType": "address",
          "name": "fromAsset",
          "type": "address"
        },
        {
          "indexed": false,
          "internalType": "address",
          "name": "toAsset",
          "type": "address"
        },
        {
          "indexed": false,
          "internalType": "uint256",
          "name": "fromAmount",
          "type": "uint256"
        },
        {
          "indexed": false,
          "internalType": "uint256",
          "name": "toAmount",
          "type": "uint256"
        }
      ],
      "name": "Exchange",
      "type": "event"
    },
    {
      "anonymous": false,
      "inputs": [
        {
          "indexed": false,
          "internalType": "uint8",
          "name": "version",
          "type": "uint8"
        }
      ],
      "name": "Initialized",
      "type": "event"
    },
    {
      "anonymous": false,
      "inputs": [
        {
          "indexed": true,
          "internalType": "address",
          "name": "user",
          "type": "address"
        },
        {
          "indexed": true,
          "internalType": "address",
          "name": "tradingPool",
          "type": "address"
        },
        {
          "indexed": true,
          "internalType": "address",
          "name": "asset",
          "type": "address"
        },
        {
          "indexed": false,
          "internalType": "uint256",
          "name": "amount",
          "type": "uint256"
        }
      ],
      "name": "Issue",
      "type": "event"
    },
    {
      "anonymous": false,
      "inputs": [
        {
          "indexed": false,
          "internalType": "address",
          "name": "account",
          "type": "address"
        }
      ],
      "name": "Paused",
      "type": "event"
    },
    {
      "anonymous": false,
      "inputs": [
        {
          "indexed": true,
          "internalType": "address",
          "name": "pool",
          "type": "address"
        },
        {
          "indexed": false,
          "internalType": "uint256",
          "name": "rewardSpeed",
          "type": "uint256"
        }
      ],
      "name": "SetPoolRewardSpeed",
      "type": "event"
    },
    {
      "anonymous": false,
      "inputs": [
        {
          "indexed": true,
          "internalType": "address",
          "name": "pool",
          "type": "address"
        }
      ],
      "name": "TradingPoolDisabled",
      "type": "event"
    },
    {
      "anonymous": false,
      "inputs": [
        {
          "indexed": true,
          "internalType": "address",
          "name": "pool",
          "type": "address"
        },
        {
          "indexed": false,
          "internalType": "uint256",
          "name": "volatilityRatio",
          "type": "uint256"
        }
      ],
      "name": "TradingPoolEnabled",
      "type": "event"
    },
    {
      "anonymous": false,
      "inputs": [
        {
          "indexed": false,
          "internalType": "address",
          "name": "account",
          "type": "address"
        }
      ],
      "name": "Unpaused",
      "type": "event"
    },
    {
      "anonymous": false,
      "inputs": [
        {
          "indexed": true,
          "internalType": "address",
          "name": "implementation",
          "type": "address"
        }
      ],
      "name": "Upgraded",
      "type": "event"
    },
    {
      "anonymous": false,
      "inputs": [
        {
          "indexed": true,
          "internalType": "address",
          "name": "user",
          "type": "address"
        },
        {
          "indexed": true,
          "internalType": "address",
          "name": "asset",
          "type": "address"
        },
        {
          "indexed": false,
          "internalType": "uint256",
          "name": "amount",
          "type": "uint256"
        }
      ],
      "name": "Withdraw",
      "type": "event"
    },
    {
      "inputs": [],
      "name": "ADMIN",
      "outputs": [
        {
          "internalType": "bytes32",
          "name": "",
          "type": "bytes32"
        }
      ],
      "stateMutability": "view",
      "type": "function"
    },
    {
      "inputs": [],
      "name": "NAME",
      "outputs": [
        {
          "internalType": "string",
          "name": "",
          "type": "string"
        }
      ],
      "stateMutability": "view",
      "type": "function"
    },
    {
      "inputs": [],
      "name": "POOL_MANAGER",
      "outputs": [
        {
          "internalType": "bytes32",
          "name": "",
          "type": "bytes32"
        }
      ],
      "stateMutability": "view",
      "type": "function"
    },
    {
      "inputs": [],
      "name": "PRICE_ORACLE",
      "outputs": [
        {
          "internalType": "bytes32",
          "name": "",
          "type": "bytes32"
        }
      ],
      "stateMutability": "view",
      "type": "function"
    },
    {
      "inputs": [],
      "name": "VERSION",
      "outputs": [
        {
          "internalType": "string",
          "name": "",
          "type": "string"
        }
      ],
      "stateMutability": "view",
      "type": "function"
    },
    {
      "inputs": [
        {
          "internalType": "address",
          "name": "",
          "type": "address"
        },
        {
          "internalType": "address",
          "name": "",
          "type": "address"
        }
      ],
      "name": "accountCollateralBalance",
      "outputs": [
        {
          "internalType": "uint256",
          "name": "",
          "type": "uint256"
        }
      ],
      "stateMutability": "view",
      "type": "function"
    },
    {
      "inputs": [
        {
          "internalType": "address",
          "name": "",
          "type": "address"
        },
        {
          "internalType": "uint256",
          "name": "",
          "type": "uint256"
        }
      ],
      "name": "accountCollaterals",
      "outputs": [
        {
          "internalType": "address",
          "name": "",
          "type": "address"
        }
      ],
      "stateMutability": "view",
      "type": "function"
    },
    {
      "inputs": [
        {
          "internalType": "address",
          "name": "",
          "type": "address"
        },
        {
          "internalType": "uint256",
          "name": "",
          "type": "uint256"
        }
      ],
      "name": "accountPools",
      "outputs": [
        {
          "internalType": "address",
          "name": "",
          "type": "address"
        }
      ],
      "stateMutability": "view",
      "type": "function"
    },
    {
      "inputs": [],
      "name": "addressStorage",
      "outputs": [
        {
          "internalType": "contract AddressStorage",
          "name": "",
          "type": "address"
        }
      ],
      "stateMutability": "view",
      "type": "function"
    },
    {
      "inputs": [
        {
          "internalType": "address",
          "name": "_tradingPool",
          "type": "address"
        },
        {
          "internalType": "address",
          "name": "_synth",
          "type": "address"
        },
        {
          "internalType": "uint256",
          "name": "_amount",
          "type": "uint256"
        }
      ],
      "name": "burn",
      "outputs": [],
      "stateMutability": "nonpayable",
      "type": "function"
    },
    {
      "inputs": [
        {
          "internalType": "address",
          "name": "holder",
          "type": "address"
        },
        {
          "internalType": "address[]",
          "name": "tradingPoolsList",
          "type": "address[]"
        }
      ],
      "name": "claimSYN",
      "outputs": [],
      "stateMutability": "nonpayable",
      "type": "function"
    },
    {
      "inputs": [
        {
          "internalType": "address[]",
          "name": "holders",
          "type": "address[]"
        },
        {
          "internalType": "address[]",
          "name": "_tradingPools",
          "type": "address[]"
        }
      ],
      "name": "claimSYN",
      "outputs": [],
      "stateMutability": "nonpayable",
      "type": "function"
    },
    {
      "inputs": [
        {
          "internalType": "address",
          "name": "market",
          "type": "address"
        },
        {
          "internalType": "address",
          "name": "account",
          "type": "address"
        }
      ],
      "name": "collateralMembership",
      "outputs": [
        {
          "internalType": "bool",
          "name": "",
          "type": "bool"
        }
      ],
      "stateMutability": "view",
      "type": "function"
    },
    {
      "inputs": [
        {
          "internalType": "address",
          "name": "",
          "type": "address"
        }
      ],
      "name": "collaterals",
      "outputs": [
        {
          "internalType": "bool",
          "name": "isEnabled",
          "type": "bool"
        },
        {
          "internalType": "uint256",
          "name": "volatilityRatio",
          "type": "uint256"
        }
      ],
      "stateMutability": "view",
      "type": "function"
    },
    {
      "inputs": [],
      "name": "compInitialIndex",
      "outputs": [
        {
          "internalType": "uint256",
          "name": "",
          "type": "uint256"
        }
      ],
      "stateMutability": "view",
      "type": "function"
    },
    {
      "inputs": [
        {
          "internalType": "address",
          "name": "_collateral",
          "type": "address"
        },
        {
          "internalType": "uint256",
          "name": "_amount",
          "type": "uint256"
        }
      ],
      "name": "deposit",
      "outputs": [],
      "stateMutability": "payable",
      "type": "function"
    },
    {
      "inputs": [
        {
          "internalType": "address",
          "name": "_collateral",
          "type": "address"
        }
      ],
      "name": "disableCollateral",
      "outputs": [],
      "stateMutability": "nonpayable",
      "type": "function"
    },
    {
      "inputs": [
        {
          "internalType": "address",
          "name": "_tradingPool",
          "type": "address"
        }
      ],
      "name": "disableTradingPool",
      "outputs": [],
      "stateMutability": "nonpayable",
      "type": "function"
    },
    {
      "inputs": [
        {
          "internalType": "address",
          "name": "_collateral",
          "type": "address"
        },
        {
          "internalType": "uint256",
          "name": "_volatilityRatio",
          "type": "uint256"
        }
      ],
      "name": "enableCollateral",
      "outputs": [],
      "stateMutability": "nonpayable",
      "type": "function"
    },
    {
      "inputs": [
        {
          "internalType": "address",
          "name": "_tradingPool",
          "type": "address"
        },
        {
          "internalType": "uint256",
          "name": "_volatilityRatio",
          "type": "uint256"
        }
      ],
      "name": "enableTradingPool",
      "outputs": [],
      "stateMutability": "nonpayable",
      "type": "function"
    },
    {
      "inputs": [
        {
          "internalType": "address",
          "name": "_collateral",
          "type": "address"
        },
        {
          "internalType": "uint256",
          "name": "_amount",
          "type": "uint256"
        }
      ],
      "name": "enterAndDeposit",
      "outputs": [],
      "stateMutability": "payable",
      "type": "function"
    },
    {
      "inputs": [
        {
          "internalType": "address",
          "name": "_tradingPool",
          "type": "address"
        },
        {
          "internalType": "address",
          "name": "_synth",
          "type": "address"
        },
        {
          "internalType": "uint256",
          "name": "_amount",
          "type": "uint256"
        }
      ],
      "name": "enterAndIssue",
      "outputs": [],
      "stateMutability": "nonpayable",
      "type": "function"
    },
    {
      "inputs": [
        {
          "internalType": "address",
          "name": "_collateral",
          "type": "address"
        }
      ],
      "name": "enterCollateral",
      "outputs": [],
      "stateMutability": "nonpayable",
      "type": "function"
    },
    {
      "inputs": [
        {
          "internalType": "address",
          "name": "_tradingPool",
          "type": "address"
        }
      ],
      "name": "enterPool",
      "outputs": [],
      "stateMutability": "nonpayable",
      "type": "function"
    },
    {
      "inputs": [
        {
          "internalType": "address",
          "name": "_tradingPool",
          "type": "address"
        },
        {
          "internalType": "address",
          "name": "_synthFrom",
          "type": "address"
        },
        {
          "internalType": "address",
          "name": "_synthTo",
          "type": "address"
        },
        {
          "internalType": "uint256",
          "name": "_amount",
          "type": "uint256"
        }
      ],
      "name": "exchange",
      "outputs": [],
      "stateMutability": "nonpayable",
      "type": "function"
    },
    {
      "inputs": [
        {
          "internalType": "address",
          "name": "_collateral",
          "type": "address"
        }
      ],
      "name": "exitCollateral",
      "outputs": [],
      "stateMutability": "nonpayable",
      "type": "function"
    },
    {
      "inputs": [
        {
          "internalType": "address",
          "name": "_tradingPool",
          "type": "address"
        }
      ],
      "name": "exitPool",
      "outputs": [],
      "stateMutability": "nonpayable",
      "type": "function"
    },
    {
      "inputs": [
        {
          "internalType": "address",
          "name": "_account",
          "type": "address"
        }
      ],
      "name": "getAdjustedUserTotalCollateralUSD",
      "outputs": [
        {
          "internalType": "uint256",
          "name": "",
          "type": "uint256"
        }
      ],
      "stateMutability": "view",
      "type": "function"
    },
    {
      "inputs": [
        {
          "internalType": "address",
          "name": "_account",
          "type": "address"
        }
      ],
      "name": "getAdjustedUserTotalDebtUSD",
      "outputs": [
        {
          "internalType": "uint256",
          "name": "",
          "type": "uint256"
        }
      ],
      "stateMutability": "view",
      "type": "function"
    },
    {
      "inputs": [
        {
          "internalType": "address",
          "name": "_account",
          "type": "address"
        }
      ],
      "name": "getLTV",
      "outputs": [
        {
          "internalType": "uint256",
          "name": "",
          "type": "uint256"
        }
      ],
      "stateMutability": "view",
      "type": "function"
    },
    {
      "inputs": [
        {
          "internalType": "address",
          "name": "_account",
          "type": "address"
        },
        {
          "internalType": "address[]",
          "name": "tradingPoolsList",
          "type": "address[]"
        }
      ],
      "name": "getSYNAccrued",
      "outputs": [
        {
          "internalType": "uint256",
          "name": "",
          "type": "uint256"
        }
      ],
      "stateMutability": "nonpayable",
      "type": "function"
    },
    {
      "inputs": [
        {
          "internalType": "address",
          "name": "_account",
          "type": "address"
        },
        {
          "internalType": "address",
          "name": "_tradingPool",
          "type": "address"
        }
      ],
      "name": "getUserPoolDebtUSD",
      "outputs": [
        {
          "internalType": "uint256",
          "name": "",
          "type": "uint256"
        }
      ],
      "stateMutability": "view",
      "type": "function"
    },
    {
      "inputs": [
        {
          "internalType": "address",
          "name": "_account",
          "type": "address"
        }
      ],
      "name": "getUserTotalCollateralUSD",
      "outputs": [
        {
          "internalType": "uint256",
          "name": "",
          "type": "uint256"
        }
      ],
      "stateMutability": "view",
      "type": "function"
    },
    {
      "inputs": [
        {
          "internalType": "address",
          "name": "_account",
          "type": "address"
        }
      ],
      "name": "getUserTotalDebtUSD",
      "outputs": [
        {
          "internalType": "uint256",
          "name": "",
          "type": "uint256"
        }
      ],
      "stateMutability": "view",
      "type": "function"
    },
    {
      "inputs": [
        {
          "internalType": "address",
          "name": "_account",
          "type": "address"
        }
      ],
      "name": "healthFactor",
      "outputs": [
        {
          "internalType": "uint256",
          "name": "",
          "type": "uint256"
        }
      ],
      "stateMutability": "view",
      "type": "function"
    },
    {
      "inputs": [
        {
          "internalType": "address",
          "name": "_syn",
          "type": "address"
        },
        {
          "internalType": "address",
          "name": "_addressStorage",
          "type": "address"
        }
      ],
      "name": "initialize",
      "outputs": [],
      "stateMutability": "nonpayable",
      "type": "function"
    },
    {
      "inputs": [
        {
          "internalType": "address",
          "name": "_tradingPool",
          "type": "address"
        },
        {
          "internalType": "address",
          "name": "_synth",
          "type": "address"
        },
        {
          "internalType": "uint256",
          "name": "_amount",
          "type": "uint256"
        }
      ],
      "name": "issue",
      "outputs": [],
      "stateMutability": "nonpayable",
      "type": "function"
    },
    {
      "inputs": [
        {
          "internalType": "address",
          "name": "_account",
          "type": "address"
        },
        {
          "internalType": "address",
          "name": "_tradingPool",
          "type": "address"
        },
        {
          "internalType": "address",
          "name": "_inAsset",
          "type": "address"
        },
        {
          "internalType": "uint256",
          "name": "_inAmount",
          "type": "uint256"
        },
        {
          "internalType": "address",
          "name": "_outAsset",
          "type": "address"
        }
      ],
      "name": "liquidate",
      "outputs": [],
      "stateMutability": "nonpayable",
      "type": "function"
    },
    {
      "inputs": [],
      "name": "oracle",
      "outputs": [
        {
          "internalType": "contract IPriceOracle",
          "name": "",
          "type": "address"
        }
      ],
      "stateMutability": "view",
      "type": "function"
    },
    {
      "inputs": [],
      "name": "pause",
      "outputs": [],
      "stateMutability": "nonpayable",
      "type": "function"
    },
    {
      "inputs": [],
      "name": "paused",
      "outputs": [
        {
          "internalType": "bool",
          "name": "",
          "type": "bool"
        }
      ],
      "stateMutability": "view",
      "type": "function"
    },
    {
      "inputs": [],
      "name": "proxiableUUID",
      "outputs": [
        {
          "internalType": "bytes32",
          "name": "",
          "type": "bytes32"
        }
      ],
      "stateMutability": "view",
      "type": "function"
    },
    {
      "inputs": [],
      "name": "safeCRatio",
      "outputs": [
        {
          "internalType": "uint256",
          "name": "",
          "type": "uint256"
        }
      ],
      "stateMutability": "view",
      "type": "function"
    },
    {
      "inputs": [
        {
          "internalType": "address",
          "name": "_tradingPool",
          "type": "address"
        },
        {
          "internalType": "uint256",
          "name": "_speed",
          "type": "uint256"
        }
      ],
      "name": "setPoolSpeed",
      "outputs": [],
      "stateMutability": "nonpayable",
      "type": "function"
    },
    {
      "inputs": [
        {
          "internalType": "uint256",
          "name": "_safeCRatio",
          "type": "uint256"
        }
      ],
      "name": "setSafeCRatio",
      "outputs": [],
      "stateMutability": "nonpayable",
      "type": "function"
    },
    {
      "inputs": [],
      "name": "syn",
      "outputs": [
        {
          "internalType": "contract SyntheXToken",
          "name": "",
          "type": "address"
        }
      ],
      "stateMutability": "view",
      "type": "function"
    },
    {
      "inputs": [
        {
          "internalType": "address",
          "name": "",
          "type": "address"
        }
      ],
      "name": "synAccrued",
      "outputs": [
        {
          "internalType": "uint256",
          "name": "",
          "type": "uint256"
        }
      ],
      "stateMutability": "view",
      "type": "function"
    },
    {
      "inputs": [
        {
          "internalType": "address",
          "name": "",
          "type": "address"
        },
        {
          "internalType": "address",
          "name": "",
          "type": "address"
        }
      ],
      "name": "synBorrowerIndex",
      "outputs": [
        {
          "internalType": "uint256",
          "name": "",
          "type": "uint256"
        }
      ],
      "stateMutability": "view",
      "type": "function"
    },
    {
      "inputs": [
        {
          "internalType": "address",
          "name": "",
          "type": "address"
        }
      ],
      "name": "synRewardSpeeds",
      "outputs": [
        {
          "internalType": "uint256",
          "name": "",
          "type": "uint256"
        }
      ],
      "stateMutability": "view",
      "type": "function"
    },
    {
      "inputs": [
        {
          "internalType": "address",
          "name": "",
          "type": "address"
        }
      ],
      "name": "synRewardState",
      "outputs": [
        {
          "internalType": "uint224",
          "name": "index",
          "type": "uint224"
        },
        {
          "internalType": "uint32",
          "name": "timestamp",
          "type": "uint32"
        }
      ],
      "stateMutability": "view",
      "type": "function"
    },
    {
      "inputs": [
        {
          "internalType": "address",
          "name": "market",
          "type": "address"
        },
        {
          "internalType": "address",
          "name": "account",
          "type": "address"
        }
      ],
      "name": "tradingPoolMembership",
      "outputs": [
        {
          "internalType": "bool",
          "name": "",
          "type": "bool"
        }
      ],
      "stateMutability": "view",
      "type": "function"
    },
    {
      "inputs": [
        {
          "internalType": "address",
          "name": "",
          "type": "address"
        }
      ],
      "name": "tradingPools",
      "outputs": [
        {
          "internalType": "bool",
          "name": "isEnabled",
          "type": "bool"
        },
        {
          "internalType": "uint256",
          "name": "volatilityRatio",
          "type": "uint256"
        }
      ],
      "stateMutability": "view",
      "type": "function"
    },
    {
      "inputs": [],
      "name": "unpause",
      "outputs": [],
      "stateMutability": "nonpayable",
      "type": "function"
    },
    {
      "inputs": [
        {
          "internalType": "address",
          "name": "newImplementation",
          "type": "address"
        }
      ],
      "name": "upgradeTo",
      "outputs": [],
      "stateMutability": "nonpayable",
      "type": "function"
    },
    {
      "inputs": [
        {
          "internalType": "address",
          "name": "newImplementation",
          "type": "address"
        },
        {
          "internalType": "bytes",
          "name": "data",
          "type": "bytes"
        }
      ],
      "name": "upgradeToAndCall",
      "outputs": [],
      "stateMutability": "payable",
      "type": "function"
    },
    {
      "inputs": [
        {
          "internalType": "address",
          "name": "_collateral",
          "type": "address"
        },
        {
          "internalType": "uint256",
          "name": "_amount",
          "type": "uint256"
        }
      ],
      "name": "withdraw",
      "outputs": [],
      "stateMutability": "nonpayable",
      "type": "function"
    }
  ],
  "bytecode": "0x60a0806040523461003157306080526145a590816100378239608051818181611774015281816118ac015261257c0152f35b600080fdfe608080604052600436101561001357600080fd5b600090813560e01c9081630a19399a14612cb0575080630b0d337914612a7e57806315deef4b14612a5a5780631b57d1ac14612a0f5780632558626d146129e257806329553e99146129155780632a0acc6a146128da5780632cf41e25146128a85780633659cfe61461255557806336cc366b146125105780633bf0a549146124e95780633f4ba83a146123ef57806347e7ef2414612250578063485cc9551461209c5780634b2bc5df14611c175780634f1ef2861461182e57806352d1902d146117595780635c975abb14611736578063612e14881461170e57806362308e85146116d35780636aa3f86c1461169a5780636ad9f9df1461167657806375c038b71461158a5780637690fdd01461150a57806378c5266b146114af5780637dc0d1d0146114835780638456cb59146113cb5780638b2e1eaa14611377578063a3f4df7e14611321578063a7f0e23114611303578063a9824931146112e1578063aa3b3a1e14611288578063aca25f9a14611264578063aed0bf881461120b578063b140bf03146111ed578063b358189814611195578063b613999214611186578063b7f85d0f146110f9578063ba5a2d3314610fd0578063bba3d48114610f47578063be281f6714610ef6578063c29611f714610ea5578063cd82b76e14610e5b578063d74fbae914610d4d578063ec3b8f1a14610d29578063edc280c114610d05578063eeb97d3b14610cad578063ef9fb99114610980578063f0a4d9e214610947578063f3fef3a3146106e2578063f43100cf14610656578063f6b911bc146103fe578063fd1e8c8514610336578063fe35ea951461030a578063ffa1ad74146102b05763ffd10e071461028957600080fd5b346102ad5760203660031901126102ad576102aa6102a5612cea565b613249565b80f35b80fd5b50346102ad57806003193601126102ad576103066040516102d081612d8a565b600581527f302e332e30000000000000000000000000000000000000000000000000000000602082015260405191829182612ead565b0390f35b50346102ad5760203660031901126102ad57602061032e610329612cea565b613f61565b604051908152f35b50346102ad5760403660031901126102ad57610350612cea565b6001600160a01b039060246020836101075416604051928380926321f8a72160e01b82527fdf8b4c520ffe197c5343c6f5aec59570151ef9a492f2c624fd45ddde6135ec4260048301525afa80156103f3576102aa936103ba9286926103c3575b501633146131d6565b6024359061393c565b6103e591925060203d81116103ec575b6103dd8183612da6565b8101906131b7565b90386103b1565b503d6103d3565b6040513d86823e3d90fd5b50346102ad5761040d36612ef6565b6104156133de565b61041d61342e565b6104268361399c565b6104303384613b56565b6001600160a01b0391826104426144f5565b169360405163b3596f0760e01b8152604081602481888716998a60048301525afa801561064b57879061060b575b610493915061048d602061048583518861375a565b92015161372f565b9061376d565b9361049e8233614382565b8581101561060357915b670de0b6b3a764000092838102908082048514901517156105ef57926104e08193926104d6898c989761376d565b938491169861375a565b04863b156105eb57604051632770a7eb60e21b815233600482015260248101919091528481604481838b5af19081156105e05785916105cc575b5050610526908561375a565b0490843b156105c857604051637d9e4b0960e11b81526001600160a01b039190911660048201523360248201526044810191909152818160648183885af180156105bd576105a5575b50506040519081527ff8a861f822ed8ac8743e429937c8bb8952ca8617a40319ef7fde892039aac12860203392a4600160655580f35b6105ae90612d5a565b6105b957833861056f565b8380fd5b6040513d84823e3d90fd5b8280fd5b6105d590612d5a565b6105b957833861051a565b6040513d87823e3d90fd5b8480fd5b602489634e487b7160e01b81526011600452fd5b5084916104a8565b5060403d604011610644575b6106218183612da6565b810190604081830312610640576104939161063b916136f6565b610470565b8780fd5b503d610617565b6040513d89823e3d90fd5b50346102ad5760403660031901126102ad57610670612cea565b6001600160a01b039060246020836101075416604051928380926321f8a72160e01b82527f41a01ec0a13b563fa452569e3fbb116366d217c2769aa1561822e65a617e384260048301525afa80156103f3576102aa936106d99286926103c357501633146131d6565b602435906138d6565b50346102ad5760403660031901126102ad576106fc612cea565b6024356107076133de565b61070f61342e565b3383526101006020908082526001600160a01b03604086209416938460005282526040600020548381106109035783610747916132b3565b903386528252604085208460005282526040600020558215600014610827578147106107e35783808380156107d9575b8280929181923390f1156107ce577f9b1bfa7fa9ee420a16e124f794c35ac9f90472acc99140eb2f6447c714cad8eb905b6107bd6107b433613ee2565b60fc5410613606565b6040519283523392a3600160655580f35b6040513d85823e3d90fd5b6108fc9150610777565b6064906040519062461bcd60e51b82526004820152601860248201527f496e73756666696369656e74204554482062616c616e636500000000000000006044820152fd5b6040516370a0823160e01b81523060048201528181602481875afa80156105e057839186916108cd575b5010610889577f9b1bfa7fa9ee420a16e124f794c35ac9f90472acc99140eb2f6447c714cad8eb90610884833386613651565b6107a8565b6064906040519062461bcd60e51b82526004820152601a60248201527f496e73756666696369656e742045524332302062616c616e63650000000000006044820152fd5b809250838092503d83116108fc575b6108e68183612da6565b810103126108f75782905138610851565b600080fd5b503d6108dc565b6064836040519062461bcd60e51b82526004820152601460248201527f496e73756666696369656e742062616c616e63650000000000000000000000006044820152fd5b50346102ad5760203660031901126102ad5760406020916001600160a01b0361096e612cea565b16815261010683522054604051908152f35b50346102ad5761098f36612ef6565b61099883613249565b6109a06133de565b6109a861342e565b6001600160a01b038084169283865260209161010183526002604088206109d260ff8254166136ab565b3360005201835260ff6040600020541615610c6957604051957f9f087dd60000000000000000000000000000000000000000000000000000000087528183169687600482015284816024818a5afa908115610c5e578991610c31575b5015610bed576040889392610a4f83610a4860249561399c565b3390613b56565b610a576144f5565b1681519283809263b3596f0760e01b82528b60048301525afa80156107ce578390610bb1575b610a91915061048d8561048583518961375a565b853b156105c8576040517f40c10f1900000000000000000000000000000000000000000000000000000000815233600482015260248101919091528281604481838a5af19081156107ce578391610b9d575b5050843b15610b99576040517f5bf0abbc0000000000000000000000000000000000000000000000000000000081526001600160a01b0391909116600482015233602482015260448101849052818160648183895af180156105bd57610b85575b50507f65adeb76912378393e600cb6f64f3310842a42e1eae86273dc775d0c47a0f2dc90610b746107b433613ee2565b6040519283523392a4600160655580f35b610b8e90612d5a565b6105eb578438610b44565b5080fd5b610ba690612d5a565b610b99578138610ae3565b5060403d604011610be6575b610bc78183612da6565b8101906040818303126105b957610a9191610be1916136f6565b610a7d565b503d610bbd565b6064846040519062461bcd60e51b82526004820152601160248201527f53796e7468206e6f7420656e61626c65640000000000000000000000000000006044820152fd5b610c519150853d8711610c57575b610c498183612da6565b810190613483565b38610a2e565b503d610c3f565b6040513d8b823e3d90fd5b6064836040519062461bcd60e51b82526004820152601b60248201527f4163636f756e74206e6f7420696e2074726164696e6720706f6f6c00000000006044820152fd5b50346102ad5760203660031901126102ad576040906001600160a01b03610cd2612cea565b16815261010260205220600160ff8254169101549061030660405192839283602090939291936040810194151581520152565b50346102ad5760203660031901126102ad57602061032e610d24612cea565b6142b6565b50346102ad5760203660031901126102ad57602061032e610d48612cea565b6140a5565b50346102ad5760403660031901126102ad57610d67612cea565b6024356001600160a01b0390816101075416906040519283926321f8a72160e01b84527f41a01ec0a13b563fa452569e3fbb116366d217c2769aa1561822e65a617e3842600485015283602460209586935afa908115610e5057610dfb610e1b927f5d3499d6e736144c38c9b359bc39a19d214790ce4b72f63523d104f98af5a99a968991610e33575b50821633146131d6565b8516948587526101018452610e1660ff6040892054166136ab565b61399c565b8385526101038252806040862055604051908152a280f35b610e4a9150863d88116103ec576103dd8183612da6565b38610df1565b6040513d88823e3d90fd5b50346102ad5760203660031901126102ad57604080916001600160a01b03610e81612cea565b16815261010460205220548151906001600160e01b038116825260e01c6020820152f35b50346102ad5760403660031901126102ad57610ebf612cea565b6040610ec9612d00565b926001600160a01b0380931681526101056020522091166000526020526020604060002054604051908152f35b50346102ad5760403660031901126102ad57610f10612cea565b6040610f1a612d00565b926001600160a01b0380931681526101006020522091166000526020526020604060002054604051908152f35b50346102ad57610f5636612e4e565b9091805b8251811015610fb05780610fa6856001600160a01b03610f7d610fab95886137f5565b5116808652610101602052610f9860ff604088205416613ce0565b610fa18161399c565b613b56565b61328e565b610f5a565b60206040836001600160a01b038716815261010683522054604051908152f35b50346102ad57602080600319360112610b99576001600160a01b039081610ff5612cea565b1690818452610101815260026040852001336000528152604060002060ff198154169055835b33855260fe80835260408620548210156110f157848461103e8460408a20612d2c565b929054600393841b1c161461105d5750506110589061328e565b61101b565b9094919293503386528484526040862060408720549060001982019182116110dd57916110926110cd9594926110a894612d2c565b9054911b1c169133875285855260408720612d2c565b90919082549060031b916001600160a01b039283811b93849216901b16911916179055565b338352526102aa604082206132c0565b602488634e487b7160e01b81526011600452fd5b505050505080f35b50346102ad57602080600319360112610b99576001600160a01b03908161111e612cea565b1690818452610102815260026040852001336000528152604060002060ff198154169055835b33855260ff80835260408620548210156110f15784846111678460408a20612d2c565b929054600393841b1c161461105d5750506111819061328e565b611144565b50346102ad5761099836612ef6565b50346102ad5760203660031901126102ad576040906001600160a01b036111ba612cea565b16815261010160205220600160ff8254169101549061030660405192839283602090939291936040810194151581520152565b50346102ad57806003193601126102ad57602060fc54604051908152f35b50346102ad5760403660031901126102ad57611225612cea565b60026040611231612d00565b936001600160a01b03809416815261010160205220019116600052602052602060ff604060002054166040519015158152f35b50346102ad5760203660031901126102ad57602061032e611283612cea565b613f25565b50346102ad5760403660031901126102ad576112a2612cea565b600260406112ae612d00565b936001600160a01b03809416815261010260205220019116600052602052602060ff604060002054166040519015158152f35b50346102ad5760203660031901126102ad576102aa6112fe612cea565b613303565b50346102ad57806003193601126102ad57602060fd54604051908152f35b50346102ad57806003193601126102ad5761030660405161134181612d8a565b600781527f53796e7468655800000000000000000000000000000000000000000000000000602082015260405191829182612ead565b50346102ad5760403660031901126102ad5767ffffffffffffffff6004358181116105c8576113aa903690600401612de0565b6024359182116105c8576113c56102aa923690600401612de0565b90613d2b565b50346102ad57806003193601126102ad5760246001600160a01b036020816101075416604051938480926321f8a72160e01b82527fdf8b4c520ffe197c5343c6f5aec59570151ef9a492f2c624fd45ddde6135ec4260048301525afa9081156107ce576114419284926103c357501633146131d6565b6114496133de565b600160ff1960c954161760c9557f62e78cea01bee320cd4e420270b5ea74000d11b0c9f74754ebdbfc544b05a2586020604051338152a180f35b50346102ad57806003193601126102ad57602061149e6144f5565b6001600160a01b0360405191168152f35b50346102ad5760403660031901126102ad576114c9612cea565b602435916001600160a01b03809216815260fe602052604081209081548410156102ad57506020926114fa91612d2c565b9190546040519260031b1c168152f35b50346102ad5760203660031901126102ad5760246001600160a01b036020816101075416604051938480926321f8a72160e01b82527fdf8b4c520ffe197c5343c6f5aec59570151ef9a492f2c624fd45ddde6135ec4260048301525afa9081156107ce576115819284926103c357501633146131d6565b60043560fc5580f35b50346102ad5760203660031901126102ad576115a4612cea565b6001600160a01b039060246020836101075416604051928380926321f8a72160e01b82527fdf8b4c520ffe197c5343c6f5aec59570151ef9a492f2c624fd45ddde6135ec4260048301525afa80156103f35761160b918591611658575b50831633146131d6565b1680825261010260205260ff604083205416611625575080f35b60408220805460ff191690557f192895f9a14975ce177e9612fd4f4459e31169d79cb650596bcce0622bd70a928280a280f35b611670915060203d81116103ec576103dd8183612da6565b38611601565b50346102ad5760203660031901126102ad57602061032e611695612cea565b613ee2565b50346102ad5760203660031901126102ad5760406020916001600160a01b036116c1612cea565b16815261010383522054604051908152f35b50346102ad57806003193601126102ad5760206040517f41a01ec0a13b563fa452569e3fbb116366d217c2769aa1561822e65a617e38428152f35b50346102ad57806003193601126102ad5760206001600160a01b036101075416604051908152f35b50346102ad57806003193601126102ad57602060ff60c954166040519015158152f35b50346102ad57806003193601126102ad576001600160a01b037f00000000000000000000000000000000000000000000000000000000000000001630036117c45760206040517f360894a13ba1a3210667c828492db98dca3e2076cc3735a920a3ca505d382bbc8152f35b608460405162461bcd60e51b815260206004820152603860248201527f555550535570677261646561626c653a206d757374206e6f742062652063616c60448201527f6c6564207468726f7567682064656c656761746563616c6c00000000000000006064820152fd5b5060403660031901126102ad57611843612cea565b90602491823567ffffffffffffffff81116105c857366023820112156105c85780600401359061187282612e91565b61187f6040519182612da6565b8281526020928382019236888383010111611c1357818792898793018637830101526001600160a01b03807f000000000000000000000000000000000000000000000000000000000000000016906118d982301415612f2b565b6119087f360894a13ba1a3210667c828492db98dca3e2076cc3735a920a3ca505d382bbc928284541614612f9c565b8785826101075416604051928380926321f8a72160e01b82527fdf8b4c520ffe197c5343c6f5aec59570151ef9a492f2c624fd45ddde6135ec4260048301525afa908115611c085790611965918991611bf15750821633146131d6565b7f4910fdfa16fed3260ed0e7147f7cc6da11a60208b5b9406d12a635614ffd91435460ff161561199f5750505050506102aa91925061300d565b8596949616906040516352d1902d60e01b81528781600481865afa60009181611bc2575b50611a3157608488602e8b6040519262461bcd60e51b845260048401528201527f45524331393637557067726164653a206e657720696d706c656d656e7461746960448201527f6f6e206973206e6f7420555550530000000000000000000000000000000000006064820152fd5b979192939496959703611b6d57611a478761300d565b604051917fbc7cd75a20ee27fd9adebab32041f755214dbc6bffa90cc0225b39da2e5c2d3b600080a2825115801590611b65575b611a8a575b5050505050905080f35b863b15611b16575050611b0a9394600092839251915af4611aa96130c7565b907f416464726573733a206c6f772d6c6576656c2064656c65676174652063616c6c60405193611ad885612d6e565b602785528401527f206661696c65640000000000000000000000000000000000000000000000000060408401526130f7565b50803880808080611a80565b9060266084928662461bcd60e51b845260048401528201527f416464726573733a2064656c65676174652063616c6c20746f206e6f6e2d636f6044820152651b9d1c9858dd60d21b6064820152fd5b506001611a7b565b8460296084926040519262461bcd60e51b845260048401528201527f45524331393637557067726164653a20756e737570706f727465642070726f786044820152681a58589b195555525160ba1b6064820152fd5b90918982813d8311611bea575b611bd98183612da6565b810103126102ad57505190386119c3565b503d611bcf565b610e4a9150873d89116103ec576103dd8183612da6565b6040513d8a823e3d90fd5b8680fd5b50346102ad5760a03660031901126102ad57611c31612cea565b611c39612d00565b611c41612d16565b608435926001600160a01b03841684036108f757611c5d6133de565b611c6561342e565b611c6e81613ee2565b670de0b6b3a76400008110156120585715612014578491611c92606435151561378d565b611c9b82613f25565b611d2584604051611cab81612d6e565b600281526040366020830137611cc0816137d8565b6001600160a01b03861690526001600160a01b038916611cdf826137e5565b526001600160a01b03611cf06144f5565b1660405180809581947f053c81b500000000000000000000000000000000000000000000000000000000835260048301613892565b03915afa9081156105e0578591611ff2575b506001600160a01b0387168552610102602052600260408620611d5d60ff825416613348565b6001600160a01b03861660005201602052611d7f60ff60406000205416613393565b6001600160a01b0384168552610100602052604085206001600160a01b03881660005260205260406000205495611e19611e0b670de0b6b3a7640000611df986611df4611dd8611dce896137d8565b515160643561375a565b611dee6020611de68b6137e5565b51015161372f565b9061375a565b61375a565b04611e03856137e5565b51519061376d565b61048d6020611de6866137d8565b96878110611fea575b90611e35886001600160a01b03936132b3565b828716885261010060205260408820838b166000526020526040600020551693611e8b611e7d84611e78611e73611e6b876137e5565b51518c61375a565b61373d565b61376d565b61048d6020611de6866137e5565b90853b15611c1357604051632770a7eb60e21b81526001600160a01b039190911660048201526024810191909152858160448183895af18015610e505787918791611fd3575b50506020611de6611f16611f0d611f1c96611e78611e73611f0061048d98611ef88b6137e5565b51519061375a565b611dee88611de68c6137d8565b611e03866137d8565b936137e5565b823b156105b957604051637d9e4b0960e11b81526001600160a01b0392909216600483015233602483015260448201529082908290606490829084905af180156105bd57611fbf575b5050611f9390338452610100602052604084206001600160a01b0384166000526020526040600020546135f9565b903383526101006020526001600160a01b03604084209116600052602052604060002055600160655580f35b611fc890612d5a565b6105c8578238611f65565b611fde919250612d5a565b6105eb57858538611ed1565b965086611e22565b61200e91503d8087833e6120068183612da6565b810190613809565b38611d37565b606460405162461bcd60e51b815260206004820152601d60248201527f4163636f756e7420697320616c7265616479206c6971756964617465640000006044820152fd5b606460405162461bcd60e51b815260206004820152601560248201527f4865616c746820666163746f722061626f7665203100000000000000000000006044820152fd5b50346102ad5760403660031901126102ad576120b6612cea565b6120be612d00565b9082549160ff8360081c161591828093612243575b801561222c575b156121c25760ff19848116600117865593836121b1575b5084549361212460ff8660081c1661210881613146565b61211181613146565b600160655561211f81613146565b613146565b60c9541660c9556001600160a01b038073ffffffffffffffffffffffffffffffffffffffff1992168260fb54161760fb556ec097ce7bc90715b34b9f100000000060fd5561010792169082541617905561217c575080f35b61ff00191681557f7f26b83ff96e1f2b6a682f133852f6798a09c465da95921460cefb3847402498602060405160018152a180f35b61ffff1916610101178555386120f1565b608460405162461bcd60e51b815260206004820152602e60248201527f496e697469616c697a61626c653a20636f6e747261637420697320616c72656160448201527f647920696e697469616c697a65640000000000000000000000000000000000006064820152fd5b50303b1580156120da5750600160ff8516146120da565b50600160ff8516106120d3565b5060403660031901126102ad57612265612cea565b6001600160a01b03602435916122796133de565b61228161342e565b1690818352602061010281526002604085206122a060ff825416613348565b336000520181526122b860ff60406000205416613393565b8261237457813403612330577f5548c837ab068cf56a2c2479df0882a4922fd203edb7517321831d95078c5f62905b33855261010080825260408620856000528252612309846040600020546135f9565b903387528252604086208560005282526040600020556040519283523392a3600160655580f35b6064906040519062461bcd60e51b82526004820152601460248201527f496e636f72726563742045544820616d6f756e740000000000000000000000006044820152fd5b6040517f23b872dd0000000000000000000000000000000000000000000000000000000082820152336024820152306044820152606480820184905281527f5548c837ab068cf56a2c2479df0882a4922fd203edb7517321831d95078c5f6291906123ea906123e4608482612da6565b8561349b565b6122e7565b50346102ad57806003193601126102ad5760246001600160a01b036020816101075416604051938480926321f8a72160e01b82527fdf8b4c520ffe197c5343c6f5aec59570151ef9a492f2c624fd45ddde6135ec4260048301525afa9081156107ce576124659284926103c357501633146131d6565b60c95460ff8116156124a55760ff191660c9557f5db9ee0a495bf2e6ff9c91a7834c1ba4fdd244a5e8aa4e537bd38aeae4b073aa6020604051338152a180f35b606460405162461bcd60e51b815260206004820152601460248201527f5061757361626c653a206e6f74207061757365640000000000000000000000006044820152fd5b50346102ad57806003193601126102ad5760206001600160a01b0360fb5416604051908152f35b50346102ad576102aa61252236612e4e565b906040519061253082612d8a565b60018252602036818401376001600160a01b0361254c836137d8565b91169052613d2b565b50346102ad57602080600319360112610b9957612570612cea565b906001600160a01b03807f0000000000000000000000000000000000000000000000000000000000000000166125a881301415612f2b565b6125d77f360894a13ba1a3210667c828492db98dca3e2076cc3735a920a3ca505d382bbc918383541614612f9c565b602483836101075416604051928380926321f8a72160e01b82527fdf8b4c520ffe197c5343c6f5aec59570151ef9a492f2c624fd45ddde6135ec4260048301525afa8015610e50576126339187916128915750831633146131d6565b604051908382019282841067ffffffffffffffff85111761287b578360405286835260ff7f4910fdfa16fed3260ed0e7147f7cc6da11a60208b5b9406d12a635614ffd9143541660001461268f5750505050506102aa9061300d565b8596949516906040516352d1902d60e01b81528681600481865afa6000918161284c575b50612722576084876040519062461bcd60e51b82526004820152602e60248201527f45524331393637557067726164653a206e657720696d706c656d656e7461746960448201527f6f6e206973206e6f7420555550530000000000000000000000000000000000006064820152fd5b959495036127f6576127338661300d565b604051907fbc7cd75a20ee27fd9adebab32041f755214dbc6bffa90cc0225b39da2e5c2d3b600080a28151158015906127ee575b612775575b50505050905080f35b853b1561279e57506127939394600092839251915af4611aa96130c7565b50803880808061276c565b808462461bcd60e51b608493526004820152602660248201527f416464726573733a2064656c65676174652063616c6c20746f206e6f6e2d636f6044820152651b9d1c9858dd60d21b6064820152fd5b506000612767565b6084846040519062461bcd60e51b82526004820152602960248201527f45524331393637557067726164653a20756e737570706f727465642070726f786044820152681a58589b195555525160ba1b6064820152fd5b90918882813d8311612874575b6128638183612da6565b810103126102ad57505190386126b3565b503d612859565b634e487b7160e01b600052604160045260246000fd5b6116709150853d87116103ec576103dd8183612da6565b5060403660031901126102ad576128bd612cea565b6001600160a01b03602435916128d281613303565b6122796133de565b50346102ad57806003193601126102ad5760206040517fdf8b4c520ffe197c5343c6f5aec59570151ef9a492f2c624fd45ddde6135ec428152f35b50346102ad5760203660031901126102ad5761292f612cea565b6001600160a01b039060246020836101075416604051928380926321f8a72160e01b82527f41a01ec0a13b563fa452569e3fbb116366d217c2769aa1561822e65a617e384260048301525afa80156103f3576129959185916116585750831633146131d6565b1680825261010160205260ff6040832054166129af575080f35b60408220805460ff191690557f40df287591e0c328c46e4a6e6a392c11257b2068c75575828d622838c83efd3a8280a280f35b50346102ad5760403660031901126102ad57602061032e612a01612cea565b612a09612d00565b90614382565b50346102ad5760403660031901126102ad57612a29612cea565b602435916001600160a01b03809216815260ff602052604081209081548410156102ad57506020926114fa91612d2c565b50346102ad5760203660031901126102ad57602061032e612a79612cea565b614214565b50346102ad5760803660031901126102ad57612a98612cea565b612aa0612d00565b612aa8612d16565b60643592612ab46133de565b612abc61342e565b6001600160a01b039384808416941694848614612c6c57612ade82151561378d565b612b1987604051612aee81612d6e565b60028152604036602083013788612b04826137d8565b5287612b0f826137e5565b5283611cf06144f5565b03915afa8015611c0857612b6d918991612c52575b5061048d6020611de6612b67612b5e612b51612b49876137d8565b51518a61375a565b611dee85611de6896137e5565b611e03866137e5565b936137d8565b921693843b15611c1357604051907f4798ce5b0000000000000000000000000000000000000000000000000000000082528660048301526024820152336044820152816064820152826084820152868160a48183895af1801561064b57612c1d575b50604080516001600160a01b03949094168452602084019190915282015233907f22bfc3d7b9d92e3f2b35d94c61a1a9f1c86d0793bb7645294eaf8beb03c0347990606090a4600160655580f35b95612c4a7f22bfc3d7b9d92e3f2b35d94c61a1a9f1c86d0793bb7645294eaf8beb03c03479939297612d5a565b959091612bcf565b612c6691503d808b833e6120068183612da6565b38612b2e565b606460405162461bcd60e51b815260206004820152601360248201527f53796e74687320617265207468652073616d65000000000000000000000000006044820152fd5b905034610b995781600319360112610b9957807fdd24a0f121e5ab7c3e97c63eaaf859e0b46792c3e0edfd86e2b3ad50f63011d860209252f35b600435906001600160a01b03821682036108f757565b602435906001600160a01b03821682036108f757565b604435906001600160a01b03821682036108f757565b8054821015612d445760005260206000200190600090565b634e487b7160e01b600052603260045260246000fd5b67ffffffffffffffff811161287b57604052565b6060810190811067ffffffffffffffff82111761287b57604052565b6040810190811067ffffffffffffffff82111761287b57604052565b90601f8019910116810190811067ffffffffffffffff82111761287b57604052565b67ffffffffffffffff811161287b5760051b60200190565b81601f820112156108f757803591612df783612dc8565b92612e056040519485612da6565b808452602092838086019260051b8201019283116108f7578301905b828210612e2f575050505090565b81356001600160a01b03811681036108f7578152908301908301612e21565b9060406003198301126108f7576004356001600160a01b03811681036108f757916024359067ffffffffffffffff82116108f757612e8e91600401612de0565b90565b67ffffffffffffffff811161287b57601f01601f191660200190565b6020808252825181830181905290939260005b828110612ee257505060409293506000838284010152601f8019910116010190565b818101860151848201604001528501612ec0565b60609060031901126108f7576001600160a01b039060043582811681036108f7579160243590811681036108f7579060443590565b15612f3257565b608460405162461bcd60e51b815260206004820152602c60248201527f46756e6374696f6e206d7573742062652063616c6c6564207468726f7567682060448201527f64656c656761746563616c6c00000000000000000000000000000000000000006064820152fd5b15612fa357565b608460405162461bcd60e51b815260206004820152602c60248201527f46756e6374696f6e206d7573742062652063616c6c6564207468726f7567682060448201527f6163746976652070726f787900000000000000000000000000000000000000006064820152fd5b803b1561305d576001600160a01b037f360894a13ba1a3210667c828492db98dca3e2076cc3735a920a3ca505d382bbc911673ffffffffffffffffffffffffffffffffffffffff19825416179055565b608460405162461bcd60e51b815260206004820152602d60248201527f455243313936373a206e657720696d706c656d656e746174696f6e206973206e60448201527f6f74206120636f6e7472616374000000000000000000000000000000000000006064820152fd5b3d156130f2573d906130d882612e91565b916130e66040519384612da6565b82523d6000602084013e565b606090565b90916060911561310657505090565b613111919392613113565b565b8051909250156131265750805190602001fd5b6131429060405191829162461bcd60e51b835260048301612ead565b0390fd5b1561314d57565b608460405162461bcd60e51b815260206004820152602b60248201527f496e697469616c697a61626c653a20636f6e7472616374206973206e6f74206960448201527f6e697469616c697a696e670000000000000000000000000000000000000000006064820152fd5b908160209103126108f757516001600160a01b03811681036108f75790565b156131dd57565b606460405162461bcd60e51b815260206004820152601760248201527f53796e746865583a204e6f7420617574686f72697a65640000000000000000006044820152fd5b908154916801000000000000000083101561287b57826110a891600161311195018155612d2c565b613111906001600160a01b0381166000526101016020526002604060002001336000526020526040600020600160ff1982541617905560fe6020526040600020613221565b600019811461329d5760010190565b634e487b7160e01b600052601160045260246000fd5b9190820391821161329d57565b805480156132ed5760001901906132d78282612d2c565b6001600160a01b0382549160031b1b1916905555565b634e487b7160e01b600052603160045260246000fd5b613111906001600160a01b0381166000526101026020526002604060002001336000526020526040600020600160ff1982541617905560ff6020526040600020613221565b1561334f57565b606460405162461bcd60e51b815260206004820152601660248201527f436f6c6c61746572616c206e6f7420656e61626c6564000000000000000000006044820152fd5b1561339a57565b606460405162461bcd60e51b815260206004820152601960248201527f4163636f756e74206e6f7420696e20636f6c6c61746572616c000000000000006044820152fd5b60ff60c954166133ea57565b606460405162461bcd60e51b815260206004820152601060248201527f5061757361626c653a20706175736564000000000000000000000000000000006044820152fd5b60026065541461343f576002606555565b606460405162461bcd60e51b815260206004820152601f60248201527f5265656e7472616e637947756172643a207265656e7472616e742063616c6c006044820152fd5b908160209103126108f7575180151581036108f75790565b6040516134f9916001600160a01b03166134b482612d8a565b6000806020958685527f5361666545524332303a206c6f772d6c6576656c2063616c6c206661696c656487860152868151910182855af16134f36130c7565b91613588565b8051908161350657505050565b8280613516938301019101613483565b1561351e5750565b6084906040519062461bcd60e51b82526004820152602a60248201527f5361666545524332303a204552433230206f7065726174696f6e20646964206e60448201527f6f742073756363656564000000000000000000000000000000000000000000006064820152fd5b9192606091156135ec57505081511561359f575090565b3b156135a85790565b606460405162461bcd60e51b815260206004820152601d60248201527f416464726573733a2063616c6c20746f206e6f6e2d636f6e74726163740000006044820152fd5b9093926131119250613113565b9190820180921161329d57565b1561360d57565b606460405162461bcd60e51b815260206004820152601e60248201527f4865616c746820666163746f722062656c6f77207361666543526174696f00006044820152fd5b6040517fa9059cbb0000000000000000000000000000000000000000000000000000000060208201526001600160a01b03929092166024830152604480830193909352918152613111916136a6606483612da6565b61349b565b156136b257565b606460405162461bcd60e51b815260206004820152601860248201527f54726164696e6720706f6f6c206e6f7420656e61626c656400000000000000006044820152fd5b91908260409103126108f7576040516040810181811067ffffffffffffffff82111761287b576040526020808294805184520151910152565b604d811161329d57600a0a90565b90670de0b6b3a76400009182810292818404149015171561329d57565b8181029291811591840414171561329d57565b8115613777570490565b634e487b7160e01b600052601260045260246000fd5b1561379457565b606460405162461bcd60e51b815260206004820152601d60248201527f416d6f756e74206d7573742062652067726561746572207468616e20300000006044820152fd5b805115612d445760200190565b805160011015612d445760400190565b8051821015612d445760209160051b010190565b9060209182818303126108f75780519067ffffffffffffffff82116108f7570181601f820112156108f75780519261384084612dc8565b9360409361385085519687612da6565b818652828087019260061b850101938185116108f7578301915b84831061387a5750505050505090565b83869161388784866136f6565b81520192019161386a565b6020908160408183019282815285518094520193019160005b8281106138b9575050505090565b83516001600160a01b0316855293810193928101926001016138ab565b6001600160a01b0316908160005261010160205260406000209081549060ff8216613936578060017ffe83615d888076df1cf968a4c6694405f082fa2b2b353afde0af6438a9af7c0b948160209560ff19161781550155604051908152a2565b50505050565b6001600160a01b0316908160005261010260205260406000209081549060ff8216613936578060017f0dabbae73ad87de9f00d48ce6bc2fdee3a04023481e61ba06071d8d35b56951d948160209560ff19161781550155604051908152a2565b6001600160a01b031660008181526020906101048252604081209261010383526040822054906139d0855460e01c426132b3565b908115613b4e578215613b0e5784600491604051928380926318160ddd60e01b82525afa9485156103f3578495613adc575b505090613a0e9161375a565b908215613acf576ec097ce7bc90715b34b9f100000000091828102928184041490151715613abb57506131119291613a459161376d565b7fffffffff00000000000000000000000000000000000000000000000000000000825491613a7d6001600160e01b03918285166135f9565b6001600160e01b0392909316921691909117164260e01b7fffffffff0000000000000000000000000000000000000000000000000000000016179055565b80634e487b7160e01b602492526011600452fd5b9050613111929150613a45565b9080929550813d8311613b07575b613af48183612da6565b810103126105c8575192613a0e38613a02565b503d613aea565b505083546001600160e01b03164260e01b7fffffffff00000000000000000000000000000000000000000000000000000000161790935550613111915050565b505050505050565b6001600160a01b0390811660008181526101046020908152604080832054610105835281842095871680855295835281842080546001600160e01b039092169081905593979694959294939290801580613cd4575b613ccb575b613bba90846132b3565b82516370a0823160e01b815282600482015286816024818b5afa908115613cc1578a91613c70575b50927f39830ba333221bc394b51f96c7ffa4b7a1081f4a18e6f8b63a2be77606ac232a9798996ec097ce7bc90715b34b9f1000000000613c28839594613c6b989761375a565b049783825261010690818152613c418a858520546135f9565b94835252205551938493846040919493926001600160a01b03606083019616825260208201520152565b0390a2565b90508681813d8311613cba575b613c878183612da6565b81010312613cb657517f39830ba333221bc394b51f96c7ffa4b7a1081f4a18e6f8b63a2be77606ac232a613be2565b8980fd5b503d613c7d565b84513d8c823e3d90fd5b5060fd54613bb0565b5060fd54841015613bab565b15613ce757565b606460405162461bcd60e51b815260206004820152601560248201527f6d61726b6574206d757374206265206c697374656400000000000000000000006044820152fd5b906000915b8151831015613db4576001600160a01b039182613d4d85836137f5565b51169485600052610101602052613d6b60ff60406000205416613ce0565b613d748661399c565b60005b8351811015613d9f5780610fa686613d92613d9a94886137f5565b511689613b56565b613d77565b509450915091613dae9061328e565b91613d30565b91505060005b8151811015613e3957613e34906001600160a01b0380613dda83866137f5565b511681613de784876137f5565b51166000526101066020818152613e15604093846000205490613e086133de565b613e1061342e565b613e3d565b936001606555613e2586896137f5565b5116600052526000205561328e565b613dba565b5050565b906001600160a01b0360fb5416916040516370a0823160e01b8152306004820152602081602481875afa908115613ed657600091613ea5575b508215159081613e9a575b50613e8c5750905090565b613e9592613651565b600090565b905082111538613e81565b906020823d8211613ece575b81613ebe60209383612da6565b810103126102ad57505138613e76565b3d9150613eb1565b6040513d6000823e3d90fd5b613ef4613eee826140a5565b916142b6565b8015613f1d57670de0b6b3a76400009182810292818404149015171561329d57612e8e9161376d565b505060001990565b613ef4613f3182613f61565b91614214565b604051906040820182811067ffffffffffffffff82111761287b5760405260006020838281520152565b90600091613f6d613f37565b50613f766144f5565b9280926001600160a01b03809516915b85841680600052602060ff8152604080600020548810156140995788613faf8983600020612d2c565b90549060031b1c1681519363b3596f0760e01b855281600486015282856024818b5afa94851561408e57908b969594939291600095614031575b50614029959361048561401d94614023979461048d946000526101008452816000209060005283526000205484519061375a565b906135f9565b9561328e565b949050613f86565b9095965082939491923d8511614087575b61404c8183612da6565b81019184828403126102ad5750614023946104858d989561401d956140786140299a9661048d966136f6565b98509493509450509395613fe9565b503d614042565b83513d6000823e3d90fd5b50505093509350505090565b6000906140b0613f37565b506140b96144f5565b6001600160a01b0393908416835b85841680600052602060ff81526040806000205488101561420857886140f08983600020612d2c565b90549060031b1c169080519363b3596f0760e01b855282600486015281856024818a5afa9485156141fd57908b969594939291600095614193575b5061418b9593670de0b6b3a764000061418261401d956001614023999661048d9660005261010086528060002083600052865261416e816000205489519061375a565b92600052610102865260002001549061375a565b0492015161372f565b9490506140c7565b9095965081929394913d84116141f6575b6141ae8183612da6565b81019183828403126102ad575061402394670de0b6b3a76400006141828e9996600161401d976141e561418b9c9861048d986136f6565b9a509695505095505050939561412b565b503d6141a4565b82513d6000823e3d90fd5b50505093505092505090565b6000906001600160a01b038082168352602060fe815260408420906040518092839183825491828152019188528388209388905b82821061429a5750505061425e92500382612da6565b835b81518510156142925761428661428c9161401d8561427e89876137f5565b511687614382565b9461328e565b93614260565b935050505090565b8554881684526001958601958795509381019390910190614248565b6000906001600160a01b0390818116835260209160fe83526040808520938151808683829854938481520190895283892092895b8582821061436a5750505061430192500386612da6565b855b85518710156143605761435461435a9161401d88600161434b611e738a6143438f8261432f82896137f5565b51166000526101018c528c600020966137f5565b51168c614382565b9101549061376d565b9661328e565b95614303565b9550505050505090565b8554891684526001958601958b9550930192016142ea565b6001600160a01b038092166040908151936318160ddd60e01b85526020908186600481865afa9586156144ea576000966144bb575b5085156144b0578351947fe3cdb9340000000000000000000000000000000000000000000000000000000086528286600481875afa9586156144a557600096614475575b509060248392865195869384926370a0823160e01b84521660048301525afa92831561446b575060009261443a575b5050612e8e9291611e789161375a565b81819392933d8311614464575b6144518183612da6565b810103126102ad57505181611e7861442a565b503d614447565b513d6000823e3d90fd5b90958382813d831161449e575b61448c8183612da6565b810103126102ad5750519460246143fb565b503d614482565b85513d6000823e3d90fd5b505050505050600090565b90958282813d83116144e3575b6144d28183612da6565b810103126102ad57505194386143b7565b503d6144c8565b84513d6000823e3d90fd5b6001600160a01b0360246020826101075416604051928380926321f8a72160e01b82527fdd24a0f121e5ab7c3e97c63eaaf859e0b46792c3e0edfd86e2b3ad50f63011d860048301525afa908115613ed65760009161455357501690565b61456b915060203d81116103ec576103dd8183612da6565b169056fea2646970667358221220d4f60f92be3e641687214a93fc9be734aca30ecb3dbcf89a1ea99d45db674f3f64736f6c63430008110033",
  "linkReferences": {},
  "deployedLinkReferences": {}
}