{
  "_format": "hh-sol-artifact-1",
  "contractName": "SyntheX",
  "sourceName": "contracts/SyntheX.sol",
  "abi": [
    {
      "inputs": [],
      "stateMutability": "nonpayable",
      "type": "constructor"
    },
    {
      "anonymous": false,
      "inputs": [
        {
          "indexed": false,
          "internalType": "address",
          "name": "previousAdmin",
          "type": "address"
        },
        {
          "indexed": false,
          "internalType": "address",
          "name": "newAdmin",
          "type": "address"
        }
      ],
      "name": "AdminChanged",
      "type": "event"
    },
    {
      "anonymous": false,
      "inputs": [
        {
          "indexed": true,
          "internalType": "address",
          "name": "beacon",
          "type": "address"
        }
      ],
      "name": "BeaconUpgraded",
      "type": "event"
    },
    {
      "anonymous": false,
      "inputs": [
        {
          "indexed": true,
          "internalType": "address",
          "name": "user",
          "type": "address"
        },
        {
          "indexed": true,
          "internalType": "address",
          "name": "tradingPool",
          "type": "address"
        },
        {
          "indexed": true,
          "internalType": "address",
          "name": "asset",
          "type": "address"
        },
        {
          "indexed": false,
          "internalType": "uint256",
          "name": "amount",
          "type": "uint256"
        }
      ],
      "name": "Burn",
      "type": "event"
    },
    {
      "anonymous": false,
      "inputs": [
        {
          "indexed": true,
          "internalType": "address",
          "name": "asset",
          "type": "address"
        }
      ],
      "name": "CollateralDisabled",
      "type": "event"
    },
    {
      "anonymous": false,
      "inputs": [
        {
          "indexed": true,
          "internalType": "address",
          "name": "asset",
          "type": "address"
        },
        {
          "indexed": false,
          "internalType": "uint256",
          "name": "volatilityRatio",
          "type": "uint256"
        }
      ],
      "name": "CollateralEnabled",
      "type": "event"
    },
    {
      "anonymous": false,
      "inputs": [
        {
          "indexed": true,
          "internalType": "address",
          "name": "asset",
          "type": "address"
        }
      ],
      "name": "CollateralRemoved",
      "type": "event"
    },
    {
      "anonymous": false,
      "inputs": [
        {
          "indexed": true,
          "internalType": "address",
          "name": "user",
          "type": "address"
        },
        {
          "indexed": true,
          "internalType": "address",
          "name": "asset",
          "type": "address"
        },
        {
          "indexed": false,
          "internalType": "uint256",
          "name": "amount",
          "type": "uint256"
        }
      ],
      "name": "Deposit",
      "type": "event"
    },
    {
      "anonymous": false,
      "inputs": [
        {
          "indexed": true,
          "internalType": "address",
          "name": "pool",
          "type": "address"
        },
        {
          "indexed": false,
          "internalType": "address",
          "name": "_account",
          "type": "address"
        },
        {
          "indexed": false,
          "internalType": "uint256",
          "name": "accountDelta",
          "type": "uint256"
        },
        {
          "indexed": false,
          "internalType": "uint256",
          "name": "rewardIndex",
          "type": "uint256"
        }
      ],
      "name": "DistributedSYN",
      "type": "event"
    },
    {
      "anonymous": false,
      "inputs": [
        {
          "indexed": true,
          "internalType": "address",
          "name": "user",
          "type": "address"
        },
        {
          "indexed": true,
          "internalType": "address",
          "name": "tradingPool",
          "type": "address"
        },
        {
          "indexed": true,
          "internalType": "address",
          "name": "fromAsset",
          "type": "address"
        },
        {
          "indexed": false,
          "internalType": "address",
          "name": "toAsset",
          "type": "address"
        },
        {
          "indexed": false,
          "internalType": "uint256",
          "name": "fromAmount",
          "type": "uint256"
        },
        {
          "indexed": false,
          "internalType": "uint256",
          "name": "toAmount",
          "type": "uint256"
        }
      ],
      "name": "Exchange",
      "type": "event"
    },
    {
      "anonymous": false,
      "inputs": [
        {
          "indexed": false,
          "internalType": "uint8",
          "name": "version",
          "type": "uint8"
        }
      ],
      "name": "Initialized",
      "type": "event"
    },
    {
      "anonymous": false,
      "inputs": [
        {
          "indexed": true,
          "internalType": "address",
          "name": "user",
          "type": "address"
        },
        {
          "indexed": true,
          "internalType": "address",
          "name": "tradingPool",
          "type": "address"
        },
        {
          "indexed": true,
          "internalType": "address",
          "name": "asset",
          "type": "address"
        },
        {
          "indexed": false,
          "internalType": "uint256",
          "name": "amount",
          "type": "uint256"
        }
      ],
      "name": "Issue",
      "type": "event"
    },
    {
      "anonymous": false,
      "inputs": [
        {
          "indexed": false,
          "internalType": "uint256",
          "name": "_exchangeFee",
          "type": "uint256"
        }
      ],
      "name": "NewExchangeFee",
      "type": "event"
    },
    {
      "anonymous": false,
      "inputs": [
        {
          "indexed": true,
          "internalType": "address",
          "name": "oracle",
          "type": "address"
        }
      ],
      "name": "NewPriceOracle",
      "type": "event"
    },
    {
      "anonymous": false,
      "inputs": [
        {
          "indexed": false,
          "internalType": "address",
          "name": "account",
          "type": "address"
        }
      ],
      "name": "Paused",
      "type": "event"
    },
    {
      "anonymous": false,
      "inputs": [
        {
          "indexed": true,
          "internalType": "bytes32",
          "name": "role",
          "type": "bytes32"
        },
        {
          "indexed": true,
          "internalType": "bytes32",
          "name": "previousAdminRole",
          "type": "bytes32"
        },
        {
          "indexed": true,
          "internalType": "bytes32",
          "name": "newAdminRole",
          "type": "bytes32"
        }
      ],
      "name": "RoleAdminChanged",
      "type": "event"
    },
    {
      "anonymous": false,
      "inputs": [
        {
          "indexed": true,
          "internalType": "bytes32",
          "name": "role",
          "type": "bytes32"
        },
        {
          "indexed": true,
          "internalType": "address",
          "name": "account",
          "type": "address"
        },
        {
          "indexed": true,
          "internalType": "address",
          "name": "sender",
          "type": "address"
        }
      ],
      "name": "RoleGranted",
      "type": "event"
    },
    {
      "anonymous": false,
      "inputs": [
        {
          "indexed": true,
          "internalType": "bytes32",
          "name": "role",
          "type": "bytes32"
        },
        {
          "indexed": true,
          "internalType": "address",
          "name": "account",
          "type": "address"
        },
        {
          "indexed": true,
          "internalType": "address",
          "name": "sender",
          "type": "address"
        }
      ],
      "name": "RoleRevoked",
      "type": "event"
    },
    {
      "anonymous": false,
      "inputs": [
        {
          "indexed": true,
          "internalType": "address",
          "name": "pool",
          "type": "address"
        },
        {
          "indexed": false,
          "internalType": "uint256",
          "name": "rewardSpeed",
          "type": "uint256"
        }
      ],
      "name": "SetPoolRewardSpeed",
      "type": "event"
    },
    {
      "anonymous": false,
      "inputs": [
        {
          "indexed": true,
          "internalType": "address",
          "name": "pool",
          "type": "address"
        }
      ],
      "name": "TradingPoolDisabled",
      "type": "event"
    },
    {
      "anonymous": false,
      "inputs": [
        {
          "indexed": true,
          "internalType": "address",
          "name": "pool",
          "type": "address"
        },
        {
          "indexed": false,
          "internalType": "uint256",
          "name": "volatilityRatio",
          "type": "uint256"
        }
      ],
      "name": "TradingPoolEnabled",
      "type": "event"
    },
    {
      "anonymous": false,
      "inputs": [
        {
          "indexed": true,
          "internalType": "address",
          "name": "pool",
          "type": "address"
        }
      ],
      "name": "TradingPoolRemoved",
      "type": "event"
    },
    {
      "anonymous": false,
      "inputs": [
        {
          "indexed": false,
          "internalType": "address",
          "name": "account",
          "type": "address"
        }
      ],
      "name": "Unpaused",
      "type": "event"
    },
    {
      "anonymous": false,
      "inputs": [
        {
          "indexed": true,
          "internalType": "address",
          "name": "implementation",
          "type": "address"
        }
      ],
      "name": "Upgraded",
      "type": "event"
    },
    {
      "anonymous": false,
      "inputs": [
        {
          "indexed": true,
          "internalType": "address",
          "name": "user",
          "type": "address"
        },
        {
          "indexed": true,
          "internalType": "address",
          "name": "asset",
          "type": "address"
        },
        {
          "indexed": false,
          "internalType": "uint256",
          "name": "amount",
          "type": "uint256"
        }
      ],
      "name": "Withdraw",
      "type": "event"
    },
    {
      "inputs": [],
      "name": "ADMIN_ROLE",
      "outputs": [
        {
          "internalType": "bytes32",
          "name": "",
          "type": "bytes32"
        }
      ],
      "stateMutability": "view",
      "type": "function"
    },
    {
      "inputs": [],
      "name": "DEFAULT_ADMIN_ROLE",
      "outputs": [
        {
          "internalType": "bytes32",
          "name": "",
          "type": "bytes32"
        }
      ],
      "stateMutability": "view",
      "type": "function"
    },
    {
      "inputs": [],
      "name": "PAUSE_GUARDIAN_ROLE",
      "outputs": [
        {
          "internalType": "bytes32",
          "name": "",
          "type": "bytes32"
        }
      ],
      "stateMutability": "view",
      "type": "function"
    },
    {
      "inputs": [],
      "name": "POOL_MANAGER_ROLE",
      "outputs": [
        {
          "internalType": "bytes32",
          "name": "",
          "type": "bytes32"
        }
      ],
      "stateMutability": "view",
      "type": "function"
    },
    {
      "inputs": [
        {
          "internalType": "address",
          "name": "",
          "type": "address"
        },
        {
          "internalType": "address",
          "name": "",
          "type": "address"
        }
      ],
      "name": "accountCollateralBalance",
      "outputs": [
        {
          "internalType": "uint256",
          "name": "",
          "type": "uint256"
        }
      ],
      "stateMutability": "view",
      "type": "function"
    },
    {
      "inputs": [
        {
          "internalType": "address",
          "name": "",
          "type": "address"
        },
        {
          "internalType": "uint256",
          "name": "",
          "type": "uint256"
        }
      ],
      "name": "accountCollaterals",
      "outputs": [
        {
          "internalType": "address",
          "name": "",
          "type": "address"
        }
      ],
      "stateMutability": "view",
      "type": "function"
    },
    {
      "inputs": [
        {
          "internalType": "address",
          "name": "",
          "type": "address"
        },
        {
          "internalType": "uint256",
          "name": "",
          "type": "uint256"
        }
      ],
      "name": "accountPools",
      "outputs": [
        {
          "internalType": "address",
          "name": "",
          "type": "address"
        }
      ],
      "stateMutability": "view",
      "type": "function"
    },
    {
      "inputs": [
        {
          "internalType": "address",
          "name": "_tradingPool",
          "type": "address"
        },
        {
          "internalType": "address",
          "name": "_synth",
          "type": "address"
        },
        {
          "internalType": "uint256",
          "name": "_amount",
          "type": "uint256"
        }
      ],
      "name": "burn",
      "outputs": [],
      "stateMutability": "nonpayable",
      "type": "function"
    },
    {
      "inputs": [
        {
          "internalType": "address",
          "name": "holder",
          "type": "address"
        },
        {
          "internalType": "address[]",
          "name": "cTokens",
          "type": "address[]"
        }
      ],
      "name": "claimSYN",
      "outputs": [],
      "stateMutability": "nonpayable",
      "type": "function"
    },
    {
      "inputs": [
        {
          "internalType": "address",
          "name": "holder",
          "type": "address"
        }
      ],
      "name": "claimSYN",
      "outputs": [],
      "stateMutability": "nonpayable",
      "type": "function"
    },
    {
      "inputs": [
        {
          "internalType": "address[]",
          "name": "holders",
          "type": "address[]"
        },
        {
          "internalType": "address[]",
          "name": "_tradingPools",
          "type": "address[]"
        }
      ],
      "name": "claimSYN",
      "outputs": [],
      "stateMutability": "nonpayable",
      "type": "function"
    },
    {
      "inputs": [
        {
          "internalType": "address",
          "name": "market",
          "type": "address"
        },
        {
          "internalType": "address",
          "name": "account",
          "type": "address"
        }
      ],
      "name": "collateralMembership",
      "outputs": [
        {
          "internalType": "bool",
          "name": "",
          "type": "bool"
        }
      ],
      "stateMutability": "view",
      "type": "function"
    },
    {
      "inputs": [
        {
          "internalType": "address",
          "name": "",
          "type": "address"
        }
      ],
      "name": "collaterals",
      "outputs": [
        {
          "internalType": "bool",
          "name": "isEnabled",
          "type": "bool"
        },
        {
          "internalType": "uint256",
          "name": "volatilityRatio",
          "type": "uint256"
        }
      ],
      "stateMutability": "view",
      "type": "function"
    },
    {
      "inputs": [
        {
          "internalType": "uint256",
          "name": "",
          "type": "uint256"
        }
      ],
      "name": "collateralsList",
      "outputs": [
        {
          "internalType": "address",
          "name": "",
          "type": "address"
        }
      ],
      "stateMutability": "view",
      "type": "function"
    },
    {
      "inputs": [],
      "name": "compInitialIndex",
      "outputs": [
        {
          "internalType": "uint256",
          "name": "",
          "type": "uint256"
        }
      ],
      "stateMutability": "view",
      "type": "function"
    },
    {
      "inputs": [
        {
          "internalType": "address",
          "name": "_collateral",
          "type": "address"
        },
        {
          "internalType": "uint256",
          "name": "_amount",
          "type": "uint256"
        }
      ],
      "name": "deposit",
      "outputs": [],
      "stateMutability": "payable",
      "type": "function"
    },
    {
      "inputs": [
        {
          "internalType": "address",
          "name": "_collateral",
          "type": "address"
        }
      ],
      "name": "disableCollateral",
      "outputs": [],
      "stateMutability": "nonpayable",
      "type": "function"
    },
    {
      "inputs": [
        {
          "internalType": "address",
          "name": "_tradingPool",
          "type": "address"
        }
      ],
      "name": "disableTradingPool",
      "outputs": [],
      "stateMutability": "nonpayable",
      "type": "function"
    },
    {
      "inputs": [],
      "name": "dummy",
      "outputs": [
        {
          "internalType": "uint256",
          "name": "",
          "type": "uint256"
        }
      ],
      "stateMutability": "pure",
      "type": "function"
    },
    {
      "inputs": [
        {
          "internalType": "address",
          "name": "_collateral",
          "type": "address"
        },
        {
          "internalType": "uint256",
          "name": "_volatilityRatio",
          "type": "uint256"
        }
      ],
      "name": "enableCollateral",
      "outputs": [],
      "stateMutability": "nonpayable",
      "type": "function"
    },
    {
      "inputs": [
        {
          "internalType": "address",
          "name": "_tradingPool",
          "type": "address"
        },
        {
          "internalType": "uint256",
          "name": "_volatilityRatio",
          "type": "uint256"
        }
      ],
      "name": "enableTradingPool",
      "outputs": [],
      "stateMutability": "nonpayable",
      "type": "function"
    },
    {
      "inputs": [
        {
          "internalType": "address",
          "name": "_collateral",
          "type": "address"
        },
        {
          "internalType": "uint256",
          "name": "_amount",
          "type": "uint256"
        }
      ],
      "name": "enterAndDeposit",
      "outputs": [],
      "stateMutability": "payable",
      "type": "function"
    },
    {
      "inputs": [
        {
          "internalType": "address",
          "name": "_tradingPool",
          "type": "address"
        },
        {
          "internalType": "address",
          "name": "_synth",
          "type": "address"
        },
        {
          "internalType": "uint256",
          "name": "_amount",
          "type": "uint256"
        }
      ],
      "name": "enterAndIssue",
      "outputs": [],
      "stateMutability": "nonpayable",
      "type": "function"
    },
    {
      "inputs": [
        {
          "internalType": "address",
          "name": "_collateral",
          "type": "address"
        }
      ],
      "name": "enterCollateral",
      "outputs": [],
      "stateMutability": "nonpayable",
      "type": "function"
    },
    {
      "inputs": [
        {
          "internalType": "address",
          "name": "_tradingPool",
          "type": "address"
        }
      ],
      "name": "enterPool",
      "outputs": [],
      "stateMutability": "nonpayable",
      "type": "function"
    },
    {
      "inputs": [
        {
          "internalType": "address",
          "name": "_tradingPool",
          "type": "address"
        },
        {
          "internalType": "address",
          "name": "_synthFrom",
          "type": "address"
        },
        {
          "internalType": "address",
          "name": "_synthTo",
          "type": "address"
        },
        {
          "internalType": "uint256",
          "name": "_amount",
          "type": "uint256"
        }
      ],
      "name": "exchange",
      "outputs": [],
      "stateMutability": "nonpayable",
      "type": "function"
    },
    {
      "inputs": [],
      "name": "exchangeFee",
      "outputs": [
        {
          "internalType": "uint256",
          "name": "",
          "type": "uint256"
        }
      ],
      "stateMutability": "view",
      "type": "function"
    },
    {
      "inputs": [],
      "name": "exchangeFeeMantissa",
      "outputs": [
        {
          "internalType": "uint256",
          "name": "",
          "type": "uint256"
        }
      ],
      "stateMutability": "view",
      "type": "function"
    },
    {
      "inputs": [
        {
          "internalType": "address",
          "name": "_collateral",
          "type": "address"
        }
      ],
      "name": "exitCollateral",
      "outputs": [],
      "stateMutability": "nonpayable",
      "type": "function"
    },
    {
      "inputs": [
        {
          "internalType": "address",
          "name": "_tradingPool",
          "type": "address"
        }
      ],
      "name": "exitPool",
      "outputs": [],
      "stateMutability": "nonpayable",
      "type": "function"
    },
    {
      "inputs": [
        {
          "internalType": "address",
          "name": "_account",
          "type": "address"
        }
      ],
      "name": "getAdjustedUserTotalCollateralUSD",
      "outputs": [
        {
          "internalType": "uint256",
          "name": "",
          "type": "uint256"
        }
      ],
      "stateMutability": "view",
      "type": "function"
    },
    {
      "inputs": [
        {
          "internalType": "address",
          "name": "_account",
          "type": "address"
        }
      ],
      "name": "getAdjustedUserTotalDebtUSD",
      "outputs": [
        {
          "internalType": "uint256",
          "name": "",
          "type": "uint256"
        }
      ],
      "stateMutability": "view",
      "type": "function"
    },
    {
      "inputs": [
        {
          "internalType": "address",
          "name": "_account",
          "type": "address"
        }
      ],
      "name": "getLTV",
      "outputs": [
        {
          "internalType": "uint256",
          "name": "",
          "type": "uint256"
        }
      ],
      "stateMutability": "view",
      "type": "function"
    },
    {
      "inputs": [
        {
          "internalType": "address",
          "name": "_tradingPool",
          "type": "address"
        }
      ],
      "name": "getPoolTotalDebtUSD",
      "outputs": [
        {
          "internalType": "uint256",
          "name": "",
          "type": "uint256"
        }
      ],
      "stateMutability": "view",
      "type": "function"
    },
    {
      "inputs": [
        {
          "internalType": "bytes32",
          "name": "role",
          "type": "bytes32"
        }
      ],
      "name": "getRoleAdmin",
      "outputs": [
        {
          "internalType": "bytes32",
          "name": "",
          "type": "bytes32"
        }
      ],
      "stateMutability": "view",
      "type": "function"
    },
    {
      "inputs": [
        {
          "internalType": "address",
          "name": "_account",
          "type": "address"
        }
      ],
      "name": "getSYNAccrued",
      "outputs": [
        {
          "internalType": "uint256",
          "name": "",
          "type": "uint256"
        }
      ],
      "stateMutability": "nonpayable",
      "type": "function"
    },
    {
      "inputs": [
        {
          "internalType": "address",
          "name": "_account",
          "type": "address"
        },
        {
          "internalType": "address",
          "name": "_tradingPool",
          "type": "address"
        }
      ],
      "name": "getUserPoolDebtUSD",
      "outputs": [
        {
          "internalType": "uint256",
          "name": "",
          "type": "uint256"
        }
      ],
      "stateMutability": "view",
      "type": "function"
    },
    {
      "inputs": [
        {
          "internalType": "address",
          "name": "_account",
          "type": "address"
        }
      ],
      "name": "getUserTotalCollateralUSD",
      "outputs": [
        {
          "internalType": "uint256",
          "name": "",
          "type": "uint256"
        }
      ],
      "stateMutability": "view",
      "type": "function"
    },
    {
      "inputs": [
        {
          "internalType": "address",
          "name": "_account",
          "type": "address"
        }
      ],
      "name": "getUserTotalDebtUSD",
      "outputs": [
        {
          "internalType": "uint256",
          "name": "",
          "type": "uint256"
        }
      ],
      "stateMutability": "view",
      "type": "function"
    },
    {
      "inputs": [
        {
          "internalType": "bytes32",
          "name": "role",
          "type": "bytes32"
        },
        {
          "internalType": "address",
          "name": "account",
          "type": "address"
        }
      ],
      "name": "grantRole",
      "outputs": [],
      "stateMutability": "nonpayable",
      "type": "function"
    },
    {
      "inputs": [
        {
          "internalType": "bytes32",
          "name": "role",
          "type": "bytes32"
        },
        {
          "internalType": "address",
          "name": "account",
          "type": "address"
        }
      ],
      "name": "hasRole",
      "outputs": [
        {
          "internalType": "bool",
          "name": "",
          "type": "bool"
        }
      ],
      "stateMutability": "view",
      "type": "function"
    },
    {
      "inputs": [
        {
          "internalType": "address",
          "name": "_account",
          "type": "address"
        }
      ],
      "name": "healthFactor",
      "outputs": [
        {
          "internalType": "uint256",
          "name": "",
          "type": "uint256"
        }
      ],
      "stateMutability": "view",
      "type": "function"
    },
    {
      "inputs": [
        {
          "internalType": "address",
          "name": "_syn",
          "type": "address"
        },
        {
          "internalType": "address",
          "name": "admin",
          "type": "address"
        },
        {
          "internalType": "address",
          "name": "pauser",
          "type": "address"
        },
        {
          "internalType": "address",
          "name": "poolManager",
          "type": "address"
        },
        {
          "internalType": "address",
          "name": "_addressStorage",
          "type": "address"
        }
      ],
      "name": "initialize",
      "outputs": [],
      "stateMutability": "nonpayable",
      "type": "function"
    },
    {
      "inputs": [
        {
          "internalType": "address",
          "name": "_tradingPool",
          "type": "address"
        },
        {
          "internalType": "address",
          "name": "_synth",
          "type": "address"
        },
        {
          "internalType": "uint256",
          "name": "_amount",
          "type": "uint256"
        }
      ],
      "name": "issue",
      "outputs": [],
      "stateMutability": "nonpayable",
      "type": "function"
    },
    {
      "inputs": [
        {
          "internalType": "address",
          "name": "_account",
          "type": "address"
        },
        {
          "internalType": "address",
          "name": "_tradingPool",
          "type": "address"
        },
        {
          "internalType": "address",
          "name": "_inAsset",
          "type": "address"
        },
        {
          "internalType": "uint256",
          "name": "_inAmount",
          "type": "uint256"
        },
        {
          "internalType": "address",
          "name": "_outAsset",
          "type": "address"
        }
      ],
      "name": "liquidate",
      "outputs": [],
      "stateMutability": "nonpayable",
      "type": "function"
    },
    {
      "inputs": [],
      "name": "oracle",
      "outputs": [
        {
          "internalType": "contract PriceOracle",
          "name": "",
          "type": "address"
        }
      ],
      "stateMutability": "view",
      "type": "function"
    },
    {
      "inputs": [],
      "name": "pause",
      "outputs": [],
      "stateMutability": "nonpayable",
      "type": "function"
    },
    {
      "inputs": [],
      "name": "paused",
      "outputs": [
        {
          "internalType": "bool",
          "name": "",
          "type": "bool"
        }
      ],
      "stateMutability": "view",
      "type": "function"
    },
    {
      "inputs": [],
      "name": "proxiableUUID",
      "outputs": [
        {
          "internalType": "bytes32",
          "name": "",
          "type": "bytes32"
        }
      ],
      "stateMutability": "view",
      "type": "function"
    },
    {
      "inputs": [
        {
          "internalType": "address",
          "name": "_collateral",
          "type": "address"
        }
      ],
      "name": "removeCollateral",
      "outputs": [],
      "stateMutability": "nonpayable",
      "type": "function"
    },
    {
      "inputs": [
        {
          "internalType": "address",
          "name": "_tradingPool",
          "type": "address"
        }
      ],
      "name": "removeTradingPool",
      "outputs": [],
      "stateMutability": "nonpayable",
      "type": "function"
    },
    {
      "inputs": [
        {
          "internalType": "bytes32",
          "name": "role",
          "type": "bytes32"
        },
        {
          "internalType": "address",
          "name": "account",
          "type": "address"
        }
      ],
      "name": "renounceRole",
      "outputs": [],
      "stateMutability": "nonpayable",
      "type": "function"
    },
    {
      "inputs": [
        {
          "internalType": "bytes32",
          "name": "role",
          "type": "bytes32"
        },
        {
          "internalType": "address",
          "name": "account",
          "type": "address"
        }
      ],
      "name": "revokeRole",
      "outputs": [],
      "stateMutability": "nonpayable",
      "type": "function"
    },
    {
      "inputs": [],
      "name": "safeCRatio",
      "outputs": [
        {
          "internalType": "uint256",
          "name": "",
          "type": "uint256"
        }
      ],
      "stateMutability": "view",
      "type": "function"
    },
    {
      "inputs": [
        {
          "internalType": "uint256",
          "name": "_exchangeFee",
          "type": "uint256"
        }
      ],
      "name": "setExchangeFee",
      "outputs": [],
      "stateMutability": "nonpayable",
      "type": "function"
    },
    {
      "inputs": [
        {
          "internalType": "address",
          "name": "_oracle",
          "type": "address"
        }
      ],
      "name": "setOracle",
      "outputs": [],
      "stateMutability": "nonpayable",
      "type": "function"
    },
    {
      "inputs": [
        {
          "internalType": "address",
          "name": "_tradingPool",
          "type": "address"
        },
        {
          "internalType": "uint256",
          "name": "_speed",
          "type": "uint256"
        }
      ],
      "name": "setPoolSpeed",
      "outputs": [],
      "stateMutability": "nonpayable",
      "type": "function"
    },
    {
      "inputs": [
        {
          "internalType": "bytes4",
          "name": "interfaceId",
          "type": "bytes4"
        }
      ],
      "name": "supportsInterface",
      "outputs": [
        {
          "internalType": "bool",
          "name": "",
          "type": "bool"
        }
      ],
      "stateMutability": "view",
      "type": "function"
    },
    {
      "inputs": [],
      "name": "syn",
      "outputs": [
        {
          "internalType": "contract SyntheXToken",
          "name": "",
          "type": "address"
        }
      ],
      "stateMutability": "view",
      "type": "function"
    },
    {
      "inputs": [
        {
          "internalType": "address",
          "name": "",
          "type": "address"
        }
      ],
      "name": "synAccrued",
      "outputs": [
        {
          "internalType": "uint256",
          "name": "",
          "type": "uint256"
        }
      ],
      "stateMutability": "view",
      "type": "function"
    },
    {
      "inputs": [
        {
          "internalType": "address",
          "name": "",
          "type": "address"
        },
        {
          "internalType": "address",
          "name": "",
          "type": "address"
        }
      ],
      "name": "synBorrowerIndex",
      "outputs": [
        {
          "internalType": "uint256",
          "name": "",
          "type": "uint256"
        }
      ],
      "stateMutability": "view",
      "type": "function"
    },
    {
      "inputs": [
        {
          "internalType": "address",
          "name": "",
          "type": "address"
        }
      ],
      "name": "synRewardSpeeds",
      "outputs": [
        {
          "internalType": "uint256",
          "name": "",
          "type": "uint256"
        }
      ],
      "stateMutability": "view",
      "type": "function"
    },
    {
      "inputs": [
        {
          "internalType": "address",
          "name": "",
          "type": "address"
        }
      ],
      "name": "synRewardState",
      "outputs": [
        {
          "internalType": "uint224",
          "name": "index",
          "type": "uint224"
        },
        {
          "internalType": "uint32",
          "name": "timestamp",
          "type": "uint32"
        }
      ],
      "stateMutability": "view",
      "type": "function"
    },
    {
      "inputs": [],
      "name": "synthexVault",
      "outputs": [
        {
          "internalType": "contract Vault",
          "name": "",
          "type": "address"
        }
      ],
      "stateMutability": "view",
      "type": "function"
    },
    {
      "inputs": [
        {
          "internalType": "address",
          "name": "market",
          "type": "address"
        },
        {
          "internalType": "address",
          "name": "account",
          "type": "address"
        }
      ],
      "name": "tradingPoolMembership",
      "outputs": [
        {
          "internalType": "bool",
          "name": "",
          "type": "bool"
        }
      ],
      "stateMutability": "view",
      "type": "function"
    },
    {
      "inputs": [
        {
          "internalType": "address",
          "name": "",
          "type": "address"
        }
      ],
      "name": "tradingPools",
      "outputs": [
        {
          "internalType": "bool",
          "name": "isEnabled",
          "type": "bool"
        },
        {
          "internalType": "uint256",
          "name": "volatilityRatio",
          "type": "uint256"
        }
      ],
      "stateMutability": "view",
      "type": "function"
    },
    {
      "inputs": [
        {
          "internalType": "uint256",
          "name": "",
          "type": "uint256"
        }
      ],
      "name": "tradingPoolsList",
      "outputs": [
        {
          "internalType": "address",
          "name": "",
          "type": "address"
        }
      ],
      "stateMutability": "view",
      "type": "function"
    },
    {
      "inputs": [],
      "name": "unpause",
      "outputs": [],
      "stateMutability": "nonpayable",
      "type": "function"
    },
    {
      "inputs": [
        {
          "internalType": "address",
          "name": "newImplementation",
          "type": "address"
        }
      ],
      "name": "upgradeTo",
      "outputs": [],
      "stateMutability": "nonpayable",
      "type": "function"
    },
    {
      "inputs": [
        {
          "internalType": "address",
          "name": "newImplementation",
          "type": "address"
        },
        {
          "internalType": "bytes",
          "name": "data",
          "type": "bytes"
        }
      ],
      "name": "upgradeToAndCall",
      "outputs": [],
      "stateMutability": "payable",
      "type": "function"
    },
    {
      "inputs": [
        {
          "internalType": "address",
          "name": "_collateral",
          "type": "address"
        },
        {
          "internalType": "uint256",
          "name": "_amount",
          "type": "uint256"
        }
      ],
      "name": "withdraw",
      "outputs": [],
      "stateMutability": "nonpayable",
      "type": "function"
    }
  ],
  "bytecode": "0x60a0806040523461003157306080526153779081610037823960805181818161190901528181611a4101526125950152f35b600080fdfe608080604052600436101561001357600080fd5b600090813560e01c90816301ffc9a714613300575080630b0d3379146130ab5780631459457a14612b5a57806315deef4b14612b365780631b57d1ac14612aea578063248a9ca314612abd5780632558626d14612a9057806329553e9914612a195780632cf41e25146129e75780632ecd3be4146129c85780632f2ff15d1461291457806332e43a11146128f657806336568abe146128565780633659cfe61461256e57806336cc366b1461252a5780633bf0a549146125025780633f4ba83a1461246457806344f7a1b0146123785780634509e6ae1461233d57806347e7ef241461219e5780634b2bc5df14611d355780634f1ef286146119c357806352d1902d146118ee57806352e7ce911461185557806353640ac2146117c057806356d73568146117855780635c975abb146117615780636aa3f86c146117285780636ad9f9df1461170457806375b238fc146116c957806375c038b71461165257806378c5266b146115f65780637adbf973146115845780637dc0d1d01461155c5780638456cb59146115005780638b2e1eaa146114ac57806391d148541461145f5780639df8cc7b14611410578063a217fddf146113f4578063a7f0e231146113ca578063a9824931146113a8578063aa3b3a1e1461134f578063aca25f9a1461132b578063aed0bf88146112d2578063b140bf03146112b3578063b35818981461125b578063b3593f2014611238578063b613999214611229578063b7f85d0f1461119b578063ba5a2d33146110b2578063be281f6714611061578063c1ea198a14611039578063c29611f714610fe8578063c99d3a0614610e90578063caca550f14610e32578063cd82b76e14610de8578063d547741f14610daa578063d74fbae914610d1f578063db46f70214610cc1578063ec3b8f1a14610c9d578063edc280c114610c79578063eeb97d3b14610c1d578063ef9fb991146108f4578063f0a4d9e2146108bb578063f3fef3a314610655578063f43100cf14610627578063f6b911bc146103d3578063fca3508b146103af578063fd1e8c8514610381578063fe35ea95146103555763ffd10e071461032e57600080fd5b346103525760203660031901126103525761034f61034a613388565b613f39565b80f35b80fd5b5034610352576020366003190112610352576020610379610374613388565b614c95565b604051908152f35b50346103525760403660031901126103525761034f61039e613388565b6103a6613805565b602435906145e1565b50346103525760203660031901126103525760206103796103ce613388565b615118565b5034610352576103e2366135a8565b6103ea614094565b6103f26140e5565b6103fb83614662565b61040533846147df565b6001600160a01b03918261016254169360405163b3596f0760e01b8152604081602481888716998a60048301525afa801561061c5787906105dc575b610464915061045e6020610456835188613d71565b9201516143d9565b906143e7565b9361046f823361502f565b858110156105d457915b670de0b6b3a764000092838102908082048514901517156105c057926104b18193926104a7898c98976143e7565b9384911698613d71565b04863b156105bc57604051632770a7eb60e21b815233600482015260248101919091528481604481838b5af19081156105b157859161059d575b50506104f79085613d71565b0490843b1561059957604051637d9e4b0960e11b81526001600160a01b039190911660048201523360248201526044810191909152818160648183885af1801561058e57610576575b50506040519081527ff8a861f822ed8ac8743e429937c8bb8952ca8617a40319ef7fde892039aac12860203392a4600160fb5580f35b61057f9061347c565b61058a578338610540565b8380fd5b6040513d84823e3d90fd5b8280fd5b6105a69061347c565b61058a5783386104eb565b6040513d87823e3d90fd5b8480fd5b602489634e487b7160e01b81526011600452fd5b508491610479565b5060403d604011610615575b6105f281836134e4565b810190604081830312610611576104649161060c916143a0565b610441565b8780fd5b503d6105e8565b6040513d89823e3d90fd5b50346103525760403660031901126103525761034f610644613388565b61064c6135dd565b60243590614550565b50346103525760403660031901126103525761066f613388565b60243561067a614094565b6106826140e5565b3383526101656020908082526001600160a01b036040862094169384600052825260406000205483811061087757836106ba91613f8e565b90338652825260408520846000528252604060002055821560001461079b5781471061075757838083801561074d575b8280929181923390f115610742577f9b1bfa7fa9ee420a16e124f794c35ac9f90472acc99140eb2f6447c714cad8eb905b61073161072733614c13565b61016154106142b0565b6040519283523392a3600160fb5580f35b6040513d85823e3d90fd5b6108fc91506106ea565b6064906040519062461bcd60e51b82526004820152601860248201527f496e73756666696369656e74204554482062616c616e636500000000000000006044820152fd5b6040516370a0823160e01b81523060048201528181602481875afa80156105b15783918691610841575b50106107fd577f9b1bfa7fa9ee420a16e124f794c35ac9f90472acc99140eb2f6447c714cad8eb906107f88333866142fb565b61071b565b6064906040519062461bcd60e51b82526004820152601a60248201527f496e73756666696369656e742045524332302062616c616e63650000000000006044820152fd5b809250838092503d8311610870575b61085a81836134e4565b8101031261086b57829051386107c5565b600080fd5b503d610850565b6064836040519062461bcd60e51b82526004820152601460248201527f496e73756666696369656e742062616c616e63650000000000000000000000006044820152fd5b50346103525760203660031901126103525760406020916001600160a01b036108e2613388565b16815261016d83522054604051908152f35b503461035257610903366135a8565b61090c83613f39565b610914614094565b61091c6140e5565b6001600160a01b0380841692838652602091610166835260026040882061094660ff825416614355565b3360005201835260ff6040600020541615610bd957604051957f9f087dd60000000000000000000000000000000000000000000000000000000087528183169687600482015284816024818a5afa908115610bce578991610ba1575b5015610b5d5760408893926109c3836109bc602495614662565b33906147df565b610162541681519283809263b3596f0760e01b82528b60048301525afa8015610742578390610b21575b610a01915061045e85610456835189613d71565b853b15610599576040517f40c10f1900000000000000000000000000000000000000000000000000000000815233600482015260248101919091528281604481838a5af1908115610742578391610b0d575b5050843b15610b09576040517f5bf0abbc0000000000000000000000000000000000000000000000000000000081526001600160a01b0391909116600482015233602482015260448101849052818160648183895af1801561058e57610af5575b50507f65adeb76912378393e600cb6f64f3310842a42e1eae86273dc775d0c47a0f2dc90610ae461072733614c13565b6040519283523392a4600160fb5580f35b610afe9061347c565b6105bc578438610ab4565b5080fd5b610b169061347c565b610b09578138610a53565b5060403d604011610b56575b610b3781836134e4565b81019060408183031261058a57610a0191610b51916143a0565b6109ed565b503d610b2d565b6064846040519062461bcd60e51b82526004820152601160248201527f53796e7468206e6f7420656e61626c65640000000000000000000000000000006044820152fd5b610bc19150853d8711610bc7575b610bb981836134e4565b81019061413a565b386109a2565b503d610baf565b6040513d8b823e3d90fd5b6064836040519062461bcd60e51b82526004820152601b60248201527f4163636f756e74206e6f7420696e2074726164696e6720706f6f6c00000000006044820152fd5b5034610352576020366003190112610352576040906001600160a01b03610c42613388565b16815261016760205220600160ff82541691015490610c7560405192839283602090939291936040810194151581520152565b0390f35b5034610352576020366003190112610352576020610379610c98613388565b614f9f565b5034610352576020366003190112610352576020610379610cbc613388565b614dd3565b503461035257602036600319011261035257600435906101699081548310156103525760206001600160a01b0384846000527fbd88e1fd0aa5f3038c0cd2a68644e2d11f4e4e7e3693adba414318f2127ca426015416604051908152f35b503461035257604036600319011261035257610d39613388565b7f5d3499d6e736144c38c9b359bc39a19d214790ce4b72f63523d104f98af5a99a6020602435610d676135dd565b610d926001600160a01b038516948587526101668452610d8d60ff604089205416614355565b614662565b83855261016a8252806040862055604051908152a280f35b50346103525760403660031901126103525761034f600435610dca61339e565b9080845260c9602052610de36001604086200154613951565b613ab0565b503461035257602036600319011261035257604080916001600160a01b03610e0e613388565b16815261016b60205220548151906001600160e01b038116825260e01c6020820152f35b503461035257602036600319011261035257600435906101689081548310156103525760206001600160a01b0384846000527f8077777ae4769de06cbfd1c0b8b1f653b51ec156d91a9aca16a4102f19e03d9e015416604051908152f35b503461035257602036600319011261035257610eaa613388565b610eb2613805565b6001600160a01b0390811680835261016760205260408320805460ff19169055825b610169805480831015610fe0578484610eec8561342d565b929054600393841b1c1614610f0c57505050610f0790613f7f565b610ed4565b93949193600019939291848101908111610fcc5791610f3e91610f32610f63959461342d565b9054911b1c169161342d565b90919082549060031b916001600160a01b039283811b93849216901b16911916179055565b81548015610fb6570190610f8e610f798361342d565b6001600160a01b0382549160031b1b19169055565b557fd89d2ee68ab04dca0193f48a4aff55e20fa5ec0429a8a8c1c51b8dad6178a5938280a280f35b634e487b7160e01b600052603160045260246000fd5b602488634e487b7160e01b81526011600452fd5b505050505080f35b503461035257604036600319011261035257611002613388565b604061100c61339e565b926001600160a01b03809316815261016c6020522091166000526020526020604060002054604051908152f35b503461035257806003193601126103525760206001600160a01b036101d25416604051908152f35b50346103525760403660031901126103525761107b613388565b604061108561339e565b926001600160a01b0380931681526101656020522091166000526020526020604060002054604051908152f35b503461035257602080600319360112610b09576001600160a01b0390816110d7613388565b1690818452610166815260026040852001336000528152604060002060ff198154169055835b3385526101638083526040862054821015610fe05784846111218460408a20613464565b929054600393841b1c161461114057505061113b90613f7f565b6110fd565b909491929350338652848452604086206040872054906000198201918211610fcc579161117561118b959492610f3e94613464565b9054911b1c169133875285855260408720613464565b3383525261034f60408220613f9b565b503461035257602080600319360112610b09576001600160a01b0390816111c0613388565b1690818452610167815260026040852001336000528152604060002060ff198154169055835b3385526101648083526040862054821015610fe057848461120a8460408a20613464565b929054600393841b1c161461114057505061122490613f7f565b6111e6565b50346103525761090c366135a8565b50346103525780600319360112610352576020604051670de0b6b3a76400008152f35b5034610352576020366003190112610352576040906001600160a01b03611280613388565b16815261016660205220600160ff82541691015490610c7560405192839283602090939291936040810194151581520152565b5034610352578060031936011261035257602061016154604051908152f35b5034610352576040366003190112610352576112ec613388565b600260406112f861339e565b936001600160a01b03809416815261016660205220019116600052602052602060ff604060002054166040519015158152f35b503461035257602036600319011261035257602061037961134a613388565b614c59565b503461035257604036600319011261035257611369613388565b6002604061137561339e565b936001600160a01b03809416815261016760205220019116600052602052602060ff604060002054166040519015158152f35b50346103525760203660031901126103525761034f6113c5613388565b613fb8565b503461035257806003193601126103525760206040516ec097ce7bc90715b34b9f10000000008152f35b5034610352578060031936011261035257602090604051908152f35b5034610352576020366003190112610352577fae372d52810608dca793b2c8d4a85801f12f42beef5d474998c67936a4c277bd6020600435611450613805565b8061016055604051908152a180f35b5034610352576040366003190112610352576001600160a01b03604061148361339e565b92600435815260c9602052209116600052602052602060ff604060002054166040519015158152f35b50346103525760403660031901126103525767ffffffffffffffff600435818111610599576114df90369060040161351e565b602435918211610599576114fa61034f92369060040161351e565b90614a5b565b5034610352578060031936011261035257611519613805565b611521614094565b61012d600160ff198254161790557f62e78cea01bee320cd4e420270b5ea74000d11b0c9f74754ebdbfc544b05a2586020604051338152a180f35b503461035257806003193601126103525760206001600160a01b036101625416604051908152f35b5034610352576020366003190112610352576001600160a01b036115a6613388565b6115ae613805565b166101628173ffffffffffffffffffffffffffffffffffffffff198254161790557ff261845a790fe29bbd6631e2ca4a5bdc83e6eed7c3271d9590d97287e00e91238280a280f35b503461035257604036600319011261035257611610613388565b602435916001600160a01b03809216815261016360205260408120908154841015610352575060209261164291613464565b9190546040519260031b1c168152f35b5034610352576020366003190112610352576001600160a01b03611674613388565b61167c613805565b1680825261016760205260ff604083205416611696575080f35b60408220805460ff191690557f192895f9a14975ce177e9612fd4f4459e31169d79cb650596bcce0622bd70a928280a280f35b503461035257806003193601126103525760206040517fa49807205ce4d355092ef5a8a18f56e8913cf4a201fbe287825b095693c217758152f35b5034610352576020366003190112610352576020610379611723613388565b614c13565b50346103525760203660031901126103525760406020916001600160a01b0361174f613388565b16815261016a83522054604051908152f35b5034610352578060031936011261035257602060ff61012d54166040519015158152f35b503461035257806003193601126103525760206040517f6077685936c8169d09204a1d97db12e41713588c38e1d29a61867d3dcee98aff8152f35b50346103525760209081600319360112610352576117dc613388565b60405161016880548083526000918252828601959293927f8077777ae4769de06cbfd1c0b8b1f653b51ec156d91a9aca16a4102f19e03d9e92905b828210611835578661034f8787611830828d03836134e4565b6149db565b83546001600160a01b031688529687019660019384019390910190611817565b5034610352576020908160031936011261035257611871613388565b815b610168548110156118cf57806118c5836001600160a01b036118976118ca956133e0565b90549060031b1c1680875261016688526118b760ff604089205416614a10565b6118c081614662565b6147df565b613f7f565b611873565b50906001600160a01b0360409216815261016d83522054604051908152f35b50346103525780600319360112610352576001600160a01b037f00000000000000000000000000000000000000000000000000000000000000001630036119595760206040517f360894a13ba1a3210667c828492db98dca3e2076cc3735a920a3ca505d382bbc8152f35b608460405162461bcd60e51b815260206004820152603860248201527f555550535570677261646561626c653a206d757374206e6f742062652063616c60448201527f6c6564207468726f7567682064656c656761746563616c6c00000000000000006064820152fd5b506040366003190112610352576119d8613388565b90602491823567ffffffffffffffff8111610599573660238201121561059957806004013590611a078261358c565b611a1460405191826134e4565b8281526020928382019236888383010111611d3157818792898793018637830101526001600160a01b03807f00000000000000000000000000000000000000000000000000000000000000001690611a6e82301415613b27565b611a9d7f360894a13ba1a3210667c828492db98dca3e2076cc3735a920a3ca505d382bbc928284541614613b98565b611aa5613805565b7f4910fdfa16fed3260ed0e7147f7cc6da11a60208b5b9406d12a635614ffd91435460ff1615611adf57505050505061034f919250613c09565b8596949616906040516352d1902d60e01b81528781600481865afa60009181611d02575b50611b7157608488602e8b6040519262461bcd60e51b845260048401528201527f45524331393637557067726164653a206e657720696d706c656d656e7461746960448201527f6f6e206973206e6f7420555550530000000000000000000000000000000000006064820152fd5b979192939496959703611cad57611b8787613c09565b604051917fbc7cd75a20ee27fd9adebab32041f755214dbc6bffa90cc0225b39da2e5c2d3b600080a2825115801590611ca5575b611bca575b5050505050905080f35b863b15611c56575050611c4a9394600092839251915af4611be9613cc3565b907f416464726573733a206c6f772d6c6576656c2064656c65676174652063616c6c60405193611c1885613490565b602785528401527f206661696c6564000000000000000000000000000000000000000000000000006040840152613cf3565b50803880808080611bc0565b9060266084928662461bcd60e51b845260048401528201527f416464726573733a2064656c65676174652063616c6c20746f206e6f6e2d636f6044820152651b9d1c9858dd60d21b6064820152fd5b506001611bbb565b8460296084926040519262461bcd60e51b845260048401528201527f45524331393637557067726164653a20756e737570706f727465642070726f786044820152681a58589b195555525160ba1b6064820152fd5b90918982813d8311611d2a575b611d1981836134e4565b810103126103525750519038611b03565b503d611d0f565b8680fd5b50346103525760a036600319011261035257611d4f613388565b611d5761339e565b611d5f6133b4565b611d676133ca565b92611d70614094565b611d786140e5565b611d8181614c13565b670de0b6b3a764000081101561215a5715612116578491611da56064351515614407565b611dae82614c59565b611e1c84604051611dbe81613490565b600281526040366020830137611dd381614452565b6001600160a01b0386169052611de88161445f565b6001600160a01b038a1690526001600160a01b036101625416604051808095819463053c81b560e01b83526004830161450c565b03915afa9081156105b15785916120f4575b506001600160a01b0387168552610167602052600260408620611e5460ff825416613ffe565b6001600160a01b03861660005201602052611e7660ff60406000205416614049565b6001600160a01b0384168552610165602052604085206001600160a01b03881660005260205260406000205495611f10611f02670de0b6b3a7640000611ef086611eeb611ecf611ec589614452565b5151606435613d71565b611ee56020611edd8b61445f565b5101516143d9565b90613d71565b613d71565b04611efa8561445f565b5151906143e7565b61045e6020611edd86614452565b968781106120ec575b90611f2c886001600160a01b0393613f8e565b828716885261016560205260408820838b166000526020526040600020551693611f82611f7484611f6f611f6a611f628761445f565b51518c613d71565b613d3e565b6143e7565b61045e6020611edd8661445f565b90853b15611d3157604051632770a7eb60e21b81526001600160a01b039190911660048201526024810191909152858160448183895af180156120e157879187916120ca575b50506020611edd61200d61200461201396611f6f611f6a611ff761045e98611fef8b61445f565b515190613d71565b611ee588611edd8c614452565b611efa86614452565b9361445f565b823b1561058a57604051637d9e4b0960e11b81526001600160a01b0392909216600483015233602483015260448201529082908290606490829084905af1801561058e576120b6575b505061208a90338452610165602052604084206001600160a01b038416600052602052604060002054613d84565b903383526101656020526001600160a01b03604084209116600052602052604060002055600160fb5580f35b6120bf9061347c565b61059957823861205c565b6120d591925061347c565b6105bc57858538611fc8565b6040513d88823e3d90fd5b965086611f19565b61211091503d8087833e61210881836134e4565b810190614483565b38611e2e565b606460405162461bcd60e51b815260206004820152601d60248201527f4163636f756e7420697320616c7265616479206c6971756964617465640000006044820152fd5b606460405162461bcd60e51b815260206004820152601560248201527f4865616c746820666163746f722061626f7665203100000000000000000000006044820152fd5b506040366003190112610352576121b3613388565b6001600160a01b03602435916121c7614094565b6121cf6140e5565b1690818352602061016781526002604085206121ee60ff825416613ffe565b3360005201815261220660ff60406000205416614049565b826122c25781340361227e577f5548c837ab068cf56a2c2479df0882a4922fd203edb7517321831d95078c5f62905b3385526101658082526040862085600052825261225784604060002054613d84565b903387528252604086208560005282526040600020556040519283523392a3600160fb5580f35b6064906040519062461bcd60e51b82526004820152601460248201527f496e636f72726563742045544820616d6f756e740000000000000000000000006044820152fd5b6040517f23b872dd0000000000000000000000000000000000000000000000000000000082820152336024820152306044820152606480820184905281527f5548c837ab068cf56a2c2479df0882a4922fd203edb7517321831d95078c5f629190612338906123326084826134e4565b85614152565b612235565b503461035257806003193601126103525760206040517f3bb181d5689164b4d72d34b056228c95b51f3fb0f6dbdb7f9ddba5f91c6821dd8152f35b503461035257602036600319011261035257612392613388565b61239a6135dd565b6001600160a01b0390811680835261016660205260408320805460ff19169055825b610168805480831015610fe05784846123d4856133e0565b929054600393841b1c16146123f4575050506123ef90613f7f565b6123bc565b93949193600019939291848101908111610fcc5791610f3e9161241a61242695946133e0565b9054911b1c16916133e0565b81548015610fb657019061243c610f79836133e0565b557fd7bc7aa3441295e542e42197effcd361e36921102724a91445e9dd47f19ddcbc8280a280f35b503461035257806003193601126103525761247d613805565b61012d805460ff8116156124be5760ff191690557f5db9ee0a495bf2e6ff9c91a7834c1ba4fdd244a5e8aa4e537bd38aeae4b073aa6020604051338152a180f35b606460405162461bcd60e51b815260206004820152601460248201527f5061757361626c653a206e6f74207061757365640000000000000000000000006044820152fd5b503461035257806003193601126103525760206001600160a01b0361015f5416604051908152f35b503461035257604036600319011261035257612544613388565b6024359067ffffffffffffffff82116105995761256861034f92369060040161351e565b906149db565b503461035257602080600319360112610b0957612589613388565b906001600160a01b03807f0000000000000000000000000000000000000000000000000000000000000000166125c181301415613b27565b6125f07f360894a13ba1a3210667c828492db98dca3e2076cc3735a920a3ca505d382bbc918383541614613b98565b6125f8613805565b604051908382019282841067ffffffffffffffff851117612840578360405286835260ff7f4910fdfa16fed3260ed0e7147f7cc6da11a60208b5b9406d12a635614ffd9143541660001461265457505050505061034f90613c09565b8596949516906040516352d1902d60e01b81528681600481865afa60009181612811575b506126e7576084876040519062461bcd60e51b82526004820152602e60248201527f45524331393637557067726164653a206e657720696d706c656d656e7461746960448201527f6f6e206973206e6f7420555550530000000000000000000000000000000000006064820152fd5b959495036127bb576126f886613c09565b604051907fbc7cd75a20ee27fd9adebab32041f755214dbc6bffa90cc0225b39da2e5c2d3b600080a28151158015906127b3575b61273a575b50505050905080f35b853b1561276357506127589394600092839251915af4611be9613cc3565b508038808080612731565b808462461bcd60e51b608493526004820152602660248201527f416464726573733a2064656c65676174652063616c6c20746f206e6f6e2d636f6044820152651b9d1c9858dd60d21b6064820152fd5b50600061272c565b6084846040519062461bcd60e51b82526004820152602960248201527f45524331393637557067726164653a20756e737570706f727465642070726f786044820152681a58589b195555525160ba1b6064820152fd5b90918882813d8311612839575b61282881836134e4565b810103126103525750519038612678565b503d61281e565b634e487b7160e01b600052604160045260246000fd5b50346103525760403660031901126103525761287061339e565b336001600160a01b0382160361288c5761034f90600435613ab0565b608460405162461bcd60e51b815260206004820152602f60248201527f416363657373436f6e74726f6c3a2063616e206f6e6c792072656e6f756e636560448201527f20726f6c657320666f722073656c6600000000000000000000000000000000006064820152fd5b503461035257806003193601126103525760206040516201589c8152f35b50346103525760403660031901126103525760043561293161339e565b81835260c96020526129496001604085200154613951565b81835260c96020526001600160a01b03604084209116908160005260205260ff6040600020541615612979578280f35b81835260c960205260408320816000526020526040600020600160ff1982541617905533917f2f8788117e7eff1d82e926ec794901d17c78024a50270940304540a733656f0d8480a438808280f35b5034610352578060031936011261035257602061016054604051908152f35b506040366003190112610352576129fc613388565b6001600160a01b0360243591612a1181613fb8565b6121c7614094565b5034610352576020366003190112610352576001600160a01b03612a3b613388565b612a436135dd565b1680825261016660205260ff604083205416612a5d575080f35b60408220805460ff191690557f40df287591e0c328c46e4a6e6a392c11257b2068c75575828d622838c83efd3a8280a280f35b5034610352576040366003190112610352576020610379612aaf613388565b612ab761339e565b9061502f565b50346103525760203660031901126103525760016040602092600435815260c98452200154604051908152f35b503461035257604036600319011261035257612b04613388565b602435916001600160a01b03809216815261016460205260408120908154841015610352575060209261164291613464565b5034610352576020366003190112610352576020610379612b55613388565b614f41565b50346103525760a036600319011261035257612b74613388565b612b7c61339e565b90612b856133b4565b91606435906001600160a01b0380831680930361086b57612ba46133ca565b5085549160ff8360081c16159485809661309e575b8015613087575b1561301d5760ff198481166001178955938661300c575b50612c1160ff895460081c16612bec81613ea0565b612bf581613ea0565b612bfe81613ea0565b600160fb55612c0c81613ea0565b613ea0565b61012d8481541690558261015f911673ffffffffffffffffffffffffffffffffffffffff1982541617905567120a871cc00200006101615586805260209560c98752826040892092169182600052875260ff6040600020541615612fc1575b7fa49807205ce4d355092ef5a8a18f56e8913cf4a201fbe287825b095693c21775928360005260c98852600160406000200154926000600160408220015560007fbd79b86ffe0ab8e8776151514217cd7cacd52c909f66475c3af44e129f0b00ff9486868380a4848a5260c9895260408a2081600052895260ff6040600020541615612f75575b507f6077685936c8169d09204a1d97db12e41713588c38e1d29a61867d3dcee98aff958660005260c989526000600160408220015481600160408220015588868380a4868a5260c9895260408a2081600052895260ff6040600020541615612f29575b5060007f3bb181d5689164b4d72d34b056228c95b51f3fb0f6dbdb7f9ddba5f91c6821dd9384825260c98a52846001604084200154918360016040822001558380a482895260c988526040892091169081600052875260ff6040600020541615612edd575b505080865260c985526040862033600052855260ff6040600020541615612e90575b5081855260c984526040852033600052845260ff6040600020541615612e42575b5050612e0c575080f35b7f7f26b83ff96e1f2b6a682f133852f6798a09c465da95921460cefb38474024989061ff0019835416835560405160018152a180f35b81855260c98452604085203360005284526001604060002091825416179055339033907f2f8788117e7eff1d82e926ec794901d17c78024a50270940304540a733656f0d8680a43880612e02565b80865260c98552604086203360005285526040600020600183825416179055339033907f2f8788117e7eff1d82e926ec794901d17c78024a50270940304540a733656f0d8880a438612de1565b81885260c9875260408820816000528752604060002060018582541617905533917f2f8788117e7eff1d82e926ec794901d17c78024a50270940304540a733656f0d8980a43880612dbf565b868a5260c9895260408a2081600052895260406000206001878254161790553390877f2f8788117e7eff1d82e926ec794901d17c78024a50270940304540a733656f0d8c80a438612d5a565b848a5260c9895260408a2081600052895260406000206001878254161790553390857f2f8788117e7eff1d82e926ec794901d17c78024a50270940304540a733656f0d8c80a438612cf7565b87805260c987526040882082600052875260406000206001858254161790553382897f2f8788117e7eff1d82e926ec794901d17c78024a50270940304540a733656f0d8180a4612c70565b61ffff191661010117885538612bd7565b608460405162461bcd60e51b815260206004820152602e60248201527f496e697469616c697a61626c653a20636f6e747261637420697320616c72656160448201527f647920696e697469616c697a65640000000000000000000000000000000000006064820152fd5b50303b158015612bc05750600160ff851614612bc0565b50600160ff851610612bb9565b5034610352576080366003190112610352576130c5613388565b6130cd61339e565b6130d56133b4565b606435926130e1614094565b6130e96140e5565b6001600160a01b0393848084169416948486146132bc5761310b821515614407565b61315e8760405161311b81613490565b6002815260403660208301378861313182614452565b528761313c8261445f565b52836101625416604051808095819463053c81b560e01b83526004830161450c565b03915afa80156132b1576131b2918991613297575b5061045e6020611edd6131ac6131a361319661318e87614452565b51518a613d71565b611ee585611edd8961445f565b611efa8661445f565b93614452565b921693843b15611d3157604051907f4798ce5b0000000000000000000000000000000000000000000000000000000082528660048301526024820152336044820152816064820152826084820152868160a48183895af1801561061c57613262575b50604080516001600160a01b03949094168452602084019190915282015233907f22bfc3d7b9d92e3f2b35d94c61a1a9f1c86d0793bb7645294eaf8beb03c0347990606090a4600160fb5580f35b9561328f7f22bfc3d7b9d92e3f2b35d94c61a1a9f1c86d0793bb7645294eaf8beb03c0347993929761347c565b959091613214565b6132ab91503d808b833e61210881836134e4565b38613173565b6040513d8a823e3d90fd5b606460405162461bcd60e51b815260206004820152601360248201527f53796e74687320617265207468652073616d65000000000000000000000000006044820152fd5b905034610b09576020366003190112610b09576004356001600160e01b0319811680910361059957602092507f7965db0b00000000000000000000000000000000000000000000000000000000811490811561335e575b5015158152f35b7f01ffc9a70000000000000000000000000000000000000000000000000000000091501438613357565b600435906001600160a01b038216820361086b57565b602435906001600160a01b038216820361086b57565b604435906001600160a01b038216820361086b57565b608435906001600160a01b038216820361086b57565b6101688054821015613417576000527f8077777ae4769de06cbfd1c0b8b1f653b51ec156d91a9aca16a4102f19e03d9e0190600090565b634e487b7160e01b600052603260045260246000fd5b6101698054821015613417576000527fbd88e1fd0aa5f3038c0cd2a68644e2d11f4e4e7e3693adba414318f2127ca4260190600090565b80548210156134175760005260206000200190600090565b67ffffffffffffffff811161284057604052565b6060810190811067ffffffffffffffff82111761284057604052565b6040810190811067ffffffffffffffff82111761284057604052565b6080810190811067ffffffffffffffff82111761284057604052565b90601f8019910116810190811067ffffffffffffffff82111761284057604052565b67ffffffffffffffff81116128405760051b60200190565b81601f8201121561086b5780359161353583613506565b9261354360405194856134e4565b808452602092838086019260051b82010192831161086b578301905b82821061356d575050505090565b81356001600160a01b038116810361086b57815290830190830161355f565b67ffffffffffffffff811161284057601f01601f191660200190565b606090600319011261086b576001600160a01b0390600435828116810361086b5791602435908116810361086b579060443590565b3360009081527fd4e781d79508cd7288b0dc12f8a54f50b0d15d7b669a4bfe9db5db37fbdf17bb60209081526040808320549092907f6077685936c8169d09204a1d97db12e41713588c38e1d29a61867d3dcee98aff9060ff16156136425750505050565b61364b33613da2565b845191613657836134c8565b604283528483019360603686378351156137f157603085538351906001918210156137f15790607860218601536041915b81831161378357505050613741576136e39385936137279361371860489461373d995198857f416363657373436f6e74726f6c3a206163636f756e74200000000000000000008b978801528251928391603789019101613a61565b8401917f206973206d697373696e6720726f6c6520000000000000000000000000000000603784015251809386840190613a61565b010360288101855201836134e4565b5191829162461bcd60e51b835260048301613a84565b0390fd5b60648486519062461bcd60e51b825280600483015260248201527f537472696e67733a20686578206c656e67746820696e73756666696369656e746044820152fd5b909192600f811660108110156137dd576f181899199a1a9b1b9c1cb0b131b232b360811b901a6137b38588613d91565b5360041c9280156137c957600019019190613688565b602482634e487b7160e01b81526011600452fd5b602483634e487b7160e01b81526032600452fd5b80634e487b7160e01b602492526032600452fd5b3360009081527f56eafcfe4e056e5ee1febf92b17728968883505f0e8dc799e4f43119d826ca8560209081526040808320549092907fa49807205ce4d355092ef5a8a18f56e8913cf4a201fbe287825b095693c217759060ff161561386a5750505050565b61387333613da2565b84519161387f836134c8565b604283528483019360603686378351156137f157603085538351906001918210156137f15790607860218601536041915b81831161390b57505050613741576136e39385936137279361371860489461373d995198857f416363657373436f6e74726f6c3a206163636f756e74200000000000000000008b978801528251928391603789019101613a61565b909192600f811660108110156137dd576f181899199a1a9b1b9c1cb0b131b232b360811b901a61393b8588613d91565b5360041c9280156137c9576000190191906138b0565b600081815260209060c98252604092838220338352835260ff84832054161561397a5750505050565b61398333613da2565b84519161398f836134c8565b604283528483019360603686378351156137f157603085538351906001918210156137f15790607860218601536041915b818311613a1b57505050613741576136e39385936137279361371860489461373d995198857f416363657373436f6e74726f6c3a206163636f756e74200000000000000000008b978801528251928391603789019101613a61565b909192600f811660108110156137dd576f181899199a1a9b1b9c1cb0b131b232b360811b901a613a4b8588613d91565b5360041c9280156137c9576000190191906139c0565b60005b838110613a745750506000910152565b8181015183820152602001613a64565b60409160208252613aa48151809281602086015260208686019101613a61565b601f01601f1916010190565b9060009180835260c96020526001600160a01b036040842092169182845260205260ff604084205416613ae257505050565b80835260c9602052604083208284526020526040832060ff1981541690557ff6391f5c32d9c69d2a47ea670b442974b53935d1edc7fd64eb21e047a839171b339380a4565b15613b2e57565b608460405162461bcd60e51b815260206004820152602c60248201527f46756e6374696f6e206d7573742062652063616c6c6564207468726f7567682060448201527f64656c656761746563616c6c00000000000000000000000000000000000000006064820152fd5b15613b9f57565b608460405162461bcd60e51b815260206004820152602c60248201527f46756e6374696f6e206d7573742062652063616c6c6564207468726f7567682060448201527f6163746976652070726f787900000000000000000000000000000000000000006064820152fd5b803b15613c59576001600160a01b037f360894a13ba1a3210667c828492db98dca3e2076cc3735a920a3ca505d382bbc911673ffffffffffffffffffffffffffffffffffffffff19825416179055565b608460405162461bcd60e51b815260206004820152602d60248201527f455243313936373a206e657720696d706c656d656e746174696f6e206973206e60448201527f6f74206120636f6e7472616374000000000000000000000000000000000000006064820152fd5b3d15613cee573d90613cd48261358c565b91613ce260405193846134e4565b82523d6000602084013e565b606090565b909160609115613d0257505090565b613d0d919392613d0f565b565b805190925015613d225750805190602001fd5b61373d9060405191829162461bcd60e51b835260048301613a84565b90670de0b6b3a764000091828102928184041490151715613d5b57565b634e487b7160e01b600052601160045260246000fd5b81810292918115918404141715613d5b57565b91908201809211613d5b57565b908151811015613417570160200190565b60405190613daf82613490565b602a82526020820160403682378251156134175760309053815160019081101561341757607860218401536029905b808211613e32575050613dee5790565b606460405162461bcd60e51b815260206004820152602060248201527f537472696e67733a20686578206c656e67746820696e73756666696369656e746044820152fd5b9091600f81166010811015613e8b576f181899199a1a9b1b9c1cb0b131b232b360811b901a613e618486613d91565b5360041c918015613e76576000190190613dde565b60246000634e487b7160e01b81526011600452fd5b60246000634e487b7160e01b81526032600452fd5b15613ea757565b608460405162461bcd60e51b815260206004820152602b60248201527f496e697469616c697a61626c653a20636f6e7472616374206973206e6f74206960448201527f6e697469616c697a696e670000000000000000000000000000000000000000006064820152fd5b90815491680100000000000000008310156128405782610f3e916001613d0d95018155613464565b613d0d906001600160a01b0381166000526101666020526002604060002001336000526020526040600020600160ff198254161790556101636020526040600020613f11565b6000198114613d5b5760010190565b91908203918211613d5b57565b80548015610fb6576000190190613fb5610f798383613464565b55565b613d0d906001600160a01b0381166000526101676020526002604060002001336000526020526040600020600160ff198254161790556101646020526040600020613f11565b1561400557565b606460405162461bcd60e51b815260206004820152601660248201527f436f6c6c61746572616c206e6f7420656e61626c6564000000000000000000006044820152fd5b1561405057565b606460405162461bcd60e51b815260206004820152601960248201527f4163636f756e74206e6f7420696e20636f6c6c61746572616c000000000000006044820152fd5b60ff61012d54166140a157565b606460405162461bcd60e51b815260206004820152601060248201527f5061757361626c653a20706175736564000000000000000000000000000000006044820152fd5b600260fb54146140f657600260fb55565b606460405162461bcd60e51b815260206004820152601f60248201527f5265656e7472616e637947756172643a207265656e7472616e742063616c6c006044820152fd5b9081602091031261086b5751801515810361086b5790565b6040516141b0916001600160a01b031661416b826134ac565b6000806020958685527f5361666545524332303a206c6f772d6c6576656c2063616c6c206661696c656487860152868151910182855af16141aa613cc3565b9161423f565b805190816141bd57505050565b82806141cd93830101910161413a565b156141d55750565b6084906040519062461bcd60e51b82526004820152602a60248201527f5361666545524332303a204552433230206f7065726174696f6e20646964206e60448201527f6f742073756363656564000000000000000000000000000000000000000000006064820152fd5b9192606091156142a3575050815115614256575090565b3b1561425f5790565b606460405162461bcd60e51b815260206004820152601d60248201527f416464726573733a2063616c6c20746f206e6f6e2d636f6e74726163740000006044820152fd5b909392613d0d9250613d0f565b156142b757565b606460405162461bcd60e51b815260206004820152601e60248201527f4865616c746820666163746f722062656c6f77207361666543526174696f00006044820152fd5b6040517fa9059cbb0000000000000000000000000000000000000000000000000000000060208201526001600160a01b03929092166024830152604480830193909352918152613d0d916143506064836134e4565b614152565b1561435c57565b606460405162461bcd60e51b815260206004820152601860248201527f54726164696e6720706f6f6c206e6f7420656e61626c656400000000000000006044820152fd5b919082604091031261086b576040516040810181811067ffffffffffffffff821117612840576040526020808294805184520151910152565b604d8111613d5b57600a0a90565b81156143f1570490565b634e487b7160e01b600052601260045260246000fd5b1561440e57565b606460405162461bcd60e51b815260206004820152601d60248201527f416d6f756e74206d7573742062652067726561746572207468616e20300000006044820152fd5b8051156134175760200190565b8051600110156134175760400190565b80518210156134175760209160051b010190565b90602091828183031261086b5780519067ffffffffffffffff821161086b570181601f8201121561086b578051926144ba84613506565b936040936144ca855196876134e4565b818652828087019260061b8501019381851161086b578301915b8483106144f45750505050505090565b83869161450184866143a0565b8152019201916144e4565b6020908160408183019282815285518094520193019160005b828110614533575050505090565b83516001600160a01b031685529381019392810192600101614525565b6001600160a01b03811691826000526101666020526040600020805460ff81166145da5782916001809260ff1916178155015561016890815468010000000000000000811015612840577ffe83615d888076df1cf968a4c6694405f082fa2b2b353afde0af6438a9af7c0b93610f3e8260209560016145d1950190556133e0565b604051908152a2565b5050505050565b6001600160a01b03811691826000526101676020526040600020805460ff81166145da5782916001809260ff1916178155015561016990815468010000000000000000811015612840577f0dabbae73ad87de9f00d48ce6bc2fdee3a04023481e61ba06071d8d35b56951d93610f3e8260209560016145d19501905561342d565b6001600160a01b0316600081815260209061016b8252604081209261016a8352604082205490614696855460e01c42613f8e565b9081156147d75782156147af5784600491604051928380926318160ddd60e01b82525afa9485156147a4578495614772575b5050906146d491613d71565b908215614765576ec097ce7bc90715b34b9f1000000000918281029281840414901517156147515750613d0d929161470b916143e7565b6001600160e01b031982549161472b6001600160e01b0391828516613d84565b6001600160e01b0392909316921691909117164260e01b6001600160e01b031916179055565b80634e487b7160e01b602492526011600452fd5b9050613d0d92915061470b565b9080929550813d831161479d575b61478a81836134e4565b810103126105995751926146d4386146c8565b503d614780565b6040513d86823e3d90fd5b505083546001600160e01b03164260e01b6001600160e01b0319161790935550613d0d915050565b505050505050565b6001600160a01b03908116600081815261016b602090815260408083205461016c835281842095871680855295835281842080546001600160e01b03909216908190559397969495929493929080158061496a575b614954575b6148439084613f8e565b82516370a0823160e01b815282600482015286816024818b5afa90811561494a578a916148f9575b50927f39830ba333221bc394b51f96c7ffa4b7a1081f4a18e6f8b63a2be77606ac232a9798996ec097ce7bc90715b34b9f10000000006148b18395946148f49897613d71565b049783825261016d908181526148ca8a85852054613d84565b94835252205551938493846040919493926001600160a01b03606083019616825260208201520152565b0390a2565b90508681813d8311614943575b61491081836134e4565b8101031261493f57517f39830ba333221bc394b51f96c7ffa4b7a1081f4a18e6f8b63a2be77606ac232a61486b565b8980fd5b503d614906565b84513d8c823e3d90fd5b506ec097ce7bc90715b34b9f1000000000614839565b506ec097ce7bc90715b34b9f1000000000841015614834565b9060405191828154918282526020928383019160005283600020936000905b8282106149b857505050613d0d925003836134e4565b85546001600160a01b0316845260019586019588955093810193909101906149a2565b906040516149e8816134ac565b60018152602081016020368237815115613417576001600160a01b03613d0d94169052614a5b565b15614a1757565b606460405162461bcd60e51b815260206004820152601560248201527f6d61726b6574206d757374206265206c697374656400000000000000000000006044820152fd5b906000915b8151831015614ae4576001600160a01b039182614a7d858361446f565b51169485600052610166602052614a9b60ff60406000205416614a10565b614aa486614662565b60005b8351811015614acf57806118c586614ac2614aca948861446f565b5116896147df565b614aa7565b509450915091614ade90613f7f565b91614a60565b91505060005b8151811015614b6957614b64906001600160a01b0380614b0a838661446f565b511681614b17848761446f565b511660005261016d6020818152614b45604093846000205490614b38614094565b614b406140e5565b614b6d565b93600160fb55614b55868961446f565b51166000525260002055613f7f565b614aea565b5050565b906001600160a01b0361015f5416916040516370a0823160e01b8152306004820152602081602481875afa908115614c0757600091614bd6575b508215159081614bcb575b50614bbd5750905090565b614bc6926142fb565b600090565b905082111538614bb2565b906020823d8211614bff575b81614bef602093836134e4565b8101031261035257505138614ba7565b3d9150614be2565b6040513d6000823e3d90fd5b614c25614c1f82614dd3565b91614f9f565b8015614c5157670de0b6b3a764000091828102928184041490151715613d5b57614c4e916143e7565b90565b505060001990565b614c25614c6582614c95565b91614f41565b604051906040820182811067ffffffffffffffff8211176128405760405260006020838281520152565b600090614ca0614c6b565b50816001600160a01b0393846101625416915b858416806000526020610164815260408060002054881015614dc75788614cdd8983600020613464565b90549060031b1c1681519363b3596f0760e01b855281600486015282856024818b5afa948515614dbc57908b969594939291600095614d5f575b50614d579593610456614d4b94614d51979461045e9460005261016584528160002090600052835260002054845190613d71565b90613d84565b95613f7f565b949050614cb3565b9095965082939491923d8511614db5575b614d7a81836134e4565b81019184828403126103525750614d51946104568d9895614d4b95614da6614d579a9661045e966143a0565b98509493509450509395614d17565b503d614d70565b83513d6000823e3d90fd5b50505093509350505090565b90600091614ddf614c6b565b5082916001600160a01b0393846101625416905b858416806000526020610164815260408060002054881015614f355788614e1d8983600020613464565b90549060031b1c169080519363b3596f0760e01b855282600486015281856024818a5afa948515614f2a57908b969594939291600095614ec0575b50614eb89593670de0b6b3a7640000614eaf614d4b956001614d51999661045e96600052610165865280600020836000528652614e9b8160002054895190613d71565b926000526101678652600020015490613d71565b049201516143d9565b949050614df3565b9095965081929394913d8411614f23575b614edb81836134e4565b81019183828403126103525750614d5194670de0b6b3a7640000614eaf8e99966001614d4b97614f12614eb89c9861045e986143a0565b9a5096955050955050509395614e58565b503d614ed1565b82513d6000823e3d90fd5b50505093505092505090565b6000906001600160a01b038082168352610163602052614f6360408420614983565b835b8151851015614f9757614f8b614f9191614d4b85614f83898761446f565b51168761502f565b94613f7f565b93614f65565b935050505090565b6000906001600160a01b0390818116835260209161016383526040614fc5818620614983565b93855b85518710156150255761501961501f91614d4b886001615010611f6a8a6150088f82614ff4828961446f565b51166000526101668c528c6000209661446f565b51168c61502f565b910154906143e7565b96613f7f565b95614fc8565b9550505050505090565b906001600160a01b0390818116604051936318160ddd60e01b85526020938486600481865afa958615614c07576000966150e9575b5085156150de576024859260405194859384926370a0823160e01b84521660048301525afa928315614c07576000936150ab575b5050614c4e9291611ee5611f6f92615118565b8181949293943d83116150d7575b6150c381836134e4565b810103126103525750519080611ee5615098565b503d6150b9565b505050505050600090565b90958582813d8311615111575b61510081836134e4565b810103126103525750519438615064565b503d6150f6565b906040908151907faf8083da0000000000000000000000000000000000000000000000000000000082526000926004848482816001600160a01b03809a165afa938415615337578594615298575b508492939492615174614c6b565b508095876101625416945b815188101561528c5788615193898461446f565b511685519063b3596f0760e01b8252808683015286826024818b5afa918215615282578592615248575b50865180916318160ddd60e01b8252818860209485935afa90811561523e57869161520b575b508261045e6152059593610456614d4b946151ff975190613d71565b97613f7f565b9661517f565b90508181813d8311615237575b61522281836134e4565b8101031261523357516151ff6151e3565b8580fd5b503d615218565b88513d88823e3d90fd5b909150863d881161527b575b61525e81836134e4565b81019087818303126152335790615274916143a0565b90386151bd565b503d615254565b87513d87823e3d90fd5b96505050505050915090565b9093503d8086833e6152aa81836134e4565b8101906020908181840312611d315780519067ffffffffffffffff821161061157019180601f84011215611d315782516152e381613506565b936152f0865195866134e4565b818552838086019260051b820101928311615333578301905b82821061531b57505050509238615166565b81518a8116810361493f578152908301908301615309565b8880fd5b82513d87823e3d90fdfea264697066735822122085cbacc44511f91bcb14a06455d53f964f28cd6bf8d8048bea4db52a4322e21d64736f6c63430008110033",
  "linkReferences": {},
  "deployedLinkReferences": {}
}