{
  "_format": "hh-sol-artifact-1",
  "contractName": "SyntheX",
  "sourceName": "contracts/SyntheX.sol",
  "abi": [
    {
      "inputs": [],
      "stateMutability": "nonpayable",
      "type": "constructor"
    },
    {
      "anonymous": false,
      "inputs": [
        {
          "indexed": true,
          "internalType": "address",
          "name": "user",
          "type": "address"
        },
        {
          "indexed": true,
          "internalType": "address",
          "name": "tradingPool",
          "type": "address"
        },
        {
          "indexed": true,
          "internalType": "address",
          "name": "asset",
          "type": "address"
        },
        {
          "indexed": false,
          "internalType": "uint256",
          "name": "amount",
          "type": "uint256"
        }
      ],
      "name": "Burn",
      "type": "event"
    },
    {
      "anonymous": false,
      "inputs": [
        {
          "indexed": true,
          "internalType": "address",
          "name": "asset",
          "type": "address"
        }
      ],
      "name": "CollateralDisabled",
      "type": "event"
    },
    {
      "anonymous": false,
      "inputs": [
        {
          "indexed": true,
          "internalType": "address",
          "name": "asset",
          "type": "address"
        },
        {
          "indexed": false,
          "internalType": "uint256",
          "name": "volatilityRatio",
          "type": "uint256"
        }
      ],
      "name": "CollateralEnabled",
      "type": "event"
    },
    {
      "anonymous": false,
      "inputs": [
        {
          "indexed": true,
          "internalType": "address",
          "name": "asset",
          "type": "address"
        }
      ],
      "name": "CollateralRemoved",
      "type": "event"
    },
    {
      "anonymous": false,
      "inputs": [
        {
          "indexed": true,
          "internalType": "address",
          "name": "user",
          "type": "address"
        },
        {
          "indexed": true,
          "internalType": "address",
          "name": "asset",
          "type": "address"
        },
        {
          "indexed": false,
          "internalType": "uint256",
          "name": "amount",
          "type": "uint256"
        }
      ],
      "name": "Deposit",
      "type": "event"
    },
    {
      "anonymous": false,
      "inputs": [
        {
          "indexed": true,
          "internalType": "address",
          "name": "pool",
          "type": "address"
        },
        {
          "indexed": false,
          "internalType": "address",
          "name": "_account",
          "type": "address"
        },
        {
          "indexed": false,
          "internalType": "uint256",
          "name": "accountDelta",
          "type": "uint256"
        },
        {
          "indexed": false,
          "internalType": "uint256",
          "name": "rewardIndex",
          "type": "uint256"
        }
      ],
      "name": "DistributedSYN",
      "type": "event"
    },
    {
      "anonymous": false,
      "inputs": [
        {
          "indexed": true,
          "internalType": "address",
          "name": "user",
          "type": "address"
        },
        {
          "indexed": true,
          "internalType": "address",
          "name": "tradingPool",
          "type": "address"
        },
        {
          "indexed": true,
          "internalType": "address",
          "name": "fromAsset",
          "type": "address"
        },
        {
          "indexed": false,
          "internalType": "address",
          "name": "toAsset",
          "type": "address"
        },
        {
          "indexed": false,
          "internalType": "uint256",
          "name": "fromAmount",
          "type": "uint256"
        },
        {
          "indexed": false,
          "internalType": "uint256",
          "name": "toAmount",
          "type": "uint256"
        }
      ],
      "name": "Exchange",
      "type": "event"
    },
    {
      "anonymous": false,
      "inputs": [
        {
          "indexed": false,
          "internalType": "uint8",
          "name": "version",
          "type": "uint8"
        }
      ],
      "name": "Initialized",
      "type": "event"
    },
    {
      "anonymous": false,
      "inputs": [
        {
          "indexed": true,
          "internalType": "address",
          "name": "user",
          "type": "address"
        },
        {
          "indexed": true,
          "internalType": "address",
          "name": "tradingPool",
          "type": "address"
        },
        {
          "indexed": true,
          "internalType": "address",
          "name": "asset",
          "type": "address"
        },
        {
          "indexed": false,
          "internalType": "uint256",
          "name": "amount",
          "type": "uint256"
        }
      ],
      "name": "Issue",
      "type": "event"
    },
    {
      "anonymous": false,
      "inputs": [
        {
          "indexed": false,
          "internalType": "uint256",
          "name": "_exchangeFee",
          "type": "uint256"
        }
      ],
      "name": "NewExchangeFee",
      "type": "event"
    },
    {
      "anonymous": false,
      "inputs": [
        {
          "indexed": true,
          "internalType": "address",
          "name": "oracle",
          "type": "address"
        }
      ],
      "name": "NewPriceOracle",
      "type": "event"
    },
    {
      "anonymous": false,
      "inputs": [
        {
          "indexed": false,
          "internalType": "address",
          "name": "account",
          "type": "address"
        }
      ],
      "name": "Paused",
      "type": "event"
    },
    {
      "anonymous": false,
      "inputs": [
        {
          "indexed": true,
          "internalType": "bytes32",
          "name": "role",
          "type": "bytes32"
        },
        {
          "indexed": true,
          "internalType": "bytes32",
          "name": "previousAdminRole",
          "type": "bytes32"
        },
        {
          "indexed": true,
          "internalType": "bytes32",
          "name": "newAdminRole",
          "type": "bytes32"
        }
      ],
      "name": "RoleAdminChanged",
      "type": "event"
    },
    {
      "anonymous": false,
      "inputs": [
        {
          "indexed": true,
          "internalType": "bytes32",
          "name": "role",
          "type": "bytes32"
        },
        {
          "indexed": true,
          "internalType": "address",
          "name": "account",
          "type": "address"
        },
        {
          "indexed": true,
          "internalType": "address",
          "name": "sender",
          "type": "address"
        }
      ],
      "name": "RoleGranted",
      "type": "event"
    },
    {
      "anonymous": false,
      "inputs": [
        {
          "indexed": true,
          "internalType": "bytes32",
          "name": "role",
          "type": "bytes32"
        },
        {
          "indexed": true,
          "internalType": "address",
          "name": "account",
          "type": "address"
        },
        {
          "indexed": true,
          "internalType": "address",
          "name": "sender",
          "type": "address"
        }
      ],
      "name": "RoleRevoked",
      "type": "event"
    },
    {
      "anonymous": false,
      "inputs": [
        {
          "indexed": true,
          "internalType": "address",
          "name": "pool",
          "type": "address"
        },
        {
          "indexed": false,
          "internalType": "uint256",
          "name": "rewardSpeed",
          "type": "uint256"
        }
      ],
      "name": "SetPoolRewardSpeed",
      "type": "event"
    },
    {
      "anonymous": false,
      "inputs": [
        {
          "indexed": true,
          "internalType": "address",
          "name": "pool",
          "type": "address"
        }
      ],
      "name": "TradingPoolDisabled",
      "type": "event"
    },
    {
      "anonymous": false,
      "inputs": [
        {
          "indexed": true,
          "internalType": "address",
          "name": "pool",
          "type": "address"
        },
        {
          "indexed": false,
          "internalType": "uint256",
          "name": "volatilityRatio",
          "type": "uint256"
        }
      ],
      "name": "TradingPoolEnabled",
      "type": "event"
    },
    {
      "anonymous": false,
      "inputs": [
        {
          "indexed": true,
          "internalType": "address",
          "name": "pool",
          "type": "address"
        }
      ],
      "name": "TradingPoolRemoved",
      "type": "event"
    },
    {
      "anonymous": false,
      "inputs": [
        {
          "indexed": false,
          "internalType": "address",
          "name": "account",
          "type": "address"
        }
      ],
      "name": "Unpaused",
      "type": "event"
    },
    {
      "anonymous": false,
      "inputs": [
        {
          "indexed": true,
          "internalType": "address",
          "name": "user",
          "type": "address"
        },
        {
          "indexed": true,
          "internalType": "address",
          "name": "asset",
          "type": "address"
        },
        {
          "indexed": false,
          "internalType": "uint256",
          "name": "amount",
          "type": "uint256"
        }
      ],
      "name": "Withdraw",
      "type": "event"
    },
    {
      "inputs": [],
      "name": "ADMIN_ROLE",
      "outputs": [
        {
          "internalType": "bytes32",
          "name": "",
          "type": "bytes32"
        }
      ],
      "stateMutability": "view",
      "type": "function"
    },
    {
      "inputs": [],
      "name": "DEFAULT_ADMIN_ROLE",
      "outputs": [
        {
          "internalType": "bytes32",
          "name": "",
          "type": "bytes32"
        }
      ],
      "stateMutability": "view",
      "type": "function"
    },
    {
      "inputs": [],
      "name": "PAUSE_GUARDIAN_ROLE",
      "outputs": [
        {
          "internalType": "bytes32",
          "name": "",
          "type": "bytes32"
        }
      ],
      "stateMutability": "view",
      "type": "function"
    },
    {
      "inputs": [],
      "name": "POOL_MANAGER_ROLE",
      "outputs": [
        {
          "internalType": "bytes32",
          "name": "",
          "type": "bytes32"
        }
      ],
      "stateMutability": "view",
      "type": "function"
    },
    {
      "inputs": [
        {
          "internalType": "address",
          "name": "",
          "type": "address"
        },
        {
          "internalType": "address",
          "name": "",
          "type": "address"
        }
      ],
      "name": "accountCollateralBalance",
      "outputs": [
        {
          "internalType": "uint256",
          "name": "",
          "type": "uint256"
        }
      ],
      "stateMutability": "view",
      "type": "function"
    },
    {
      "inputs": [
        {
          "internalType": "address",
          "name": "",
          "type": "address"
        },
        {
          "internalType": "uint256",
          "name": "",
          "type": "uint256"
        }
      ],
      "name": "accountCollaterals",
      "outputs": [
        {
          "internalType": "address",
          "name": "",
          "type": "address"
        }
      ],
      "stateMutability": "view",
      "type": "function"
    },
    {
      "inputs": [
        {
          "internalType": "address",
          "name": "",
          "type": "address"
        },
        {
          "internalType": "uint256",
          "name": "",
          "type": "uint256"
        }
      ],
      "name": "accountPools",
      "outputs": [
        {
          "internalType": "address",
          "name": "",
          "type": "address"
        }
      ],
      "stateMutability": "view",
      "type": "function"
    },
    {
      "inputs": [
        {
          "internalType": "address",
          "name": "_tradingPool",
          "type": "address"
        },
        {
          "internalType": "address",
          "name": "_synth",
          "type": "address"
        },
        {
          "internalType": "uint256",
          "name": "_amount",
          "type": "uint256"
        }
      ],
      "name": "burn",
      "outputs": [],
      "stateMutability": "nonpayable",
      "type": "function"
    },
    {
      "inputs": [
        {
          "internalType": "address",
          "name": "holder",
          "type": "address"
        },
        {
          "internalType": "address[]",
          "name": "cTokens",
          "type": "address[]"
        }
      ],
      "name": "claimSYN",
      "outputs": [],
      "stateMutability": "nonpayable",
      "type": "function"
    },
    {
      "inputs": [
        {
          "internalType": "address",
          "name": "holder",
          "type": "address"
        }
      ],
      "name": "claimSYN",
      "outputs": [],
      "stateMutability": "nonpayable",
      "type": "function"
    },
    {
      "inputs": [
        {
          "internalType": "address[]",
          "name": "holders",
          "type": "address[]"
        },
        {
          "internalType": "address[]",
          "name": "_tradingPools",
          "type": "address[]"
        }
      ],
      "name": "claimSYN",
      "outputs": [],
      "stateMutability": "nonpayable",
      "type": "function"
    },
    {
      "inputs": [
        {
          "internalType": "address",
          "name": "market",
          "type": "address"
        },
        {
          "internalType": "address",
          "name": "account",
          "type": "address"
        }
      ],
      "name": "collateralMembership",
      "outputs": [
        {
          "internalType": "bool",
          "name": "",
          "type": "bool"
        }
      ],
      "stateMutability": "view",
      "type": "function"
    },
    {
      "inputs": [
        {
          "internalType": "address",
          "name": "",
          "type": "address"
        }
      ],
      "name": "collaterals",
      "outputs": [
        {
          "internalType": "bool",
          "name": "isEnabled",
          "type": "bool"
        },
        {
          "internalType": "uint256",
          "name": "volatilityRatio",
          "type": "uint256"
        }
      ],
      "stateMutability": "view",
      "type": "function"
    },
    {
      "inputs": [
        {
          "internalType": "uint256",
          "name": "",
          "type": "uint256"
        }
      ],
      "name": "collateralsList",
      "outputs": [
        {
          "internalType": "address",
          "name": "",
          "type": "address"
        }
      ],
      "stateMutability": "view",
      "type": "function"
    },
    {
      "inputs": [],
      "name": "compInitialIndex",
      "outputs": [
        {
          "internalType": "uint256",
          "name": "",
          "type": "uint256"
        }
      ],
      "stateMutability": "view",
      "type": "function"
    },
    {
      "inputs": [
        {
          "internalType": "address",
          "name": "_collateral",
          "type": "address"
        },
        {
          "internalType": "uint256",
          "name": "_amount",
          "type": "uint256"
        }
      ],
      "name": "deposit",
      "outputs": [],
      "stateMutability": "payable",
      "type": "function"
    },
    {
      "inputs": [
        {
          "internalType": "address",
          "name": "_collateral",
          "type": "address"
        }
      ],
      "name": "disableCollateral",
      "outputs": [],
      "stateMutability": "nonpayable",
      "type": "function"
    },
    {
      "inputs": [
        {
          "internalType": "address",
          "name": "_tradingPool",
          "type": "address"
        }
      ],
      "name": "disableTradingPool",
      "outputs": [],
      "stateMutability": "nonpayable",
      "type": "function"
    },
    {
      "inputs": [],
      "name": "dummy",
      "outputs": [
        {
          "internalType": "uint256",
          "name": "",
          "type": "uint256"
        }
      ],
      "stateMutability": "pure",
      "type": "function"
    },
    {
      "inputs": [
        {
          "internalType": "address",
          "name": "_collateral",
          "type": "address"
        },
        {
          "internalType": "uint256",
          "name": "_volatilityRatio",
          "type": "uint256"
        }
      ],
      "name": "enableCollateral",
      "outputs": [],
      "stateMutability": "nonpayable",
      "type": "function"
    },
    {
      "inputs": [
        {
          "internalType": "address",
          "name": "_tradingPool",
          "type": "address"
        },
        {
          "internalType": "uint256",
          "name": "_volatilityRatio",
          "type": "uint256"
        }
      ],
      "name": "enableTradingPool",
      "outputs": [],
      "stateMutability": "nonpayable",
      "type": "function"
    },
    {
      "inputs": [
        {
          "internalType": "address",
          "name": "_collateral",
          "type": "address"
        },
        {
          "internalType": "uint256",
          "name": "_amount",
          "type": "uint256"
        }
      ],
      "name": "enterAndDeposit",
      "outputs": [],
      "stateMutability": "payable",
      "type": "function"
    },
    {
      "inputs": [
        {
          "internalType": "address",
          "name": "_tradingPool",
          "type": "address"
        },
        {
          "internalType": "address",
          "name": "_synth",
          "type": "address"
        },
        {
          "internalType": "uint256",
          "name": "_amount",
          "type": "uint256"
        }
      ],
      "name": "enterAndIssue",
      "outputs": [],
      "stateMutability": "nonpayable",
      "type": "function"
    },
    {
      "inputs": [
        {
          "internalType": "address",
          "name": "_collateral",
          "type": "address"
        }
      ],
      "name": "enterCollateral",
      "outputs": [],
      "stateMutability": "nonpayable",
      "type": "function"
    },
    {
      "inputs": [
        {
          "internalType": "address",
          "name": "_tradingPool",
          "type": "address"
        }
      ],
      "name": "enterPool",
      "outputs": [],
      "stateMutability": "nonpayable",
      "type": "function"
    },
    {
      "inputs": [
        {
          "internalType": "address",
          "name": "_tradingPool",
          "type": "address"
        },
        {
          "internalType": "address",
          "name": "_synthFrom",
          "type": "address"
        },
        {
          "internalType": "address",
          "name": "_synthTo",
          "type": "address"
        },
        {
          "internalType": "uint256",
          "name": "_amount",
          "type": "uint256"
        }
      ],
      "name": "exchange",
      "outputs": [],
      "stateMutability": "nonpayable",
      "type": "function"
    },
    {
      "inputs": [],
      "name": "exchangeFee",
      "outputs": [
        {
          "internalType": "uint256",
          "name": "",
          "type": "uint256"
        }
      ],
      "stateMutability": "view",
      "type": "function"
    },
    {
      "inputs": [],
      "name": "exchangeFeeMantissa",
      "outputs": [
        {
          "internalType": "uint256",
          "name": "",
          "type": "uint256"
        }
      ],
      "stateMutability": "view",
      "type": "function"
    },
    {
      "inputs": [
        {
          "internalType": "address",
          "name": "_collateral",
          "type": "address"
        }
      ],
      "name": "exitCollateral",
      "outputs": [],
      "stateMutability": "nonpayable",
      "type": "function"
    },
    {
      "inputs": [
        {
          "internalType": "address",
          "name": "_tradingPool",
          "type": "address"
        }
      ],
      "name": "exitPool",
      "outputs": [],
      "stateMutability": "nonpayable",
      "type": "function"
    },
    {
      "inputs": [
        {
          "internalType": "address",
          "name": "_account",
          "type": "address"
        }
      ],
      "name": "getAdjustedUserTotalCollateralUSD",
      "outputs": [
        {
          "internalType": "uint256",
          "name": "",
          "type": "uint256"
        }
      ],
      "stateMutability": "view",
      "type": "function"
    },
    {
      "inputs": [
        {
          "internalType": "address",
          "name": "_account",
          "type": "address"
        }
      ],
      "name": "getAdjustedUserTotalDebtUSD",
      "outputs": [
        {
          "internalType": "uint256",
          "name": "",
          "type": "uint256"
        }
      ],
      "stateMutability": "view",
      "type": "function"
    },
    {
      "inputs": [
        {
          "internalType": "address",
          "name": "_account",
          "type": "address"
        }
      ],
      "name": "getLTV",
      "outputs": [
        {
          "internalType": "uint256",
          "name": "",
          "type": "uint256"
        }
      ],
      "stateMutability": "view",
      "type": "function"
    },
    {
      "inputs": [
        {
          "internalType": "address",
          "name": "_tradingPool",
          "type": "address"
        }
      ],
      "name": "getPoolTotalDebtUSD",
      "outputs": [
        {
          "internalType": "uint256",
          "name": "",
          "type": "uint256"
        }
      ],
      "stateMutability": "view",
      "type": "function"
    },
    {
      "inputs": [
        {
          "internalType": "bytes32",
          "name": "role",
          "type": "bytes32"
        }
      ],
      "name": "getRoleAdmin",
      "outputs": [
        {
          "internalType": "bytes32",
          "name": "",
          "type": "bytes32"
        }
      ],
      "stateMutability": "view",
      "type": "function"
    },
    {
      "inputs": [
        {
          "internalType": "address",
          "name": "_account",
          "type": "address"
        }
      ],
      "name": "getSYNAccrued",
      "outputs": [
        {
          "internalType": "uint256",
          "name": "",
          "type": "uint256"
        }
      ],
      "stateMutability": "nonpayable",
      "type": "function"
    },
    {
      "inputs": [
        {
          "internalType": "address",
          "name": "_account",
          "type": "address"
        },
        {
          "internalType": "address",
          "name": "_tradingPool",
          "type": "address"
        }
      ],
      "name": "getUserPoolDebtUSD",
      "outputs": [
        {
          "internalType": "uint256",
          "name": "",
          "type": "uint256"
        }
      ],
      "stateMutability": "view",
      "type": "function"
    },
    {
      "inputs": [
        {
          "internalType": "address",
          "name": "_account",
          "type": "address"
        }
      ],
      "name": "getUserTotalCollateralUSD",
      "outputs": [
        {
          "internalType": "uint256",
          "name": "",
          "type": "uint256"
        }
      ],
      "stateMutability": "view",
      "type": "function"
    },
    {
      "inputs": [
        {
          "internalType": "address",
          "name": "_account",
          "type": "address"
        }
      ],
      "name": "getUserTotalDebtUSD",
      "outputs": [
        {
          "internalType": "uint256",
          "name": "",
          "type": "uint256"
        }
      ],
      "stateMutability": "view",
      "type": "function"
    },
    {
      "inputs": [
        {
          "internalType": "bytes32",
          "name": "role",
          "type": "bytes32"
        },
        {
          "internalType": "address",
          "name": "account",
          "type": "address"
        }
      ],
      "name": "grantRole",
      "outputs": [],
      "stateMutability": "nonpayable",
      "type": "function"
    },
    {
      "inputs": [
        {
          "internalType": "bytes32",
          "name": "role",
          "type": "bytes32"
        },
        {
          "internalType": "address",
          "name": "account",
          "type": "address"
        }
      ],
      "name": "hasRole",
      "outputs": [
        {
          "internalType": "bool",
          "name": "",
          "type": "bool"
        }
      ],
      "stateMutability": "view",
      "type": "function"
    },
    {
      "inputs": [
        {
          "internalType": "address",
          "name": "_account",
          "type": "address"
        }
      ],
      "name": "healthFactor",
      "outputs": [
        {
          "internalType": "uint256",
          "name": "",
          "type": "uint256"
        }
      ],
      "stateMutability": "view",
      "type": "function"
    },
    {
      "inputs": [
        {
          "internalType": "address",
          "name": "_syn",
          "type": "address"
        },
        {
          "internalType": "address",
          "name": "admin",
          "type": "address"
        },
        {
          "internalType": "address",
          "name": "pauser",
          "type": "address"
        },
        {
          "internalType": "address",
          "name": "poolManager",
          "type": "address"
        }
      ],
      "name": "initialize",
      "outputs": [],
      "stateMutability": "nonpayable",
      "type": "function"
    },
    {
      "inputs": [
        {
          "internalType": "address",
          "name": "_tradingPool",
          "type": "address"
        },
        {
          "internalType": "address",
          "name": "_synth",
          "type": "address"
        },
        {
          "internalType": "uint256",
          "name": "_amount",
          "type": "uint256"
        }
      ],
      "name": "issue",
      "outputs": [],
      "stateMutability": "nonpayable",
      "type": "function"
    },
    {
      "inputs": [
        {
          "internalType": "address",
          "name": "_account",
          "type": "address"
        },
        {
          "internalType": "address",
          "name": "_tradingPool",
          "type": "address"
        },
        {
          "internalType": "address",
          "name": "_inAsset",
          "type": "address"
        },
        {
          "internalType": "uint256",
          "name": "_inAmount",
          "type": "uint256"
        },
        {
          "internalType": "address",
          "name": "_outAsset",
          "type": "address"
        }
      ],
      "name": "liquidate",
      "outputs": [],
      "stateMutability": "nonpayable",
      "type": "function"
    },
    {
      "inputs": [],
      "name": "oracle",
      "outputs": [
        {
          "internalType": "contract PriceOracle",
          "name": "",
          "type": "address"
        }
      ],
      "stateMutability": "view",
      "type": "function"
    },
    {
      "inputs": [],
      "name": "pause",
      "outputs": [],
      "stateMutability": "nonpayable",
      "type": "function"
    },
    {
      "inputs": [],
      "name": "paused",
      "outputs": [
        {
          "internalType": "bool",
          "name": "",
          "type": "bool"
        }
      ],
      "stateMutability": "view",
      "type": "function"
    },
    {
      "inputs": [
        {
          "internalType": "address",
          "name": "_collateral",
          "type": "address"
        }
      ],
      "name": "removeCollateral",
      "outputs": [],
      "stateMutability": "nonpayable",
      "type": "function"
    },
    {
      "inputs": [
        {
          "internalType": "address",
          "name": "_tradingPool",
          "type": "address"
        }
      ],
      "name": "removeTradingPool",
      "outputs": [],
      "stateMutability": "nonpayable",
      "type": "function"
    },
    {
      "inputs": [
        {
          "internalType": "bytes32",
          "name": "role",
          "type": "bytes32"
        },
        {
          "internalType": "address",
          "name": "account",
          "type": "address"
        }
      ],
      "name": "renounceRole",
      "outputs": [],
      "stateMutability": "nonpayable",
      "type": "function"
    },
    {
      "inputs": [
        {
          "internalType": "bytes32",
          "name": "role",
          "type": "bytes32"
        },
        {
          "internalType": "address",
          "name": "account",
          "type": "address"
        }
      ],
      "name": "revokeRole",
      "outputs": [],
      "stateMutability": "nonpayable",
      "type": "function"
    },
    {
      "inputs": [],
      "name": "safeCRatio",
      "outputs": [
        {
          "internalType": "uint256",
          "name": "",
          "type": "uint256"
        }
      ],
      "stateMutability": "view",
      "type": "function"
    },
    {
      "inputs": [
        {
          "internalType": "uint256",
          "name": "_exchangeFee",
          "type": "uint256"
        }
      ],
      "name": "setExchangeFee",
      "outputs": [],
      "stateMutability": "nonpayable",
      "type": "function"
    },
    {
      "inputs": [
        {
          "internalType": "address",
          "name": "_oracle",
          "type": "address"
        }
      ],
      "name": "setOracle",
      "outputs": [],
      "stateMutability": "nonpayable",
      "type": "function"
    },
    {
      "inputs": [
        {
          "internalType": "address",
          "name": "_tradingPool",
          "type": "address"
        },
        {
          "internalType": "uint256",
          "name": "_speed",
          "type": "uint256"
        }
      ],
      "name": "setPoolSpeed",
      "outputs": [],
      "stateMutability": "nonpayable",
      "type": "function"
    },
    {
      "inputs": [
        {
          "internalType": "bytes4",
          "name": "interfaceId",
          "type": "bytes4"
        }
      ],
      "name": "supportsInterface",
      "outputs": [
        {
          "internalType": "bool",
          "name": "",
          "type": "bool"
        }
      ],
      "stateMutability": "view",
      "type": "function"
    },
    {
      "inputs": [],
      "name": "syn",
      "outputs": [
        {
          "internalType": "contract SyntheXToken",
          "name": "",
          "type": "address"
        }
      ],
      "stateMutability": "view",
      "type": "function"
    },
    {
      "inputs": [
        {
          "internalType": "address",
          "name": "",
          "type": "address"
        }
      ],
      "name": "synAccrued",
      "outputs": [
        {
          "internalType": "uint256",
          "name": "",
          "type": "uint256"
        }
      ],
      "stateMutability": "view",
      "type": "function"
    },
    {
      "inputs": [
        {
          "internalType": "address",
          "name": "",
          "type": "address"
        },
        {
          "internalType": "address",
          "name": "",
          "type": "address"
        }
      ],
      "name": "synBorrowerIndex",
      "outputs": [
        {
          "internalType": "uint256",
          "name": "",
          "type": "uint256"
        }
      ],
      "stateMutability": "view",
      "type": "function"
    },
    {
      "inputs": [
        {
          "internalType": "address",
          "name": "",
          "type": "address"
        }
      ],
      "name": "synRewardSpeeds",
      "outputs": [
        {
          "internalType": "uint256",
          "name": "",
          "type": "uint256"
        }
      ],
      "stateMutability": "view",
      "type": "function"
    },
    {
      "inputs": [
        {
          "internalType": "address",
          "name": "",
          "type": "address"
        }
      ],
      "name": "synRewardState",
      "outputs": [
        {
          "internalType": "uint224",
          "name": "index",
          "type": "uint224"
        },
        {
          "internalType": "uint32",
          "name": "timestamp",
          "type": "uint32"
        }
      ],
      "stateMutability": "view",
      "type": "function"
    },
    {
      "inputs": [
        {
          "internalType": "address",
          "name": "market",
          "type": "address"
        },
        {
          "internalType": "address",
          "name": "account",
          "type": "address"
        }
      ],
      "name": "tradingPoolMembership",
      "outputs": [
        {
          "internalType": "bool",
          "name": "",
          "type": "bool"
        }
      ],
      "stateMutability": "view",
      "type": "function"
    },
    {
      "inputs": [
        {
          "internalType": "address",
          "name": "",
          "type": "address"
        }
      ],
      "name": "tradingPools",
      "outputs": [
        {
          "internalType": "bool",
          "name": "isEnabled",
          "type": "bool"
        },
        {
          "internalType": "uint256",
          "name": "volatilityRatio",
          "type": "uint256"
        }
      ],
      "stateMutability": "view",
      "type": "function"
    },
    {
      "inputs": [
        {
          "internalType": "uint256",
          "name": "",
          "type": "uint256"
        }
      ],
      "name": "tradingPoolsList",
      "outputs": [
        {
          "internalType": "address",
          "name": "",
          "type": "address"
        }
      ],
      "stateMutability": "view",
      "type": "function"
    },
    {
      "inputs": [],
      "name": "unpause",
      "outputs": [],
      "stateMutability": "nonpayable",
      "type": "function"
    },
    {
      "inputs": [
        {
          "internalType": "address",
          "name": "_collateral",
          "type": "address"
        },
        {
          "internalType": "uint256",
          "name": "_amount",
          "type": "uint256"
        }
      ],
      "name": "withdraw",
      "outputs": [],
      "stateMutability": "nonpayable",
      "type": "function"
    }
  ],
  "bytecode": "0x6080806040523461001657614c3b908161001c8239f35b600080fdfe608080604052600436101561001357600080fd5b600090813560e01c90816301ffc9a714612d87575080630b0d337914612b3357806315deef4b14612b0f5780631b57d1ac14612ac3578063248a9ca314612a965780632558626d14612a6957806329553e99146129f25780632cf41e25146129c05780632ecd3be4146129a25780632f2ff15d146128ee57806332e43a11146128d257806336568abe1461283257806336cc366b146127ee5780633bf0a549146127c75780633f4ba83a1461272a57806344f7a1b01461263e5780634509e6ae1461260357806347e7ef24146124645780634b2bc5df14611fee57806352e7ce9114611f5557806353640ac214611ec057806356d7356814611e855780635c975abb14611e625780636aa3f86c14611e295780636ad9f9df14611e0557806375b238fc14611dca57806375c038b714611d5357806378c5266b14611cf85780637adbf97314611c875780637dc0d1d014611c605780638456cb5914611c055780638b2e1eaa14611bb157806391d1485414611b645780639df8cc7b14611b16578063a217fddf14611afa578063a7f0e23114611ad0578063a982493114611aae578063aa3b3a1e14611a55578063aca25f9a14611a31578063aed0bf88146119d8578063b140bf03146119ba578063b358189814611962578063b3593f201461193f578063b613999214611930578063b7f85d0f146118a2578063ba5a2d33146117ba578063be281f6714611769578063c29611f714611718578063c99d3a06146115c0578063caca550f14611562578063cd82b76e14611518578063d547741f146114da578063d74fbae91461144f578063db46f702146113f1578063ec3b8f1a146113cd578063edc280c1146113a9578063eeb97d3b1461134d578063ef9fb99114611025578063f0a4d9e214610fec578063f3fef3a314610d8c578063f43100cf14610d5e578063f6b911bc14610b0b578063f8c8765e146103a7578063fca3508b14610383578063fd1e8c8514610355578063fe35ea95146103295763ffd10e071461030257600080fd5b346103265760203660031901126103265761032361031e612e0f565b61378f565b80f35b80fd5b503461032657602036600319011261032657602061034d610348612e0f565b61455e565b604051908152f35b503461032657604036600319011261032657610323610372612e0f565b61037a613270565b60243590613eab565b503461032657602036600319011261032657602061034d6103a2612e0f565b6149dd565b5034610326576080366003190112610326576103c1612e0f565b6103c9612e25565b6103d1612e3b565b6064356001600160a01b038116809103610b0657845460ff8160081c161594858096610af9575b8015610ae2575b15610a785760ff19821660011787556001600160a01b039186610a67575b5061045760ff885460081c16610432816136f4565b61043b816136f4565b610444816136f4565b6001609755610452816136f4565b6136f4565b60ff1960c9541660c9551673ffffffffffffffffffffffffffffffffffffffff1960fb54161760fb5567120a871cc002000060fd55848052606592836020526001600160a01b03604087209116908160005260205260ff6040600020541615610a19575b7fa49807205ce4d355092ef5a8a18f56e8913cf4a201fbe287825b095693c2177560005283602052600060016040822001548160016040822001557fa49807205ce4d355092ef5a8a18f56e8913cf4a201fbe287825b095693c217757fbd79b86ffe0ab8e8776151514217cd7cacd52c909f66475c3af44e129f0b00ff8380a47fa49807205ce4d355092ef5a8a18f56e8913cf4a201fbe287825b095693c21775865283602052604086208160005260205260ff604060002054161561098a575b507f6077685936c8169d09204a1d97db12e41713588c38e1d29a61867d3dcee98aff60005282602052600060016040822001548160016040822001557f6077685936c8169d09204a1d97db12e41713588c38e1d29a61867d3dcee98aff7fbd79b86ffe0ab8e8776151514217cd7cacd52c909f66475c3af44e129f0b00ff8380a47f6077685936c8169d09204a1d97db12e41713588c38e1d29a61867d3dcee98aff855282602052604085208160005260205260ff60406000205416156108fb575b507f3bb181d5689164b4d72d34b056228c95b51f3fb0f6dbdb7f9ddba5f91c6821dd90816000528260205260006001604082200154816001604082200155837fbd79b86ffe0ab8e8776151514217cd7cacd52c909f66475c3af44e129f0b00ff8380a4818552826020526001600160a01b03604086209116908160005260205260ff60406000205416156108ac575b50507fa49807205ce4d355092ef5a8a18f56e8913cf4a201fbe287825b095693c21775835280602052604083203360005260205260ff604060002054161561081e575b7f6077685936c8169d09204a1d97db12e41713588c38e1d29a61867d3dcee98aff835280602052604083203360005260205260ff6040600020541615610790575b506107595780f35b61ff001981541681557f7f26b83ff96e1f2b6a682f133852f6798a09c465da95921460cefb3847402498602060405160018152a180f35b7f6077685936c8169d09204a1d97db12e41713588c38e1d29a61867d3dcee98aff835260205260408220336000526020526040600020600160ff1982541617905533337f6077685936c8169d09204a1d97db12e41713588c38e1d29a61867d3dcee98aff7f2f8788117e7eff1d82e926ec794901d17c78024a50270940304540a733656f0d8580a438610751565b7fa49807205ce4d355092ef5a8a18f56e8913cf4a201fbe287825b095693c2177583528060205260408320336000526020526040600020600160ff1982541617905533337fa49807205ce4d355092ef5a8a18f56e8913cf4a201fbe287825b095693c217757f2f8788117e7eff1d82e926ec794901d17c78024a50270940304540a733656f0d8680a4610710565b8185528260205260408520816000526020526040600020600160ff1982541617905533917f2f8788117e7eff1d82e926ec794901d17c78024a50270940304540a733656f0d8680a438806106cd565b7f6077685936c8169d09204a1d97db12e41713588c38e1d29a61867d3dcee98aff85528260205260408520816000526020526040600020600160ff1982541617905533907f6077685936c8169d09204a1d97db12e41713588c38e1d29a61867d3dcee98aff7f2f8788117e7eff1d82e926ec794901d17c78024a50270940304540a733656f0d8780a43861063e565b7fa49807205ce4d355092ef5a8a18f56e8913cf4a201fbe287825b095693c2177586528360205260408620816000526020526040600020600160ff1982541617905533907fa49807205ce4d355092ef5a8a18f56e8913cf4a201fbe287825b095693c217757f2f8788117e7eff1d82e926ec794901d17c78024a50270940304540a733656f0d8880a43861057c565b8580528360205260408620816000526020526040600020600160ff198254161790553381877f2f8788117e7eff1d82e926ec794901d17c78024a50270940304540a733656f0d8180a46104bb565b61ffff19166101011787553861041d565b608460405162461bcd60e51b815260206004820152602e60248201527f496e697469616c697a61626c653a20636f6e747261637420697320616c72656160448201527f647920696e697469616c697a65640000000000000000000000000000000000006064820152fd5b50303b1580156103ff5750600160ff8316146103ff565b50600160ff8316106103f8565b600080fd5b503461032657610b1a36613013565b610b226138e9565b610b2a613939565b610b3383613f2c565b610b3d33846140a9565b6001600160a01b03918260fe54169360405163b3596f0760e01b8152604081602481888716998a60048301525afa8015610d53578790610d13575b610b9b9150610b956020610b8d8351886135c5565b920151613ca3565b90613cb1565b93610ba682336148f4565b85811015610d0b57915b670de0b6b3a76400009283810290808204851490151715610cf75792610be8819392610bde898c9897613cb1565b93849116986135c5565b04863b15610cf357604051632770a7eb60e21b815233600482015260248101919091528481604481838b5af1908115610ce8578591610cd4575b5050610c2e90856135c5565b0490843b15610cd057604051637d9e4b0960e11b81526001600160a01b039190911660048201523360248201526044810191909152818160648183885af18015610cc557610cad575b50506040519081527ff8a861f822ed8ac8743e429937c8bb8952ca8617a40319ef7fde892039aac12860203392a4600160975580f35b610cb690612eed565b610cc1578338610c77565b8380fd5b6040513d84823e3d90fd5b8280fd5b610cdd90612eed565b610cc1578338610c22565b6040513d87823e3d90fd5b8480fd5b602489634e487b7160e01b81526011600452fd5b508491610bb0565b5060403d604011610d4c575b610d298183612f6b565b810190604081830312610d4857610b9b91610d4391613c6a565b610b78565b8780fd5b503d610d1f565b6040513d89823e3d90fd5b503461032657604036600319011261032657610323610d7b612e0f565b610d83613048565b60243590613e1a565b503461032657604036600319011261032657610da6612e0f565b602435610db16138e9565b610db9613939565b3383526101016020908082526001600160a01b0360408620941693846000528252604060002054838110610fa85783610df1916137e3565b903386528252604085208460005282526040600020558215600014610ed157814710610e8d578380838015610e83575b8280929181923390f115610e78577f9b1bfa7fa9ee420a16e124f794c35ac9f90472acc99140eb2f6447c714cad8eb905b610e67610e5e336144dc565b60fd5410613b7a565b6040519283523392a3600160975580f35b6040513d85823e3d90fd5b6108fc9150610e21565b6064906040519062461bcd60e51b82526004820152601860248201527f496e73756666696369656e74204554482062616c616e636500000000000000006044820152fd5b6040516370a0823160e01b81523060048201528181602481875afa8015610ce85783918691610f77575b5010610f33577f9b1bfa7fa9ee420a16e124f794c35ac9f90472acc99140eb2f6447c714cad8eb90610f2e833386613bc5565b610e52565b6064906040519062461bcd60e51b82526004820152601a60248201527f496e73756666696369656e742045524332302062616c616e63650000000000006044820152fd5b809250838092503d8311610fa1575b610f908183612f6b565b81010312610b065782905138610efb565b503d610f86565b6064836040519062461bcd60e51b82526004820152601460248201527f496e73756666696369656e742062616c616e63650000000000000000000000006044820152fd5b50346103265760203660031901126103265760406020916001600160a01b03611013612e0f565b16815261010983522054604051908152f35b50346103265761103436613013565b61103d8361378f565b6110456138e9565b61104d613939565b6001600160a01b0380841692838652602091610102835260026040882061107760ff825416613c1f565b3360005201835260ff604060002054161561130957604051957f9f087dd60000000000000000000000000000000000000000000000000000000087528183169687600482015284816024818a5afa9081156112fe5789916112d1575b501561128d5760408893926110f4836110ed602495613f2c565b33906140a9565b60fe541681519283809263b3596f0760e01b82528b60048301525afa8015610e78578390611251575b6111319150610b9585610b8d8351896135c5565b853b15610cd0576040517f40c10f1900000000000000000000000000000000000000000000000000000000815233600482015260248101919091528281604481838a5af1908115610e7857839161123d575b5050843b15611239576040517f5bf0abbc0000000000000000000000000000000000000000000000000000000081526001600160a01b0391909116600482015233602482015260448101849052818160648183895af18015610cc557611225575b50507f65adeb76912378393e600cb6f64f3310842a42e1eae86273dc775d0c47a0f2dc90611214610e5e336144dc565b6040519283523392a4600160975580f35b61122e90612eed565b610cf35784386111e4565b5080fd5b61124690612eed565b611239578138611183565b5060403d604011611286575b6112678183612f6b565b810190604081830312610cc1576111319161128191613c6a565b61111d565b503d61125d565b6064846040519062461bcd60e51b82526004820152601160248201527f53796e7468206e6f7420656e61626c65640000000000000000000000000000006044820152fd5b6112f19150853d87116112f7575b6112e98183612f6b565b81019061398e565b386110d3565b503d6112df565b6040513d8b823e3d90fd5b6064836040519062461bcd60e51b82526004820152601b60248201527f4163636f756e74206e6f7420696e2074726164696e6720706f6f6c00000000006044820152fd5b5034610326576020366003190112610326576040906001600160a01b03611372612e0f565b16815261010360205220600160ff825416910154906113a560405192839283602090939291936040810194151581520152565b0390f35b503461032657602036600319011261032657602061034d6113c8612e0f565b614865565b503461032657602036600319011261032657602061034d6113ec612e0f565b61469b565b503461032657602036600319011261032657600435906101059081548310156103265760206001600160a01b0384846000527ffc62abc8c0fc47c2d92f5aec99bf8b60f375828e14394d89345cae11a9867371015416604051908152f35b503461032657604036600319011261032657611469612e0f565b7f5d3499d6e736144c38c9b359bc39a19d214790ce4b72f63523d104f98af5a99a6020602435611497613048565b6114c26001600160a01b0385169485875261010284526114bd60ff604089205416613c1f565b613f2c565b8385526101068252806040862055604051908152a280f35b5034610326576040366003190112610326576103236004356114fa612e25565b90808452606560205261151360016040862001546133bc565b61351b565b503461032657602036600319011261032657604080916001600160a01b0361153e612e0f565b16815261010760205220548151906001600160e01b038116825260e01c6020820152f35b503461032657602036600319011261032657600435906101049081548310156103265760206001600160a01b0384846000527f4c0be60200faa20559308cb7b5a1bb3255c16cb1cab91f525b5ae7a03d02fabe015416604051908152f35b5034610326576020366003190112610326576115da612e0f565b6115e2613270565b6001600160a01b0390811680835261010360205260408320805460ff19169055825b61010580548083101561171057848461161c85612e9e565b929054600393841b1c161461163c57505050611637906137d4565b611604565b939491936000199392918481019081116116fc579161166e916116626116939594612e9e565b9054911b1c1691612e9e565b90919082549060031b916001600160a01b039283811b93849216901b16911916179055565b815480156116e65701906116be6116a983612e9e565b6001600160a01b0382549160031b1b19169055565b557fd89d2ee68ab04dca0193f48a4aff55e20fa5ec0429a8a8c1c51b8dad6178a5938280a280f35b634e487b7160e01b600052603160045260246000fd5b602488634e487b7160e01b81526011600452fd5b505050505080f35b503461032657604036600319011261032657611732612e0f565b604061173c612e25565b926001600160a01b0380931681526101086020522091166000526020526020604060002054604051908152f35b503461032657604036600319011261032657611783612e0f565b604061178d612e25565b926001600160a01b0380931681526101016020522091166000526020526020604060002054604051908152f35b503461032657602080600319360112611239576001600160a01b0390816117df612e0f565b1690818452610102815260026040852001336000528152604060002060ff198154169055835b33855260ff80835260408620548210156117105784846118288460408a20612ed5565b929054600393841b1c1614611847575050611842906137d4565b611805565b9094919293503386528484526040862060408720549060001982019182116116fc579161187c61189295949261166e94612ed5565b9054911b1c169133875285855260408720612ed5565b33835252610323604082206137f0565b503461032657602080600319360112611239576001600160a01b0390816118c7612e0f565b1690818452610103815260026040852001336000528152604060002060ff198154169055835b33855261010080835260408620548210156117105784846119118460408a20612ed5565b929054600393841b1c161461184757505061192b906137d4565b6118ed565b50346103265761103d36613013565b50346103265780600319360112610326576020604051670de0b6b3a76400008152f35b5034610326576020366003190112610326576040906001600160a01b03611987612e0f565b16815261010260205220600160ff825416910154906113a560405192839283602090939291936040810194151581520152565b5034610326578060031936011261032657602060fd54604051908152f35b5034610326576040366003190112610326576119f2612e0f565b600260406119fe612e25565b936001600160a01b03809416815261010260205220019116600052602052602060ff604060002054166040519015158152f35b503461032657602036600319011261032657602061034d611a50612e0f565b614522565b503461032657604036600319011261032657611a6f612e0f565b60026040611a7b612e25565b936001600160a01b03809416815261010360205220019116600052602052602060ff604060002054166040519015158152f35b503461032657602036600319011261032657610323611acb612e0f565b61380d565b503461032657806003193601126103265760206040516ec097ce7bc90715b34b9f10000000008152f35b5034610326578060031936011261032657602090604051908152f35b5034610326576020366003190112610326577fae372d52810608dca793b2c8d4a85801f12f42beef5d474998c67936a4c277bd6020600435611b56613270565b8060fc55604051908152a180f35b5034610326576040366003190112610326576001600160a01b036040611b88612e25565b9260043581526065602052209116600052602052602060ff604060002054166040519015158152f35b50346103265760403660031901126103265767ffffffffffffffff600435818111610cd057611be4903690600401612fa5565b602435918211610cd057611bff610323923690600401612fa5565b90614325565b5034610326578060031936011261032657611c1e613270565b611c266138e9565b600160ff1960c954161760c9557f62e78cea01bee320cd4e420270b5ea74000d11b0c9f74754ebdbfc544b05a2586020604051338152a180f35b503461032657806003193601126103265760206001600160a01b0360fe5416604051908152f35b5034610326576020366003190112610326576001600160a01b03611ca9612e0f565b611cb1613270565b168073ffffffffffffffffffffffffffffffffffffffff1960fe54161760fe557ff261845a790fe29bbd6631e2ca4a5bdc83e6eed7c3271d9590d97287e00e91238280a280f35b503461032657604036600319011261032657611d12612e0f565b602435916001600160a01b03809216815260ff602052604081209081548410156103265750602092611d4391612ed5565b9190546040519260031b1c168152f35b5034610326576020366003190112610326576001600160a01b03611d75612e0f565b611d7d613270565b1680825261010360205260ff604083205416611d97575080f35b60408220805460ff191690557f192895f9a14975ce177e9612fd4f4459e31169d79cb650596bcce0622bd70a928280a280f35b503461032657806003193601126103265760206040517fa49807205ce4d355092ef5a8a18f56e8913cf4a201fbe287825b095693c217758152f35b503461032657602036600319011261032657602061034d611e24612e0f565b6144dc565b50346103265760203660031901126103265760406020916001600160a01b03611e50612e0f565b16815261010683522054604051908152f35b5034610326578060031936011261032657602060ff60c954166040519015158152f35b503461032657806003193601126103265760206040517f6077685936c8169d09204a1d97db12e41713588c38e1d29a61867d3dcee98aff8152f35b5034610326576020908160031936011261032657611edc612e0f565b60405161010480548083526000918252828601959293927f4c0be60200faa20559308cb7b5a1bb3255c16cb1cab91f525b5ae7a03d02fabe92905b828210611f3557866103238787611f30828d0383612f6b565b6142a5565b83546001600160a01b031688529687019660019384019390910190611f17565b5034610326576020908160031936011261032657611f71612e0f565b815b61010454811015611fcf5780611fc5836001600160a01b03611f97611fca95612e51565b90549060031b1c168087526101028852611fb760ff6040892054166142da565b611fc081613f2c565b6140a9565b6137d4565b611f73565b50906001600160a01b0360409216815261010983522054604051908152f35b50346103265760a036600319011261032657612008612e0f565b612010612e25565b612018612e3b565b608435926001600160a01b0384168403610b06576120346138e9565b61203c613939565b612045816144dc565b670de0b6b3a764000081101561242057156123dc5784916120696064351515613cd1565b61207282614522565b6120de8460405161208281612f17565b60028152604036602083013761209781613d1c565b6001600160a01b03861690526001600160a01b0389166120b682613d29565b526001600160a01b0360fe5416604051808095819463053c81b560e01b835260048301613dd6565b03915afa908115610ce85785916123ba575b506001600160a01b038716855261010360205260026040862061211660ff825416613853565b6001600160a01b0386166000520160205261213860ff6040600020541661389e565b6001600160a01b0384168552610101602052604085206001600160a01b038816600052602052604060002054956121d26121c4670de0b6b3a76400006121b2866121ad61219161218789613d1c565b51516064356135c5565b6121a7602061219f8b613d29565b510151613ca3565b906135c5565b6135c5565b046121bc85613d29565b515190613cb1565b610b95602061219f86613d1c565b968781106123b2575b906121ee886001600160a01b03936137e3565b828716885261010160205260408820838b1660005260205260406000205516936122446122368461223161222c61222487613d29565b51518c6135c5565b613592565b613cb1565b610b95602061219f86613d29565b90853b156123ae57604051632770a7eb60e21b81526001600160a01b039190911660048201526024810191909152858160448183895af180156123a3578791879161238c575b5050602061219f6122cf6122c66122d59661223161222c6122b9610b95986122b18b613d29565b5151906135c5565b6121a78861219f8c613d1c565b6121bc86613d1c565b93613d29565b823b15610cc157604051637d9e4b0960e11b81526001600160a01b0392909216600483015233602483015260448201529082908290606490829084905af18015610cc557612378575b505061234c90338452610101602052604084206001600160a01b0384166000526020526040600020546135d8565b903383526101016020526001600160a01b03604084209116600052602052604060002055600160975580f35b61238190612eed565b610cd057823861231e565b612397919250612eed565b610cf35785853861228a565b6040513d88823e3d90fd5b8680fd5b9650866121db565b6123d691503d8087833e6123ce8183612f6b565b810190613d4d565b386120f0565b606460405162461bcd60e51b815260206004820152601d60248201527f4163636f756e7420697320616c7265616479206c6971756964617465640000006044820152fd5b606460405162461bcd60e51b815260206004820152601560248201527f4865616c746820666163746f722061626f7665203100000000000000000000006044820152fd5b50604036600319011261032657612479612e0f565b6001600160a01b036024359161248d6138e9565b612495613939565b1690818352602061010381526002604085206124b460ff825416613853565b336000520181526124cc60ff6040600020541661389e565b8261258857813403612544577f5548c837ab068cf56a2c2479df0882a4922fd203edb7517321831d95078c5f62905b3385526101018082526040862085600052825261251d846040600020546135d8565b903387528252604086208560005282526040600020556040519283523392a3600160975580f35b6064906040519062461bcd60e51b82526004820152601460248201527f496e636f72726563742045544820616d6f756e740000000000000000000000006044820152fd5b6040517f23b872dd0000000000000000000000000000000000000000000000000000000082820152336024820152306044820152606480820184905281527f5548c837ab068cf56a2c2479df0882a4922fd203edb7517321831d95078c5f6291906125fe906125f8608482612f6b565b856139a6565b6124fb565b503461032657806003193601126103265760206040517f3bb181d5689164b4d72d34b056228c95b51f3fb0f6dbdb7f9ddba5f91c6821dd8152f35b503461032657602036600319011261032657612658612e0f565b612660613048565b6001600160a01b0390811680835261010260205260408320805460ff19169055825b61010480548083101561171057848461269a85612e51565b929054600393841b1c16146126ba575050506126b5906137d4565b612682565b939491936000199392918481019081116116fc579161166e916126e06126ec9594612e51565b9054911b1c1691612e51565b815480156116e65701906127026116a983612e51565b557fd7bc7aa3441295e542e42197effcd361e36921102724a91445e9dd47f19ddcbc8280a280f35b5034610326578060031936011261032657612743613270565b60c95460ff8116156127835760ff191660c9557f5db9ee0a495bf2e6ff9c91a7834c1ba4fdd244a5e8aa4e537bd38aeae4b073aa6020604051338152a180f35b606460405162461bcd60e51b815260206004820152601460248201527f5061757361626c653a206e6f74207061757365640000000000000000000000006044820152fd5b503461032657806003193601126103265760206001600160a01b0360fb5416604051908152f35b503461032657604036600319011261032657612808612e0f565b6024359067ffffffffffffffff8211610cd05761282c610323923690600401612fa5565b906142a5565b50346103265760403660031901126103265761284c612e25565b336001600160a01b03821603612868576103239060043561351b565b608460405162461bcd60e51b815260206004820152602f60248201527f416363657373436f6e74726f6c3a2063616e206f6e6c792072656e6f756e636560448201527f20726f6c657320666f722073656c6600000000000000000000000000000000006064820152fd5b5034610326578060031936011261032657602060405160018152f35b50346103265760403660031901126103265760043561290b612e25565b818352606560205261292360016040852001546133bc565b81835260656020526001600160a01b03604084209116908160005260205260ff6040600020541615612953578280f35b818352606560205260408320816000526020526040600020600160ff1982541617905533917f2f8788117e7eff1d82e926ec794901d17c78024a50270940304540a733656f0d8480a438808280f35b5034610326578060031936011261032657602060fc54604051908152f35b506040366003190112610326576129d5612e0f565b6001600160a01b03602435916129ea8161380d565b61248d6138e9565b5034610326576020366003190112610326576001600160a01b03612a14612e0f565b612a1c613048565b1680825261010260205260ff604083205416612a36575080f35b60408220805460ff191690557f40df287591e0c328c46e4a6e6a392c11257b2068c75575828d622838c83efd3a8280a280f35b503461032657604036600319011261032657602061034d612a88612e0f565b612a90612e25565b906148f4565b50346103265760203660031901126103265760016040602092600435815260658452200154604051908152f35b503461032657604036600319011261032657612add612e0f565b602435916001600160a01b038092168152610100602052604081209081548410156103265750602092611d4391612ed5565b503461032657602036600319011261032657602061034d612b2e612e0f565b614808565b503461032657608036600319011261032657612b4d612e0f565b612b55612e25565b612b5d612e3b565b60643592612b696138e9565b612b71613939565b6001600160a01b039384808416941694848614612d4357612b93821515613cd1565b612be587604051612ba381612f17565b60028152604036602083013788612bb982613d1c565b5287612bc482613d29565b528360fe5416604051808095819463053c81b560e01b835260048301613dd6565b03915afa8015612d3857612c39918991612d1e575b50610b95602061219f612c33612c2a612c1d612c1587613d1c565b51518a6135c5565b6121a78561219f89613d29565b6121bc86613d29565b93613d1c565b921693843b156123ae57604051907f4798ce5b0000000000000000000000000000000000000000000000000000000082528660048301526024820152336044820152816064820152826084820152868160a48183895af18015610d5357612ce9575b50604080516001600160a01b03949094168452602084019190915282015233907f22bfc3d7b9d92e3f2b35d94c61a1a9f1c86d0793bb7645294eaf8beb03c0347990606090a4600160975580f35b95612d167f22bfc3d7b9d92e3f2b35d94c61a1a9f1c86d0793bb7645294eaf8beb03c03479939297612eed565b959091612c9b565b612d3291503d808b833e6123ce8183612f6b565b38612bfa565b6040513d8a823e3d90fd5b606460405162461bcd60e51b815260206004820152601360248201527f53796e74687320617265207468652073616d65000000000000000000000000006044820152fd5b905034611239576020366003190112611239576004356001600160e01b03198116809103610cd057602092507f7965db0b000000000000000000000000000000000000000000000000000000008114908115612de5575b5015158152f35b7f01ffc9a70000000000000000000000000000000000000000000000000000000091501438612dde565b600435906001600160a01b0382168203610b0657565b602435906001600160a01b0382168203610b0657565b604435906001600160a01b0382168203610b0657565b6101048054821015612e88576000527f4c0be60200faa20559308cb7b5a1bb3255c16cb1cab91f525b5ae7a03d02fabe0190600090565b634e487b7160e01b600052603260045260246000fd5b6101058054821015612e88576000527ffc62abc8c0fc47c2d92f5aec99bf8b60f375828e14394d89345cae11a98673710190600090565b8054821015612e885760005260206000200190600090565b67ffffffffffffffff8111612f0157604052565b634e487b7160e01b600052604160045260246000fd5b6060810190811067ffffffffffffffff821117612f0157604052565b6040810190811067ffffffffffffffff821117612f0157604052565b6080810190811067ffffffffffffffff821117612f0157604052565b90601f8019910116810190811067ffffffffffffffff821117612f0157604052565b67ffffffffffffffff8111612f015760051b60200190565b81601f82011215610b0657803591612fbc83612f8d565b92612fca6040519485612f6b565b808452602092838086019260051b820101928311610b06578301905b828210612ff4575050505090565b81356001600160a01b0381168103610b06578152908301908301612fe6565b6060906003190112610b06576001600160a01b03906004358281168103610b0657916024359081168103610b06579060443590565b3360009081527fb6d9d36692cdd6ecac05ddd725bcd0c9cf6e9f109609226e76925ee9bac3495a60209081526040808320549092907f6077685936c8169d09204a1d97db12e41713588c38e1d29a61867d3dcee98aff9060ff16156130ad5750505050565b6130b6336135f6565b8451916130c283612f4f565b6042835284830193606036863783511561325c576030855383519060019182101561325c5790607860218601536041915b8183116131ee575050506131ac5761314e938593613192936131836048946131a8995198857f416363657373436f6e74726f6c3a206163636f756e74200000000000000000008b9788015282519283916037890191016134cc565b8401917f206973206d697373696e6720726f6c65200000000000000000000000000000006037840152518093868401906134cc565b01036028810185520183612f6b565b5191829162461bcd60e51b8352600483016134ef565b0390fd5b60648486519062461bcd60e51b825280600483015260248201527f537472696e67733a20686578206c656e67746820696e73756666696369656e746044820152fd5b909192600f81166010811015613248576f181899199a1a9b1b9c1cb0b131b232b360811b901a61321e85886135e5565b5360041c928015613234576000190191906130f3565b602482634e487b7160e01b81526011600452fd5b602483634e487b7160e01b81526032600452fd5b80634e487b7160e01b602492526032600452fd5b3360009081527f2c01dc0041dfb6d4238a91e5a638996136aed16f837d5beb45610732cf9bf4b060209081526040808320549092907fa49807205ce4d355092ef5a8a18f56e8913cf4a201fbe287825b095693c217759060ff16156132d55750505050565b6132de336135f6565b8451916132ea83612f4f565b6042835284830193606036863783511561325c576030855383519060019182101561325c5790607860218601536041915b818311613376575050506131ac5761314e938593613192936131836048946131a8995198857f416363657373436f6e74726f6c3a206163636f756e74200000000000000000008b9788015282519283916037890191016134cc565b909192600f81166010811015613248576f181899199a1a9b1b9c1cb0b131b232b360811b901a6133a685886135e5565b5360041c9280156132345760001901919061331b565b600081815260209060658252604092838220338352835260ff8483205416156133e55750505050565b6133ee336135f6565b8451916133fa83612f4f565b6042835284830193606036863783511561325c576030855383519060019182101561325c5790607860218601536041915b818311613486575050506131ac5761314e938593613192936131836048946131a8995198857f416363657373436f6e74726f6c3a206163636f756e74200000000000000000008b9788015282519283916037890191016134cc565b909192600f81166010811015613248576f181899199a1a9b1b9c1cb0b131b232b360811b901a6134b685886135e5565b5360041c9280156132345760001901919061342b565b60005b8381106134df5750506000910152565b81810151838201526020016134cf565b6040916020825261350f81518092816020860152602086860191016134cc565b601f01601f1916010190565b9060009180835260656020526001600160a01b036040842092169182845260205260ff60408420541661354d57505050565b8083526065602052604083208284526020526040832060ff1981541690557ff6391f5c32d9c69d2a47ea670b442974b53935d1edc7fd64eb21e047a839171b339380a4565b90670de0b6b3a7640000918281029281840414901517156135af57565b634e487b7160e01b600052601160045260246000fd5b818102929181159184041417156135af57565b919082018092116135af57565b908151811015612e88570160200190565b6040519061360382612f17565b602a8252602082016040368237825115612e8857603090538151600190811015612e8857607860218401536029905b8082116136865750506136425790565b606460405162461bcd60e51b815260206004820152602060248201527f537472696e67733a20686578206c656e67746820696e73756666696369656e746044820152fd5b9091600f811660108110156136df576f181899199a1a9b1b9c1cb0b131b232b360811b901a6136b584866135e5565b5360041c9180156136ca576000190190613632565b60246000634e487b7160e01b81526011600452fd5b60246000634e487b7160e01b81526032600452fd5b156136fb57565b608460405162461bcd60e51b815260206004820152602b60248201527f496e697469616c697a61626c653a20636f6e7472616374206973206e6f74206960448201527f6e697469616c697a696e670000000000000000000000000000000000000000006064820152fd5b9081549168010000000000000000831015612f01578261166e91600161378d95018155612ed5565b565b61378d906001600160a01b0381166000526101026020526002604060002001336000526020526040600020600160ff1982541617905560ff6020526040600020613765565b60001981146135af5760010190565b919082039182116135af57565b805480156116e657600019019061380a6116a98383612ed5565b55565b61378d906001600160a01b0381166000526101036020526002604060002001336000526020526040600020600160ff198254161790556101006020526040600020613765565b1561385a57565b606460405162461bcd60e51b815260206004820152601660248201527f436f6c6c61746572616c206e6f7420656e61626c6564000000000000000000006044820152fd5b156138a557565b606460405162461bcd60e51b815260206004820152601960248201527f4163636f756e74206e6f7420696e20636f6c6c61746572616c000000000000006044820152fd5b60ff60c954166138f557565b606460405162461bcd60e51b815260206004820152601060248201527f5061757361626c653a20706175736564000000000000000000000000000000006044820152fd5b60026097541461394a576002609755565b606460405162461bcd60e51b815260206004820152601f60248201527f5265656e7472616e637947756172643a207265656e7472616e742063616c6c006044820152fd5b90816020910312610b0657518015158103610b065790565b6001600160a01b039092919216916040516139c081612f33565b6020918282527f5361666545524332303a206c6f772d6c6576656c2063616c6c206661696c6564838301526000808285829451910182895af13d15613ade573d9567ffffffffffffffff8711613aca57613a3b94959660405190613a2d88601f19601f8401160183612f6b565b81528093873d92013e613aea565b80519081613a4857505050565b8280613a5893830101910161398e565b15613a605750565b6084906040519062461bcd60e51b82526004820152602a60248201527f5361666545524332303a204552433230206f7065726174696f6e20646964206e60448201527f6f742073756363656564000000000000000000000000000000000000000000006064820152fd5b602483634e487b7160e01b81526041600452fd5b613a3b93949591506060915b91929015613b4b5750815115613afe575090565b3b15613b075790565b606460405162461bcd60e51b815260206004820152601d60248201527f416464726573733a2063616c6c20746f206e6f6e2d636f6e74726163740000006044820152fd5b825190915015613b5e5750805190602001fd5b6131a89060405191829162461bcd60e51b8352600483016134ef565b15613b8157565b606460405162461bcd60e51b815260206004820152601e60248201527f4865616c746820666163746f722062656c6f77207361666543526174696f00006044820152fd5b6040517fa9059cbb0000000000000000000000000000000000000000000000000000000060208201526001600160a01b0392909216602483015260448083019390935291815261378d91613c1a606483612f6b565b6139a6565b15613c2657565b606460405162461bcd60e51b815260206004820152601860248201527f54726164696e6720706f6f6c206e6f7420656e61626c656400000000000000006044820152fd5b9190826040910312610b06576040516040810181811067ffffffffffffffff821117612f01576040526020808294805184520151910152565b604d81116135af57600a0a90565b8115613cbb570490565b634e487b7160e01b600052601260045260246000fd5b15613cd857565b606460405162461bcd60e51b815260206004820152601d60248201527f416d6f756e74206d7573742062652067726561746572207468616e20300000006044820152fd5b805115612e885760200190565b805160011015612e885760400190565b8051821015612e885760209160051b010190565b906020918281830312610b065780519067ffffffffffffffff8211610b06570181601f82011215610b0657805192613d8484612f8d565b93604093613d9485519687612f6b565b818652828087019260061b85010193818511610b06578301915b848310613dbe5750505050505090565b838691613dcb8486613c6a565b815201920191613dae565b6020908160408183019282815285518094520193019160005b828110613dfd575050505090565b83516001600160a01b031685529381019392810192600101613def565b6001600160a01b03811691826000526101026020526040600020805460ff8116613ea45782916001809260ff1916178155015561010490815468010000000000000000811015612f01577ffe83615d888076df1cf968a4c6694405f082fa2b2b353afde0af6438a9af7c0b9361166e826020956001613e9b95019055612e51565b604051908152a2565b5050505050565b6001600160a01b03811691826000526101036020526040600020805460ff8116613ea45782916001809260ff1916178155015561010590815468010000000000000000811015612f01577f0dabbae73ad87de9f00d48ce6bc2fdee3a04023481e61ba06071d8d35b56951d9361166e826020956001613e9b95019055612e9e565b6001600160a01b03166000818152602090610107825260408120926101068352604082205490613f60855460e01c426137e3565b9081156140a15782156140795784600491604051928380926318160ddd60e01b82525afa94851561406e57849561403c575b505090613f9e916135c5565b90821561402f576ec097ce7bc90715b34b9f10000000009182810292818404149015171561401b575061378d9291613fd591613cb1565b6001600160e01b0319825491613ff56001600160e01b03918285166135d8565b6001600160e01b0392909316921691909117164260e01b6001600160e01b031916179055565b80634e487b7160e01b602492526011600452fd5b905061378d929150613fd5565b9080929550813d8311614067575b6140548183612f6b565b81010312610cd0575192613f9e38613f92565b503d61404a565b6040513d86823e3d90fd5b505083546001600160e01b03164260e01b6001600160e01b031916179093555061378d915050565b505050505050565b6001600160a01b0390811660008181526101076020908152604080832054610108835281842095871680855295835281842080546001600160e01b039092169081905593979694959294939290801580614234575b61421e575b61410d90846137e3565b82516370a0823160e01b815282600482015286816024818b5afa908115614214578a916141c3575b50927f39830ba333221bc394b51f96c7ffa4b7a1081f4a18e6f8b63a2be77606ac232a9798996ec097ce7bc90715b34b9f100000000061417b8395946141be98976135c5565b0497838252610109908181526141948a858520546135d8565b94835252205551938493846040919493926001600160a01b03606083019616825260208201520152565b0390a2565b90508681813d831161420d575b6141da8183612f6b565b8101031261420957517f39830ba333221bc394b51f96c7ffa4b7a1081f4a18e6f8b63a2be77606ac232a614135565b8980fd5b503d6141d0565b84513d8c823e3d90fd5b506ec097ce7bc90715b34b9f1000000000614103565b506ec097ce7bc90715b34b9f10000000008410156140fe565b9060405191828154918282526020928383019160005283600020936000905b8282106142825750505061378d92500383612f6b565b85546001600160a01b03168452600195860195889550938101939091019061426c565b906040516142b281612f33565b60018152602081016020368237815115612e88576001600160a01b0361378d94169052614325565b156142e157565b606460405162461bcd60e51b815260206004820152601560248201527f6d61726b6574206d757374206265206c697374656400000000000000000000006044820152fd5b906000915b81518310156143ae576001600160a01b0391826143478583613d39565b5116948560005261010260205261436560ff604060002054166142da565b61436e86613f2c565b60005b83518110156143995780611fc58661438c6143949488613d39565b5116896140a9565b614371565b5094509150916143a8906137d4565b9161432a565b91505060005b81518110156144335761442e906001600160a01b03806143d48386613d39565b5116816143e18487613d39565b5116600052610109602081815261440f6040938460002054906144026138e9565b61440a613939565b614437565b93600160975561441f8689613d39565b511660005252600020556137d4565b6143b4565b5050565b906001600160a01b0360fb5416916040516370a0823160e01b8152306004820152602081602481875afa9081156144d05760009161449f575b508215159081614494575b506144865750905090565b61448f92613bc5565b600090565b90508211153861447b565b906020823d82116144c8575b816144b860209383612f6b565b8101031261032657505138614470565b3d91506144ab565b6040513d6000823e3d90fd5b6144ee6144e88261469b565b91614865565b801561451a57670de0b6b3a7640000918281029281840414901517156135af5761451791613cb1565b90565b505060001990565b6144ee61452e8261455e565b91614808565b604051906040820182811067ffffffffffffffff821117612f015760405260006020838281520152565b600090614569614534565b50816001600160a01b03938460fe5416915b85841680600052602061010081526040806000205488101561468f57886145a58983600020612ed5565b90549060031b1c1681519363b3596f0760e01b855281600486015282856024818b5afa94851561468457908b969594939291600095614627575b5061461f9593610b8d614613946146199794610b9594600052610101845281600020906000528352600020548451906135c5565b906135d8565b956137d4565b94905061457b565b9095965082939491923d851161467d575b6146428183612f6b565b8101918482840312610326575061461994610b8d8d98956146139561466e61461f9a96610b9596613c6a565b985094935094505093956145df565b503d614638565b83513d6000823e3d90fd5b50505093509350505090565b906000916146a7614534565b5082916001600160a01b03938460fe5416905b8584168060005260206101008152604080600020548810156147fc57886146e48983600020612ed5565b90549060031b1c169080519363b3596f0760e01b855282600486015281856024818a5afa9485156147f157908b969594939291600095614787575b5061477f9593670de0b6b3a76400006147766146139560016146199996610b959660005261010186528060002083600052865261476281600020548951906135c5565b9260005261010386526000200154906135c5565b04920151613ca3565b9490506146ba565b9095965081929394913d84116147ea575b6147a28183612f6b565b8101918382840312610326575061461994670de0b6b3a76400006147768e99966001614613976147d961477f9c98610b9598613c6a565b9a509695505095505050939561471f565b503d614798565b82513d6000823e3d90fd5b50505093505092505090565b6000906001600160a01b03808216835260ff6020526148296040842061424d565b835b815185101561485d5761485161485791614613856148498987613d39565b5116876148f4565b946137d4565b9361482b565b935050505090565b6000906001600160a01b0390818116835260209160ff8352604061488a81862061424d565b93855b85518710156148ea576148de6148e4916146138860016148d561222c8a6148cd8f826148b98289613d39565b51166000526101028c528c60002096613d39565b51168c6148f4565b91015490613cb1565b966137d4565b9561488d565b9550505050505090565b906001600160a01b0390818116604051936318160ddd60e01b85526020938486600481865afa9586156144d0576000966149ae575b5085156149a3576024859260405194859384926370a0823160e01b84521660048301525afa9283156144d057600093614970575b505061451792916121a7612231926149dd565b8181949293943d831161499c575b6149888183612f6b565b8101031261032657505190806121a761495d565b503d61497e565b505050505050600090565b90958582813d83116149d6575b6149c58183612f6b565b810103126103265750519438614929565b503d6149bb565b906040908151907faf8083da0000000000000000000000000000000000000000000000000000000082526000926004848482816001600160a01b03809a165afa938415614bfb578594614b5c575b508492939492614a39614534565b5080958760fe5416945b8151881015614b505788614a578984613d39565b511685519063b3596f0760e01b8252808683015286826024818b5afa918215614b46578592614b0c575b50865180916318160ddd60e01b8252818860209485935afa908115614b02578691614acf575b5082610b95614ac99593610b8d61461394614ac39751906135c5565b976137d4565b96614a43565b90508181813d8311614afb575b614ae68183612f6b565b81010312614af75751614ac3614aa7565b8580fd5b503d614adc565b88513d88823e3d90fd5b909150863d8811614b3f575b614b228183612f6b565b8101908781830312614af75790614b3891613c6a565b9038614a81565b503d614b18565b87513d87823e3d90fd5b96505050505050915090565b9093503d8086833e614b6e8183612f6b565b81019060209081818403126123ae5780519067ffffffffffffffff8211610d4857019180601f840112156123ae578251614ba781612f8d565b93614bb486519586612f6b565b818552838086019260051b820101928311614bf7578301905b828210614bdf57505050509238614a2b565b81518a81168103614209578152908301908301614bcd565b8880fd5b82513d87823e3d90fdfea264697066735822122071681d8229fb0d5fdc7c0e05b4f40afb257d61c5267067306c504bbed50db6f064736f6c63430008110033",
  "linkReferences": {},
  "deployedLinkReferences": {}
}