{
  "_format": "hh-sol-artifact-1",
  "contractName": "SyntheX",
  "sourceName": "contracts/SyntheX.sol",
  "abi": [
    {
      "inputs": [],
      "stateMutability": "nonpayable",
      "type": "constructor"
    },
    {
      "anonymous": false,
      "inputs": [
        {
          "indexed": false,
          "internalType": "address",
          "name": "previousAdmin",
          "type": "address"
        },
        {
          "indexed": false,
          "internalType": "address",
          "name": "newAdmin",
          "type": "address"
        }
      ],
      "name": "AdminChanged",
      "type": "event"
    },
    {
      "anonymous": false,
      "inputs": [
        {
          "indexed": true,
          "internalType": "address",
          "name": "beacon",
          "type": "address"
        }
      ],
      "name": "BeaconUpgraded",
      "type": "event"
    },
    {
      "anonymous": false,
      "inputs": [
        {
          "indexed": true,
          "internalType": "address",
          "name": "user",
          "type": "address"
        },
        {
          "indexed": true,
          "internalType": "address",
          "name": "tradingPool",
          "type": "address"
        },
        {
          "indexed": true,
          "internalType": "address",
          "name": "asset",
          "type": "address"
        },
        {
          "indexed": false,
          "internalType": "uint256",
          "name": "amount",
          "type": "uint256"
        }
      ],
      "name": "Burn",
      "type": "event"
    },
    {
      "anonymous": false,
      "inputs": [
        {
          "indexed": true,
          "internalType": "address",
          "name": "asset",
          "type": "address"
        }
      ],
      "name": "CollateralDisabled",
      "type": "event"
    },
    {
      "anonymous": false,
      "inputs": [
        {
          "indexed": true,
          "internalType": "address",
          "name": "asset",
          "type": "address"
        },
        {
          "indexed": false,
          "internalType": "uint256",
          "name": "volatilityRatio",
          "type": "uint256"
        }
      ],
      "name": "CollateralEnabled",
      "type": "event"
    },
    {
      "anonymous": false,
      "inputs": [
        {
          "indexed": true,
          "internalType": "address",
          "name": "user",
          "type": "address"
        },
        {
          "indexed": true,
          "internalType": "address",
          "name": "asset",
          "type": "address"
        },
        {
          "indexed": false,
          "internalType": "uint256",
          "name": "amount",
          "type": "uint256"
        }
      ],
      "name": "Deposit",
      "type": "event"
    },
    {
      "anonymous": false,
      "inputs": [
        {
          "indexed": true,
          "internalType": "address",
          "name": "pool",
          "type": "address"
        },
        {
          "indexed": false,
          "internalType": "address",
          "name": "_account",
          "type": "address"
        },
        {
          "indexed": false,
          "internalType": "uint256",
          "name": "accountDelta",
          "type": "uint256"
        },
        {
          "indexed": false,
          "internalType": "uint256",
          "name": "rewardIndex",
          "type": "uint256"
        }
      ],
      "name": "DistributedSYN",
      "type": "event"
    },
    {
      "anonymous": false,
      "inputs": [
        {
          "indexed": true,
          "internalType": "address",
          "name": "user",
          "type": "address"
        },
        {
          "indexed": true,
          "internalType": "address",
          "name": "tradingPool",
          "type": "address"
        },
        {
          "indexed": true,
          "internalType": "address",
          "name": "fromAsset",
          "type": "address"
        },
        {
          "indexed": false,
          "internalType": "address",
          "name": "toAsset",
          "type": "address"
        },
        {
          "indexed": false,
          "internalType": "uint256",
          "name": "fromAmount",
          "type": "uint256"
        },
        {
          "indexed": false,
          "internalType": "uint256",
          "name": "toAmount",
          "type": "uint256"
        }
      ],
      "name": "Exchange",
      "type": "event"
    },
    {
      "anonymous": false,
      "inputs": [
        {
          "indexed": false,
          "internalType": "uint8",
          "name": "version",
          "type": "uint8"
        }
      ],
      "name": "Initialized",
      "type": "event"
    },
    {
      "anonymous": false,
      "inputs": [
        {
          "indexed": true,
          "internalType": "address",
          "name": "user",
          "type": "address"
        },
        {
          "indexed": true,
          "internalType": "address",
          "name": "tradingPool",
          "type": "address"
        },
        {
          "indexed": true,
          "internalType": "address",
          "name": "asset",
          "type": "address"
        },
        {
          "indexed": false,
          "internalType": "uint256",
          "name": "amount",
          "type": "uint256"
        }
      ],
      "name": "Issue",
      "type": "event"
    },
    {
      "anonymous": false,
      "inputs": [
        {
          "indexed": false,
          "internalType": "address",
          "name": "account",
          "type": "address"
        }
      ],
      "name": "Paused",
      "type": "event"
    },
    {
      "anonymous": false,
      "inputs": [
        {
          "indexed": true,
          "internalType": "address",
          "name": "pool",
          "type": "address"
        },
        {
          "indexed": false,
          "internalType": "uint256",
          "name": "rewardSpeed",
          "type": "uint256"
        }
      ],
      "name": "SetPoolRewardSpeed",
      "type": "event"
    },
    {
      "anonymous": false,
      "inputs": [
        {
          "indexed": true,
          "internalType": "address",
          "name": "pool",
          "type": "address"
        }
      ],
      "name": "TradingPoolDisabled",
      "type": "event"
    },
    {
      "anonymous": false,
      "inputs": [
        {
          "indexed": true,
          "internalType": "address",
          "name": "pool",
          "type": "address"
        },
        {
          "indexed": false,
          "internalType": "uint256",
          "name": "volatilityRatio",
          "type": "uint256"
        }
      ],
      "name": "TradingPoolEnabled",
      "type": "event"
    },
    {
      "anonymous": false,
      "inputs": [
        {
          "indexed": false,
          "internalType": "address",
          "name": "account",
          "type": "address"
        }
      ],
      "name": "Unpaused",
      "type": "event"
    },
    {
      "anonymous": false,
      "inputs": [
        {
          "indexed": true,
          "internalType": "address",
          "name": "implementation",
          "type": "address"
        }
      ],
      "name": "Upgraded",
      "type": "event"
    },
    {
      "anonymous": false,
      "inputs": [
        {
          "indexed": true,
          "internalType": "address",
          "name": "user",
          "type": "address"
        },
        {
          "indexed": true,
          "internalType": "address",
          "name": "asset",
          "type": "address"
        },
        {
          "indexed": false,
          "internalType": "uint256",
          "name": "amount",
          "type": "uint256"
        }
      ],
      "name": "Withdraw",
      "type": "event"
    },
    {
      "inputs": [],
      "name": "ADMIN",
      "outputs": [
        {
          "internalType": "bytes32",
          "name": "",
          "type": "bytes32"
        }
      ],
      "stateMutability": "view",
      "type": "function"
    },
    {
      "inputs": [],
      "name": "NAME",
      "outputs": [
        {
          "internalType": "string",
          "name": "",
          "type": "string"
        }
      ],
      "stateMutability": "view",
      "type": "function"
    },
    {
      "inputs": [],
      "name": "POOL_MANAGER",
      "outputs": [
        {
          "internalType": "bytes32",
          "name": "",
          "type": "bytes32"
        }
      ],
      "stateMutability": "view",
      "type": "function"
    },
    {
      "inputs": [],
      "name": "PRICE_ORACLE",
      "outputs": [
        {
          "internalType": "bytes32",
          "name": "",
          "type": "bytes32"
        }
      ],
      "stateMutability": "view",
      "type": "function"
    },
    {
      "inputs": [],
      "name": "VERSION",
      "outputs": [
        {
          "internalType": "string",
          "name": "",
          "type": "string"
        }
      ],
      "stateMutability": "view",
      "type": "function"
    },
    {
      "inputs": [
        {
          "internalType": "address",
          "name": "",
          "type": "address"
        },
        {
          "internalType": "address",
          "name": "",
          "type": "address"
        }
      ],
      "name": "accountCollateralBalance",
      "outputs": [
        {
          "internalType": "uint256",
          "name": "",
          "type": "uint256"
        }
      ],
      "stateMutability": "view",
      "type": "function"
    },
    {
      "inputs": [
        {
          "internalType": "address",
          "name": "",
          "type": "address"
        },
        {
          "internalType": "uint256",
          "name": "",
          "type": "uint256"
        }
      ],
      "name": "accountCollaterals",
      "outputs": [
        {
          "internalType": "address",
          "name": "",
          "type": "address"
        }
      ],
      "stateMutability": "view",
      "type": "function"
    },
    {
      "inputs": [
        {
          "internalType": "address",
          "name": "",
          "type": "address"
        },
        {
          "internalType": "uint256",
          "name": "",
          "type": "uint256"
        }
      ],
      "name": "accountPools",
      "outputs": [
        {
          "internalType": "address",
          "name": "",
          "type": "address"
        }
      ],
      "stateMutability": "view",
      "type": "function"
    },
    {
      "inputs": [],
      "name": "addressStorage",
      "outputs": [
        {
          "internalType": "contract AddressStorage",
          "name": "",
          "type": "address"
        }
      ],
      "stateMutability": "view",
      "type": "function"
    },
    {
      "inputs": [
        {
          "internalType": "address",
          "name": "_tradingPool",
          "type": "address"
        },
        {
          "internalType": "address",
          "name": "_synth",
          "type": "address"
        },
        {
          "internalType": "uint256",
          "name": "_amount",
          "type": "uint256"
        }
      ],
      "name": "burn",
      "outputs": [],
      "stateMutability": "nonpayable",
      "type": "function"
    },
    {
      "inputs": [
        {
          "internalType": "address",
          "name": "holder",
          "type": "address"
        },
        {
          "internalType": "address[]",
          "name": "tradingPoolsList",
          "type": "address[]"
        }
      ],
      "name": "claimSYN",
      "outputs": [],
      "stateMutability": "nonpayable",
      "type": "function"
    },
    {
      "inputs": [
        {
          "internalType": "address[]",
          "name": "holders",
          "type": "address[]"
        },
        {
          "internalType": "address[]",
          "name": "_tradingPools",
          "type": "address[]"
        }
      ],
      "name": "claimSYN",
      "outputs": [],
      "stateMutability": "nonpayable",
      "type": "function"
    },
    {
      "inputs": [
        {
          "internalType": "address",
          "name": "market",
          "type": "address"
        },
        {
          "internalType": "address",
          "name": "account",
          "type": "address"
        }
      ],
      "name": "collateralMembership",
      "outputs": [
        {
          "internalType": "bool",
          "name": "",
          "type": "bool"
        }
      ],
      "stateMutability": "view",
      "type": "function"
    },
    {
      "inputs": [
        {
          "internalType": "address",
          "name": "",
          "type": "address"
        }
      ],
      "name": "collaterals",
      "outputs": [
        {
          "internalType": "bool",
          "name": "isEnabled",
          "type": "bool"
        },
        {
          "internalType": "uint256",
          "name": "volatilityRatio",
          "type": "uint256"
        }
      ],
      "stateMutability": "view",
      "type": "function"
    },
    {
      "inputs": [],
      "name": "compInitialIndex",
      "outputs": [
        {
          "internalType": "uint256",
          "name": "",
          "type": "uint256"
        }
      ],
      "stateMutability": "view",
      "type": "function"
    },
    {
      "inputs": [
        {
          "internalType": "address",
          "name": "_collateral",
          "type": "address"
        },
        {
          "internalType": "uint256",
          "name": "_amount",
          "type": "uint256"
        }
      ],
      "name": "deposit",
      "outputs": [],
      "stateMutability": "payable",
      "type": "function"
    },
    {
      "inputs": [
        {
          "internalType": "address",
          "name": "_collateral",
          "type": "address"
        }
      ],
      "name": "disableCollateral",
      "outputs": [],
      "stateMutability": "nonpayable",
      "type": "function"
    },
    {
      "inputs": [
        {
          "internalType": "address",
          "name": "_tradingPool",
          "type": "address"
        }
      ],
      "name": "disableTradingPool",
      "outputs": [],
      "stateMutability": "nonpayable",
      "type": "function"
    },
    {
      "inputs": [
        {
          "internalType": "address",
          "name": "_collateral",
          "type": "address"
        },
        {
          "internalType": "uint256",
          "name": "_volatilityRatio",
          "type": "uint256"
        }
      ],
      "name": "enableCollateral",
      "outputs": [],
      "stateMutability": "nonpayable",
      "type": "function"
    },
    {
      "inputs": [
        {
          "internalType": "address",
          "name": "_tradingPool",
          "type": "address"
        },
        {
          "internalType": "uint256",
          "name": "_volatilityRatio",
          "type": "uint256"
        }
      ],
      "name": "enableTradingPool",
      "outputs": [],
      "stateMutability": "nonpayable",
      "type": "function"
    },
    {
      "inputs": [
        {
          "internalType": "address",
          "name": "_collateral",
          "type": "address"
        },
        {
          "internalType": "uint256",
          "name": "_amount",
          "type": "uint256"
        }
      ],
      "name": "enterAndDeposit",
      "outputs": [],
      "stateMutability": "payable",
      "type": "function"
    },
    {
      "inputs": [
        {
          "internalType": "address",
          "name": "_tradingPool",
          "type": "address"
        },
        {
          "internalType": "address",
          "name": "_synth",
          "type": "address"
        },
        {
          "internalType": "uint256",
          "name": "_amount",
          "type": "uint256"
        }
      ],
      "name": "enterAndIssue",
      "outputs": [],
      "stateMutability": "nonpayable",
      "type": "function"
    },
    {
      "inputs": [
        {
          "internalType": "address",
          "name": "_collateral",
          "type": "address"
        }
      ],
      "name": "enterCollateral",
      "outputs": [],
      "stateMutability": "nonpayable",
      "type": "function"
    },
    {
      "inputs": [
        {
          "internalType": "address",
          "name": "_tradingPool",
          "type": "address"
        }
      ],
      "name": "enterPool",
      "outputs": [],
      "stateMutability": "nonpayable",
      "type": "function"
    },
    {
      "inputs": [
        {
          "internalType": "address",
          "name": "_tradingPool",
          "type": "address"
        },
        {
          "internalType": "address",
          "name": "_synthFrom",
          "type": "address"
        },
        {
          "internalType": "address",
          "name": "_synthTo",
          "type": "address"
        },
        {
          "internalType": "uint256",
          "name": "_amount",
          "type": "uint256"
        }
      ],
      "name": "exchange",
      "outputs": [],
      "stateMutability": "nonpayable",
      "type": "function"
    },
    {
      "inputs": [
        {
          "internalType": "address",
          "name": "_collateral",
          "type": "address"
        }
      ],
      "name": "exitCollateral",
      "outputs": [],
      "stateMutability": "nonpayable",
      "type": "function"
    },
    {
      "inputs": [
        {
          "internalType": "address",
          "name": "_tradingPool",
          "type": "address"
        }
      ],
      "name": "exitPool",
      "outputs": [],
      "stateMutability": "nonpayable",
      "type": "function"
    },
    {
      "inputs": [
        {
          "internalType": "address",
          "name": "_account",
          "type": "address"
        }
      ],
      "name": "getAdjustedUserTotalCollateralUSD",
      "outputs": [
        {
          "internalType": "uint256",
          "name": "",
          "type": "uint256"
        }
      ],
      "stateMutability": "view",
      "type": "function"
    },
    {
      "inputs": [
        {
          "internalType": "address",
          "name": "_account",
          "type": "address"
        }
      ],
      "name": "getAdjustedUserTotalDebtUSD",
      "outputs": [
        {
          "internalType": "uint256",
          "name": "",
          "type": "uint256"
        }
      ],
      "stateMutability": "view",
      "type": "function"
    },
    {
      "inputs": [
        {
          "internalType": "address",
          "name": "_account",
          "type": "address"
        }
      ],
      "name": "getLTV",
      "outputs": [
        {
          "internalType": "uint256",
          "name": "",
          "type": "uint256"
        }
      ],
      "stateMutability": "view",
      "type": "function"
    },
    {
      "inputs": [
        {
          "internalType": "address",
          "name": "_account",
          "type": "address"
        },
        {
          "internalType": "address[]",
          "name": "tradingPoolsList",
          "type": "address[]"
        }
      ],
      "name": "getSYNAccrued",
      "outputs": [
        {
          "internalType": "uint256",
          "name": "",
          "type": "uint256"
        }
      ],
      "stateMutability": "nonpayable",
      "type": "function"
    },
    {
      "inputs": [
        {
          "internalType": "address",
          "name": "_account",
          "type": "address"
        },
        {
          "internalType": "address",
          "name": "_tradingPool",
          "type": "address"
        }
      ],
      "name": "getUserPoolDebtUSD",
      "outputs": [
        {
          "internalType": "uint256",
          "name": "",
          "type": "uint256"
        }
      ],
      "stateMutability": "view",
      "type": "function"
    },
    {
      "inputs": [
        {
          "internalType": "address",
          "name": "_account",
          "type": "address"
        }
      ],
      "name": "getUserTotalCollateralUSD",
      "outputs": [
        {
          "internalType": "uint256",
          "name": "",
          "type": "uint256"
        }
      ],
      "stateMutability": "view",
      "type": "function"
    },
    {
      "inputs": [
        {
          "internalType": "address",
          "name": "_account",
          "type": "address"
        }
      ],
      "name": "getUserTotalDebtUSD",
      "outputs": [
        {
          "internalType": "uint256",
          "name": "",
          "type": "uint256"
        }
      ],
      "stateMutability": "view",
      "type": "function"
    },
    {
      "inputs": [
        {
          "internalType": "address",
          "name": "_account",
          "type": "address"
        }
      ],
      "name": "healthFactor",
      "outputs": [
        {
          "internalType": "uint256",
          "name": "",
          "type": "uint256"
        }
      ],
      "stateMutability": "view",
      "type": "function"
    },
    {
      "inputs": [
        {
          "internalType": "address",
          "name": "_syn",
          "type": "address"
        },
        {
          "internalType": "address",
          "name": "_addressStorage",
          "type": "address"
        }
      ],
      "name": "initialize",
      "outputs": [],
      "stateMutability": "nonpayable",
      "type": "function"
    },
    {
      "inputs": [
        {
          "internalType": "address",
          "name": "_tradingPool",
          "type": "address"
        },
        {
          "internalType": "address",
          "name": "_synth",
          "type": "address"
        },
        {
          "internalType": "uint256",
          "name": "_amount",
          "type": "uint256"
        }
      ],
      "name": "issue",
      "outputs": [],
      "stateMutability": "nonpayable",
      "type": "function"
    },
    {
      "inputs": [
        {
          "internalType": "address",
          "name": "_account",
          "type": "address"
        },
        {
          "internalType": "address",
          "name": "_tradingPool",
          "type": "address"
        },
        {
          "internalType": "address",
          "name": "_inAsset",
          "type": "address"
        },
        {
          "internalType": "uint256",
          "name": "_inAmount",
          "type": "uint256"
        },
        {
          "internalType": "address",
          "name": "_outAsset",
          "type": "address"
        }
      ],
      "name": "liquidate",
      "outputs": [],
      "stateMutability": "nonpayable",
      "type": "function"
    },
    {
      "inputs": [],
      "name": "oracle",
      "outputs": [
        {
          "internalType": "contract IPriceOracle",
          "name": "",
          "type": "address"
        }
      ],
      "stateMutability": "view",
      "type": "function"
    },
    {
      "inputs": [],
      "name": "pause",
      "outputs": [],
      "stateMutability": "nonpayable",
      "type": "function"
    },
    {
      "inputs": [],
      "name": "paused",
      "outputs": [
        {
          "internalType": "bool",
          "name": "",
          "type": "bool"
        }
      ],
      "stateMutability": "view",
      "type": "function"
    },
    {
      "inputs": [],
      "name": "proxiableUUID",
      "outputs": [
        {
          "internalType": "bytes32",
          "name": "",
          "type": "bytes32"
        }
      ],
      "stateMutability": "view",
      "type": "function"
    },
    {
      "inputs": [],
      "name": "safeCRatio",
      "outputs": [
        {
          "internalType": "uint256",
          "name": "",
          "type": "uint256"
        }
      ],
      "stateMutability": "view",
      "type": "function"
    },
    {
      "inputs": [
        {
          "internalType": "address",
          "name": "_tradingPool",
          "type": "address"
        },
        {
          "internalType": "uint256",
          "name": "_speed",
          "type": "uint256"
        }
      ],
      "name": "setPoolSpeed",
      "outputs": [],
      "stateMutability": "nonpayable",
      "type": "function"
    },
    {
      "inputs": [
        {
          "internalType": "uint256",
          "name": "_safeCRatio",
          "type": "uint256"
        }
      ],
      "name": "setSafeCRatio",
      "outputs": [],
      "stateMutability": "nonpayable",
      "type": "function"
    },
    {
      "inputs": [],
      "name": "syn",
      "outputs": [
        {
          "internalType": "contract SyntheXToken",
          "name": "",
          "type": "address"
        }
      ],
      "stateMutability": "view",
      "type": "function"
    },
    {
      "inputs": [
        {
          "internalType": "address",
          "name": "",
          "type": "address"
        }
      ],
      "name": "synAccrued",
      "outputs": [
        {
          "internalType": "uint256",
          "name": "",
          "type": "uint256"
        }
      ],
      "stateMutability": "view",
      "type": "function"
    },
    {
      "inputs": [
        {
          "internalType": "address",
          "name": "",
          "type": "address"
        },
        {
          "internalType": "address",
          "name": "",
          "type": "address"
        }
      ],
      "name": "synBorrowerIndex",
      "outputs": [
        {
          "internalType": "uint256",
          "name": "",
          "type": "uint256"
        }
      ],
      "stateMutability": "view",
      "type": "function"
    },
    {
      "inputs": [
        {
          "internalType": "address",
          "name": "",
          "type": "address"
        }
      ],
      "name": "synRewardSpeeds",
      "outputs": [
        {
          "internalType": "uint256",
          "name": "",
          "type": "uint256"
        }
      ],
      "stateMutability": "view",
      "type": "function"
    },
    {
      "inputs": [
        {
          "internalType": "address",
          "name": "",
          "type": "address"
        }
      ],
      "name": "synRewardState",
      "outputs": [
        {
          "internalType": "uint224",
          "name": "index",
          "type": "uint224"
        },
        {
          "internalType": "uint32",
          "name": "timestamp",
          "type": "uint32"
        }
      ],
      "stateMutability": "view",
      "type": "function"
    },
    {
      "inputs": [
        {
          "internalType": "address",
          "name": "market",
          "type": "address"
        },
        {
          "internalType": "address",
          "name": "account",
          "type": "address"
        }
      ],
      "name": "tradingPoolMembership",
      "outputs": [
        {
          "internalType": "bool",
          "name": "",
          "type": "bool"
        }
      ],
      "stateMutability": "view",
      "type": "function"
    },
    {
      "inputs": [
        {
          "internalType": "address",
          "name": "",
          "type": "address"
        }
      ],
      "name": "tradingPools",
      "outputs": [
        {
          "internalType": "bool",
          "name": "isEnabled",
          "type": "bool"
        },
        {
          "internalType": "uint256",
          "name": "volatilityRatio",
          "type": "uint256"
        }
      ],
      "stateMutability": "view",
      "type": "function"
    },
    {
      "inputs": [],
      "name": "unpause",
      "outputs": [],
      "stateMutability": "nonpayable",
      "type": "function"
    },
    {
      "inputs": [
        {
          "internalType": "address",
          "name": "newImplementation",
          "type": "address"
        }
      ],
      "name": "upgradeTo",
      "outputs": [],
      "stateMutability": "nonpayable",
      "type": "function"
    },
    {
      "inputs": [
        {
          "internalType": "address",
          "name": "newImplementation",
          "type": "address"
        },
        {
          "internalType": "bytes",
          "name": "data",
          "type": "bytes"
        }
      ],
      "name": "upgradeToAndCall",
      "outputs": [],
      "stateMutability": "payable",
      "type": "function"
    },
    {
      "inputs": [
        {
          "internalType": "address",
          "name": "_collateral",
          "type": "address"
        },
        {
          "internalType": "uint256",
          "name": "_amount",
          "type": "uint256"
        }
      ],
      "name": "withdraw",
      "outputs": [],
      "stateMutability": "nonpayable",
      "type": "function"
    }
  ],
  "bytecode": "0x60a08060405234610031573060805261459b908161003782396080518181816117b8015281816118f001526125c00152f35b600080fdfe608080604052600436101561001357600080fd5b600090813560e01c9081630a19399a14612cf4575080630b0d337914612ac257806315deef4b14612a9e5780631b57d1ac14612a535780632558626d14612a2657806329553e99146129595780632a0acc6a1461291e5780632cf41e25146128ec5780633659cfe61461259957806336cc366b146125545780633bf0a5491461252d5780633f4ba83a1461243357806347e7ef2414612294578063485cc955146120e05780634b2bc5df14611c5b5780634f1ef2861461187257806352d1902d1461179d5780635c975abb1461177a578063612e14881461175257806362308e85146117175780636aa3f86c146116de5780636ad9f9df146116ba57806375c038b7146115ce5780637690fdd01461154e57806378c5266b146114f35780637dc0d1d0146114c75780638456cb591461140f5780638b2e1eaa146113bb578063a3f4df7e14611365578063a7f0e23114611347578063a982493114611325578063aa3b3a1e146112cc578063aca25f9a146112a8578063aed0bf881461124f578063b140bf0314611231578063b3581898146111d9578063b6139992146111ca578063b7f85d0f1461113d578063ba5a2d3314611014578063bba3d48114610f47578063be281f6714610ef6578063c29611f714610ea5578063cd82b76e14610e5b578063d74fbae914610d4d578063ec3b8f1a14610d29578063edc280c114610d05578063eeb97d3b14610cad578063ef9fb99114610980578063f0a4d9e214610947578063f3fef3a3146106e2578063f43100cf14610656578063f6b911bc146103fe578063fd1e8c8514610336578063fe35ea951461030a578063ffa1ad74146102b05763ffd10e071461028957600080fd5b346102ad5760203660031901126102ad576102aa6102a5612d2e565b61328d565b80f35b80fd5b50346102ad57806003193601126102ad576103066040516102d081612dce565b600581527f302e332e30000000000000000000000000000000000000000000000000000000602082015260405191829182612ef1565b0390f35b50346102ad5760203660031901126102ad57602061032e610329612d2e565b613f74565b604051908152f35b50346102ad5760403660031901126102ad57610350612d2e565b6001600160a01b039060246020836101075416604051928380926321f8a72160e01b82527fdf8b4c520ffe197c5343c6f5aec59570151ef9a492f2c624fd45ddde6135ec4260048301525afa80156103f3576102aa936103ba9286926103c3575b5016331461321a565b60243590613980565b6103e591925060203d81116103ec575b6103dd8183612dea565b8101906131fb565b90386103b1565b503d6103d3565b6040513d86823e3d90fd5b50346102ad5761040d36612f3a565b610415613422565b61041d613472565b610426836139e0565b6104303384613b9a565b6001600160a01b0391826104426144eb565b169360405163b3596f0760e01b8152604081602481888716998a60048301525afa801561064b57879061060b575b610493915061048d602061048583518861379e565b920151613773565b906137b1565b9361049e8233614378565b8581101561060357915b670de0b6b3a764000092838102908082048514901517156105ef57926104e08193926104d6898c98976137b1565b938491169861379e565b04863b156105eb57604051632770a7eb60e21b815233600482015260248101919091528481604481838b5af19081156105e05785916105cc575b5050610526908561379e565b0490843b156105c857604051637d9e4b0960e11b81526001600160a01b039190911660048201523360248201526044810191909152818160648183885af180156105bd576105a5575b50506040519081527ff8a861f822ed8ac8743e429937c8bb8952ca8617a40319ef7fde892039aac12860203392a4600160655580f35b6105ae90612d9e565b6105b957833861056f565b8380fd5b6040513d84823e3d90fd5b8280fd5b6105d590612d9e565b6105b957833861051a565b6040513d87823e3d90fd5b8480fd5b602489634e487b7160e01b81526011600452fd5b5084916104a8565b5060403d604011610644575b6106218183612dea565b810190604081830312610640576104939161063b9161373a565b610470565b8780fd5b503d610617565b6040513d89823e3d90fd5b50346102ad5760403660031901126102ad57610670612d2e565b6001600160a01b039060246020836101075416604051928380926321f8a72160e01b82527f41a01ec0a13b563fa452569e3fbb116366d217c2769aa1561822e65a617e384260048301525afa80156103f3576102aa936106d99286926103c3575016331461321a565b6024359061391a565b50346102ad5760403660031901126102ad576106fc612d2e565b602435610707613422565b61070f613472565b3383526101006020908082526001600160a01b03604086209416938460005282526040600020548381106109035783610747916132f7565b903386528252604085208460005282526040600020558215600014610827578147106107e35783808380156107d9575b8280929181923390f1156107ce577f9b1bfa7fa9ee420a16e124f794c35ac9f90472acc99140eb2f6447c714cad8eb905b6107bd6107b433613f1f565b60fc541061364a565b6040519283523392a3600160655580f35b6040513d85823e3d90fd5b6108fc9150610777565b6064906040519062461bcd60e51b82526004820152601860248201527f496e73756666696369656e74204554482062616c616e636500000000000000006044820152fd5b6040516370a0823160e01b81523060048201528181602481875afa80156105e057839186916108cd575b5010610889577f9b1bfa7fa9ee420a16e124f794c35ac9f90472acc99140eb2f6447c714cad8eb90610884833386613695565b6107a8565b6064906040519062461bcd60e51b82526004820152601a60248201527f496e73756666696369656e742045524332302062616c616e63650000000000006044820152fd5b809250838092503d83116108fc575b6108e68183612dea565b810103126108f75782905138610851565b600080fd5b503d6108dc565b6064836040519062461bcd60e51b82526004820152601460248201527f496e73756666696369656e742062616c616e63650000000000000000000000006044820152fd5b50346102ad5760203660031901126102ad5760406020916001600160a01b0361096e612d2e565b16815261010683522054604051908152f35b50346102ad5761098f36612f3a565b6109988361328d565b6109a0613422565b6109a8613472565b6001600160a01b038084169283865260209161010183526002604088206109d260ff8254166136ef565b3360005201835260ff6040600020541615610c6957604051957f9f087dd60000000000000000000000000000000000000000000000000000000087528183169687600482015284816024818a5afa908115610c5e578991610c31575b5015610bed576040889392610a4f83610a486024956139e0565b3390613b9a565b610a576144eb565b1681519283809263b3596f0760e01b82528b60048301525afa80156107ce578390610bb1575b610a91915061048d8561048583518961379e565b853b156105c8576040517f40c10f1900000000000000000000000000000000000000000000000000000000815233600482015260248101919091528281604481838a5af19081156107ce578391610b9d575b5050843b15610b99576040517f5bf0abbc0000000000000000000000000000000000000000000000000000000081526001600160a01b0391909116600482015233602482015260448101849052818160648183895af180156105bd57610b85575b50507f65adeb76912378393e600cb6f64f3310842a42e1eae86273dc775d0c47a0f2dc90610b746107b433613f1f565b6040519283523392a4600160655580f35b610b8e90612d9e565b6105eb578438610b44565b5080fd5b610ba690612d9e565b610b99578138610ae3565b5060403d604011610be6575b610bc78183612dea565b8101906040818303126105b957610a9191610be19161373a565b610a7d565b503d610bbd565b6064846040519062461bcd60e51b82526004820152601160248201527f53796e7468206e6f7420656e61626c65640000000000000000000000000000006044820152fd5b610c519150853d8711610c57575b610c498183612dea565b8101906134c7565b38610a2e565b503d610c3f565b6040513d8b823e3d90fd5b6064836040519062461bcd60e51b82526004820152601b60248201527f4163636f756e74206e6f7420696e2074726164696e6720706f6f6c00000000006044820152fd5b50346102ad5760203660031901126102ad576040906001600160a01b03610cd2612d2e565b16815261010260205220600160ff8254169101549061030660405192839283602090939291936040810194151581520152565b50346102ad5760203660031901126102ad57602061032e610d24612d2e565b6142b7565b50346102ad5760203660031901126102ad57602061032e610d48612d2e565b6140af565b50346102ad5760403660031901126102ad57610d67612d2e565b6024356001600160a01b0390816101075416906040519283926321f8a72160e01b84527f41a01ec0a13b563fa452569e3fbb116366d217c2769aa1561822e65a617e3842600485015283602460209586935afa908115610e5057610dfb610e1b927f5d3499d6e736144c38c9b359bc39a19d214790ce4b72f63523d104f98af5a99a968991610e33575b508216331461321a565b8516948587526101018452610e1660ff6040892054166136ef565b6139e0565b8385526101038252806040862055604051908152a280f35b610e4a9150863d88116103ec576103dd8183612dea565b38610df1565b6040513d88823e3d90fd5b50346102ad5760203660031901126102ad57604080916001600160a01b03610e81612d2e565b16815261010460205220548151906001600160e01b038116825260e01c6020820152f35b50346102ad5760403660031901126102ad57610ebf612d2e565b6040610ec9612d44565b926001600160a01b0380931681526101056020522091166000526020526020604060002054604051908152f35b50346102ad5760403660031901126102ad57610f10612d2e565b6040610f1a612d44565b926001600160a01b0380931681526101006020522091166000526020526020604060002054604051908152f35b50346102ad57610f5636612e92565b9091805b8251811015610ff4576001600160a01b03610f758285613839565b51168083526020610101815260ff60408520541615610fb0575090610fa68583610fa1610fab956139e0565b613b9a565b6132d2565b610f5a565b6064906040519062461bcd60e51b82526004820152601560248201527f4d61726b6574206d757374206265206c697374656400000000000000000000006044820152fd5b60206040836001600160a01b038716815261010683522054604051908152f35b50346102ad57602080600319360112610b99576001600160a01b039081611039612d2e565b1690818452610101815260026040852001336000528152604060002060ff198154169055835b33855260fe80835260408620548210156111355784846110828460408a20612d70565b929054600393841b1c16146110a157505061109c906132d2565b61105f565b90949192935033865284845260408620604087205490600019820191821161112157916110d66111119594926110ec94612d70565b9054911b1c169133875285855260408720612d70565b90919082549060031b916001600160a01b039283811b93849216901b16911916179055565b338352526102aa60408220613304565b602488634e487b7160e01b81526011600452fd5b505050505080f35b50346102ad57602080600319360112610b99576001600160a01b039081611162612d2e565b1690818452610102815260026040852001336000528152604060002060ff198154169055835b33855260ff80835260408620548210156111355784846111ab8460408a20612d70565b929054600393841b1c16146110a15750506111c5906132d2565b611188565b50346102ad5761099836612f3a565b50346102ad5760203660031901126102ad576040906001600160a01b036111fe612d2e565b16815261010160205220600160ff8254169101549061030660405192839283602090939291936040810194151581520152565b50346102ad57806003193601126102ad57602060fc54604051908152f35b50346102ad5760403660031901126102ad57611269612d2e565b60026040611275612d44565b936001600160a01b03809416815261010160205220019116600052602052602060ff604060002054166040519015158152f35b50346102ad5760203660031901126102ad57602061032e6112c7612d2e565b613f62565b50346102ad5760403660031901126102ad576112e6612d2e565b600260406112f2612d44565b936001600160a01b03809416815261010260205220019116600052602052602060ff604060002054166040519015158152f35b50346102ad5760203660031901126102ad576102aa611342612d2e565b613347565b50346102ad57806003193601126102ad57602060fd54604051908152f35b50346102ad57806003193601126102ad5761030660405161138581612dce565b600781527f53796e7468655800000000000000000000000000000000000000000000000000602082015260405191829182612ef1565b50346102ad5760403660031901126102ad5767ffffffffffffffff6004358181116105c8576113ee903690600401612e24565b6024359182116105c8576114096102aa923690600401612e24565b90613d24565b50346102ad57806003193601126102ad5760246001600160a01b036020816101075416604051938480926321f8a72160e01b82527fdf8b4c520ffe197c5343c6f5aec59570151ef9a492f2c624fd45ddde6135ec4260048301525afa9081156107ce576114859284926103c3575016331461321a565b61148d613422565b600160ff1960c954161760c9557f62e78cea01bee320cd4e420270b5ea74000d11b0c9f74754ebdbfc544b05a2586020604051338152a180f35b50346102ad57806003193601126102ad5760206114e26144eb565b6001600160a01b0360405191168152f35b50346102ad5760403660031901126102ad5761150d612d2e565b602435916001600160a01b03809216815260fe602052604081209081548410156102ad575060209261153e91612d70565b9190546040519260031b1c168152f35b50346102ad5760203660031901126102ad5760246001600160a01b036020816101075416604051938480926321f8a72160e01b82527fdf8b4c520ffe197c5343c6f5aec59570151ef9a492f2c624fd45ddde6135ec4260048301525afa9081156107ce576115c59284926103c3575016331461321a565b60043560fc5580f35b50346102ad5760203660031901126102ad576115e8612d2e565b6001600160a01b039060246020836101075416604051928380926321f8a72160e01b82527fdf8b4c520ffe197c5343c6f5aec59570151ef9a492f2c624fd45ddde6135ec4260048301525afa80156103f35761164f91859161169c575b508316331461321a565b1680825261010260205260ff604083205416611669575080f35b60408220805460ff191690557f192895f9a14975ce177e9612fd4f4459e31169d79cb650596bcce0622bd70a928280a280f35b6116b4915060203d81116103ec576103dd8183612dea565b38611645565b50346102ad5760203660031901126102ad57602061032e6116d9612d2e565b613f1f565b50346102ad5760203660031901126102ad5760406020916001600160a01b03611705612d2e565b16815261010383522054604051908152f35b50346102ad57806003193601126102ad5760206040517f41a01ec0a13b563fa452569e3fbb116366d217c2769aa1561822e65a617e38428152f35b50346102ad57806003193601126102ad5760206001600160a01b036101075416604051908152f35b50346102ad57806003193601126102ad57602060ff60c954166040519015158152f35b50346102ad57806003193601126102ad576001600160a01b037f00000000000000000000000000000000000000000000000000000000000000001630036118085760206040517f360894a13ba1a3210667c828492db98dca3e2076cc3735a920a3ca505d382bbc8152f35b608460405162461bcd60e51b815260206004820152603860248201527f555550535570677261646561626c653a206d757374206e6f742062652063616c60448201527f6c6564207468726f7567682064656c656761746563616c6c00000000000000006064820152fd5b5060403660031901126102ad57611887612d2e565b90602491823567ffffffffffffffff81116105c857366023820112156105c8578060040135906118b682612ed5565b6118c36040519182612dea565b8281526020928382019236888383010111611c5757818792898793018637830101526001600160a01b03807f0000000000000000000000000000000000000000000000000000000000000000169061191d82301415612f6f565b61194c7f360894a13ba1a3210667c828492db98dca3e2076cc3735a920a3ca505d382bbc928284541614612fe0565b8785826101075416604051928380926321f8a72160e01b82527fdf8b4c520ffe197c5343c6f5aec59570151ef9a492f2c624fd45ddde6135ec4260048301525afa908115611c4c57906119a9918991611c3557508216331461321a565b7f4910fdfa16fed3260ed0e7147f7cc6da11a60208b5b9406d12a635614ffd91435460ff16156119e35750505050506102aa919250613051565b8596949616906040516352d1902d60e01b81528781600481865afa60009181611c06575b50611a7557608488602e8b6040519262461bcd60e51b845260048401528201527f45524331393637557067726164653a206e657720696d706c656d656e7461746960448201527f6f6e206973206e6f7420555550530000000000000000000000000000000000006064820152fd5b979192939496959703611bb157611a8b87613051565b604051917fbc7cd75a20ee27fd9adebab32041f755214dbc6bffa90cc0225b39da2e5c2d3b600080a2825115801590611ba9575b611ace575b5050505050905080f35b863b15611b5a575050611b4e9394600092839251915af4611aed61310b565b907f416464726573733a206c6f772d6c6576656c2064656c65676174652063616c6c60405193611b1c85612db2565b602785528401527f206661696c656400000000000000000000000000000000000000000000000000604084015261313b565b50803880808080611ac4565b9060266084928662461bcd60e51b845260048401528201527f416464726573733a2064656c65676174652063616c6c20746f206e6f6e2d636f6044820152651b9d1c9858dd60d21b6064820152fd5b506001611abf565b8460296084926040519262461bcd60e51b845260048401528201527f45524331393637557067726164653a20756e737570706f727465642070726f786044820152681a58589b195555525160ba1b6064820152fd5b90918982813d8311611c2e575b611c1d8183612dea565b810103126102ad5750519038611a07565b503d611c13565b610e4a9150873d89116103ec576103dd8183612dea565b6040513d8a823e3d90fd5b8680fd5b50346102ad5760a03660031901126102ad57611c75612d2e565b611c7d612d44565b611c85612d5a565b608435926001600160a01b03841684036108f757611ca1613422565b611ca9613472565b611cb281613f1f565b670de0b6b3a764000081101561209c5715612058578491611cd660643515156137d1565b611cdf82613f62565b611d6984604051611cef81612db2565b600281526040366020830137611d048161381c565b6001600160a01b03861690526001600160a01b038916611d2382613829565b526001600160a01b03611d346144eb565b1660405180809581947f053c81b5000000000000000000000000000000000000000000000000000000008352600483016138d6565b03915afa9081156105e0578591612036575b506001600160a01b0387168552610102602052600260408620611da160ff82541661338c565b6001600160a01b03861660005201602052611dc360ff604060002054166133d7565b6001600160a01b0384168552610100602052604085206001600160a01b03881660005260205260406000205495611e5d611e4f670de0b6b3a7640000611e3d86611e38611e1c611e128961381c565b515160643561379e565b611e326020611e2a8b613829565b510151613773565b9061379e565b61379e565b04611e4785613829565b5151906137b1565b61048d6020611e2a8661381c565b9687811061202e575b90611e79886001600160a01b03936132f7565b828716885261010060205260408820838b166000526020526040600020551693611ecf611ec184611ebc611eb7611eaf87613829565b51518c61379e565b613781565b6137b1565b61048d6020611e2a86613829565b90853b15611c5757604051632770a7eb60e21b81526001600160a01b039190911660048201526024810191909152858160448183895af18015610e505787918791612017575b50506020611e2a611f5a611f51611f6096611ebc611eb7611f4461048d98611f3c8b613829565b51519061379e565b611e3288611e2a8c61381c565b611e478661381c565b93613829565b823b156105b957604051637d9e4b0960e11b81526001600160a01b0392909216600483015233602483015260448201529082908290606490829084905af180156105bd57612003575b5050611fd790338452610100602052604084206001600160a01b03841660005260205260406000205461363d565b903383526101006020526001600160a01b03604084209116600052602052604060002055600160655580f35b61200c90612d9e565b6105c8578238611fa9565b612022919250612d9e565b6105eb57858538611f15565b965086611e66565b61205291503d8087833e61204a8183612dea565b81019061384d565b38611d7b565b606460405162461bcd60e51b815260206004820152601d60248201527f4163636f756e7420697320616c7265616479206c6971756964617465640000006044820152fd5b606460405162461bcd60e51b815260206004820152601560248201527f4865616c746820666163746f722061626f7665203100000000000000000000006044820152fd5b50346102ad5760403660031901126102ad576120fa612d2e565b612102612d44565b9082549160ff8360081c161591828093612287575b8015612270575b156122065760ff19848116600117865593836121f5575b5084549361216860ff8660081c1661214c8161318a565b6121558161318a565b60016065556121638161318a565b61318a565b60c9541660c9556001600160a01b038073ffffffffffffffffffffffffffffffffffffffff1992168260fb54161760fb556ec097ce7bc90715b34b9f100000000060fd556101079216908254161790556121c0575080f35b61ff00191681557f7f26b83ff96e1f2b6a682f133852f6798a09c465da95921460cefb3847402498602060405160018152a180f35b61ffff191661010117855538612135565b608460405162461bcd60e51b815260206004820152602e60248201527f496e697469616c697a61626c653a20636f6e747261637420697320616c72656160448201527f647920696e697469616c697a65640000000000000000000000000000000000006064820152fd5b50303b15801561211e5750600160ff85161461211e565b50600160ff851610612117565b5060403660031901126102ad576122a9612d2e565b6001600160a01b03602435916122bd613422565b6122c5613472565b1690818352602061010281526002604085206122e460ff82541661338c565b336000520181526122fc60ff604060002054166133d7565b826123b857813403612374577f5548c837ab068cf56a2c2479df0882a4922fd203edb7517321831d95078c5f62905b3385526101008082526040862085600052825261234d8460406000205461363d565b903387528252604086208560005282526040600020556040519283523392a3600160655580f35b6064906040519062461bcd60e51b82526004820152601460248201527f496e636f72726563742045544820616d6f756e740000000000000000000000006044820152fd5b6040517f23b872dd0000000000000000000000000000000000000000000000000000000082820152336024820152306044820152606480820184905281527f5548c837ab068cf56a2c2479df0882a4922fd203edb7517321831d95078c5f62919061242e90612428608482612dea565b856134df565b61232b565b50346102ad57806003193601126102ad5760246001600160a01b036020816101075416604051938480926321f8a72160e01b82527fdf8b4c520ffe197c5343c6f5aec59570151ef9a492f2c624fd45ddde6135ec4260048301525afa9081156107ce576124a99284926103c3575016331461321a565b60c95460ff8116156124e95760ff191660c9557f5db9ee0a495bf2e6ff9c91a7834c1ba4fdd244a5e8aa4e537bd38aeae4b073aa6020604051338152a180f35b606460405162461bcd60e51b815260206004820152601460248201527f5061757361626c653a206e6f74207061757365640000000000000000000000006044820152fd5b50346102ad57806003193601126102ad5760206001600160a01b0360fb5416604051908152f35b50346102ad576102aa61256636612e92565b906040519061257482612dce565b60018252602036818401376001600160a01b036125908361381c565b91169052613d24565b50346102ad57602080600319360112610b99576125b4612d2e565b906001600160a01b03807f0000000000000000000000000000000000000000000000000000000000000000166125ec81301415612f6f565b61261b7f360894a13ba1a3210667c828492db98dca3e2076cc3735a920a3ca505d382bbc918383541614612fe0565b602483836101075416604051928380926321f8a72160e01b82527fdf8b4c520ffe197c5343c6f5aec59570151ef9a492f2c624fd45ddde6135ec4260048301525afa8015610e50576126779187916128d557508316331461321a565b604051908382019282841067ffffffffffffffff8511176128bf578360405286835260ff7f4910fdfa16fed3260ed0e7147f7cc6da11a60208b5b9406d12a635614ffd914354166000146126d35750505050506102aa90613051565b8596949516906040516352d1902d60e01b81528681600481865afa60009181612890575b50612766576084876040519062461bcd60e51b82526004820152602e60248201527f45524331393637557067726164653a206e657720696d706c656d656e7461746960448201527f6f6e206973206e6f7420555550530000000000000000000000000000000000006064820152fd5b9594950361283a5761277786613051565b604051907fbc7cd75a20ee27fd9adebab32041f755214dbc6bffa90cc0225b39da2e5c2d3b600080a2815115801590612832575b6127b9575b50505050905080f35b853b156127e257506127d79394600092839251915af4611aed61310b565b5080388080806127b0565b808462461bcd60e51b608493526004820152602660248201527f416464726573733a2064656c65676174652063616c6c20746f206e6f6e2d636f6044820152651b9d1c9858dd60d21b6064820152fd5b5060006127ab565b6084846040519062461bcd60e51b82526004820152602960248201527f45524331393637557067726164653a20756e737570706f727465642070726f786044820152681a58589b195555525160ba1b6064820152fd5b90918882813d83116128b8575b6128a78183612dea565b810103126102ad57505190386126f7565b503d61289d565b634e487b7160e01b600052604160045260246000fd5b6116b49150853d87116103ec576103dd8183612dea565b5060403660031901126102ad57612901612d2e565b6001600160a01b036024359161291681613347565b6122bd613422565b50346102ad57806003193601126102ad5760206040517fdf8b4c520ffe197c5343c6f5aec59570151ef9a492f2c624fd45ddde6135ec428152f35b50346102ad5760203660031901126102ad57612973612d2e565b6001600160a01b039060246020836101075416604051928380926321f8a72160e01b82527f41a01ec0a13b563fa452569e3fbb116366d217c2769aa1561822e65a617e384260048301525afa80156103f3576129d991859161169c57508316331461321a565b1680825261010160205260ff6040832054166129f3575080f35b60408220805460ff191690557f40df287591e0c328c46e4a6e6a392c11257b2068c75575828d622838c83efd3a8280a280f35b50346102ad5760403660031901126102ad57602061032e612a45612d2e565b612a4d612d44565b90614378565b50346102ad5760403660031901126102ad57612a6d612d2e565b602435916001600160a01b03809216815260ff602052604081209081548410156102ad575060209261153e91612d70565b50346102ad5760203660031901126102ad57602061032e612abd612d2e565b614215565b50346102ad5760803660031901126102ad57612adc612d2e565b612ae4612d44565b612aec612d5a565b60643592612af8613422565b612b00613472565b6001600160a01b039384808416941694848614612cb057612b228215156137d1565b612b5d87604051612b3281612db2565b60028152604036602083013788612b488261381c565b5287612b5382613829565b5283611d346144eb565b03915afa8015611c4c57612bb1918991612c96575b5061048d6020611e2a612bab612ba2612b95612b8d8761381c565b51518a61379e565b611e3285611e2a89613829565b611e4786613829565b9361381c565b921693843b15611c5757604051907f4798ce5b0000000000000000000000000000000000000000000000000000000082528660048301526024820152336044820152816064820152826084820152868160a48183895af1801561064b57612c61575b50604080516001600160a01b03949094168452602084019190915282015233907f22bfc3d7b9d92e3f2b35d94c61a1a9f1c86d0793bb7645294eaf8beb03c0347990606090a4600160655580f35b95612c8e7f22bfc3d7b9d92e3f2b35d94c61a1a9f1c86d0793bb7645294eaf8beb03c03479939297612d9e565b959091612c13565b612caa91503d808b833e61204a8183612dea565b38612b72565b606460405162461bcd60e51b815260206004820152601360248201527f53796e74687320617265207468652073616d65000000000000000000000000006044820152fd5b905034610b995781600319360112610b9957807fdd24a0f121e5ab7c3e97c63eaaf859e0b46792c3e0edfd86e2b3ad50f63011d860209252f35b600435906001600160a01b03821682036108f757565b602435906001600160a01b03821682036108f757565b604435906001600160a01b03821682036108f757565b8054821015612d885760005260206000200190600090565b634e487b7160e01b600052603260045260246000fd5b67ffffffffffffffff81116128bf57604052565b6060810190811067ffffffffffffffff8211176128bf57604052565b6040810190811067ffffffffffffffff8211176128bf57604052565b90601f8019910116810190811067ffffffffffffffff8211176128bf57604052565b67ffffffffffffffff81116128bf5760051b60200190565b81601f820112156108f757803591612e3b83612e0c565b92612e496040519485612dea565b808452602092838086019260051b8201019283116108f7578301905b828210612e73575050505090565b81356001600160a01b03811681036108f7578152908301908301612e65565b9060406003198301126108f7576004356001600160a01b03811681036108f757916024359067ffffffffffffffff82116108f757612ed291600401612e24565b90565b67ffffffffffffffff81116128bf57601f01601f191660200190565b6020808252825181830181905290939260005b828110612f2657505060409293506000838284010152601f8019910116010190565b818101860151848201604001528501612f04565b60609060031901126108f7576001600160a01b039060043582811681036108f7579160243590811681036108f7579060443590565b15612f7657565b608460405162461bcd60e51b815260206004820152602c60248201527f46756e6374696f6e206d7573742062652063616c6c6564207468726f7567682060448201527f64656c656761746563616c6c00000000000000000000000000000000000000006064820152fd5b15612fe757565b608460405162461bcd60e51b815260206004820152602c60248201527f46756e6374696f6e206d7573742062652063616c6c6564207468726f7567682060448201527f6163746976652070726f787900000000000000000000000000000000000000006064820152fd5b803b156130a1576001600160a01b037f360894a13ba1a3210667c828492db98dca3e2076cc3735a920a3ca505d382bbc911673ffffffffffffffffffffffffffffffffffffffff19825416179055565b608460405162461bcd60e51b815260206004820152602d60248201527f455243313936373a206e657720696d706c656d656e746174696f6e206973206e60448201527f6f74206120636f6e7472616374000000000000000000000000000000000000006064820152fd5b3d15613136573d9061311c82612ed5565b9161312a6040519384612dea565b82523d6000602084013e565b606090565b90916060911561314a57505090565b613155919392613157565b565b80519092501561316a5750805190602001fd5b6131869060405191829162461bcd60e51b835260048301612ef1565b0390fd5b1561319157565b608460405162461bcd60e51b815260206004820152602b60248201527f496e697469616c697a61626c653a20636f6e7472616374206973206e6f74206960448201527f6e697469616c697a696e670000000000000000000000000000000000000000006064820152fd5b908160209103126108f757516001600160a01b03811681036108f75790565b1561322157565b606460405162461bcd60e51b815260206004820152601760248201527f53796e746865583a204e6f7420617574686f72697a65640000000000000000006044820152fd5b90815491680100000000000000008310156128bf57826110ec91600161315595018155612d70565b613155906001600160a01b0381166000526101016020526002604060002001336000526020526040600020600160ff1982541617905560fe6020526040600020613265565b60001981146132e15760010190565b634e487b7160e01b600052601160045260246000fd5b919082039182116132e157565b8054801561333157600019019061331b8282612d70565b6001600160a01b0382549160031b1b1916905555565b634e487b7160e01b600052603160045260246000fd5b613155906001600160a01b0381166000526101026020526002604060002001336000526020526040600020600160ff1982541617905560ff6020526040600020613265565b1561339357565b606460405162461bcd60e51b815260206004820152601660248201527f436f6c6c61746572616c206e6f7420656e61626c6564000000000000000000006044820152fd5b156133de57565b606460405162461bcd60e51b815260206004820152601960248201527f4163636f756e74206e6f7420696e20636f6c6c61746572616c000000000000006044820152fd5b60ff60c9541661342e57565b606460405162461bcd60e51b815260206004820152601060248201527f5061757361626c653a20706175736564000000000000000000000000000000006044820152fd5b600260655414613483576002606555565b606460405162461bcd60e51b815260206004820152601f60248201527f5265656e7472616e637947756172643a207265656e7472616e742063616c6c006044820152fd5b908160209103126108f7575180151581036108f75790565b60405161353d916001600160a01b03166134f882612dce565b6000806020958685527f5361666545524332303a206c6f772d6c6576656c2063616c6c206661696c656487860152868151910182855af161353761310b565b916135cc565b8051908161354a57505050565b828061355a9383010191016134c7565b156135625750565b6084906040519062461bcd60e51b82526004820152602a60248201527f5361666545524332303a204552433230206f7065726174696f6e20646964206e60448201527f6f742073756363656564000000000000000000000000000000000000000000006064820152fd5b9192606091156136305750508151156135e3575090565b3b156135ec5790565b606460405162461bcd60e51b815260206004820152601d60248201527f416464726573733a2063616c6c20746f206e6f6e2d636f6e74726163740000006044820152fd5b9093926131559250613157565b919082018092116132e157565b1561365157565b606460405162461bcd60e51b815260206004820152601e60248201527f4865616c746820666163746f722062656c6f77207361666543526174696f00006044820152fd5b6040517fa9059cbb0000000000000000000000000000000000000000000000000000000060208201526001600160a01b03929092166024830152604480830193909352918152613155916136ea606483612dea565b6134df565b156136f657565b606460405162461bcd60e51b815260206004820152601860248201527f54726164696e6720706f6f6c206e6f7420656e61626c656400000000000000006044820152fd5b91908260409103126108f7576040516040810181811067ffffffffffffffff8211176128bf576040526020808294805184520151910152565b604d81116132e157600a0a90565b90670de0b6b3a7640000918281029281840414901517156132e157565b818102929181159184041417156132e157565b81156137bb570490565b634e487b7160e01b600052601260045260246000fd5b156137d857565b606460405162461bcd60e51b815260206004820152601d60248201527f416d6f756e74206d7573742062652067726561746572207468616e20300000006044820152fd5b805115612d885760200190565b805160011015612d885760400190565b8051821015612d885760209160051b010190565b9060209182818303126108f75780519067ffffffffffffffff82116108f7570181601f820112156108f75780519261388484612e0c565b9360409361389485519687612dea565b818652828087019260061b850101938185116108f7578301915b8483106138be5750505050505090565b8386916138cb848661373a565b8152019201916138ae565b6020908160408183019282815285518094520193019160005b8281106138fd575050505090565b83516001600160a01b0316855293810193928101926001016138ef565b6001600160a01b0316908160005261010160205260406000209081549060ff821661397a578060017ffe83615d888076df1cf968a4c6694405f082fa2b2b353afde0af6438a9af7c0b948160209560ff19161781550155604051908152a2565b50505050565b6001600160a01b0316908160005261010260205260406000209081549060ff821661397a578060017f0dabbae73ad87de9f00d48ce6bc2fdee3a04023481e61ba06071d8d35b56951d948160209560ff19161781550155604051908152a2565b6001600160a01b03166000818152602090610104825260408120926101038352604082205490613a14855460e01c426132f7565b908115613b92578215613b525784600491604051928380926318160ddd60e01b82525afa9485156103f3578495613b20575b505090613a529161379e565b908215613b13576ec097ce7bc90715b34b9f100000000091828102928184041490151715613aff57506131559291613a89916137b1565b7fffffffff00000000000000000000000000000000000000000000000000000000825491613ac16001600160e01b039182851661363d565b6001600160e01b0392909316921691909117164260e01b7fffffffff0000000000000000000000000000000000000000000000000000000016179055565b80634e487b7160e01b602492526011600452fd5b9050613155929150613a89565b9080929550813d8311613b4b575b613b388183612dea565b810103126105c8575192613a5238613a46565b503d613b2e565b505083546001600160e01b03164260e01b7fffffffff00000000000000000000000000000000000000000000000000000000161790935550613155915050565b505050505050565b6001600160a01b0390811660008181526101046020908152604080832054610105835281842095871680855295835281842080546001600160e01b039092169081905593979694959294939290801580613d18575b613d0f575b613bfe90846132f7565b82516370a0823160e01b815282600482015286816024818b5afa908115613d05578a91613cb4575b50927f39830ba333221bc394b51f96c7ffa4b7a1081f4a18e6f8b63a2be77606ac232a9798996ec097ce7bc90715b34b9f1000000000613c6c839594613caf989761379e565b049783825261010690818152613c858a8585205461363d565b94835252205551938493846040919493926001600160a01b03606083019616825260208201520152565b0390a2565b90508681813d8311613cfe575b613ccb8183612dea565b81010312613cfa57517f39830ba333221bc394b51f96c7ffa4b7a1081f4a18e6f8b63a2be77606ac232a613c26565b8980fd5b503d613cc1565b84513d8c823e3d90fd5b5060fd54613bf4565b5060fd54841015613bef565b906000915b8151831015613df1576001600160a01b039182613d468583613839565b5116948560005260206101018152604060ff81600020541615613dae575050613d6e866139e0565b60005b8351811015613d995780610fa686613d8c613d949488613839565b511689613b9a565b613d71565b509450915091613da8906132d2565b91613d29565b60649250519062461bcd60e51b82526004820152601660248201527f4d61726b6574206d75737420626520656e61626c6564000000000000000000006044820152fd5b91505060005b8151811015613e7657613e71906001600160a01b0380613e178386613839565b511681613e248487613839565b51166000526101066020818152613e52604093846000205490613e45613422565b613e4d613472565b613e7a565b936001606555613e628689613839565b511660005252600020556132d2565b613df7565b5050565b906001600160a01b0360fb5416916040516370a0823160e01b8152306004820152602081602481875afa908115613f1357600091613ee2575b508215159081613ed7575b50613ec95750905090565b613ed292613695565b600090565b905082111538613ebe565b906020823d8211613f0b575b81613efb60209383612dea565b810103126102ad57505138613eb3565b3d9150613eee565b6040513d6000823e3d90fd5b613f31613f2b826140af565b916142b7565b8015613f5a57670de0b6b3a7640000918281029281840414901517156132e157612ed2916137b1565b505060001990565b613f31613f6e82613f74565b91614215565b90600091613f806144eb565b9280926001600160a01b03809516915b85841680600052602060ff8152604080600020548810156140a35788613fb98983600020612d70565b90549060031b1c1681519363b3596f0760e01b855281600486015282856024818b5afa94851561409857908b96959493929160009561403b575b5061403395936104856140279461402d979461048d946000526101008452816000209060005283526000205484519061379e565b9061363d565b956132d2565b949050613f90565b9095965082939491923d8511614091575b6140568183612dea565b81019184828403126102ad575061402d946104858d9895614027956140826140339a9661048d9661373a565b98509493509450509395613ff3565b503d61404c565b83513d6000823e3d90fd5b50505093509350505090565b6000906140ba6144eb565b6001600160a01b0393908416835b85841680600052602060ff81526040806000205488101561420957886140f18983600020612d70565b90549060031b1c169080519363b3596f0760e01b855282600486015281856024818a5afa9485156141fe57908b969594939291600095614194575b5061418c9593670de0b6b3a764000061418361402795600161402d999661048d9660005261010086528060002083600052865261416f816000205489519061379e565b92600052610102865260002001549061379e565b04920151613773565b9490506140c8565b9095965081929394913d84116141f7575b6141af8183612dea565b81019183828403126102ad575061402d94670de0b6b3a76400006141838e99966001614027976141e661418c9c9861048d9861373a565b9a509695505095505050939561412c565b503d6141a5565b82513d6000823e3d90fd5b50505093505092505090565b6000906001600160a01b038082168352602060fe815260408420906040518092839183825491828152019188528388209388905b82821061429b5750505061425f92500382612dea565b835b81518510156142935761428761428d916140278561427f8987613839565b511687614378565b946132d2565b93614261565b935050505090565b8554881684526001958601958795509381019390910190614249565b6000906001600160a01b038082168352602060fe8152604091828520938351808685829854938481520190895285892092895b878282106143605750505061430192500386612dea565b855b85518710156143565761434a61435091614027614327611eb78761427f8d8d613839565b866143328c8c613839565b511660005261010188526001896000200154906137b1565b966132d2565b95614303565b9550505050505090565b8554881684526001958601958b9550930192016142ea565b6001600160a01b038092166040908151936318160ddd60e01b85526020908186600481865afa9586156144e0576000966144b1575b5085156144a6578351947fe3cdb9340000000000000000000000000000000000000000000000000000000086528286600481875afa95861561449b5760009661446b575b509060248392865195869384926370a0823160e01b84521660048301525afa9283156144615750600092614430575b5050612ed29291611ebc9161379e565b81819392933d831161445a575b6144478183612dea565b810103126102ad57505181611ebc614420565b503d61443d565b513d6000823e3d90fd5b90958382813d8311614494575b6144828183612dea565b810103126102ad5750519460246143f1565b503d614478565b85513d6000823e3d90fd5b505050505050600090565b90958282813d83116144d9575b6144c88183612dea565b810103126102ad57505194386143ad565b503d6144be565b84513d6000823e3d90fd5b6001600160a01b0360246020826101075416604051928380926321f8a72160e01b82527fdd24a0f121e5ab7c3e97c63eaaf859e0b46792c3e0edfd86e2b3ad50f63011d860048301525afa908115613f135760009161454957501690565b614561915060203d81116103ec576103dd8183612dea565b169056fea26469706673582212208640a291710c6e1f5ff742529cfe202c9ba14b58ec1282fbd09494e1a8fbc43864736f6c63430008110033",
  "linkReferences": {},
  "deployedLinkReferences": {}
}