{
  "_format": "hh-sol-artifact-1",
  "contractName": "SyntheX",
  "sourceName": "contracts/SyntheX.sol",
  "abi": [
    {
      "inputs": [],
      "stateMutability": "nonpayable",
      "type": "constructor"
    },
    {
      "anonymous": false,
      "inputs": [
        {
          "indexed": false,
          "internalType": "address",
          "name": "previousAdmin",
          "type": "address"
        },
        {
          "indexed": false,
          "internalType": "address",
          "name": "newAdmin",
          "type": "address"
        }
      ],
      "name": "AdminChanged",
      "type": "event"
    },
    {
      "anonymous": false,
      "inputs": [
        {
          "indexed": true,
          "internalType": "address",
          "name": "beacon",
          "type": "address"
        }
      ],
      "name": "BeaconUpgraded",
      "type": "event"
    },
    {
      "anonymous": false,
      "inputs": [
        {
          "indexed": true,
          "internalType": "address",
          "name": "user",
          "type": "address"
        },
        {
          "indexed": true,
          "internalType": "address",
          "name": "tradingPool",
          "type": "address"
        },
        {
          "indexed": true,
          "internalType": "address",
          "name": "asset",
          "type": "address"
        },
        {
          "indexed": false,
          "internalType": "uint256",
          "name": "amount",
          "type": "uint256"
        }
      ],
      "name": "Burn",
      "type": "event"
    },
    {
      "anonymous": false,
      "inputs": [
        {
          "indexed": true,
          "internalType": "address",
          "name": "asset",
          "type": "address"
        }
      ],
      "name": "CollateralDisabled",
      "type": "event"
    },
    {
      "anonymous": false,
      "inputs": [
        {
          "indexed": true,
          "internalType": "address",
          "name": "asset",
          "type": "address"
        },
        {
          "indexed": false,
          "internalType": "uint256",
          "name": "volatilityRatio",
          "type": "uint256"
        }
      ],
      "name": "CollateralEnabled",
      "type": "event"
    },
    {
      "anonymous": false,
      "inputs": [
        {
          "indexed": true,
          "internalType": "address",
          "name": "asset",
          "type": "address"
        }
      ],
      "name": "CollateralRemoved",
      "type": "event"
    },
    {
      "anonymous": false,
      "inputs": [
        {
          "indexed": true,
          "internalType": "address",
          "name": "user",
          "type": "address"
        },
        {
          "indexed": true,
          "internalType": "address",
          "name": "asset",
          "type": "address"
        },
        {
          "indexed": false,
          "internalType": "uint256",
          "name": "amount",
          "type": "uint256"
        }
      ],
      "name": "Deposit",
      "type": "event"
    },
    {
      "anonymous": false,
      "inputs": [
        {
          "indexed": true,
          "internalType": "address",
          "name": "pool",
          "type": "address"
        },
        {
          "indexed": false,
          "internalType": "address",
          "name": "_account",
          "type": "address"
        },
        {
          "indexed": false,
          "internalType": "uint256",
          "name": "accountDelta",
          "type": "uint256"
        },
        {
          "indexed": false,
          "internalType": "uint256",
          "name": "rewardIndex",
          "type": "uint256"
        }
      ],
      "name": "DistributedSYN",
      "type": "event"
    },
    {
      "anonymous": false,
      "inputs": [
        {
          "indexed": true,
          "internalType": "address",
          "name": "user",
          "type": "address"
        },
        {
          "indexed": true,
          "internalType": "address",
          "name": "tradingPool",
          "type": "address"
        },
        {
          "indexed": true,
          "internalType": "address",
          "name": "fromAsset",
          "type": "address"
        },
        {
          "indexed": false,
          "internalType": "address",
          "name": "toAsset",
          "type": "address"
        },
        {
          "indexed": false,
          "internalType": "uint256",
          "name": "fromAmount",
          "type": "uint256"
        },
        {
          "indexed": false,
          "internalType": "uint256",
          "name": "toAmount",
          "type": "uint256"
        }
      ],
      "name": "Exchange",
      "type": "event"
    },
    {
      "anonymous": false,
      "inputs": [
        {
          "indexed": false,
          "internalType": "uint8",
          "name": "version",
          "type": "uint8"
        }
      ],
      "name": "Initialized",
      "type": "event"
    },
    {
      "anonymous": false,
      "inputs": [
        {
          "indexed": true,
          "internalType": "address",
          "name": "user",
          "type": "address"
        },
        {
          "indexed": true,
          "internalType": "address",
          "name": "tradingPool",
          "type": "address"
        },
        {
          "indexed": true,
          "internalType": "address",
          "name": "asset",
          "type": "address"
        },
        {
          "indexed": false,
          "internalType": "uint256",
          "name": "amount",
          "type": "uint256"
        }
      ],
      "name": "Issue",
      "type": "event"
    },
    {
      "anonymous": false,
      "inputs": [
        {
          "indexed": false,
          "internalType": "uint256",
          "name": "_exchangeFee",
          "type": "uint256"
        }
      ],
      "name": "NewExchangeFee",
      "type": "event"
    },
    {
      "anonymous": false,
      "inputs": [
        {
          "indexed": true,
          "internalType": "address",
          "name": "oracle",
          "type": "address"
        }
      ],
      "name": "NewPriceOracle",
      "type": "event"
    },
    {
      "anonymous": false,
      "inputs": [
        {
          "indexed": false,
          "internalType": "address",
          "name": "account",
          "type": "address"
        }
      ],
      "name": "Paused",
      "type": "event"
    },
    {
      "anonymous": false,
      "inputs": [
        {
          "indexed": true,
          "internalType": "bytes32",
          "name": "role",
          "type": "bytes32"
        },
        {
          "indexed": true,
          "internalType": "bytes32",
          "name": "previousAdminRole",
          "type": "bytes32"
        },
        {
          "indexed": true,
          "internalType": "bytes32",
          "name": "newAdminRole",
          "type": "bytes32"
        }
      ],
      "name": "RoleAdminChanged",
      "type": "event"
    },
    {
      "anonymous": false,
      "inputs": [
        {
          "indexed": true,
          "internalType": "bytes32",
          "name": "role",
          "type": "bytes32"
        },
        {
          "indexed": true,
          "internalType": "address",
          "name": "account",
          "type": "address"
        },
        {
          "indexed": true,
          "internalType": "address",
          "name": "sender",
          "type": "address"
        }
      ],
      "name": "RoleGranted",
      "type": "event"
    },
    {
      "anonymous": false,
      "inputs": [
        {
          "indexed": true,
          "internalType": "bytes32",
          "name": "role",
          "type": "bytes32"
        },
        {
          "indexed": true,
          "internalType": "address",
          "name": "account",
          "type": "address"
        },
        {
          "indexed": true,
          "internalType": "address",
          "name": "sender",
          "type": "address"
        }
      ],
      "name": "RoleRevoked",
      "type": "event"
    },
    {
      "anonymous": false,
      "inputs": [
        {
          "indexed": true,
          "internalType": "address",
          "name": "pool",
          "type": "address"
        },
        {
          "indexed": false,
          "internalType": "uint256",
          "name": "rewardSpeed",
          "type": "uint256"
        }
      ],
      "name": "SetPoolRewardSpeed",
      "type": "event"
    },
    {
      "anonymous": false,
      "inputs": [
        {
          "indexed": true,
          "internalType": "address",
          "name": "pool",
          "type": "address"
        }
      ],
      "name": "TradingPoolDisabled",
      "type": "event"
    },
    {
      "anonymous": false,
      "inputs": [
        {
          "indexed": true,
          "internalType": "address",
          "name": "pool",
          "type": "address"
        },
        {
          "indexed": false,
          "internalType": "uint256",
          "name": "volatilityRatio",
          "type": "uint256"
        }
      ],
      "name": "TradingPoolEnabled",
      "type": "event"
    },
    {
      "anonymous": false,
      "inputs": [
        {
          "indexed": true,
          "internalType": "address",
          "name": "pool",
          "type": "address"
        }
      ],
      "name": "TradingPoolRemoved",
      "type": "event"
    },
    {
      "anonymous": false,
      "inputs": [
        {
          "indexed": false,
          "internalType": "address",
          "name": "account",
          "type": "address"
        }
      ],
      "name": "Unpaused",
      "type": "event"
    },
    {
      "anonymous": false,
      "inputs": [
        {
          "indexed": true,
          "internalType": "address",
          "name": "implementation",
          "type": "address"
        }
      ],
      "name": "Upgraded",
      "type": "event"
    },
    {
      "anonymous": false,
      "inputs": [
        {
          "indexed": true,
          "internalType": "address",
          "name": "user",
          "type": "address"
        },
        {
          "indexed": true,
          "internalType": "address",
          "name": "asset",
          "type": "address"
        },
        {
          "indexed": false,
          "internalType": "uint256",
          "name": "amount",
          "type": "uint256"
        }
      ],
      "name": "Withdraw",
      "type": "event"
    },
    {
      "inputs": [],
      "name": "ADMIN_ROLE",
      "outputs": [
        {
          "internalType": "bytes32",
          "name": "",
          "type": "bytes32"
        }
      ],
      "stateMutability": "view",
      "type": "function"
    },
    {
      "inputs": [],
      "name": "DEFAULT_ADMIN_ROLE",
      "outputs": [
        {
          "internalType": "bytes32",
          "name": "",
          "type": "bytes32"
        }
      ],
      "stateMutability": "view",
      "type": "function"
    },
    {
      "inputs": [],
      "name": "NAME",
      "outputs": [
        {
          "internalType": "string",
          "name": "",
          "type": "string"
        }
      ],
      "stateMutability": "view",
      "type": "function"
    },
    {
      "inputs": [],
      "name": "PAUSE_GUARDIAN_ROLE",
      "outputs": [
        {
          "internalType": "bytes32",
          "name": "",
          "type": "bytes32"
        }
      ],
      "stateMutability": "view",
      "type": "function"
    },
    {
      "inputs": [],
      "name": "POOL_MANAGER_ROLE",
      "outputs": [
        {
          "internalType": "bytes32",
          "name": "",
          "type": "bytes32"
        }
      ],
      "stateMutability": "view",
      "type": "function"
    },
    {
      "inputs": [],
      "name": "VERSION",
      "outputs": [
        {
          "internalType": "string",
          "name": "",
          "type": "string"
        }
      ],
      "stateMutability": "view",
      "type": "function"
    },
    {
      "inputs": [
        {
          "internalType": "address",
          "name": "",
          "type": "address"
        },
        {
          "internalType": "address",
          "name": "",
          "type": "address"
        }
      ],
      "name": "accountCollateralBalance",
      "outputs": [
        {
          "internalType": "uint256",
          "name": "",
          "type": "uint256"
        }
      ],
      "stateMutability": "view",
      "type": "function"
    },
    {
      "inputs": [
        {
          "internalType": "address",
          "name": "",
          "type": "address"
        },
        {
          "internalType": "uint256",
          "name": "",
          "type": "uint256"
        }
      ],
      "name": "accountCollaterals",
      "outputs": [
        {
          "internalType": "address",
          "name": "",
          "type": "address"
        }
      ],
      "stateMutability": "view",
      "type": "function"
    },
    {
      "inputs": [
        {
          "internalType": "address",
          "name": "",
          "type": "address"
        },
        {
          "internalType": "uint256",
          "name": "",
          "type": "uint256"
        }
      ],
      "name": "accountPools",
      "outputs": [
        {
          "internalType": "address",
          "name": "",
          "type": "address"
        }
      ],
      "stateMutability": "view",
      "type": "function"
    },
    {
      "inputs": [],
      "name": "addressManager",
      "outputs": [
        {
          "internalType": "address",
          "name": "",
          "type": "address"
        }
      ],
      "stateMutability": "view",
      "type": "function"
    },
    {
      "inputs": [
        {
          "internalType": "address",
          "name": "_tradingPool",
          "type": "address"
        },
        {
          "internalType": "address",
          "name": "_synth",
          "type": "address"
        },
        {
          "internalType": "uint256",
          "name": "_amount",
          "type": "uint256"
        }
      ],
      "name": "burn",
      "outputs": [],
      "stateMutability": "nonpayable",
      "type": "function"
    },
    {
      "inputs": [
        {
          "internalType": "address",
          "name": "holder",
          "type": "address"
        },
        {
          "internalType": "address[]",
          "name": "cTokens",
          "type": "address[]"
        }
      ],
      "name": "claimSYN",
      "outputs": [],
      "stateMutability": "nonpayable",
      "type": "function"
    },
    {
      "inputs": [
        {
          "internalType": "address",
          "name": "holder",
          "type": "address"
        }
      ],
      "name": "claimSYN",
      "outputs": [],
      "stateMutability": "nonpayable",
      "type": "function"
    },
    {
      "inputs": [
        {
          "internalType": "address[]",
          "name": "holders",
          "type": "address[]"
        },
        {
          "internalType": "address[]",
          "name": "_tradingPools",
          "type": "address[]"
        }
      ],
      "name": "claimSYN",
      "outputs": [],
      "stateMutability": "nonpayable",
      "type": "function"
    },
    {
      "inputs": [
        {
          "internalType": "address",
          "name": "market",
          "type": "address"
        },
        {
          "internalType": "address",
          "name": "account",
          "type": "address"
        }
      ],
      "name": "collateralMembership",
      "outputs": [
        {
          "internalType": "bool",
          "name": "",
          "type": "bool"
        }
      ],
      "stateMutability": "view",
      "type": "function"
    },
    {
      "inputs": [
        {
          "internalType": "address",
          "name": "",
          "type": "address"
        }
      ],
      "name": "collaterals",
      "outputs": [
        {
          "internalType": "bool",
          "name": "isEnabled",
          "type": "bool"
        },
        {
          "internalType": "uint256",
          "name": "volatilityRatio",
          "type": "uint256"
        }
      ],
      "stateMutability": "view",
      "type": "function"
    },
    {
      "inputs": [
        {
          "internalType": "uint256",
          "name": "",
          "type": "uint256"
        }
      ],
      "name": "collateralsList",
      "outputs": [
        {
          "internalType": "address",
          "name": "",
          "type": "address"
        }
      ],
      "stateMutability": "view",
      "type": "function"
    },
    {
      "inputs": [],
      "name": "compInitialIndex",
      "outputs": [
        {
          "internalType": "uint256",
          "name": "",
          "type": "uint256"
        }
      ],
      "stateMutability": "view",
      "type": "function"
    },
    {
      "inputs": [
        {
          "internalType": "address",
          "name": "_collateral",
          "type": "address"
        },
        {
          "internalType": "uint256",
          "name": "_amount",
          "type": "uint256"
        }
      ],
      "name": "deposit",
      "outputs": [],
      "stateMutability": "payable",
      "type": "function"
    },
    {
      "inputs": [
        {
          "internalType": "address",
          "name": "_collateral",
          "type": "address"
        }
      ],
      "name": "disableCollateral",
      "outputs": [],
      "stateMutability": "nonpayable",
      "type": "function"
    },
    {
      "inputs": [
        {
          "internalType": "address",
          "name": "_tradingPool",
          "type": "address"
        }
      ],
      "name": "disableTradingPool",
      "outputs": [],
      "stateMutability": "nonpayable",
      "type": "function"
    },
    {
      "inputs": [
        {
          "internalType": "address",
          "name": "_collateral",
          "type": "address"
        },
        {
          "internalType": "uint256",
          "name": "_volatilityRatio",
          "type": "uint256"
        }
      ],
      "name": "enableCollateral",
      "outputs": [],
      "stateMutability": "nonpayable",
      "type": "function"
    },
    {
      "inputs": [
        {
          "internalType": "address",
          "name": "_tradingPool",
          "type": "address"
        },
        {
          "internalType": "uint256",
          "name": "_volatilityRatio",
          "type": "uint256"
        }
      ],
      "name": "enableTradingPool",
      "outputs": [],
      "stateMutability": "nonpayable",
      "type": "function"
    },
    {
      "inputs": [
        {
          "internalType": "address",
          "name": "_collateral",
          "type": "address"
        },
        {
          "internalType": "uint256",
          "name": "_amount",
          "type": "uint256"
        }
      ],
      "name": "enterAndDeposit",
      "outputs": [],
      "stateMutability": "payable",
      "type": "function"
    },
    {
      "inputs": [
        {
          "internalType": "address",
          "name": "_tradingPool",
          "type": "address"
        },
        {
          "internalType": "address",
          "name": "_synth",
          "type": "address"
        },
        {
          "internalType": "uint256",
          "name": "_amount",
          "type": "uint256"
        }
      ],
      "name": "enterAndIssue",
      "outputs": [],
      "stateMutability": "nonpayable",
      "type": "function"
    },
    {
      "inputs": [
        {
          "internalType": "address",
          "name": "_collateral",
          "type": "address"
        }
      ],
      "name": "enterCollateral",
      "outputs": [],
      "stateMutability": "nonpayable",
      "type": "function"
    },
    {
      "inputs": [
        {
          "internalType": "address",
          "name": "_tradingPool",
          "type": "address"
        }
      ],
      "name": "enterPool",
      "outputs": [],
      "stateMutability": "nonpayable",
      "type": "function"
    },
    {
      "inputs": [
        {
          "internalType": "address",
          "name": "_tradingPool",
          "type": "address"
        },
        {
          "internalType": "address",
          "name": "_synthFrom",
          "type": "address"
        },
        {
          "internalType": "address",
          "name": "_synthTo",
          "type": "address"
        },
        {
          "internalType": "uint256",
          "name": "_amount",
          "type": "uint256"
        }
      ],
      "name": "exchange",
      "outputs": [],
      "stateMutability": "nonpayable",
      "type": "function"
    },
    {
      "inputs": [],
      "name": "exchangeFee",
      "outputs": [
        {
          "internalType": "uint256",
          "name": "",
          "type": "uint256"
        }
      ],
      "stateMutability": "view",
      "type": "function"
    },
    {
      "inputs": [],
      "name": "exchangeFeeMantissa",
      "outputs": [
        {
          "internalType": "uint256",
          "name": "",
          "type": "uint256"
        }
      ],
      "stateMutability": "view",
      "type": "function"
    },
    {
      "inputs": [
        {
          "internalType": "address",
          "name": "_collateral",
          "type": "address"
        }
      ],
      "name": "exitCollateral",
      "outputs": [],
      "stateMutability": "nonpayable",
      "type": "function"
    },
    {
      "inputs": [
        {
          "internalType": "address",
          "name": "_tradingPool",
          "type": "address"
        }
      ],
      "name": "exitPool",
      "outputs": [],
      "stateMutability": "nonpayable",
      "type": "function"
    },
    {
      "inputs": [
        {
          "internalType": "address",
          "name": "_account",
          "type": "address"
        }
      ],
      "name": "getAdjustedUserTotalCollateralUSD",
      "outputs": [
        {
          "internalType": "uint256",
          "name": "",
          "type": "uint256"
        }
      ],
      "stateMutability": "view",
      "type": "function"
    },
    {
      "inputs": [
        {
          "internalType": "address",
          "name": "_account",
          "type": "address"
        }
      ],
      "name": "getAdjustedUserTotalDebtUSD",
      "outputs": [
        {
          "internalType": "uint256",
          "name": "",
          "type": "uint256"
        }
      ],
      "stateMutability": "view",
      "type": "function"
    },
    {
      "inputs": [
        {
          "internalType": "address",
          "name": "_account",
          "type": "address"
        }
      ],
      "name": "getLTV",
      "outputs": [
        {
          "internalType": "uint256",
          "name": "",
          "type": "uint256"
        }
      ],
      "stateMutability": "view",
      "type": "function"
    },
    {
      "inputs": [
        {
          "internalType": "address",
          "name": "_tradingPool",
          "type": "address"
        }
      ],
      "name": "getPoolTotalDebtUSD",
      "outputs": [
        {
          "internalType": "uint256",
          "name": "",
          "type": "uint256"
        }
      ],
      "stateMutability": "view",
      "type": "function"
    },
    {
      "inputs": [
        {
          "internalType": "bytes32",
          "name": "role",
          "type": "bytes32"
        }
      ],
      "name": "getRoleAdmin",
      "outputs": [
        {
          "internalType": "bytes32",
          "name": "",
          "type": "bytes32"
        }
      ],
      "stateMutability": "view",
      "type": "function"
    },
    {
      "inputs": [
        {
          "internalType": "address",
          "name": "_account",
          "type": "address"
        }
      ],
      "name": "getSYNAccrued",
      "outputs": [
        {
          "internalType": "uint256",
          "name": "",
          "type": "uint256"
        }
      ],
      "stateMutability": "nonpayable",
      "type": "function"
    },
    {
      "inputs": [
        {
          "internalType": "address",
          "name": "_account",
          "type": "address"
        },
        {
          "internalType": "address",
          "name": "_tradingPool",
          "type": "address"
        }
      ],
      "name": "getUserPoolDebtUSD",
      "outputs": [
        {
          "internalType": "uint256",
          "name": "",
          "type": "uint256"
        }
      ],
      "stateMutability": "view",
      "type": "function"
    },
    {
      "inputs": [
        {
          "internalType": "address",
          "name": "_account",
          "type": "address"
        }
      ],
      "name": "getUserTotalCollateralUSD",
      "outputs": [
        {
          "internalType": "uint256",
          "name": "",
          "type": "uint256"
        }
      ],
      "stateMutability": "view",
      "type": "function"
    },
    {
      "inputs": [
        {
          "internalType": "address",
          "name": "_account",
          "type": "address"
        }
      ],
      "name": "getUserTotalDebtUSD",
      "outputs": [
        {
          "internalType": "uint256",
          "name": "",
          "type": "uint256"
        }
      ],
      "stateMutability": "view",
      "type": "function"
    },
    {
      "inputs": [
        {
          "internalType": "bytes32",
          "name": "role",
          "type": "bytes32"
        },
        {
          "internalType": "address",
          "name": "account",
          "type": "address"
        }
      ],
      "name": "grantRole",
      "outputs": [],
      "stateMutability": "nonpayable",
      "type": "function"
    },
    {
      "inputs": [
        {
          "internalType": "bytes32",
          "name": "role",
          "type": "bytes32"
        },
        {
          "internalType": "address",
          "name": "account",
          "type": "address"
        }
      ],
      "name": "hasRole",
      "outputs": [
        {
          "internalType": "bool",
          "name": "",
          "type": "bool"
        }
      ],
      "stateMutability": "view",
      "type": "function"
    },
    {
      "inputs": [
        {
          "internalType": "address",
          "name": "_account",
          "type": "address"
        }
      ],
      "name": "healthFactor",
      "outputs": [
        {
          "internalType": "uint256",
          "name": "",
          "type": "uint256"
        }
      ],
      "stateMutability": "view",
      "type": "function"
    },
    {
      "inputs": [
        {
          "internalType": "address",
          "name": "_syn",
          "type": "address"
        },
        {
          "internalType": "address",
          "name": "admin",
          "type": "address"
        },
        {
          "internalType": "address",
          "name": "pauser",
          "type": "address"
        },
        {
          "internalType": "address",
          "name": "poolManager",
          "type": "address"
        },
        {
          "internalType": "address",
          "name": "_addressManager",
          "type": "address"
        }
      ],
      "name": "initialize",
      "outputs": [],
      "stateMutability": "nonpayable",
      "type": "function"
    },
    {
      "inputs": [
        {
          "internalType": "address",
          "name": "_tradingPool",
          "type": "address"
        },
        {
          "internalType": "address",
          "name": "_synth",
          "type": "address"
        },
        {
          "internalType": "uint256",
          "name": "_amount",
          "type": "uint256"
        }
      ],
      "name": "issue",
      "outputs": [],
      "stateMutability": "nonpayable",
      "type": "function"
    },
    {
      "inputs": [
        {
          "internalType": "address",
          "name": "_account",
          "type": "address"
        },
        {
          "internalType": "address",
          "name": "_tradingPool",
          "type": "address"
        },
        {
          "internalType": "address",
          "name": "_inAsset",
          "type": "address"
        },
        {
          "internalType": "uint256",
          "name": "_inAmount",
          "type": "uint256"
        },
        {
          "internalType": "address",
          "name": "_outAsset",
          "type": "address"
        }
      ],
      "name": "liquidate",
      "outputs": [],
      "stateMutability": "nonpayable",
      "type": "function"
    },
    {
      "inputs": [],
      "name": "oracle",
      "outputs": [
        {
          "internalType": "contract PriceOracle",
          "name": "",
          "type": "address"
        }
      ],
      "stateMutability": "view",
      "type": "function"
    },
    {
      "inputs": [],
      "name": "pause",
      "outputs": [],
      "stateMutability": "nonpayable",
      "type": "function"
    },
    {
      "inputs": [],
      "name": "paused",
      "outputs": [
        {
          "internalType": "bool",
          "name": "",
          "type": "bool"
        }
      ],
      "stateMutability": "view",
      "type": "function"
    },
    {
      "inputs": [],
      "name": "proxiableUUID",
      "outputs": [
        {
          "internalType": "bytes32",
          "name": "",
          "type": "bytes32"
        }
      ],
      "stateMutability": "view",
      "type": "function"
    },
    {
      "inputs": [
        {
          "internalType": "address",
          "name": "_collateral",
          "type": "address"
        }
      ],
      "name": "removeCollateral",
      "outputs": [],
      "stateMutability": "nonpayable",
      "type": "function"
    },
    {
      "inputs": [
        {
          "internalType": "address",
          "name": "_tradingPool",
          "type": "address"
        }
      ],
      "name": "removeTradingPool",
      "outputs": [],
      "stateMutability": "nonpayable",
      "type": "function"
    },
    {
      "inputs": [
        {
          "internalType": "bytes32",
          "name": "role",
          "type": "bytes32"
        },
        {
          "internalType": "address",
          "name": "account",
          "type": "address"
        }
      ],
      "name": "renounceRole",
      "outputs": [],
      "stateMutability": "nonpayable",
      "type": "function"
    },
    {
      "inputs": [
        {
          "internalType": "bytes32",
          "name": "role",
          "type": "bytes32"
        },
        {
          "internalType": "address",
          "name": "account",
          "type": "address"
        }
      ],
      "name": "revokeRole",
      "outputs": [],
      "stateMutability": "nonpayable",
      "type": "function"
    },
    {
      "inputs": [],
      "name": "safeCRatio",
      "outputs": [
        {
          "internalType": "uint256",
          "name": "",
          "type": "uint256"
        }
      ],
      "stateMutability": "view",
      "type": "function"
    },
    {
      "inputs": [
        {
          "internalType": "uint256",
          "name": "_exchangeFee",
          "type": "uint256"
        }
      ],
      "name": "setExchangeFee",
      "outputs": [],
      "stateMutability": "nonpayable",
      "type": "function"
    },
    {
      "inputs": [
        {
          "internalType": "address",
          "name": "_oracle",
          "type": "address"
        }
      ],
      "name": "setOracle",
      "outputs": [],
      "stateMutability": "nonpayable",
      "type": "function"
    },
    {
      "inputs": [
        {
          "internalType": "address",
          "name": "_tradingPool",
          "type": "address"
        },
        {
          "internalType": "uint256",
          "name": "_speed",
          "type": "uint256"
        }
      ],
      "name": "setPoolSpeed",
      "outputs": [],
      "stateMutability": "nonpayable",
      "type": "function"
    },
    {
      "inputs": [
        {
          "internalType": "bytes4",
          "name": "interfaceId",
          "type": "bytes4"
        }
      ],
      "name": "supportsInterface",
      "outputs": [
        {
          "internalType": "bool",
          "name": "",
          "type": "bool"
        }
      ],
      "stateMutability": "view",
      "type": "function"
    },
    {
      "inputs": [],
      "name": "syn",
      "outputs": [
        {
          "internalType": "contract SyntheXToken",
          "name": "",
          "type": "address"
        }
      ],
      "stateMutability": "view",
      "type": "function"
    },
    {
      "inputs": [
        {
          "internalType": "address",
          "name": "",
          "type": "address"
        }
      ],
      "name": "synAccrued",
      "outputs": [
        {
          "internalType": "uint256",
          "name": "",
          "type": "uint256"
        }
      ],
      "stateMutability": "view",
      "type": "function"
    },
    {
      "inputs": [
        {
          "internalType": "address",
          "name": "",
          "type": "address"
        },
        {
          "internalType": "address",
          "name": "",
          "type": "address"
        }
      ],
      "name": "synBorrowerIndex",
      "outputs": [
        {
          "internalType": "uint256",
          "name": "",
          "type": "uint256"
        }
      ],
      "stateMutability": "view",
      "type": "function"
    },
    {
      "inputs": [
        {
          "internalType": "address",
          "name": "",
          "type": "address"
        }
      ],
      "name": "synRewardSpeeds",
      "outputs": [
        {
          "internalType": "uint256",
          "name": "",
          "type": "uint256"
        }
      ],
      "stateMutability": "view",
      "type": "function"
    },
    {
      "inputs": [
        {
          "internalType": "address",
          "name": "",
          "type": "address"
        }
      ],
      "name": "synRewardState",
      "outputs": [
        {
          "internalType": "uint224",
          "name": "index",
          "type": "uint224"
        },
        {
          "internalType": "uint32",
          "name": "timestamp",
          "type": "uint32"
        }
      ],
      "stateMutability": "view",
      "type": "function"
    },
    {
      "inputs": [
        {
          "internalType": "address",
          "name": "market",
          "type": "address"
        },
        {
          "internalType": "address",
          "name": "account",
          "type": "address"
        }
      ],
      "name": "tradingPoolMembership",
      "outputs": [
        {
          "internalType": "bool",
          "name": "",
          "type": "bool"
        }
      ],
      "stateMutability": "view",
      "type": "function"
    },
    {
      "inputs": [
        {
          "internalType": "address",
          "name": "",
          "type": "address"
        }
      ],
      "name": "tradingPools",
      "outputs": [
        {
          "internalType": "bool",
          "name": "isEnabled",
          "type": "bool"
        },
        {
          "internalType": "uint256",
          "name": "volatilityRatio",
          "type": "uint256"
        }
      ],
      "stateMutability": "view",
      "type": "function"
    },
    {
      "inputs": [
        {
          "internalType": "uint256",
          "name": "",
          "type": "uint256"
        }
      ],
      "name": "tradingPoolsList",
      "outputs": [
        {
          "internalType": "address",
          "name": "",
          "type": "address"
        }
      ],
      "stateMutability": "view",
      "type": "function"
    },
    {
      "inputs": [],
      "name": "unpause",
      "outputs": [],
      "stateMutability": "nonpayable",
      "type": "function"
    },
    {
      "inputs": [
        {
          "internalType": "address",
          "name": "newImplementation",
          "type": "address"
        }
      ],
      "name": "upgradeTo",
      "outputs": [],
      "stateMutability": "nonpayable",
      "type": "function"
    },
    {
      "inputs": [
        {
          "internalType": "address",
          "name": "newImplementation",
          "type": "address"
        },
        {
          "internalType": "bytes",
          "name": "data",
          "type": "bytes"
        }
      ],
      "name": "upgradeToAndCall",
      "outputs": [],
      "stateMutability": "payable",
      "type": "function"
    },
    {
      "inputs": [
        {
          "internalType": "address",
          "name": "_collateral",
          "type": "address"
        },
        {
          "internalType": "uint256",
          "name": "_amount",
          "type": "uint256"
        }
      ],
      "name": "withdraw",
      "outputs": [],
      "stateMutability": "nonpayable",
      "type": "function"
    }
  ],
  "bytecode": "0x60a08060405234610031573060805261541f9081610037823960805181818161199801528181611ad0015261264c0152f35b600080fdfe608080604052600436101561001357600080fd5b600090813560e01c90816301ffc9a7146133a8575080630b0d3379146131535780631459457a14612bf357806315deef4b14612bcf5780631b57d1ac14612b83578063248a9ca314612b565780632558626d14612b2957806329553e9914612ab25780632cf41e2514612a805780632ecd3be414612a615780632f2ff15d146129ad57806336568abe1461290d5780633659cfe61461262557806336cc366b146125e15780633ab76e9f146125b95780633bf0a549146125915780633f4ba83a146124f357806344f7a1b0146124075780634509e6ae146123cc57806347e7ef241461222d5780634b2bc5df14611dc45780634f1ef28614611a5257806352d1902d1461197d57806352e7ce91146118e457806353640ac21461184f57806356d73568146118145780635c975abb146117f05780636aa3f86c146117b75780636ad9f9df1461179357806375b238fc1461175857806375c038b7146116e157806378c5266b146116855780637adbf973146116135780637dc0d1d0146115eb5780638456cb591461158f5780638b2e1eaa1461153b57806391d14854146114ee5780639df8cc7b1461149f578063a217fddf14611483578063a3f4df7e1461142d578063a7f0e23114611403578063a9824931146113e1578063aa3b3a1e14611388578063aca25f9a14611364578063aed0bf881461130b578063b140bf03146112ec578063b358189814611294578063b3593f2014611271578063b613999214611262578063b7f85d0f146111d4578063ba5a2d33146110eb578063be281f671461109a578063c29611f714611049578063c99d3a0614610ef1578063caca550f14610e93578063cd82b76e14610e49578063d547741f14610e0b578063d74fbae914610d80578063db46f70214610d22578063ec3b8f1a14610cfe578063edc280c114610cda578063eeb97d3b14610c82578063ef9fb99114610959578063f0a4d9e214610920578063f3fef3a3146106ba578063f43100cf1461068c578063f6b911bc14610438578063fca3508b14610414578063fd1e8c85146103e6578063fe35ea95146103ba578063ffa1ad74146103605763ffd10e071461033957600080fd5b3461035d57602036600319011261035d5761035a610355613430565b613fe1565b80f35b80fd5b503461035d578060031936011261035d576103b660405161038081613554565b600581527f302e332e30000000000000000000000000000000000000000000000000000000602082015260405191829182613673565b0390f35b503461035d57602036600319011261035d5760206103de6103d9613430565b614d3d565b604051908152f35b503461035d57604036600319011261035d5761035a610403613430565b61040b6138fc565b60243590614689565b503461035d57602036600319011261035d5760206103de610433613430565b6151c0565b503461035d576104473661369f565b61044f61413c565b61045761418d565b6104608361470a565b61046a3384614887565b6001600160a01b03918261016254169360405163b3596f0760e01b8152604081602481888716998a60048301525afa8015610681578790610641575b6104c991506104c360206104bb835188613e19565b920151614481565b9061448f565b936104d482336150d7565b8581101561063957915b670de0b6b3a76400009283810290808204851490151715610625579261051681939261050c898c989761448f565b9384911698613e19565b04863b1561062157604051632770a7eb60e21b815233600482015260248101919091528481604481838b5af1908115610616578591610602575b505061055c9085613e19565b0490843b156105fe57604051637d9e4b0960e11b81526001600160a01b039190911660048201523360248201526044810191909152818160648183885af180156105f3576105db575b50506040519081527ff8a861f822ed8ac8743e429937c8bb8952ca8617a40319ef7fde892039aac12860203392a4600160fb5580f35b6105e490613524565b6105ef5783386105a5565b8380fd5b6040513d84823e3d90fd5b8280fd5b61060b90613524565b6105ef578338610550565b6040513d87823e3d90fd5b8480fd5b602489634e487b7160e01b81526011600452fd5b5084916104de565b5060403d60401161067a575b610657818361358c565b810190604081830312610676576104c99161067191614448565b6104a6565b8780fd5b503d61064d565b6040513d89823e3d90fd5b503461035d57604036600319011261035d5761035a6106a9613430565b6106b16136d4565b602435906145f8565b503461035d57604036600319011261035d576106d4613430565b6024356106df61413c565b6106e761418d565b3383526101656020908082526001600160a01b03604086209416938460005282526040600020548381106108dc578361071f91614036565b903386528252604085208460005282526040600020558215600014610800578147106107bc5783808380156107b2575b8280929181923390f1156107a7577f9b1bfa7fa9ee420a16e124f794c35ac9f90472acc99140eb2f6447c714cad8eb905b61079661078c33614cbb565b6101615410614358565b6040519283523392a3600160fb5580f35b6040513d85823e3d90fd5b6108fc915061074f565b6064906040519062461bcd60e51b82526004820152601860248201527f496e73756666696369656e74204554482062616c616e636500000000000000006044820152fd5b6040516370a0823160e01b81523060048201528181602481875afa801561061657839186916108a6575b5010610862577f9b1bfa7fa9ee420a16e124f794c35ac9f90472acc99140eb2f6447c714cad8eb9061085d8333866143a3565b610780565b6064906040519062461bcd60e51b82526004820152601a60248201527f496e73756666696369656e742045524332302062616c616e63650000000000006044820152fd5b809250838092503d83116108d5575b6108bf818361358c565b810103126108d0578290513861082a565b600080fd5b503d6108b5565b6064836040519062461bcd60e51b82526004820152601460248201527f496e73756666696369656e742062616c616e63650000000000000000000000006044820152fd5b503461035d57602036600319011261035d5760406020916001600160a01b03610947613430565b16815261016d83522054604051908152f35b503461035d576109683661369f565b61097183613fe1565b61097961413c565b61098161418d565b6001600160a01b038084169283865260209161016683526002604088206109ab60ff8254166143fd565b3360005201835260ff6040600020541615610c3e57604051957f9f087dd60000000000000000000000000000000000000000000000000000000087528183169687600482015284816024818a5afa908115610c33578991610c06575b5015610bc2576040889392610a2883610a2160249561470a565b3390614887565b610162541681519283809263b3596f0760e01b82528b60048301525afa80156107a7578390610b86575b610a6691506104c3856104bb835189613e19565b853b156105fe576040517f40c10f1900000000000000000000000000000000000000000000000000000000815233600482015260248101919091528281604481838a5af19081156107a7578391610b72575b5050843b15610b6e576040517f5bf0abbc0000000000000000000000000000000000000000000000000000000081526001600160a01b0391909116600482015233602482015260448101849052818160648183895af180156105f357610b5a575b50507f65adeb76912378393e600cb6f64f3310842a42e1eae86273dc775d0c47a0f2dc90610b4961078c33614cbb565b6040519283523392a4600160fb5580f35b610b6390613524565b610621578438610b19565b5080fd5b610b7b90613524565b610b6e578138610ab8565b5060403d604011610bbb575b610b9c818361358c565b8101906040818303126105ef57610a6691610bb691614448565b610a52565b503d610b92565b6064846040519062461bcd60e51b82526004820152601160248201527f53796e7468206e6f7420656e61626c65640000000000000000000000000000006044820152fd5b610c269150853d8711610c2c575b610c1e818361358c565b8101906141e2565b38610a07565b503d610c14565b6040513d8b823e3d90fd5b6064836040519062461bcd60e51b82526004820152601b60248201527f4163636f756e74206e6f7420696e2074726164696e6720706f6f6c00000000006044820152fd5b503461035d57602036600319011261035d576040906001600160a01b03610ca7613430565b16815261016760205220600160ff825416910154906103b660405192839283602090939291936040810194151581520152565b503461035d57602036600319011261035d5760206103de610cf9613430565b615047565b503461035d57602036600319011261035d5760206103de610d1d613430565b614e7b565b503461035d57602036600319011261035d576004359061016990815483101561035d5760206001600160a01b0384846000527fbd88e1fd0aa5f3038c0cd2a68644e2d11f4e4e7e3693adba414318f2127ca426015416604051908152f35b503461035d57604036600319011261035d57610d9a613430565b7f5d3499d6e736144c38c9b359bc39a19d214790ce4b72f63523d104f98af5a99a6020602435610dc86136d4565b610df36001600160a01b038516948587526101668452610dee60ff6040892054166143fd565b61470a565b83855261016a8252806040862055604051908152a280f35b503461035d57604036600319011261035d5761035a600435610e2b613446565b9080845260c9602052610e446001604086200154613a48565b613b58565b503461035d57602036600319011261035d57604080916001600160a01b03610e6f613430565b16815261016b60205220548151906001600160e01b038116825260e01c6020820152f35b503461035d57602036600319011261035d576004359061016890815483101561035d5760206001600160a01b0384846000527f8077777ae4769de06cbfd1c0b8b1f653b51ec156d91a9aca16a4102f19e03d9e015416604051908152f35b503461035d57602036600319011261035d57610f0b613430565b610f136138fc565b6001600160a01b0390811680835261016760205260408320805460ff19169055825b610169805480831015611041578484610f4d856134d5565b929054600393841b1c1614610f6d57505050610f6890614027565b610f35565b9394919360001993929184810190811161102d5791610f9f91610f93610fc495946134d5565b9054911b1c16916134d5565b90919082549060031b916001600160a01b039283811b93849216901b16911916179055565b81548015611017570190610fef610fda836134d5565b6001600160a01b0382549160031b1b19169055565b557fd89d2ee68ab04dca0193f48a4aff55e20fa5ec0429a8a8c1c51b8dad6178a5938280a280f35b634e487b7160e01b600052603160045260246000fd5b602488634e487b7160e01b81526011600452fd5b505050505080f35b503461035d57604036600319011261035d57611063613430565b604061106d613446565b926001600160a01b03809316815261016c6020522091166000526020526020604060002054604051908152f35b503461035d57604036600319011261035d576110b4613430565b60406110be613446565b926001600160a01b0380931681526101656020522091166000526020526020604060002054604051908152f35b503461035d57602080600319360112610b6e576001600160a01b039081611110613430565b1690818452610166815260026040852001336000528152604060002060ff198154169055835b338552610163808352604086205482101561104157848461115a8460408a2061350c565b929054600393841b1c161461117957505061117490614027565b611136565b90949192935033865284845260408620604087205490600019820191821161102d57916111ae6111c4959492610f9f9461350c565b9054911b1c16913387528585526040872061350c565b3383525261035a60408220614043565b503461035d57602080600319360112610b6e576001600160a01b0390816111f9613430565b1690818452610167815260026040852001336000528152604060002060ff198154169055835b33855261016480835260408620548210156110415784846112438460408a2061350c565b929054600393841b1c161461117957505061125d90614027565b61121f565b503461035d576109713661369f565b503461035d578060031936011261035d576020604051670de0b6b3a76400008152f35b503461035d57602036600319011261035d576040906001600160a01b036112b9613430565b16815261016660205220600160ff825416910154906103b660405192839283602090939291936040810194151581520152565b503461035d578060031936011261035d57602061016154604051908152f35b503461035d57604036600319011261035d57611325613430565b60026040611331613446565b936001600160a01b03809416815261016660205220019116600052602052602060ff604060002054166040519015158152f35b503461035d57602036600319011261035d5760206103de611383613430565b614d01565b503461035d57604036600319011261035d576113a2613430565b600260406113ae613446565b936001600160a01b03809416815261016760205220019116600052602052602060ff604060002054166040519015158152f35b503461035d57602036600319011261035d5761035a6113fe613430565b614060565b503461035d578060031936011261035d5760206040516ec097ce7bc90715b34b9f10000000008152f35b503461035d578060031936011261035d576103b660405161144d81613554565b600781527f53796e7468655800000000000000000000000000000000000000000000000000602082015260405191829182613673565b503461035d578060031936011261035d57602090604051908152f35b503461035d57602036600319011261035d577fae372d52810608dca793b2c8d4a85801f12f42beef5d474998c67936a4c277bd60206004356114df6138fc565b8061016055604051908152a180f35b503461035d57604036600319011261035d576001600160a01b036040611512613446565b92600435815260c9602052209116600052602052602060ff604060002054166040519015158152f35b503461035d57604036600319011261035d5767ffffffffffffffff6004358181116105fe5761156e9036906004016135c6565b6024359182116105fe5761158961035a9236906004016135c6565b90614b03565b503461035d578060031936011261035d576115a86138fc565b6115b061413c565b61012d600160ff198254161790557f62e78cea01bee320cd4e420270b5ea74000d11b0c9f74754ebdbfc544b05a2586020604051338152a180f35b503461035d578060031936011261035d5760206001600160a01b036101625416604051908152f35b503461035d57602036600319011261035d576001600160a01b03611635613430565b61163d6138fc565b166101628173ffffffffffffffffffffffffffffffffffffffff198254161790557ff261845a790fe29bbd6631e2ca4a5bdc83e6eed7c3271d9590d97287e00e91238280a280f35b503461035d57604036600319011261035d5761169f613430565b602435916001600160a01b0380921681526101636020526040812090815484101561035d57506020926116d19161350c565b9190546040519260031b1c168152f35b503461035d57602036600319011261035d576001600160a01b03611703613430565b61170b6138fc565b1680825261016760205260ff604083205416611725575080f35b60408220805460ff191690557f192895f9a14975ce177e9612fd4f4459e31169d79cb650596bcce0622bd70a928280a280f35b503461035d578060031936011261035d5760206040517fa49807205ce4d355092ef5a8a18f56e8913cf4a201fbe287825b095693c217758152f35b503461035d57602036600319011261035d5760206103de6117b2613430565b614cbb565b503461035d57602036600319011261035d5760406020916001600160a01b036117de613430565b16815261016a83522054604051908152f35b503461035d578060031936011261035d57602060ff61012d54166040519015158152f35b503461035d578060031936011261035d5760206040517f6077685936c8169d09204a1d97db12e41713588c38e1d29a61867d3dcee98aff8152f35b503461035d576020908160031936011261035d5761186b613430565b60405161016880548083526000918252828601959293927f8077777ae4769de06cbfd1c0b8b1f653b51ec156d91a9aca16a4102f19e03d9e92905b8282106118c4578661035a87876118bf828d038361358c565b614a83565b83546001600160a01b0316885296870196600193840193909101906118a6565b503461035d576020908160031936011261035d57611900613430565b815b6101685481101561195e5780611954836001600160a01b0361192661195995613488565b90549060031b1c16808752610166885261194660ff604089205416614ab8565b61194f8161470a565b614887565b614027565b611902565b50906001600160a01b0360409216815261016d83522054604051908152f35b503461035d578060031936011261035d576001600160a01b037f00000000000000000000000000000000000000000000000000000000000000001630036119e85760206040517f360894a13ba1a3210667c828492db98dca3e2076cc3735a920a3ca505d382bbc8152f35b608460405162461bcd60e51b815260206004820152603860248201527f555550535570677261646561626c653a206d757374206e6f742062652063616c60448201527f6c6564207468726f7567682064656c656761746563616c6c00000000000000006064820152fd5b50604036600319011261035d57611a67613430565b90602491823567ffffffffffffffff81116105fe57366023820112156105fe57806004013590611a9682613634565b611aa3604051918261358c565b8281526020928382019236888383010111611dc057818792898793018637830101526001600160a01b03807f00000000000000000000000000000000000000000000000000000000000000001690611afd82301415613bcf565b611b2c7f360894a13ba1a3210667c828492db98dca3e2076cc3735a920a3ca505d382bbc928284541614613c40565b611b346138fc565b7f4910fdfa16fed3260ed0e7147f7cc6da11a60208b5b9406d12a635614ffd91435460ff1615611b6e57505050505061035a919250613cb1565b8596949616906040516352d1902d60e01b81528781600481865afa60009181611d91575b50611c0057608488602e8b6040519262461bcd60e51b845260048401528201527f45524331393637557067726164653a206e657720696d706c656d656e7461746960448201527f6f6e206973206e6f7420555550530000000000000000000000000000000000006064820152fd5b979192939496959703611d3c57611c1687613cb1565b604051917fbc7cd75a20ee27fd9adebab32041f755214dbc6bffa90cc0225b39da2e5c2d3b600080a2825115801590611d34575b611c59575b5050505050905080f35b863b15611ce5575050611cd99394600092839251915af4611c78613d6b565b907f416464726573733a206c6f772d6c6576656c2064656c65676174652063616c6c60405193611ca785613538565b602785528401527f206661696c6564000000000000000000000000000000000000000000000000006040840152613d9b565b50803880808080611c4f565b9060266084928662461bcd60e51b845260048401528201527f416464726573733a2064656c65676174652063616c6c20746f206e6f6e2d636f6044820152651b9d1c9858dd60d21b6064820152fd5b506001611c4a565b8460296084926040519262461bcd60e51b845260048401528201527f45524331393637557067726164653a20756e737570706f727465642070726f786044820152681a58589b195555525160ba1b6064820152fd5b90918982813d8311611db9575b611da8818361358c565b8101031261035d5750519038611b92565b503d611d9e565b8680fd5b503461035d5760a036600319011261035d57611dde613430565b611de6613446565b611dee61345c565b611df6613472565b92611dff61413c565b611e0761418d565b611e1081614cbb565b670de0b6b3a76400008110156121e957156121a5578491611e3460643515156144af565b611e3d82614d01565b611eab84604051611e4d81613538565b600281526040366020830137611e62816144fa565b6001600160a01b0386169052611e7781614507565b6001600160a01b038a1690526001600160a01b036101625416604051808095819463053c81b560e01b8352600483016145b4565b03915afa908115610616578591612183575b506001600160a01b0387168552610167602052600260408620611ee360ff8254166140a6565b6001600160a01b03861660005201602052611f0560ff604060002054166140f1565b6001600160a01b0384168552610165602052604085206001600160a01b03881660005260205260406000205495611f9f611f91670de0b6b3a7640000611f7f86611f7a611f5e611f54896144fa565b5151606435613e19565b611f746020611f6c8b614507565b510151614481565b90613e19565b613e19565b04611f8985614507565b51519061448f565b6104c36020611f6c866144fa565b9687811061217b575b90611fbb886001600160a01b0393614036565b828716885261016560205260408820838b16600052602052604060002055169361201161200384611ffe611ff9611ff187614507565b51518c613e19565b613de6565b61448f565b6104c36020611f6c86614507565b90853b15611dc057604051632770a7eb60e21b81526001600160a01b039190911660048201526024810191909152858160448183895af180156121705787918791612159575b50506020611f6c61209c6120936120a296611ffe611ff96120866104c39861207e8b614507565b515190613e19565b611f7488611f6c8c6144fa565b611f89866144fa565b93614507565b823b156105ef57604051637d9e4b0960e11b81526001600160a01b0392909216600483015233602483015260448201529082908290606490829084905af180156105f357612145575b505061211990338452610165602052604084206001600160a01b038416600052602052604060002054613e2c565b903383526101656020526001600160a01b03604084209116600052602052604060002055600160fb5580f35b61214e90613524565b6105fe5782386120eb565b612164919250613524565b61062157858538612057565b6040513d88823e3d90fd5b965086611fa8565b61219f91503d8087833e612197818361358c565b81019061452b565b38611ebd565b606460405162461bcd60e51b815260206004820152601d60248201527f4163636f756e7420697320616c7265616479206c6971756964617465640000006044820152fd5b606460405162461bcd60e51b815260206004820152601560248201527f4865616c746820666163746f722061626f7665203100000000000000000000006044820152fd5b50604036600319011261035d57612242613430565b6001600160a01b036024359161225661413c565b61225e61418d565b16908183526020610167815260026040852061227d60ff8254166140a6565b3360005201815261229560ff604060002054166140f1565b826123515781340361230d577f5548c837ab068cf56a2c2479df0882a4922fd203edb7517321831d95078c5f62905b338552610165808252604086208560005282526122e684604060002054613e2c565b903387528252604086208560005282526040600020556040519283523392a3600160fb5580f35b6064906040519062461bcd60e51b82526004820152601460248201527f496e636f72726563742045544820616d6f756e740000000000000000000000006044820152fd5b6040517f23b872dd0000000000000000000000000000000000000000000000000000000082820152336024820152306044820152606480820184905281527f5548c837ab068cf56a2c2479df0882a4922fd203edb7517321831d95078c5f6291906123c7906123c160848261358c565b856141fa565b6122c4565b503461035d578060031936011261035d5760206040517f3bb181d5689164b4d72d34b056228c95b51f3fb0f6dbdb7f9ddba5f91c6821dd8152f35b503461035d57602036600319011261035d57612421613430565b6124296136d4565b6001600160a01b0390811680835261016660205260408320805460ff19169055825b61016880548083101561104157848461246385613488565b929054600393841b1c16146124835750505061247e90614027565b61244b565b9394919360001993929184810190811161102d5791610f9f916124a96124b59594613488565b9054911b1c1691613488565b815480156110175701906124cb610fda83613488565b557fd7bc7aa3441295e542e42197effcd361e36921102724a91445e9dd47f19ddcbc8280a280f35b503461035d578060031936011261035d5761250c6138fc565b61012d805460ff81161561254d5760ff191690557f5db9ee0a495bf2e6ff9c91a7834c1ba4fdd244a5e8aa4e537bd38aeae4b073aa6020604051338152a180f35b606460405162461bcd60e51b815260206004820152601460248201527f5061757361626c653a206e6f74207061757365640000000000000000000000006044820152fd5b503461035d578060031936011261035d5760206001600160a01b0361015f5416604051908152f35b503461035d578060031936011261035d5760206001600160a01b0361016e5416604051908152f35b503461035d57604036600319011261035d576125fb613430565b6024359067ffffffffffffffff82116105fe5761261f61035a9236906004016135c6565b90614a83565b503461035d57602080600319360112610b6e57612640613430565b906001600160a01b03807f00000000000000000000000000000000000000000000000000000000000000001661267881301415613bcf565b6126a77f360894a13ba1a3210667c828492db98dca3e2076cc3735a920a3ca505d382bbc918383541614613c40565b6126af6138fc565b604051908382019282841067ffffffffffffffff8511176128f7578360405286835260ff7f4910fdfa16fed3260ed0e7147f7cc6da11a60208b5b9406d12a635614ffd9143541660001461270b57505050505061035a90613cb1565b8596949516906040516352d1902d60e01b81528681600481865afa600091816128c8575b5061279e576084876040519062461bcd60e51b82526004820152602e60248201527f45524331393637557067726164653a206e657720696d706c656d656e7461746960448201527f6f6e206973206e6f7420555550530000000000000000000000000000000000006064820152fd5b95949503612872576127af86613cb1565b604051907fbc7cd75a20ee27fd9adebab32041f755214dbc6bffa90cc0225b39da2e5c2d3b600080a281511580159061286a575b6127f1575b50505050905080f35b853b1561281a575061280f9394600092839251915af4611c78613d6b565b5080388080806127e8565b808462461bcd60e51b608493526004820152602660248201527f416464726573733a2064656c65676174652063616c6c20746f206e6f6e2d636f6044820152651b9d1c9858dd60d21b6064820152fd5b5060006127e3565b6084846040519062461bcd60e51b82526004820152602960248201527f45524331393637557067726164653a20756e737570706f727465642070726f786044820152681a58589b195555525160ba1b6064820152fd5b90918882813d83116128f0575b6128df818361358c565b8101031261035d575051903861272f565b503d6128d5565b634e487b7160e01b600052604160045260246000fd5b503461035d57604036600319011261035d57612927613446565b336001600160a01b038216036129435761035a90600435613b58565b608460405162461bcd60e51b815260206004820152602f60248201527f416363657373436f6e74726f6c3a2063616e206f6e6c792072656e6f756e636560448201527f20726f6c657320666f722073656c6600000000000000000000000000000000006064820152fd5b503461035d57604036600319011261035d576004356129ca613446565b81835260c96020526129e26001604085200154613a48565b81835260c96020526001600160a01b03604084209116908160005260205260ff6040600020541615612a12578280f35b81835260c960205260408320816000526020526040600020600160ff1982541617905533917f2f8788117e7eff1d82e926ec794901d17c78024a50270940304540a733656f0d8480a438808280f35b503461035d578060031936011261035d57602061016054604051908152f35b50604036600319011261035d57612a95613430565b6001600160a01b0360243591612aaa81614060565b61225661413c565b503461035d57602036600319011261035d576001600160a01b03612ad4613430565b612adc6136d4565b1680825261016660205260ff604083205416612af6575080f35b60408220805460ff191690557f40df287591e0c328c46e4a6e6a392c11257b2068c75575828d622838c83efd3a8280a280f35b503461035d57604036600319011261035d5760206103de612b48613430565b612b50613446565b906150d7565b503461035d57602036600319011261035d5760016040602092600435815260c98452200154604051908152f35b503461035d57604036600319011261035d57612b9d613430565b602435916001600160a01b0380921681526101646020526040812090815484101561035d57506020926116d19161350c565b503461035d57602036600319011261035d5760206103de612bee613430565b614fe9565b503461035d5760a036600319011261035d57612c0d613430565b612c15613446565b90612c1e61345c565b91606435906001600160a01b038083168093036108d057612c3d613472565b9186549260ff8460081c161595868097613146575b801561312f575b156130c55760ff198581166001178a5594876130b4575b50612caa60ff8a5460081c16612c8581613f48565b612c8e81613f48565b612c9781613f48565b600160fb55612ca581613f48565b613f48565b61012d85815416905573ffffffffffffffffffffffffffffffffffffffff19908461015f91168282541617905567120a871cc0020000610161558361016e92169082541617905586805260209560c98752826040892092169182600052875260ff6040600020541615613069575b7fa49807205ce4d355092ef5a8a18f56e8913cf4a201fbe287825b095693c21775928360005260c98852600160406000200154926000600160408220015560007fbd79b86ffe0ab8e8776151514217cd7cacd52c909f66475c3af44e129f0b00ff9486868380a4848a5260c9895260408a2081600052895260ff604060002054161561301d575b507f6077685936c8169d09204a1d97db12e41713588c38e1d29a61867d3dcee98aff958660005260c989526000600160408220015481600160408220015588868380a4868a5260c9895260408a2081600052895260ff6040600020541615612fd1575b5060007f3bb181d5689164b4d72d34b056228c95b51f3fb0f6dbdb7f9ddba5f91c6821dd9384825260c98a52846001604084200154918360016040822001558380a482895260c988526040892091169081600052875260ff6040600020541615612f85575b505080865260c985526040862033600052855260ff6040600020541615612f38575b5081855260c984526040852033600052845260ff6040600020541615612eea575b5050612eb4575080f35b7f7f26b83ff96e1f2b6a682f133852f6798a09c465da95921460cefb38474024989061ff0019835416835560405160018152a180f35b81855260c98452604085203360005284526001604060002091825416179055339033907f2f8788117e7eff1d82e926ec794901d17c78024a50270940304540a733656f0d8680a43880612eaa565b80865260c98552604086203360005285526040600020600183825416179055339033907f2f8788117e7eff1d82e926ec794901d17c78024a50270940304540a733656f0d8880a438612e89565b81885260c9875260408820816000528752604060002060018582541617905533917f2f8788117e7eff1d82e926ec794901d17c78024a50270940304540a733656f0d8980a43880612e67565b868a5260c9895260408a2081600052895260406000206001878254161790553390877f2f8788117e7eff1d82e926ec794901d17c78024a50270940304540a733656f0d8c80a438612e02565b848a5260c9895260408a2081600052895260406000206001878254161790553390857f2f8788117e7eff1d82e926ec794901d17c78024a50270940304540a733656f0d8c80a438612d9f565b87805260c987526040882082600052875260406000206001858254161790553382897f2f8788117e7eff1d82e926ec794901d17c78024a50270940304540a733656f0d8180a4612d18565b61ffff191661010117895538612c70565b608460405162461bcd60e51b815260206004820152602e60248201527f496e697469616c697a61626c653a20636f6e747261637420697320616c72656160448201527f647920696e697469616c697a65640000000000000000000000000000000000006064820152fd5b50303b158015612c595750600160ff861614612c59565b50600160ff861610612c52565b503461035d57608036600319011261035d5761316d613430565b613175613446565b61317d61345c565b6064359261318961413c565b61319161418d565b6001600160a01b039384808416941694848614613364576131b38215156144af565b613206876040516131c381613538565b600281526040366020830137886131d9826144fa565b52876131e482614507565b52836101625416604051808095819463053c81b560e01b8352600483016145b4565b03915afa80156133595761325a91899161333f575b506104c36020611f6c61325461324b61323e613236876144fa565b51518a613e19565b611f7485611f6c89614507565b611f8986614507565b936144fa565b921693843b15611dc057604051907f4798ce5b0000000000000000000000000000000000000000000000000000000082528660048301526024820152336044820152816064820152826084820152868160a48183895af180156106815761330a575b50604080516001600160a01b03949094168452602084019190915282015233907f22bfc3d7b9d92e3f2b35d94c61a1a9f1c86d0793bb7645294eaf8beb03c0347990606090a4600160fb5580f35b956133377f22bfc3d7b9d92e3f2b35d94c61a1a9f1c86d0793bb7645294eaf8beb03c03479939297613524565b9590916132bc565b61335391503d808b833e612197818361358c565b3861321b565b6040513d8a823e3d90fd5b606460405162461bcd60e51b815260206004820152601360248201527f53796e74687320617265207468652073616d65000000000000000000000000006044820152fd5b905034610b6e576020366003190112610b6e576004356001600160e01b031981168091036105fe57602092507f7965db0b000000000000000000000000000000000000000000000000000000008114908115613406575b5015158152f35b7f01ffc9a700000000000000000000000000000000000000000000000000000000915014386133ff565b600435906001600160a01b03821682036108d057565b602435906001600160a01b03821682036108d057565b604435906001600160a01b03821682036108d057565b608435906001600160a01b03821682036108d057565b61016880548210156134bf576000527f8077777ae4769de06cbfd1c0b8b1f653b51ec156d91a9aca16a4102f19e03d9e0190600090565b634e487b7160e01b600052603260045260246000fd5b61016980548210156134bf576000527fbd88e1fd0aa5f3038c0cd2a68644e2d11f4e4e7e3693adba414318f2127ca4260190600090565b80548210156134bf5760005260206000200190600090565b67ffffffffffffffff81116128f757604052565b6060810190811067ffffffffffffffff8211176128f757604052565b6040810190811067ffffffffffffffff8211176128f757604052565b6080810190811067ffffffffffffffff8211176128f757604052565b90601f8019910116810190811067ffffffffffffffff8211176128f757604052565b67ffffffffffffffff81116128f75760051b60200190565b81601f820112156108d0578035916135dd836135ae565b926135eb604051948561358c565b808452602092838086019260051b8201019283116108d0578301905b828210613615575050505090565b81356001600160a01b03811681036108d0578152908301908301613607565b67ffffffffffffffff81116128f757601f01601f191660200190565b60005b8381106136635750506000910152565b8181015183820152602001613653565b604091602082526136938151809281602086015260208686019101613650565b601f01601f1916010190565b60609060031901126108d0576001600160a01b039060043582811681036108d0579160243590811681036108d0579060443590565b3360009081527fd4e781d79508cd7288b0dc12f8a54f50b0d15d7b669a4bfe9db5db37fbdf17bb60209081526040808320549092907f6077685936c8169d09204a1d97db12e41713588c38e1d29a61867d3dcee98aff9060ff16156137395750505050565b61374233613e4a565b84519161374e83613570565b604283528483019360603686378351156138e857603085538351906001918210156138e85790607860218601536041915b81831161387a57505050613838576137da93859361381e9361380f604894613834995198857f416363657373436f6e74726f6c3a206163636f756e74200000000000000000008b978801528251928391603789019101613650565b8401917f206973206d697373696e6720726f6c6520000000000000000000000000000000603784015251809386840190613650565b0103602881018552018361358c565b5191829162461bcd60e51b835260048301613673565b0390fd5b60648486519062461bcd60e51b825280600483015260248201527f537472696e67733a20686578206c656e67746820696e73756666696369656e746044820152fd5b909192600f811660108110156138d4576f181899199a1a9b1b9c1cb0b131b232b360811b901a6138aa8588613e39565b5360041c9280156138c05760001901919061377f565b602482634e487b7160e01b81526011600452fd5b602483634e487b7160e01b81526032600452fd5b80634e487b7160e01b602492526032600452fd5b3360009081527f56eafcfe4e056e5ee1febf92b17728968883505f0e8dc799e4f43119d826ca8560209081526040808320549092907fa49807205ce4d355092ef5a8a18f56e8913cf4a201fbe287825b095693c217759060ff16156139615750505050565b61396a33613e4a565b84519161397683613570565b604283528483019360603686378351156138e857603085538351906001918210156138e85790607860218601536041915b818311613a0257505050613838576137da93859361381e9361380f604894613834995198857f416363657373436f6e74726f6c3a206163636f756e74200000000000000000008b978801528251928391603789019101613650565b909192600f811660108110156138d4576f181899199a1a9b1b9c1cb0b131b232b360811b901a613a328588613e39565b5360041c9280156138c0576000190191906139a7565b600081815260209060c98252604092838220338352835260ff848320541615613a715750505050565b613a7a33613e4a565b845191613a8683613570565b604283528483019360603686378351156138e857603085538351906001918210156138e85790607860218601536041915b818311613b1257505050613838576137da93859361381e9361380f604894613834995198857f416363657373436f6e74726f6c3a206163636f756e74200000000000000000008b978801528251928391603789019101613650565b909192600f811660108110156138d4576f181899199a1a9b1b9c1cb0b131b232b360811b901a613b428588613e39565b5360041c9280156138c057600019019190613ab7565b9060009180835260c96020526001600160a01b036040842092169182845260205260ff604084205416613b8a57505050565b80835260c9602052604083208284526020526040832060ff1981541690557ff6391f5c32d9c69d2a47ea670b442974b53935d1edc7fd64eb21e047a839171b339380a4565b15613bd657565b608460405162461bcd60e51b815260206004820152602c60248201527f46756e6374696f6e206d7573742062652063616c6c6564207468726f7567682060448201527f64656c656761746563616c6c00000000000000000000000000000000000000006064820152fd5b15613c4757565b608460405162461bcd60e51b815260206004820152602c60248201527f46756e6374696f6e206d7573742062652063616c6c6564207468726f7567682060448201527f6163746976652070726f787900000000000000000000000000000000000000006064820152fd5b803b15613d01576001600160a01b037f360894a13ba1a3210667c828492db98dca3e2076cc3735a920a3ca505d382bbc911673ffffffffffffffffffffffffffffffffffffffff19825416179055565b608460405162461bcd60e51b815260206004820152602d60248201527f455243313936373a206e657720696d706c656d656e746174696f6e206973206e60448201527f6f74206120636f6e7472616374000000000000000000000000000000000000006064820152fd5b3d15613d96573d90613d7c82613634565b91613d8a604051938461358c565b82523d6000602084013e565b606090565b909160609115613daa57505090565b613db5919392613db7565b565b805190925015613dca5750805190602001fd5b6138349060405191829162461bcd60e51b835260048301613673565b90670de0b6b3a764000091828102928184041490151715613e0357565b634e487b7160e01b600052601160045260246000fd5b81810292918115918404141715613e0357565b91908201809211613e0357565b9081518110156134bf570160200190565b60405190613e5782613538565b602a82526020820160403682378251156134bf576030905381516001908110156134bf57607860218401536029905b808211613eda575050613e965790565b606460405162461bcd60e51b815260206004820152602060248201527f537472696e67733a20686578206c656e67746820696e73756666696369656e746044820152fd5b9091600f81166010811015613f33576f181899199a1a9b1b9c1cb0b131b232b360811b901a613f098486613e39565b5360041c918015613f1e576000190190613e86565b60246000634e487b7160e01b81526011600452fd5b60246000634e487b7160e01b81526032600452fd5b15613f4f57565b608460405162461bcd60e51b815260206004820152602b60248201527f496e697469616c697a61626c653a20636f6e7472616374206973206e6f74206960448201527f6e697469616c697a696e670000000000000000000000000000000000000000006064820152fd5b90815491680100000000000000008310156128f75782610f9f916001613db59501815561350c565b613db5906001600160a01b0381166000526101666020526002604060002001336000526020526040600020600160ff198254161790556101636020526040600020613fb9565b6000198114613e035760010190565b91908203918211613e0357565b8054801561101757600019019061405d610fda838361350c565b55565b613db5906001600160a01b0381166000526101676020526002604060002001336000526020526040600020600160ff198254161790556101646020526040600020613fb9565b156140ad57565b606460405162461bcd60e51b815260206004820152601660248201527f436f6c6c61746572616c206e6f7420656e61626c6564000000000000000000006044820152fd5b156140f857565b606460405162461bcd60e51b815260206004820152601960248201527f4163636f756e74206e6f7420696e20636f6c6c61746572616c000000000000006044820152fd5b60ff61012d541661414957565b606460405162461bcd60e51b815260206004820152601060248201527f5061757361626c653a20706175736564000000000000000000000000000000006044820152fd5b600260fb541461419e57600260fb55565b606460405162461bcd60e51b815260206004820152601f60248201527f5265656e7472616e637947756172643a207265656e7472616e742063616c6c006044820152fd5b908160209103126108d0575180151581036108d05790565b604051614258916001600160a01b031661421382613554565b6000806020958685527f5361666545524332303a206c6f772d6c6576656c2063616c6c206661696c656487860152868151910182855af1614252613d6b565b916142e7565b8051908161426557505050565b82806142759383010191016141e2565b1561427d5750565b6084906040519062461bcd60e51b82526004820152602a60248201527f5361666545524332303a204552433230206f7065726174696f6e20646964206e60448201527f6f742073756363656564000000000000000000000000000000000000000000006064820152fd5b91926060911561434b5750508151156142fe575090565b3b156143075790565b606460405162461bcd60e51b815260206004820152601d60248201527f416464726573733a2063616c6c20746f206e6f6e2d636f6e74726163740000006044820152fd5b909392613db59250613db7565b1561435f57565b606460405162461bcd60e51b815260206004820152601e60248201527f4865616c746820666163746f722062656c6f77207361666543526174696f00006044820152fd5b6040517fa9059cbb0000000000000000000000000000000000000000000000000000000060208201526001600160a01b03929092166024830152604480830193909352918152613db5916143f860648361358c565b6141fa565b1561440457565b606460405162461bcd60e51b815260206004820152601860248201527f54726164696e6720706f6f6c206e6f7420656e61626c656400000000000000006044820152fd5b91908260409103126108d0576040516040810181811067ffffffffffffffff8211176128f7576040526020808294805184520151910152565b604d8111613e0357600a0a90565b8115614499570490565b634e487b7160e01b600052601260045260246000fd5b156144b657565b606460405162461bcd60e51b815260206004820152601d60248201527f416d6f756e74206d7573742062652067726561746572207468616e20300000006044820152fd5b8051156134bf5760200190565b8051600110156134bf5760400190565b80518210156134bf5760209160051b010190565b9060209182818303126108d05780519067ffffffffffffffff82116108d0570181601f820112156108d057805192614562846135ae565b936040936145728551968761358c565b818652828087019260061b850101938185116108d0578301915b84831061459c5750505050505090565b8386916145a98486614448565b81520192019161458c565b6020908160408183019282815285518094520193019160005b8281106145db575050505090565b83516001600160a01b0316855293810193928101926001016145cd565b6001600160a01b03811691826000526101666020526040600020805460ff81166146825782916001809260ff19161781550155610168908154680100000000000000008110156128f7577ffe83615d888076df1cf968a4c6694405f082fa2b2b353afde0af6438a9af7c0b93610f9f82602095600161467995019055613488565b604051908152a2565b5050505050565b6001600160a01b03811691826000526101676020526040600020805460ff81166146825782916001809260ff19161781550155610169908154680100000000000000008110156128f7577f0dabbae73ad87de9f00d48ce6bc2fdee3a04023481e61ba06071d8d35b56951d93610f9f826020956001614679950190556134d5565b6001600160a01b0316600081815260209061016b8252604081209261016a835260408220549061473e855460e01c42614036565b90811561487f5782156148575784600491604051928380926318160ddd60e01b82525afa94851561484c57849561481a575b50509061477c91613e19565b90821561480d576ec097ce7bc90715b34b9f1000000000918281029281840414901517156147f95750613db592916147b39161448f565b6001600160e01b03198254916147d36001600160e01b0391828516613e2c565b6001600160e01b0392909316921691909117164260e01b6001600160e01b031916179055565b80634e487b7160e01b602492526011600452fd5b9050613db59291506147b3565b9080929550813d8311614845575b614832818361358c565b810103126105fe57519261477c38614770565b503d614828565b6040513d86823e3d90fd5b505083546001600160e01b03164260e01b6001600160e01b0319161790935550613db5915050565b505050505050565b6001600160a01b03908116600081815261016b602090815260408083205461016c835281842095871680855295835281842080546001600160e01b039092169081905593979694959294939290801580614a12575b6149fc575b6148eb9084614036565b82516370a0823160e01b815282600482015286816024818b5afa9081156149f2578a916149a1575b50927f39830ba333221bc394b51f96c7ffa4b7a1081f4a18e6f8b63a2be77606ac232a9798996ec097ce7bc90715b34b9f100000000061495983959461499c9897613e19565b049783825261016d908181526149728a85852054613e2c565b94835252205551938493846040919493926001600160a01b03606083019616825260208201520152565b0390a2565b90508681813d83116149eb575b6149b8818361358c565b810103126149e757517f39830ba333221bc394b51f96c7ffa4b7a1081f4a18e6f8b63a2be77606ac232a614913565b8980fd5b503d6149ae565b84513d8c823e3d90fd5b506ec097ce7bc90715b34b9f10000000006148e1565b506ec097ce7bc90715b34b9f10000000008410156148dc565b9060405191828154918282526020928383019160005283600020936000905b828210614a6057505050613db59250038361358c565b85546001600160a01b031684526001958601958895509381019390910190614a4a565b90604051614a9081613554565b600181526020810160203682378151156134bf576001600160a01b03613db594169052614b03565b15614abf57565b606460405162461bcd60e51b815260206004820152601560248201527f6d61726b6574206d757374206265206c697374656400000000000000000000006044820152fd5b906000915b8151831015614b8c576001600160a01b039182614b258583614517565b51169485600052610166602052614b4360ff60406000205416614ab8565b614b4c8661470a565b60005b8351811015614b77578061195486614b6a614b729488614517565b511689614887565b614b4f565b509450915091614b8690614027565b91614b08565b91505060005b8151811015614c1157614c0c906001600160a01b0380614bb28386614517565b511681614bbf8487614517565b511660005261016d6020818152614bed604093846000205490614be061413c565b614be861418d565b614c15565b93600160fb55614bfd8689614517565b51166000525260002055614027565b614b92565b5050565b906001600160a01b0361015f5416916040516370a0823160e01b8152306004820152602081602481875afa908115614caf57600091614c7e575b508215159081614c73575b50614c655750905090565b614c6e926143a3565b600090565b905082111538614c5a565b906020823d8211614ca7575b81614c976020938361358c565b8101031261035d57505138614c4f565b3d9150614c8a565b6040513d6000823e3d90fd5b614ccd614cc782614e7b565b91615047565b8015614cf957670de0b6b3a764000091828102928184041490151715613e0357614cf69161448f565b90565b505060001990565b614ccd614d0d82614d3d565b91614fe9565b604051906040820182811067ffffffffffffffff8211176128f75760405260006020838281520152565b600090614d48614d13565b50816001600160a01b0393846101625416915b858416806000526020610164815260408060002054881015614e6f5788614d85898360002061350c565b90549060031b1c1681519363b3596f0760e01b855281600486015282856024818b5afa948515614e6457908b969594939291600095614e07575b50614dff95936104bb614df394614df997946104c39460005261016584528160002090600052835260002054845190613e19565b90613e2c565b95614027565b949050614d5b565b9095965082939491923d8511614e5d575b614e22818361358c565b810191848284031261035d5750614df9946104bb8d9895614df395614e4e614dff9a966104c396614448565b98509493509450509395614dbf565b503d614e18565b83513d6000823e3d90fd5b50505093509350505090565b90600091614e87614d13565b5082916001600160a01b0393846101625416905b858416806000526020610164815260408060002054881015614fdd5788614ec5898360002061350c565b90549060031b1c169080519363b3596f0760e01b855282600486015281856024818a5afa948515614fd257908b969594939291600095614f68575b50614f609593670de0b6b3a7640000614f57614df3956001614df999966104c396600052610165865280600020836000528652614f438160002054895190613e19565b926000526101678652600020015490613e19565b04920151614481565b949050614e9b565b9095965081929394913d8411614fcb575b614f83818361358c565b810191838284031261035d5750614df994670de0b6b3a7640000614f578e99966001614df397614fba614f609c986104c398614448565b9a5096955050955050509395614f00565b503d614f79565b82513d6000823e3d90fd5b50505093505092505090565b6000906001600160a01b03808216835261016360205261500b60408420614a2b565b835b815185101561503f5761503361503991614df38561502b8987614517565b5116876150d7565b94614027565b9361500d565b935050505090565b6000906001600160a01b039081811683526020916101638352604061506d818620614a2b565b93855b85518710156150cd576150c16150c791614df38860016150b8611ff98a6150b08f8261509c8289614517565b51166000526101668c528c60002096614517565b51168c6150d7565b9101549061448f565b96614027565b95615070565b9550505050505090565b906001600160a01b0390818116604051936318160ddd60e01b85526020938486600481865afa958615614caf57600096615191575b508515615186576024859260405194859384926370a0823160e01b84521660048301525afa928315614caf57600093615153575b5050614cf69291611f74611ffe926151c0565b8181949293943d831161517f575b61516b818361358c565b8101031261035d5750519080611f74615140565b503d615161565b505050505050600090565b90958582813d83116151b9575b6151a8818361358c565b8101031261035d575051943861510c565b503d61519e565b906040908151907faf8083da0000000000000000000000000000000000000000000000000000000082526000926004848482816001600160a01b03809a165afa9384156153df578594615340575b50849293949261521c614d13565b508095876101625416945b8151881015615334578861523b8984614517565b511685519063b3596f0760e01b8252808683015286826024818b5afa91821561532a5785926152f0575b50865180916318160ddd60e01b8252818860209485935afa9081156152e65786916152b3575b50826104c36152ad95936104bb614df3946152a7975190613e19565b97614027565b96615227565b90508181813d83116152df575b6152ca818361358c565b810103126152db57516152a761528b565b8580fd5b503d6152c0565b88513d88823e3d90fd5b909150863d8811615323575b615306818361358c565b81019087818303126152db579061531c91614448565b9038615265565b503d6152fc565b87513d87823e3d90fd5b96505050505050915090565b9093503d8086833e615352818361358c565b8101906020908181840312611dc05780519067ffffffffffffffff821161067657019180601f84011215611dc057825161538b816135ae565b936153988651958661358c565b818552838086019260051b8201019283116153db578301905b8282106153c35750505050923861520e565b81518a811681036149e75781529083019083016153b1565b8880fd5b82513d87823e3d90fdfea26469706673582212209223c083083f15c16114780b3043332aa0b8842fdb167ecd336c937078b6931964736f6c63430008110033",
  "linkReferences": {},
  "deployedLinkReferences": {}
}