{
  "_format": "hh-sol-artifact-1",
  "contractName": "ERC20X",
  "sourceName": "contracts/ERC20X.sol",
  "abi": [
    {
      "inputs": [
        {
          "internalType": "string",
          "name": "name",
          "type": "string"
        },
        {
          "internalType": "string",
          "name": "symbol",
          "type": "string"
        },
        {
          "internalType": "address",
          "name": "_pool",
          "type": "address"
        },
        {
          "internalType": "address",
          "name": "_addressStorage",
          "type": "address"
        }
      ],
      "stateMutability": "nonpayable",
      "type": "constructor"
    },
    {
      "anonymous": false,
      "inputs": [
        {
          "indexed": true,
          "internalType": "address",
          "name": "owner",
          "type": "address"
        },
        {
          "indexed": true,
          "internalType": "address",
          "name": "spender",
          "type": "address"
        },
        {
          "indexed": false,
          "internalType": "uint256",
          "name": "value",
          "type": "uint256"
        }
      ],
      "name": "Approval",
      "type": "event"
    },
    {
      "anonymous": false,
      "inputs": [
        {
          "indexed": true,
          "internalType": "address",
          "name": "from",
          "type": "address"
        },
        {
          "indexed": true,
          "internalType": "address",
          "name": "to",
          "type": "address"
        },
        {
          "indexed": false,
          "internalType": "uint256",
          "name": "value",
          "type": "uint256"
        }
      ],
      "name": "Transfer",
      "type": "event"
    },
    {
      "inputs": [],
      "name": "addressStorage",
      "outputs": [
        {
          "internalType": "contract AddressStorage",
          "name": "",
          "type": "address"
        }
      ],
      "stateMutability": "view",
      "type": "function"
    },
    {
      "inputs": [
        {
          "internalType": "address",
          "name": "owner",
          "type": "address"
        },
        {
          "internalType": "address",
          "name": "spender",
          "type": "address"
        }
      ],
      "name": "allowance",
      "outputs": [
        {
          "internalType": "uint256",
          "name": "",
          "type": "uint256"
        }
      ],
      "stateMutability": "view",
      "type": "function"
    },
    {
      "inputs": [
        {
          "internalType": "address",
          "name": "spender",
          "type": "address"
        },
        {
          "internalType": "uint256",
          "name": "amount",
          "type": "uint256"
        }
      ],
      "name": "approve",
      "outputs": [
        {
          "internalType": "bool",
          "name": "",
          "type": "bool"
        }
      ],
      "stateMutability": "nonpayable",
      "type": "function"
    },
    {
      "inputs": [
        {
          "internalType": "address",
          "name": "account",
          "type": "address"
        }
      ],
      "name": "balanceOf",
      "outputs": [
        {
          "internalType": "uint256",
          "name": "",
          "type": "uint256"
        }
      ],
      "stateMutability": "view",
      "type": "function"
    },
    {
      "inputs": [
        {
          "internalType": "address",
          "name": "account",
          "type": "address"
        },
        {
          "internalType": "uint256",
          "name": "amount",
          "type": "uint256"
        }
      ],
      "name": "burn",
      "outputs": [],
      "stateMutability": "nonpayable",
      "type": "function"
    },
    {
      "inputs": [],
      "name": "decimals",
      "outputs": [
        {
          "internalType": "uint8",
          "name": "",
          "type": "uint8"
        }
      ],
      "stateMutability": "view",
      "type": "function"
    },
    {
      "inputs": [
        {
          "internalType": "address",
          "name": "spender",
          "type": "address"
        },
        {
          "internalType": "uint256",
          "name": "subtractedValue",
          "type": "uint256"
        }
      ],
      "name": "decreaseAllowance",
      "outputs": [
        {
          "internalType": "bool",
          "name": "",
          "type": "bool"
        }
      ],
      "stateMutability": "nonpayable",
      "type": "function"
    },
    {
      "inputs": [
        {
          "internalType": "address",
          "name": "token",
          "type": "address"
        },
        {
          "internalType": "uint256",
          "name": "amount",
          "type": "uint256"
        }
      ],
      "name": "flashFee",
      "outputs": [
        {
          "internalType": "uint256",
          "name": "",
          "type": "uint256"
        }
      ],
      "stateMutability": "view",
      "type": "function"
    },
    {
      "inputs": [
        {
          "internalType": "contract IERC3156FlashBorrower",
          "name": "receiver",
          "type": "address"
        },
        {
          "internalType": "address",
          "name": "token",
          "type": "address"
        },
        {
          "internalType": "uint256",
          "name": "amount",
          "type": "uint256"
        },
        {
          "internalType": "bytes",
          "name": "data",
          "type": "bytes"
        }
      ],
      "name": "flashLoan",
      "outputs": [
        {
          "internalType": "bool",
          "name": "",
          "type": "bool"
        }
      ],
      "stateMutability": "nonpayable",
      "type": "function"
    },
    {
      "inputs": [],
      "name": "flashLoanFee",
      "outputs": [
        {
          "internalType": "uint256",
          "name": "",
          "type": "uint256"
        }
      ],
      "stateMutability": "view",
      "type": "function"
    },
    {
      "inputs": [
        {
          "internalType": "address",
          "name": "spender",
          "type": "address"
        },
        {
          "internalType": "uint256",
          "name": "addedValue",
          "type": "uint256"
        }
      ],
      "name": "increaseAllowance",
      "outputs": [
        {
          "internalType": "bool",
          "name": "",
          "type": "bool"
        }
      ],
      "stateMutability": "nonpayable",
      "type": "function"
    },
    {
      "inputs": [
        {
          "internalType": "address",
          "name": "token",
          "type": "address"
        }
      ],
      "name": "maxFlashLoan",
      "outputs": [
        {
          "internalType": "uint256",
          "name": "",
          "type": "uint256"
        }
      ],
      "stateMutability": "view",
      "type": "function"
    },
    {
      "inputs": [
        {
          "internalType": "address",
          "name": "account",
          "type": "address"
        },
        {
          "internalType": "uint256",
          "name": "amount",
          "type": "uint256"
        }
      ],
      "name": "mint",
      "outputs": [],
      "stateMutability": "nonpayable",
      "type": "function"
    },
    {
      "inputs": [],
      "name": "name",
      "outputs": [
        {
          "internalType": "string",
          "name": "",
          "type": "string"
        }
      ],
      "stateMutability": "view",
      "type": "function"
    },
    {
      "inputs": [],
      "name": "pool",
      "outputs": [
        {
          "internalType": "address",
          "name": "",
          "type": "address"
        }
      ],
      "stateMutability": "view",
      "type": "function"
    },
    {
      "inputs": [],
      "name": "symbol",
      "outputs": [
        {
          "internalType": "string",
          "name": "",
          "type": "string"
        }
      ],
      "stateMutability": "view",
      "type": "function"
    },
    {
      "inputs": [],
      "name": "totalSupply",
      "outputs": [
        {
          "internalType": "uint256",
          "name": "",
          "type": "uint256"
        }
      ],
      "stateMutability": "view",
      "type": "function"
    },
    {
      "inputs": [
        {
          "internalType": "address",
          "name": "to",
          "type": "address"
        },
        {
          "internalType": "uint256",
          "name": "amount",
          "type": "uint256"
        }
      ],
      "name": "transfer",
      "outputs": [
        {
          "internalType": "bool",
          "name": "",
          "type": "bool"
        }
      ],
      "stateMutability": "nonpayable",
      "type": "function"
    },
    {
      "inputs": [
        {
          "internalType": "address",
          "name": "from",
          "type": "address"
        },
        {
          "internalType": "address",
          "name": "to",
          "type": "address"
        },
        {
          "internalType": "uint256",
          "name": "amount",
          "type": "uint256"
        }
      ],
      "name": "transferFrom",
      "outputs": [
        {
          "internalType": "bool",
          "name": "",
          "type": "bool"
        }
      ],
      "stateMutability": "nonpayable",
      "type": "function"
    },
    {
      "inputs": [
        {
          "internalType": "uint256",
          "name": "_flashLoanFee",
          "type": "uint256"
        }
      ],
      "name": "updateFlashFee",
      "outputs": [],
      "stateMutability": "nonpayable",
      "type": "function"
    }
  ],
  "bytecode": "0x6080604052346200036857620016c2803803806200001d816200036d565b9283398101608082820312620003685781516001600160401b0391908281116200036857816200004f91850162000393565b602091828501519084821162000368576200006c91860162000393565b92620000896060620000816040880162000405565b960162000405565b93825182811162000268576003918254916001958684811c941680156200035d575b8885101462000347578190601f94858111620002f1575b5088908583116001146200028a576000926200027e575b505060001982861b1c191690861b1783555b8051938411620002685760049586548681811c911680156200025d575b828210146200024857838111620001fd575b50809285116001146200018f575093839491849260009562000183575b50501b92600019911b1c19161790555b600580546001600160a01b039384166001600160a01b031991821617909155600680549290931691161790556040516112a790816200041b8239f35b01519350388062000137565b92919084601f1981168860005285600020956000905b89838310620001e25750505010620001c7575b50505050811b01905562000147565b01519060f884600019921b161c1916905538808080620001b8565b858701518955909701969485019488935090810190620001a5565b87600052816000208480880160051c8201928489106200023e575b0160051c019087905b828110620002315750506200011a565b6000815501879062000221565b9250819262000218565b602288634e487b7160e01b6000525260246000fd5b90607f169062000108565b634e487b7160e01b600052604160045260246000fd5b015190503880620000d9565b90889350601f19831691876000528a6000209260005b8c828210620002da5750508411620002c1575b505050811b018355620000eb565b015160001983881b60f8161c19169055388080620002b3565b8385015186558c97909501949384019301620002a0565b90915085600052886000208580850160051c8201928b86106200033d575b918a91869594930160051c01915b8281106200032d575050620000c2565b600081558594508a91016200031d565b925081926200030f565b634e487b7160e01b600052602260045260246000fd5b93607f1693620000ab565b600080fd5b6040519190601f01601f191682016001600160401b038111838210176200026857604052565b919080601f84011215620003685782516001600160401b0381116200026857602090620003c9601f8201601f191683016200036d565b92818452828287010111620003685760005b818110620003f157508260009394955001015290565b8581018301518482018401528201620003db565b51906001600160a01b0382168203620003685756fe608060408181526004918236101561001657600080fd5b600092833560e01c91826306fdde0314610a8157508163095ea7b314610a5757816311b6e6b41461094c57816316f0115b1461092457816318160ddd1461090557816323b872dd146108cd578163313ce567146108b1578163395093511461086257816340c10f19146107e55781634847cdc8146107c65781635cffe9de14610477578163612e14881461044f578163613255ab1461042957816370a08231146103f357816395d89b41146102f05781639dc29fac1461026c578163a457c2d7146101ab57508063a9059cbb1461017b578063d9d98ce41461014c5763dd62ed3e1461010157600080fd5b346101485780600319360112610148578060209261011d610bbb565b610125610bd6565b6001600160a01b0391821683526001865283832091168252845220549051908152f35b5080fd5b503461014857806003193601126101485760209061017461016b610bbb565b60243590610f4c565b9051908152f35b50346101485780600319360112610148576020906101a461019a610bbb565b6024359033610c47565b5160018152f35b905082346102695782600319360112610269576101c6610bbb565b91836024359233815260016020528181206001600160a01b0386168252602052205490828210610200576020856101a48585038733610dfb565b608490602086519162461bcd60e51b8352820152602560248201527f45524332303a2064656372656173656420616c6c6f77616e63652062656c6f7760448201527f207a65726f0000000000000000000000000000000000000000000000000000006064820152fd5b80fd5b9050346102ec57816003193601126102ec57610286610bbb565b916001600160a01b036005541633036102a957836102a66024358561106a565b80f35b906020606492519162461bcd60e51b8352820152601260248201527f4f6e6c7920706f6f6c2063616e206275726e00000000000000000000000000006044820152fd5b8280fd5b838334610148578160031936011261014857805191809380549160019083821c928285169485156103e9575b60209586861081146103d6578589529081156103b2575060011461035a575b610356878761034c828c0383610bec565b5191829182610b72565b0390f35b81529295507f8a35acfbc15ff81a39ae7d344fd709f28e8600b4aa8c65c6b64bfe7fe36bd19b5b82841061039f57505050826103569461034c9282010194868061033b565b8054868501880152928601928101610381565b60ff19168887015250505050151560051b830101925061034c82610356868061033b565b602484602285634e487b7160e01b835252fd5b93607f169361031c565b50503461014857602036600319011261014857806020926001600160a01b0361041a610bbb565b16815280845220549051908152f35b5050346101485760203660031901126101485760209061017461044a610bbb565b610f2f565b5050346101485781600319360112610148576020906001600160a01b03600654169051908152f35b9050346102ec5760803660031901126102ec5780356001600160a01b0393848216809203610269576104a7610bd6565b90604435936064359267ffffffffffffffff908185116107c257366023860112156107c257848301359182116107c25760249136838288010111610745576104ee82610f2f565b881161075a57908183928b95946105058b85610f4c565b986105108c8c610fc8565b8c519d8e957f23e30c8b000000000000000000000000000000000000000000000000000000008752338988015216828601528b604486015289606486015260a060848601528260a48601520160c48401378560c482840101528160c460209c8d93601f80199101168101030181888b5af180156107505785906106ff575b7f439148f0bbc682ca079e46d6e2c2f0c1e3b820f1a291b069d8882abf8cf18dd9915003610699577f68fc488efe30251cadb6ac88bdeef3f1a5e6048808baf387258d1d78e986720c89918460065416938a5194859384926321f8a72160e01b84528301525afa92831561068e579261065f575b506106176106108487610c24565b30866111c5565b8215908115610654575b501561063b5750610635906101a493610c24565b9061106a565b909161064a61064f948261106a565b610c47565b6101a4565b905081161538610621565b610680919250873d8911610687575b6106788183610bec565b8101906111a6565b9038610602565b503d61066e565b8751903d90823e3d90fd5b608492508888519262461bcd60e51b8452830152808201527f4552433230466c6173684d696e743a20696e76616c69642072657475726e207660448201527f616c7565000000000000000000000000000000000000000000000000000000006064820152fd5b508981813d8311610749575b6107158183610bec565b81010312610745577f439148f0bbc682ca079e46d6e2c2f0c1e3b820f1a291b069d8882abf8cf18dd9905161058e565b8480fd5b503d61070b565b89513d87823e3d90fd5b608484602b8560208d519362461bcd60e51b85528401528201527f4552433230466c6173684d696e743a20616d6f756e742065786365656473206d60448201527f6178466c6173684c6f616e0000000000000000000000000000000000000000006064820152fd5b8380fd5b5050346101485781600319360112610148576020906007549051908152f35b9050346102ec57816003193601126102ec576107ff610bbb565b916001600160a01b0360055416330361081f57836102a660243585610fc8565b906020606492519162461bcd60e51b8352820152601260248201527f4f6e6c7920706f6f6c2063616e206d696e7400000000000000000000000000006044820152fd5b5050346101485780600319360112610148576101a46020926108aa610885610bbb565b91338152600186528481206001600160a01b0384168252865284602435912054610c24565b9033610dfb565b5050346101485781600319360112610148576020905160128152f35b505034610148576060366003190112610148576020906101a46108ee610bbb565b6108f6610bd6565b6044359161064a8333836111c5565b5050346101485781600319360112610148576020906002549051908152f35b5050346101485781600319360112610148576020906001600160a01b03600554169051908152f35b919050346102ec5760203660031901126102ec576001600160a01b036024602082600654168451928380926321f8a72160e01b82527fdf8b4c520ffe197c5343c6f5aec59570151ef9a492f2c624fd45ddde6135ec42898301525afa908115610a4d578591610a2f575b501633036109c657503560075580f35b906020608492519162461bcd60e51b8352820152602760248201527f4552433230583a204f6e6c792041444d494e2063616e2075706461746520666c60448201527f61736820666565000000000000000000000000000000000000000000000000006064820152fd5b610a47915060203d8111610687576106788183610bec565b386109b6565b83513d87823e3d90fd5b5050346101485780600319360112610148576020906101a4610a77610bbb565b6024359033610dfb565b929150346107c257836003193601126107c257600354600181811c9186908281168015610b68575b6020958686108214610b555750848852908115610b335750600114610ada575b610356868661034c828b0383610bec565b929550600383527fc2575a0e9e593c00f959f8c92f12db2869c3395a3b0502d05e2516446f71f85b5b828410610b2057505050826103569461034c928201019438610ac9565b8054868501880152928601928101610b03565b60ff191687860152505050151560051b830101925061034c8261035638610ac9565b836022602492634e487b7160e01b835252fd5b93607f1693610aa9565b6020808252825181830181905290939260005b828110610ba757505060409293506000838284010152601f8019910116010190565b818101860151848201604001528501610b85565b600435906001600160a01b0382168203610bd157565b600080fd5b602435906001600160a01b0382168203610bd157565b90601f8019910116810190811067ffffffffffffffff821117610c0e57604052565b634e487b7160e01b600052604160045260246000fd5b91908201809211610c3157565b634e487b7160e01b600052601160045260246000fd5b6001600160a01b03809116918215610d915716918215610d2757600082815280602052604081205491808310610cbd57604082827fddf252ad1be2c89b69c2b068fc378daa952ba7f163c4a11628f55a4df523b3ef958760209652828652038282205586815220818154019055604051908152a3565b608460405162461bcd60e51b815260206004820152602660248201527f45524332303a207472616e7366657220616d6f756e742065786365656473206260448201527f616c616e636500000000000000000000000000000000000000000000000000006064820152fd5b608460405162461bcd60e51b815260206004820152602360248201527f45524332303a207472616e7366657220746f20746865207a65726f206164647260448201527f65737300000000000000000000000000000000000000000000000000000000006064820152fd5b608460405162461bcd60e51b815260206004820152602560248201527f45524332303a207472616e736665722066726f6d20746865207a65726f20616460448201527f64726573730000000000000000000000000000000000000000000000000000006064820152fd5b6001600160a01b03809116918215610ec65716918215610e5c5760207f8c5be1e5ebec7d5bd14f71427d1e84f3dd0314c0f7b2291e5b200ac8c7c3b925918360005260018252604060002085600052825280604060002055604051908152a3565b608460405162461bcd60e51b815260206004820152602260248201527f45524332303a20617070726f766520746f20746865207a65726f20616464726560448201527f73730000000000000000000000000000000000000000000000000000000000006064820152fd5b608460405162461bcd60e51b8152602060048201526024808201527f45524332303a20617070726f76652066726f6d20746865207a65726f2061646460448201527f72657373000000000000000000000000000000000000000000000000000000006064820152fd5b6000906001600160a01b03163003610f4957506002541990565b90565b6001600160a01b0330911603610f845760075490818102918183041481151715610c3157670de0b6b3a7640000610f49920490610c24565b606460405162461bcd60e51b815260206004820152601b60248201527f4552433230466c6173684d696e743a2077726f6e6720746f6b656e00000000006044820152fd5b6001600160a01b0316908115611026577fddf252ad1be2c89b69c2b068fc378daa952ba7f163c4a11628f55a4df523b3ef60208261100a600094600254610c24565b60025584845283825260408420818154019055604051908152a3565b606460405162461bcd60e51b815260206004820152601f60248201527f45524332303a206d696e7420746f20746865207a65726f2061646472657373006044820152fd5b6001600160a01b0316801561113c576000918183528260205260408320548181106110d257817fddf252ad1be2c89b69c2b068fc378daa952ba7f163c4a11628f55a4df523b3ef926020928587528684520360408620558060025403600255604051908152a3565b608460405162461bcd60e51b815260206004820152602260248201527f45524332303a206275726e20616d6f756e7420657863656564732062616c616e60448201527f63650000000000000000000000000000000000000000000000000000000000006064820152fd5b608460405162461bcd60e51b815260206004820152602160248201527f45524332303a206275726e2066726f6d20746865207a65726f2061646472657360448201527f73000000000000000000000000000000000000000000000000000000000000006064820152fd5b90816020910312610bd157516001600160a01b0381168103610bd15790565b906001600160a01b0380600554169080831691821461126a578316600052600160205260406000209060005260205260406000205492600019840361120b575b50505050565b8084106112265761121d930391610dfb565b38808080611205565b606460405162461bcd60e51b815260206004820152601d60248201527f45524332303a20696e73756666696369656e7420616c6c6f77616e63650000006044820152fd5b505050505056fea2646970667358221220f92729bbce0b541ae519a92554c562e4f7c4ba86b61478c955fff97532c7918e64736f6c63430008110033",
  "linkReferences": {},
  "deployedLinkReferences": {}
}