{
  "_format": "hh-sol-artifact-1",
  "contractName": "ERC20X",
  "sourceName": "contracts/ERC20X.sol",
  "abi": [
    {
      "inputs": [
        {
          "internalType": "string",
          "name": "name",
          "type": "string"
        },
        {
          "internalType": "string",
          "name": "symbol",
          "type": "string"
        },
        {
          "internalType": "address",
          "name": "_pool",
          "type": "address"
        }
      ],
      "stateMutability": "nonpayable",
      "type": "constructor"
    },
    {
      "anonymous": false,
      "inputs": [
        {
          "indexed": true,
          "internalType": "address",
          "name": "owner",
          "type": "address"
        },
        {
          "indexed": true,
          "internalType": "address",
          "name": "spender",
          "type": "address"
        },
        {
          "indexed": false,
          "internalType": "uint256",
          "name": "value",
          "type": "uint256"
        }
      ],
      "name": "Approval",
      "type": "event"
    },
    {
      "anonymous": false,
      "inputs": [
        {
          "indexed": true,
          "internalType": "address",
          "name": "previousOwner",
          "type": "address"
        },
        {
          "indexed": true,
          "internalType": "address",
          "name": "newOwner",
          "type": "address"
        }
      ],
      "name": "OwnershipTransferred",
      "type": "event"
    },
    {
      "anonymous": false,
      "inputs": [
        {
          "indexed": true,
          "internalType": "address",
          "name": "from",
          "type": "address"
        },
        {
          "indexed": true,
          "internalType": "address",
          "name": "to",
          "type": "address"
        },
        {
          "indexed": false,
          "internalType": "uint256",
          "name": "value",
          "type": "uint256"
        }
      ],
      "name": "Transfer",
      "type": "event"
    },
    {
      "inputs": [
        {
          "internalType": "address",
          "name": "owner",
          "type": "address"
        },
        {
          "internalType": "address",
          "name": "spender",
          "type": "address"
        }
      ],
      "name": "allowance",
      "outputs": [
        {
          "internalType": "uint256",
          "name": "",
          "type": "uint256"
        }
      ],
      "stateMutability": "view",
      "type": "function"
    },
    {
      "inputs": [
        {
          "internalType": "address",
          "name": "spender",
          "type": "address"
        },
        {
          "internalType": "uint256",
          "name": "amount",
          "type": "uint256"
        }
      ],
      "name": "approve",
      "outputs": [
        {
          "internalType": "bool",
          "name": "",
          "type": "bool"
        }
      ],
      "stateMutability": "nonpayable",
      "type": "function"
    },
    {
      "inputs": [
        {
          "internalType": "address",
          "name": "account",
          "type": "address"
        }
      ],
      "name": "balanceOf",
      "outputs": [
        {
          "internalType": "uint256",
          "name": "",
          "type": "uint256"
        }
      ],
      "stateMutability": "view",
      "type": "function"
    },
    {
      "inputs": [
        {
          "internalType": "address",
          "name": "account",
          "type": "address"
        },
        {
          "internalType": "uint256",
          "name": "amount",
          "type": "uint256"
        }
      ],
      "name": "burn",
      "outputs": [],
      "stateMutability": "nonpayable",
      "type": "function"
    },
    {
      "inputs": [],
      "name": "decimals",
      "outputs": [
        {
          "internalType": "uint8",
          "name": "",
          "type": "uint8"
        }
      ],
      "stateMutability": "view",
      "type": "function"
    },
    {
      "inputs": [
        {
          "internalType": "address",
          "name": "spender",
          "type": "address"
        },
        {
          "internalType": "uint256",
          "name": "subtractedValue",
          "type": "uint256"
        }
      ],
      "name": "decreaseAllowance",
      "outputs": [
        {
          "internalType": "bool",
          "name": "",
          "type": "bool"
        }
      ],
      "stateMutability": "nonpayable",
      "type": "function"
    },
    {
      "inputs": [
        {
          "internalType": "address",
          "name": "token",
          "type": "address"
        },
        {
          "internalType": "uint256",
          "name": "amount",
          "type": "uint256"
        }
      ],
      "name": "flashFee",
      "outputs": [
        {
          "internalType": "uint256",
          "name": "",
          "type": "uint256"
        }
      ],
      "stateMutability": "view",
      "type": "function"
    },
    {
      "inputs": [
        {
          "internalType": "contract IERC3156FlashBorrower",
          "name": "receiver",
          "type": "address"
        },
        {
          "internalType": "address",
          "name": "token",
          "type": "address"
        },
        {
          "internalType": "uint256",
          "name": "amount",
          "type": "uint256"
        },
        {
          "internalType": "bytes",
          "name": "data",
          "type": "bytes"
        }
      ],
      "name": "flashLoan",
      "outputs": [
        {
          "internalType": "bool",
          "name": "",
          "type": "bool"
        }
      ],
      "stateMutability": "nonpayable",
      "type": "function"
    },
    {
      "inputs": [
        {
          "internalType": "address",
          "name": "spender",
          "type": "address"
        },
        {
          "internalType": "uint256",
          "name": "addedValue",
          "type": "uint256"
        }
      ],
      "name": "increaseAllowance",
      "outputs": [
        {
          "internalType": "bool",
          "name": "",
          "type": "bool"
        }
      ],
      "stateMutability": "nonpayable",
      "type": "function"
    },
    {
      "inputs": [
        {
          "internalType": "address",
          "name": "token",
          "type": "address"
        }
      ],
      "name": "maxFlashLoan",
      "outputs": [
        {
          "internalType": "uint256",
          "name": "",
          "type": "uint256"
        }
      ],
      "stateMutability": "view",
      "type": "function"
    },
    {
      "inputs": [
        {
          "internalType": "address",
          "name": "account",
          "type": "address"
        },
        {
          "internalType": "uint256",
          "name": "amount",
          "type": "uint256"
        }
      ],
      "name": "mint",
      "outputs": [],
      "stateMutability": "nonpayable",
      "type": "function"
    },
    {
      "inputs": [],
      "name": "name",
      "outputs": [
        {
          "internalType": "string",
          "name": "",
          "type": "string"
        }
      ],
      "stateMutability": "view",
      "type": "function"
    },
    {
      "inputs": [],
      "name": "owner",
      "outputs": [
        {
          "internalType": "address",
          "name": "",
          "type": "address"
        }
      ],
      "stateMutability": "view",
      "type": "function"
    },
    {
      "inputs": [],
      "name": "renounceOwnership",
      "outputs": [],
      "stateMutability": "nonpayable",
      "type": "function"
    },
    {
      "inputs": [],
      "name": "symbol",
      "outputs": [
        {
          "internalType": "string",
          "name": "",
          "type": "string"
        }
      ],
      "stateMutability": "view",
      "type": "function"
    },
    {
      "inputs": [],
      "name": "totalSupply",
      "outputs": [
        {
          "internalType": "uint256",
          "name": "",
          "type": "uint256"
        }
      ],
      "stateMutability": "view",
      "type": "function"
    },
    {
      "inputs": [
        {
          "internalType": "address",
          "name": "to",
          "type": "address"
        },
        {
          "internalType": "uint256",
          "name": "amount",
          "type": "uint256"
        }
      ],
      "name": "transfer",
      "outputs": [
        {
          "internalType": "bool",
          "name": "",
          "type": "bool"
        }
      ],
      "stateMutability": "nonpayable",
      "type": "function"
    },
    {
      "inputs": [
        {
          "internalType": "address",
          "name": "from",
          "type": "address"
        },
        {
          "internalType": "address",
          "name": "to",
          "type": "address"
        },
        {
          "internalType": "uint256",
          "name": "amount",
          "type": "uint256"
        }
      ],
      "name": "transferFrom",
      "outputs": [
        {
          "internalType": "bool",
          "name": "",
          "type": "bool"
        }
      ],
      "stateMutability": "nonpayable",
      "type": "function"
    },
    {
      "inputs": [
        {
          "internalType": "address",
          "name": "newOwner",
          "type": "address"
        }
      ],
      "name": "transferOwnership",
      "outputs": [],
      "stateMutability": "nonpayable",
      "type": "function"
    }
  ],
  "bytecode": "0x6080604052346200034e57620015e7803803806200001d8162000353565b92833981016060828203126200034e5781516001600160401b0391908281116200034e57816200004f91850162000379565b91602091828501518281116200034e576040916200006f91870162000379565b940151926001600160a01b03841684036200034e578051908282116200024e576003918254906001928383811c9316801562000343575b878410146200032d578190601f93848111620002d7575b508790848311600114620002705760009262000264575b505060001982861b1c191690831b1783555b86519384116200024e5760049485548381811c9116801562000243575b828210146200022e57828111620001e3575b50809185116001146200017357508392918391620001579860009562000167575b50501b92600019911b1c19161790555b6200015133620003eb565b620003eb565b6040516111b29081620004358239f35b01519350388062000136565b91939290601f198416978660005283600020936000905b8a8210620001cb57505084620001579910620001b0575b50505050811b01905562000146565b01519060f884600019921b161c1916905538808080620001a1565b8088859782949686015181550196019301906200018a565b86600052816000208380880160051c82019284891062000224575b0160051c019084905b8281106200021757505062000115565b6000815501849062000207565b92508192620001fe565b602287634e487b7160e01b6000525260246000fd5b90607f169062000103565b634e487b7160e01b600052604160045260246000fd5b015190503880620000d4565b90859350601f1983169187600052896000209260005b8b828210620002c05750508411620002a7575b505050811b018355620000e6565b015160001983881b60f8161c1916905538808062000299565b838501518655899790950194938401930162000286565b90915085600052876000208480850160051c8201928a861062000323575b918791869594930160051c01915b82811062000313575050620000bd565b6000815585945087910162000303565b92508192620002f5565b634e487b7160e01b600052602260045260246000fd5b92607f1692620000a6565b600080fd5b6040519190601f01601f191682016001600160401b038111838210176200024e57604052565b919080601f840112156200034e5782516001600160401b0381116200024e57602090620003af601f8201601f1916830162000353565b928184528282870101116200034e5760005b818110620003d757508260009394955001015290565b8581018301518482018401528201620003c1565b600580546001600160a01b039283166001600160a01b0319821681179092559091167f8be0079c531659141344cd1fd0a4f28419497f9722a3daafe3b4186f6b6457e0600080a356fe6080604081815260048036101561001557600080fd5b600092833560e01c90816306fdde031461094e57508063095ea7b31461092457806318160ddd1461090557806323b872dd146108cd578063313ce567146108b1578063395093511461086257806340c10f19146108355780635cffe9de1461056d578063613255ab1461054757806370a0823114610511578063715018a6146104a95780638da5cb5b1461048157806395d89b411461037d5780639dc29fac1461034d578063a457c2d71461028d578063a9059cbb1461025c578063d9d98ce41461022c578063dd62ed3e146101df5763f2fde38b146100f457600080fd5b346101db5760203660031901126101db5761010d610a8d565b90610116610abe565b6001600160a01b038092169283156101725750506005548273ffffffffffffffffffffffffffffffffffffffff19821617600555167f8be0079c531659141344cd1fd0a4f28419497f9722a3daafe3b4186f6b6457e08380a380f35b906020608492519162461bcd60e51b8352820152602660248201527f4f776e61626c653a206e6577206f776e657220697320746865207a65726f206160448201527f64647265737300000000000000000000000000000000000000000000000000006064820152fd5b8280fd5b505034610228578060031936011261022857806020926101fd610a8d565b610205610aa8565b6001600160a01b0391821683526001865283832091168252845220549051908152f35b5080fd5b50503461022857806003193601126102285760209061025561024c610a8d565b60243590610e76565b9051908152f35b50503461022857806003193601126102285760209061028661027c610a8d565b6024359033610b71565b5160018152f35b50823461034a578260031936011261034a576102a7610a8d565b91836024359233815260016020528181206001600160a01b03861682526020522054908282106102e1576020856102868585038733610d25565b608490602086519162461bcd60e51b8352820152602560248201527f45524332303a2064656372656173656420616c6c6f77616e63652062656c6f7760448201527f207a65726f0000000000000000000000000000000000000000000000000000006064820152fd5b80fd5b5050346102285736600319011261034a5761037a610369610a8d565b610371610abe565b60243590610f94565b80f35b50919034610228578160031936011261022857805191809380549160019083821c92828516948515610477575b60209586861081146104645785895290811561044057506001146103e8575b6103e487876103da828c0383610b16565b5191829182610a44565b0390f35b81529295507f8a35acfbc15ff81a39ae7d344fd709f28e8600b4aa8c65c6b64bfe7fe36bd19b5b82841061042d57505050826103e4946103da928201019438806103c9565b805486850188015292860192810161040f565b60ff19168887015250505050151560051b83010192506103da826103e438806103c9565b602484602285634e487b7160e01b835252fd5b93607f16936103aa565b5050346102285781600319360112610228576020906001600160a01b03600554169051908152f35b833461034a578060031936011261034a576104c2610abe565b806001600160a01b0360055473ffffffffffffffffffffffffffffffffffffffff198116600555167f8be0079c531659141344cd1fd0a4f28419497f9722a3daafe3b4186f6b6457e08280a380f35b50503461022857602036600319011261022857806020926001600160a01b03610538610a8d565b16815280845220549051908152f35b50503461022857602036600319011261022857602090610255610568610a8d565b610e59565b50913461034a57608036600319011261034a5782356001600160a01b03938482168092036101db5761059d610aa8565b90604435936064359267ffffffffffffffff9182851161034a573660238601121561034a578484013592831161034a5760249236848288010111610228576105e483610e59565b88116107cd5790818392856105fc8b8e999897610e76565b986106078c8c610ef2565b8c519d8e967f23e30c8b000000000000000000000000000000000000000000000000000000008852338a89015216828701528b604487015289606487015260a060848701528260a48701520160c48501378160c482850101528260c460209c8d93601f80199101168101030181848b5af19081156107c2578091610772575b507f439148f0bbc682ca079e46d6e2c2f0c1e3b820f1a291b069d8882abf8cf18dd991500361070c575050600554166106c96106c28386610b4e565b30856110d0565b81158015610704575b156106eb57506106e59061028693610b4e565b90610f94565b90916106fa6106ff9482610f94565b610b71565b610286565b5080156106d2565b608492508787519262461bcd60e51b8452830152808201527f4552433230466c6173684d696e743a20696e76616c69642072657475726e207660448201527f616c7565000000000000000000000000000000000000000000000000000000006064820152fd5b90508982813d83116107bb575b6107898183610b16565b8101031261034a57507f439148f0bbc682ca079e46d6e2c2f0c1e3b820f1a291b069d8882abf8cf18dd9905138610686565b503d61077f565b8951903d90823e3d90fd5b608485602b8660208d519362461bcd60e51b85528401528201527f4552433230466c6173684d696e743a20616d6f756e742065786365656473206d60448201527f6178466c6173684c6f616e0000000000000000000000000000000000000000006064820152fd5b5050346102285736600319011261034a5761037a610851610a8d565b610859610abe565b60243590610ef2565b5050346102285780600319360112610228576102866020926108aa610885610a8d565b91338152600186528481206001600160a01b0384168252865284602435912054610b4e565b9033610d25565b5050346102285781600319360112610228576020905160128152f35b505034610228576060366003190112610228576020906102866108ee610a8d565b6108f6610aa8565b604435916106fa8333836110d0565b5050346102285781600319360112610228576020906002549051908152f35b505034610228578060031936011261022857602090610286610944610a8d565b6024359033610d25565b9291905034610a405783600319360112610a4057600354600181811c9186908281168015610a36575b6020958686108214610a235750848852908115610a0157506001146109a8575b6103e486866103da828b0383610b16565b929550600383527fc2575a0e9e593c00f959f8c92f12db2869c3395a3b0502d05e2516446f71f85b5b8284106109ee57505050826103e4946103da928201019438610997565b80548685018801529286019281016109d1565b60ff191687860152505050151560051b83010192506103da826103e438610997565b836022602492634e487b7160e01b835252fd5b93607f1693610977565b8380fd5b6020808252825181830181905290939260005b828110610a7957505060409293506000838284010152601f8019910116010190565b818101860151848201604001528501610a57565b600435906001600160a01b0382168203610aa357565b600080fd5b602435906001600160a01b0382168203610aa357565b6001600160a01b03600554163303610ad257565b606460405162461bcd60e51b815260206004820152602060248201527f4f776e61626c653a2063616c6c6572206973206e6f7420746865206f776e65726044820152fd5b90601f8019910116810190811067ffffffffffffffff821117610b3857604052565b634e487b7160e01b600052604160045260246000fd5b91908201809211610b5b57565b634e487b7160e01b600052601160045260246000fd5b6001600160a01b03809116918215610cbb5716918215610c5157600082815280602052604081205491808310610be757604082827fddf252ad1be2c89b69c2b068fc378daa952ba7f163c4a11628f55a4df523b3ef958760209652828652038282205586815220818154019055604051908152a3565b608460405162461bcd60e51b815260206004820152602660248201527f45524332303a207472616e7366657220616d6f756e742065786365656473206260448201527f616c616e636500000000000000000000000000000000000000000000000000006064820152fd5b608460405162461bcd60e51b815260206004820152602360248201527f45524332303a207472616e7366657220746f20746865207a65726f206164647260448201527f65737300000000000000000000000000000000000000000000000000000000006064820152fd5b608460405162461bcd60e51b815260206004820152602560248201527f45524332303a207472616e736665722066726f6d20746865207a65726f20616460448201527f64726573730000000000000000000000000000000000000000000000000000006064820152fd5b6001600160a01b03809116918215610df05716918215610d865760207f8c5be1e5ebec7d5bd14f71427d1e84f3dd0314c0f7b2291e5b200ac8c7c3b925918360005260018252604060002085600052825280604060002055604051908152a3565b608460405162461bcd60e51b815260206004820152602260248201527f45524332303a20617070726f766520746f20746865207a65726f20616464726560448201527f73730000000000000000000000000000000000000000000000000000000000006064820152fd5b608460405162461bcd60e51b8152602060048201526024808201527f45524332303a20617070726f76652066726f6d20746865207a65726f2061646460448201527f72657373000000000000000000000000000000000000000000000000000000006064820152fd5b6000906001600160a01b03163003610e7357506002541990565b90565b6001600160a01b0330911603610eae57670e043da61725000090818102918183041490151715610b5b57670de0b6b3a7640000900490565b606460405162461bcd60e51b815260206004820152601b60248201527f4552433230466c6173684d696e743a2077726f6e6720746f6b656e00000000006044820152fd5b6001600160a01b0316908115610f50577fddf252ad1be2c89b69c2b068fc378daa952ba7f163c4a11628f55a4df523b3ef602082610f34600094600254610b4e565b60025584845283825260408420818154019055604051908152a3565b606460405162461bcd60e51b815260206004820152601f60248201527f45524332303a206d696e7420746f20746865207a65726f2061646472657373006044820152fd5b6001600160a01b0316801561106657600091818352826020526040832054818110610ffc57817fddf252ad1be2c89b69c2b068fc378daa952ba7f163c4a11628f55a4df523b3ef926020928587528684520360408620558060025403600255604051908152a3565b608460405162461bcd60e51b815260206004820152602260248201527f45524332303a206275726e20616d6f756e7420657863656564732062616c616e60448201527f63650000000000000000000000000000000000000000000000000000000000006064820152fd5b608460405162461bcd60e51b815260206004820152602160248201527f45524332303a206275726e2066726f6d20746865207a65726f2061646472657360448201527f73000000000000000000000000000000000000000000000000000000000000006064820152fd5b906001600160a01b038060055416908083169182146111755783166000526001602052604060002090600052602052604060002054926000198403611116575b50505050565b80841061113157611128930391610d25565b38808080611110565b606460405162461bcd60e51b815260206004820152601d60248201527f45524332303a20696e73756666696369656e7420616c6c6f77616e63650000006044820152fd5b505050505056fea2646970667358221220acd92794b5d5bad7846c2e081b0fe231567d3499216e421c8dcb7d6578063def64736f6c63430008110033",
  "linkReferences": {},
  "deployedLinkReferences": {}
}