{
  "_format": "hh-sol-artifact-1",
  "contractName": "PriceOracle",
  "sourceName": "contracts/PriceOracle.sol",
  "abi": [
    {
      "anonymous": false,
      "inputs": [
        {
          "indexed": true,
          "internalType": "address",
          "name": "token",
          "type": "address"
        },
        {
          "indexed": true,
          "internalType": "address",
          "name": "feed",
          "type": "address"
        }
      ],
      "name": "FeedUpdated",
      "type": "event"
    },
    {
      "anonymous": false,
      "inputs": [
        {
          "indexed": true,
          "internalType": "address",
          "name": "previousOwner",
          "type": "address"
        },
        {
          "indexed": true,
          "internalType": "address",
          "name": "newOwner",
          "type": "address"
        }
      ],
      "name": "OwnershipTransferred",
      "type": "event"
    },
    {
      "inputs": [
        {
          "internalType": "address",
          "name": "",
          "type": "address"
        }
      ],
      "name": "feeds",
      "outputs": [
        {
          "internalType": "contract IChainlinkAggregator",
          "name": "",
          "type": "address"
        }
      ],
      "stateMutability": "view",
      "type": "function"
    },
    {
      "inputs": [
        {
          "internalType": "address",
          "name": "_asset",
          "type": "address"
        }
      ],
      "name": "getAssetPrice",
      "outputs": [
        {
          "components": [
            {
              "internalType": "uint256",
              "name": "price",
              "type": "uint256"
            },
            {
              "internalType": "uint256",
              "name": "decimals",
              "type": "uint256"
            }
          ],
          "internalType": "struct IPriceOracle.Price",
          "name": "",
          "type": "tuple"
        }
      ],
      "stateMutability": "view",
      "type": "function"
    },
    {
      "inputs": [
        {
          "internalType": "address[]",
          "name": "_assets",
          "type": "address[]"
        }
      ],
      "name": "getAssetPrices",
      "outputs": [
        {
          "components": [
            {
              "internalType": "uint256",
              "name": "price",
              "type": "uint256"
            },
            {
              "internalType": "uint256",
              "name": "decimals",
              "type": "uint256"
            }
          ],
          "internalType": "struct IPriceOracle.Price[]",
          "name": "",
          "type": "tuple[]"
        }
      ],
      "stateMutability": "view",
      "type": "function"
    },
    {
      "inputs": [
        {
          "internalType": "address",
          "name": "_token",
          "type": "address"
        }
      ],
      "name": "getFeed",
      "outputs": [
        {
          "internalType": "address",
          "name": "",
          "type": "address"
        }
      ],
      "stateMutability": "view",
      "type": "function"
    },
    {
      "inputs": [],
      "name": "owner",
      "outputs": [
        {
          "internalType": "address",
          "name": "",
          "type": "address"
        }
      ],
      "stateMutability": "view",
      "type": "function"
    },
    {
      "inputs": [],
      "name": "renounceOwnership",
      "outputs": [],
      "stateMutability": "nonpayable",
      "type": "function"
    },
    {
      "inputs": [
        {
          "internalType": "address",
          "name": "_token",
          "type": "address"
        },
        {
          "internalType": "address",
          "name": "_feed",
          "type": "address"
        }
      ],
      "name": "setFeed",
      "outputs": [],
      "stateMutability": "nonpayable",
      "type": "function"
    },
    {
      "inputs": [
        {
          "internalType": "address",
          "name": "newOwner",
          "type": "address"
        }
      ],
      "name": "transferOwnership",
      "outputs": [],
      "stateMutability": "nonpayable",
      "type": "function"
    }
  ],
  "bytecode": "0x6080806040523461005b5760008054336001600160a01b0319821681178355916001600160a01b03909116907f8be0079c531659141344cd1fd0a4f28419497f9722a3daafe3b4186f6b6457e09080a361082690816100618239f35b600080fdfe6040608081526004908136101561001557600080fd5b600091823560e01c8063053c81b5146103d257806316b8e731146103985780632fba4aa91461039857806340b1eb101461022b578063715018a6146101c55780638da5cb5b1461019b578063b3596f07146101625763f2fde38b1461007957600080fd5b3461015e57602036600319011261015e576100926105b4565b9061009b6105cf565b6001600160a01b038092169283156100f557505082548273ffffffffffffffffffffffffffffffffffffffff198216178455167f8be0079c531659141344cd1fd0a4f28419497f9722a3daafe3b4186f6b6457e08380a380f35b906020608492519162461bcd60e51b8352820152602660248201527f4f776e61626c653a206e6577206f776e657220697320746865207a65726f206160448201527f64647265737300000000000000000000000000000000000000000000000000006064820152fd5b8280fd5b82843461019857602036600319011261019857506101866101816105b4565b6106b5565b60208251918051835201516020820152f35b80fd5b5050346101c157816003193601126101c1576001600160a01b0360209254169051908152f35b5080fd5b83346101985780600319360112610198576101de6105cf565b806001600160a01b03815473ffffffffffffffffffffffffffffffffffffffff1981168355167f8be0079c531659141344cd1fd0a4f28419497f9722a3daafe3b4186f6b6457e08280a380f35b50903461015e578060031936011261015e576102456105b4565b602435926001600160a01b03918285168095036103945782906102666105cf565b1692838652602092600184528187208673ffffffffffffffffffffffffffffffffffffffff198254161790558683858385842054168551928380926350d25bcd60e01b82525afa90811561038a5790829187949391610357575b50906102cc9113610627565b85885260018252828820541682519384809263313ce56760e01b82525afa90811561034e5750610320575b50507f20b52803553f0b8c676a87da67f3e7302e54150ae46c988eee590f11ac5ebc9b8380a380f35b8161033f92903d10610347575b6103378183610564565b810190610672565b5038806102f7565b503d61032d565b513d87823e3d90fd5b8481939592503d8311610383575b61036f8183610564565b8101031261015e57518592906102cc6102c0565b503d610365565b84513d84823e3d90fd5b8580fd5b5050346101c15760203660031901126101c157602091816001600160a01b0391826103c16105b4565b168152600185522054169051908152f35b50823461019857602091826003193601126101c15780359367ffffffffffffffff851161015e573660238601121561015e5784820135946104128661059c565b9061041f83519283610564565b8682528582016024809860051b83010191368311610560578801905b82821061053d575050508051916104518361059c565b9261045e82519485610564565b80845261046d601f199161059c565b0186865b82811061052757505050845b82518110156104db576104a26001600160a01b0361049b83866107c6565b51166106b5565b6104ac82866107c6565b526104b781856107c6565b5060001981146104c95760010161047d565b8786601187634e487b7160e01b835252fd5b81518781528451818901819052819081850190878b01908b8b885b8382106105035786860387f35b845180518752830151868401528796509485019493820193600191909101906104f6565b61052f61068b565b828288010152018790610471565b81356001600160a01b038116810361055c57815290870190870161043b565b8780fd5b8680fd5b90601f8019910116810190811067ffffffffffffffff82111761058657604052565b634e487b7160e01b600052604160045260246000fd5b67ffffffffffffffff81116105865760051b60200190565b600435906001600160a01b03821682036105ca57565b600080fd5b6001600160a01b036000541633036105e357565b606460405162461bcd60e51b815260206004820152602060248201527f4f776e61626c653a2063616c6c6572206973206e6f7420746865206f776e65726044820152fd5b1561062e57565b606460405162461bcd60e51b815260206004820152601a60248201527f50726963654f7261636c653a205072696365206973203c3d20300000000000006044820152fd5b908160209103126105ca575160ff811681036105ca5790565b604051906040820182811067ffffffffffffffff8211176105865760405260006020838281520152565b906106be61068b565b506001600160a01b038060009316835260206001815260409182852054168251906350d25bcd60e01b82528282600481845afa90811561078c5783908792610796575b6004935085519384809263313ce56760e01b82525afa91821561078c57869261076d575b50610731868213610627565b8351938085019085821067ffffffffffffffff8311176107595752835260ff16908201529150565b602488634e487b7160e01b81526041600452fd5b610785919250833d8511610347576103378183610564565b9038610725565b84513d88823e3d90fd5b915082813d83116107bf575b6107ac8183610564565b8101031261039457826004925191610701565b503d6107a2565b80518210156107da5760209160051b010190565b634e487b7160e01b600052603260045260246000fdfea264697066735822122091c08e478010d4baa2ed63b9eb5767ab5f34e9453c7be298fd28f0fe3835234d64736f6c63430008110033",
  "linkReferences": {},
  "deployedLinkReferences": {}
}