{
  "_format": "hh-sol-artifact-1",
  "contractName": "PriceOracle",
  "sourceName": "contracts/PriceOracle.sol",
  "abi": [
    {
      "anonymous": false,
      "inputs": [
        {
          "indexed": true,
          "internalType": "address",
          "name": "token",
          "type": "address"
        },
        {
          "indexed": true,
          "internalType": "address",
          "name": "feed",
          "type": "address"
        }
      ],
      "name": "FeedUpdated",
      "type": "event"
    },
    {
      "anonymous": false,
      "inputs": [
        {
          "indexed": true,
          "internalType": "address",
          "name": "previousOwner",
          "type": "address"
        },
        {
          "indexed": true,
          "internalType": "address",
          "name": "newOwner",
          "type": "address"
        }
      ],
      "name": "OwnershipTransferred",
      "type": "event"
    },
    {
      "inputs": [
        {
          "internalType": "address",
          "name": "",
          "type": "address"
        }
      ],
      "name": "feeds",
      "outputs": [
        {
          "internalType": "contract IChainlinkAggregator",
          "name": "",
          "type": "address"
        }
      ],
      "stateMutability": "view",
      "type": "function"
    },
    {
      "inputs": [
        {
          "internalType": "address",
          "name": "_asset",
          "type": "address"
        }
      ],
      "name": "getAssetPrice",
      "outputs": [
        {
          "components": [
            {
              "internalType": "uint256",
              "name": "price",
              "type": "uint256"
            },
            {
              "internalType": "uint256",
              "name": "decimals",
              "type": "uint256"
            }
          ],
          "internalType": "struct IPriceOracle.Price",
          "name": "",
          "type": "tuple"
        }
      ],
      "stateMutability": "view",
      "type": "function"
    },
    {
      "inputs": [
        {
          "internalType": "address[]",
          "name": "_assets",
          "type": "address[]"
        }
      ],
      "name": "getAssetPrices",
      "outputs": [
        {
          "components": [
            {
              "internalType": "uint256",
              "name": "price",
              "type": "uint256"
            },
            {
              "internalType": "uint256",
              "name": "decimals",
              "type": "uint256"
            }
          ],
          "internalType": "struct IPriceOracle.Price[]",
          "name": "",
          "type": "tuple[]"
        }
      ],
      "stateMutability": "view",
      "type": "function"
    },
    {
      "inputs": [
        {
          "internalType": "address",
          "name": "_token",
          "type": "address"
        }
      ],
      "name": "getFeed",
      "outputs": [
        {
          "internalType": "address",
          "name": "",
          "type": "address"
        }
      ],
      "stateMutability": "view",
      "type": "function"
    },
    {
      "inputs": [],
      "name": "owner",
      "outputs": [
        {
          "internalType": "address",
          "name": "",
          "type": "address"
        }
      ],
      "stateMutability": "view",
      "type": "function"
    },
    {
      "inputs": [],
      "name": "renounceOwnership",
      "outputs": [],
      "stateMutability": "nonpayable",
      "type": "function"
    },
    {
      "inputs": [
        {
          "internalType": "address",
          "name": "_token",
          "type": "address"
        },
        {
          "internalType": "address",
          "name": "_feed",
          "type": "address"
        }
      ],
      "name": "setFeed",
      "outputs": [],
      "stateMutability": "nonpayable",
      "type": "function"
    },
    {
      "inputs": [
        {
          "internalType": "address",
          "name": "newOwner",
          "type": "address"
        }
      ],
      "name": "transferOwnership",
      "outputs": [],
      "stateMutability": "nonpayable",
      "type": "function"
    }
  ],
  "bytecode": "0x6080806040523461005b5760008054336001600160a01b0319821681178355916001600160a01b03909116907f8be0079c531659141344cd1fd0a4f28419497f9722a3daafe3b4186f6b6457e09080a361077390816100618239f35b600080fdfe6040608081526004908136101561001557600080fd5b600091823560e01c8063053c81b5146102f357806316b8e731146102b95780632fba4aa9146102b957806340b1eb101461022b578063715018a6146101c55780638da5cb5b1461019b578063b3596f07146101625763f2fde38b1461007957600080fd5b3461015e57602036600319011261015e576100926104d5565b9061009b6104f0565b6001600160a01b038092169283156100f557505082548273ffffffffffffffffffffffffffffffffffffffff198216178455167f8be0079c531659141344cd1fd0a4f28419497f9722a3daafe3b4186f6b6457e08380a380f35b906020608492519162461bcd60e51b8352820152602660248201527f4f776e61626c653a206e6577206f776e657220697320746865207a65726f206160448201527f64647265737300000000000000000000000000000000000000000000000000006064820152fd5b8280fd5b82843461019857602036600319011261019857506101866101816104d5565b610572565b60208251918051835201516020820152f35b80fd5b5050346101c157816003193601126101c1576001600160a01b0360209254169051908152f35b5080fd5b83346101985780600319360112610198576101de6104f0565b806001600160a01b03815473ffffffffffffffffffffffffffffffffffffffff1981168355167f8be0079c531659141344cd1fd0a4f28419497f9722a3daafe3b4186f6b6457e08280a380f35b5050346101c157806003193601126101c1576102456104d5565b90602435916001600160a01b03908184168094036102b5576102656104f0565b1690818452600160205283208273ffffffffffffffffffffffffffffffffffffffff198254161790557f20b52803553f0b8c676a87da67f3e7302e54150ae46c988eee590f11ac5ebc9b8380a380f35b8480fd5b5050346101c15760203660031901126101c157602091816001600160a01b0391826102e26104d5565b168152600185522054169051908152f35b50823461019857602091826003193601126101c15780359367ffffffffffffffff851161015e573660238601121561015e578482013594610333866104bd565b9061034083519283610485565b8682528582016024809860051b83010191368311610481578801905b82821061045e57505050805191610372836104bd565b9261037f82519485610485565b80845261038e601f19916104bd565b0186865b82811061044857505050845b82518110156103fc576103c36001600160a01b036103bc8386610713565b5116610572565b6103cd8286610713565b526103d88185610713565b5060001981146103ea5760010161039e565b8786601187634e487b7160e01b835252fd5b81518781528451818901819052819081850190878b01908b8b885b8382106104245786860387f35b84518051875283015186840152879650948501949382019360019190910190610417565b610450610548565b828288010152018790610392565b81356001600160a01b038116810361047d57815290870190870161035c565b8780fd5b8680fd5b90601f8019910116810190811067ffffffffffffffff8211176104a757604052565b634e487b7160e01b600052604160045260246000fd5b67ffffffffffffffff81116104a75760051b60200190565b600435906001600160a01b03821682036104eb57565b600080fd5b6001600160a01b0360005416330361050457565b606460405162461bcd60e51b815260206004820152602060248201527f4f776e61626c653a2063616c6c6572206973206e6f7420746865206f776e65726044820152fd5b604051906040820182811067ffffffffffffffff8211176104a75760405260006020838281520152565b9061057b610548565b506001600160a01b038060009316835260206001815260409182852054168251907f50d25bcd0000000000000000000000000000000000000000000000000000000082528282600481845afa9081156106d957839087926106e3575b600493508551938480927f313ce5670000000000000000000000000000000000000000000000000000000082525afa9182156106d957869261069c575b5085811315610659578351938085019085821067ffffffffffffffff8311176106455752835260ff16908201529150565b602488634e487b7160e01b81526041600452fd5b60648385519062461bcd60e51b82526004820152601a60248201527f50726963654f7261636c653a205072696365206973203c3d20300000000000006044820152fd5b9091508281813d83116106d2575b6106b48183610485565b810103126106ce575160ff811681036106ce579038610614565b8580fd5b503d6106aa565b84513d88823e3d90fd5b915082813d831161070c575b6106f98183610485565b810103126106ce578260049251916105d7565b503d6106ef565b80518210156107275760209160051b010190565b634e487b7160e01b600052603260045260246000fdfea2646970667358221220bd62d8508a685bdd4a57e769cb9905b87c8e0d8f148aeebb02fc186fcd84ec2364736f6c63430008110033",
  "linkReferences": {},
  "deployedLinkReferences": {}
}